{
  "contractName": "CartesiMath",
  "sourceName": "contracts/CartesiMath.sol",
  "abi": [
    {
      "inputs": [],
      "stateMutability": "nonpayable",
      "type": "constructor"
    },
    {
      "inputs": [
        {
          "internalType": "uint256",
          "name": "_num",
          "type": "uint256"
        }
      ],
      "name": "log2ApproxTimes1M",
      "outputs": [
        {
          "internalType": "uint256",
          "name": "",
          "type": "uint256"
        }
      ],
      "stateMutability": "view",
      "type": "function"
    }
  ],
  "bytecode": "0x608060405234801561001057600080fd5b50600060208190527fada5013122d395ba3c54772283fb069b10426056ef8ca54750cb9bb552a59e7d819055620f42407fabbb5caa7dda850e60932de0934eb1f9d0f59695050f761dc64e443e5030a5695562182f427f101e368776582e57ab3d116ffe2517c0a585cd5b23174b01e275c2d8329c3d8355621e84807f52d75039926638d3c558b2bdefb945d5be8dae29dedd1c313212a4d472d9fde55562236e087f2b232c97452f0950c94e2539fdc7e69d21166113cf7a9bcb99b220a3fe5d720a55622771827f62103cf3131c85df57aad364d21cba02556d3092d6cb54c298c2e7726a7870bd55622ad63a7f870253054e3d98b71abec8fff9ebf8a15d167f15909091a800d4acaab9266d2b55622dc6c07f5b8b9143058ba3a137192c563ca6541845e62f0a2f9a667aac4db2fa3c334e3c5562305e857f324fdf7bfe7bd2828491073f0b7868a9a19ee3eff384c2805040be3e426447f5556232b0487f3e9abaca0aad9ede81f4474766c846d8539f70688e1c8f521bbe1597874e3dc4556234c9677f9115655cbcdb654012cf1b2f7e5dbf11c9ef14e152a19d5f8ea75a329092d5a6556236b3c27fd0a75bf7ea87fba36ff8a17b4519c45fb727609e6c9161b106680b25b3e2705f55623876d77f7ca5987043ac53676c6e30f77ff1a34e98a5fae86b27e5d0cf74ac1711b8a8db55623a187a7fe9bc119772df33ac6a685b572c53e6a4988bbdde79a460a23bed029791109f3955623b9d4a7f7536f03fc5db63ca945db399fd3b92bff9b5879a5c0d7d84d2973ef5c841ea0655623d09007f020abee21eef15c21bc31a406c2b8ac3afc5df94a4b02b38abb286f4334e6c5b55623e5ea67fa29f2962b8badecbf4d3036e28fcd7dcf22db126f130193790f7698ee4d3dd8455623fa0c57f1cb7ce0668e72b96f704af9e1445a9dc6f6ac599eec355bfcfe4d3befbb001be556240d1777f50a82f9cbcdfaca82fe46b4a494d325ee6dc33d1fa55b218ab142e6cc2c8a58b556241f2887f9998fe8c12a1a1395171fc2449145bb1f0c273bfc80ab4ea62eb7a9cb439450c556243057d7f52774d722ab93275a0199da6072cca5400bf7f03bf064dd4a2b1af238c418d495562440ba77fb44b86596a635358e7aa60b17d32860c3f1efe2d3e53fb82c0bb23213b9c4be355624506297fdc275f13e83bcad5305f77e8f2f06c8d9840ee8b7d606ee958f86f59784b2de3556245f6027f1da244b7f8b81d82e17fde46fbf307da20557945243b38ef4c87c9487b59901b556246dc107fb0bad370a213ac7dcb3dfe3423b8d60077054da2a57d974f5e9768ef98fd60b6556247b9177fed3d8ee28c5f40179e0b53bf87b486c0b1a6ccfb36f03b3c762c723793e066315562488dc77f15129b35860f89ea2ac5b4ba3d68417e9ec4bae78e7eab8959d5f8f3ad42ee795562495aba7ff548adfdedfd2f8b2416994318306c690dadb026395430e32e9a141187933c8655624a207c7fb84e4298f3a6292774b798b43a202ce92291460f19fe80ed2d2d7e8e4674dcba55624adf8a7f24d30d6da666a4009a2a398534c9f4ad83932433c3c6d78b8e8d1c3efb30a9bc55624b98547fcdbf706faff1444e72b0106ae4486b0256043747c99858ded580d001655540f555624c4b407f569e75fc77c1a856f6daaf9e69d8a9566ca34aa47f9133711ce065a571af0cfd55624cf8aa7f20b8703968a1421b7417fbc8615cbe909dc21c5d6ab0d6fd4579bae332adc93755624da0e67f660960054c44c4d83c420af65c54e6f3437517cffaa9996495231fee01bdba4155624e44437f2a400e8b310fbd326e4c5c4aed5c8212a6b2bd98d80dbef0077b1b2ee20907d455624ee3057ffaaf1897615a4d5824a81780f33dd422a304cae5e7b14f0f9215d1a3deeea9e255624f7d6d7fd554518f31b5833712aff068198f0745641f5708162a7286bfaa31c5f461f1ba55625013b77fd54e89dee95b843939c00dce8c49063df67efe61a3c8ec818ccaee72d7b7f5a3556250a61a7fd6866844f1a8c30f9968e80fa46697288da4b41c675b67a51469639e5afc243555625134c87f5bbfe49fc46bd3c0efd63509af9eb2a12636d52d97f4d1cf52bf53227ef389c2556251bff07f49bfe3c65dd9f3794050d39474bec15417a1630abed1727c133877e89823c14f55625247bd7f64d962e4eec2a0d2e4053fc69d3b480f61c5923c09e4bad52cdeec343ff95073556252cc587fe7cae067b01565dd4b0755dfbf1d7c22c5312c3cf1fbed6e1243374844e8ea875562534de77f2bfb33747d039531bb279f93c386332ae05e0c10b395017fd2d93fe9fc4c6e23556253cc8d7f1c0457050ca41a86014d854f2d228a8ef35463cc39136c54a5e4f4078eeef5c155625448697f775c7d9143a499372f77b03579dcbb57f9394ad88b4be4180d4b72ba058cd69d556254c19c7f706825d676d3ce2a83ed578770284ddbf9eabdba0c4e14bba165c41389b73c5655625538427f28c3dd0e618e8bddf8cf30cd1a2e788f719d9c1f097596a24acbe0c7cb1e05c6556255ac757fa20a1f31e7e0c47a407717c0b73e822e9ce414e0fc1925c4df69c43f77ac765e5562561e507f9e91c95f108ead30341468db9696e39ed81de6a68bc8c6702bcb66393fce6e755562568de97f3884095ca26754c19839d1d65ed3564b4558896672ae6763c55fd1245d56ef7b556256fb577f34c816dab9c312a23fa45b66dbf9c10a2294a4455b7a50973d5e33fd47c39f4a55625766b07f0de8d66b2bd125dbab6c2314a8cd08ca7e2ac381b265aefa7ce27c5d9d75d933556257d0077fe6bccefd92fc2fa71227cbd31f39b085fabc5c0f7b7d07eb4a639c53ad5822f4556258376f7f4e349fca397a2203dbb3e457a82dc8ae1a5129362fdfcdae82619128ca92c0335562589cfa7f463154dffd5ddce82baa6ddaa825ffda4b4cc1dd8abd5af72f421c487b1335db55625900ba7fa68e398350be805d9560b1ec3307f811e9f6dda9bf8906288e5b598ec4ea192855625962bc7ffb34942ebc6f77e2a4779d58cebad9f418cb83cee5ae5135ce8e901b843c3496556259c3137f13878d49584e1449cb7c4d09e4633874e2c2915817f025fd56e9ac92bf634fe955625a21ca7fefaa5c7cc1adb414582a0dc440bee1ceb90207c7493c33cc335d47995e04410455625a7ef17fa81c3a5a553fab8c561679d85bb19e6a7eb0218b4839501a326c84cd4158b2d555625ada947f5ee7521a899a1bbd499ad817e1d673d594eb84ef5130440e43abd9ab1110486755625b34bf7f5c51f339e19e5238fd1fe3ad8516ae4df2bc1dce47a36fc5eb7f2877185d9eda55625b8d807f55a5bd2f1561a275dba97a3e23bf64b586a74cc4c4a2dc9f1c147ffdbbce112255625be4df7f3511b8eb393fd3b4ce4300791eee67b9f8a8531a570ff8912fc2b075959b0a2b55625c3aea7f2852b577eb917e124a16ffd8dc1efc55441aabd0717d5d636c873192a2f5824255625c8fa97f12f11d7a24fd4754d73b8fe1da0aca1fd3f1aa67e379acf825ea7817ded4a9be55625ce3267ff02924c33170f8ea85c75f37820cb709ac1ad023d409a00f0c3417335c3c2e5555625d356c7f8279194eb4b29c3028809787a815b5fcda9c911d6a8c1dab7e4ef293adf594b955625d86837f5fdb3bae7605635c99696d6886565eb14e12e4f81036089e8c08d464cdbe162755625dd6737f8908f5b1fa9c621f1c60f18c20e096502b8355321351f8d252a3551a3ba770df55625e25457fb4c4e2b6245313ebc2e84fd30cd4004aef84bd2a40151a93462f49c26e7506fb55625e73007f901ca3aca1b292c5c6a1550922e912fc3d21ed9dbcca3b2c46ab298fe770ee3b55625ebfad7faf2119b7c214ae78969ba62732e44d4a27b5c140e313a2cf0e18ed8e715c930955625f0b527f1f7174d3d8fdbe34b9aeded13c683edd11ea2390304ae93f2846b80eb92f3a3d55625f55f77ffec8fc345c07e1cb780845776a87475444a9ad5d006d1c0ba391a7299932fc3d55625f9fa27f9aeb295f3776ed2ed0cfac59c56dc7082ddda9b6fb55b3bce5672dd474eab0b055625fe85a7fbc1b1bcc71127fe45b676f9e483b926bd80482bed59dc990c5f13506110621ee55626030247f3f5212df9218f2b491a27f248ede579de03abbd94c4b33b8082cf0a227f4d8aa55626077087fce88c2024293c40081d827eb1442391a6e97fee8350fa59e1b7b8acfc8713900556260bd0a7fecf130467c3ca6d7c047f2161ca24c032bbc3d4b2a77446d9e0dac48aff2d09a55626102307fdbda1a136d50200849f8280b0c8c10720f88f3c1e0a6bdc54afc86d4ba2fcea3556261467f7f66f4851715b29678b0cca267bfde816a0838d4b72ddc17590aadfd30fc1f1d1355626189fd7f252b89bf90b319923f6559e774e32f611a27a81d0f532f5b807532a98a9da5df556261ccae7f26fa9be578b8b817d2c38c2bf2937eb5c8c883596c0de630888dc7b5a78fc7415562620e987f2fb528e6d471a01e3882e5387da3916bb9170371273d83f39d41ca7d6cf645dd5562624fbf7f38a644c74784d8c3ea245c3a1a2e10a4b1f65348c8ba4914eba002c10f9841cd55626290277f0630a341adb3ad67be2247788989a78092dfe1bdc3c736fed4044992d522638e556262cfd57faa9c48affdb922d59f20f1d42ac3e33fda279577a858e81575cb3e6bb2721cd35562630ecd7f72c829b6ff1176aa52fa1b14a601e30df23c347f3efcd72b6af910346dd8917d5562634d127f850851725d682f1253eaf508bb01a9accd1b7e85e9304c89ea15b305a8e841ad5562638aa97fd535fbefa7125c4a47f58bb6d6723c954e19556f2eca67da8b68ae7ef937dd77556263c7967f81562e4f3949fbdc22d278b4fedbaa5dce7e2385b03e958e7f52fd6ed7b68fff55626403dc7fff91e8593b941cc006a9af6dd29cf00c1d93d745cd30e13d28db6ad34229c7275562643f7f7fd97cbaa9a69d46aa3f57910da3a2981ddacb51cc9a918902a0ba29b879ca92135562647a827f493f012b4fee264d1b91d564c0d88212eeb0a4de487e2b0da91b21ef0a242cef556264b4e87fd376c0dc9e6a0a44867c5e1fefd6ecef82bbd522b0a13a792fef5100445ee323556264eeb57f82dba07ff31d1c675816f9969faac321de6f27d903da0f4c49327d1f3945e7fc55626527ec7f01c4951e729acbc05299798279cd10e5be143681a3d883a027edec470c12b1a955626560907f9db7038e59677010ca8f72fa448bad1b4f3c53346b666689163ccac31db4677255626598a37f4a7203f705e51df4a56139a9b86b4a0970bed7ab7a3446eaffe2289989c1645c556265d0297f422cccb7cea5c0e46f340bb7b21b81debac329f72e31669c20ff0f3a05cc2b5b55626607247f682158d08466d11c566d5712d4396197fdd67e65be71d83c97ef719ec468867b5562663d977faa071f48f62aaaa1f6320aaa7bd2ad2d552d05160892c14d699d38c9920d5f9955626673857f366a7b92acda364086cc991f618bf9f10b629ec0f7ae94543f96b691b69ec992556266a8f07ff3261457f4fd0b7c00a1511877ab27b74183ac470be8db3a7ecdc64335f6f979556266ddda7f2dc7a963308417ad45132da282495eb244f38a7db03940a4d808be607669c62255626712477f3c1fcba39712202dbd455253568bf32dd0a3bedb5c3ff0de4b22d4e45e50dc9255626746387faa31d2a33b224bee3888830916f2f56f41bb5a40ed8a3273c6e72e6992d6223a55626779af7f6ce4024642c4779dc119f2ece9b9cc34663ef4cfd6a7942d809a7de1813aca7d556267acaf7fd4a194d790fcc0f5af64ad0623a90db8616ce232c92824f4b3df27138fd65b44556267df3a7faa8101e6bcc25d8e6c1c04375f2c0e9336e0b38a69ca3c5c1594014f9e6556ff55626811527fa58e64716096e1e13583668e642bb90b4cbafc88ab1bb05b08a75fc65d12c99055626842fa7fa4216fadf8963db747830f6f7dffe386c78451377c8e7bc59e38f7340fc2e7bb55626874327f915da9abdae48b56e38f1c8581eb1f6060cdb1aac1fd60a1040a8eab69db2431556268a4fc7f23aec33011cec136936404546e8d71610b1ea813717b1b6bf3b77b689326a34b556268d55c7f7786f24ec8e68c1f537753be90a834aeb9797aa2ade11dc9f54973d24a879c0e55626905537f93c4565fc7413e23aa19da3dcfb22c55a18536d0bf6400e7e5a27ac61b7d8b4c55626934e17f0268ef3855c7ede1fa90865cb7be57f1e39b20db2aafdd81fc63c1af98b87bcb556269640a7f9fdc47a4dc677ac109a2707b2ba7a0ffa79dac07a74cd31f7e4a5082892891be55626992cf7fc7713b32d1b096c489857db2ad0b9de70d32806514c7ccfa228c3b89481aa0d7556269c1317f68ff5aa0d3d395b63c7d13437473fd851e32c1d1471eea4ef3a8cfd334da6c8c556269ef327fde31a920dbdd1f015b2a842f0275dc8dec6a82ff94d9b796a36f23c64a3c833255626a1cd47fd4f97b7188f5e51283de9c7987c054bc565b916a9584807585b410167243cee655626a4a187f6515432d9c8ed80ddc22d864380ff3c9b81ae737e57d049dd92abee2d8e1a7da55626a76ff7fa8988ce170d37bbb1b7200883263a98c2ac48ac55fe73abbd3479758330ceab855626aa38c7fd999b6a905cb253021254361eb51ac2428d229184f9dd8342bc05b348b9500fb5560809052626acfc07ff9cab2ea5fc2898ca670240c87501f552f715e74f50142c35920c55eb3c0ea1a55610224806113296000396000f3fe608060405234801561001057600080fd5b506004361061002b5760003560e01c8063e3581b6814610030575b600080fd5b61004d6004803603602081101561004657600080fd5b503561005f565b60408051918252519081900360200190f35b60008082116100ad576040805162461bcd60e51b81526020600482015260156024820152744e756d6265722063616e6e6f74206265207a65726f60581b604482015290519081900360640190fd5b600082600114156100c257600091505061010c565b5b6000838152602081905260409020546100e257600192831c92016100c3565b6000838152602081905260409020546101089061010283620f4240610111565b90610173565b9150505b919050565b6000826101205750600061016d565b8282028284828161012d57fe5b041461016a5760405162461bcd60e51b81526004018080602001828103825260218152602001806101ce6021913960400191505060405180910390fd5b90505b92915050565b60008282018381101561016a576040805162461bcd60e51b815260206004820152601b60248201527f536166654d6174683a206164646974696f6e206f766572666c6f770000000000604482015290519081900360640190fdfe536166654d6174683a206d756c7469706c69636174696f6e206f766572666c6f77a264697066735822122026442be3fe887ec86f7fc5102f303342155cd300266db13a85f5389bb30e24dc64736f6c63430007040033",
  "linkReferences": {},
  "deployedLinkReferences": {},
  "devdoc": {
    "kind": "dev",
    "methods": {
      "log2ApproxTimes1M(uint256)": {
        "params": {
          "_num": "number to take log2 * 1M of"
        }
      }
    },
    "version": 1
  },
  "evm": {
    "bytecode": {
      "linkReferences": {},
      "opcodes": "PUSH1 0x80 PUSH1 0x40 MSTORE CALLVALUE DUP1 ISZERO PUSH2 0x10 JUMPI PUSH1 0x0 DUP1 REVERT JUMPDEST POP PUSH1 0x0 PUSH1 0x20 DUP2 SWAP1 MSTORE PUSH32 0xADA5013122D395BA3C54772283FB069B10426056EF8CA54750CB9BB552A59E7D DUP2 SWAP1 SSTORE PUSH3 0xF4240 PUSH32 0xABBB5CAA7DDA850E60932DE0934EB1F9D0F59695050F761DC64E443E5030A569 SSTORE PUSH3 0x182F42 PUSH32 0x101E368776582E57AB3D116FFE2517C0A585CD5B23174B01E275C2D8329C3D83 SSTORE PUSH3 0x1E8480 PUSH32 0x52D75039926638D3C558B2BDEFB945D5BE8DAE29DEDD1C313212A4D472D9FDE5 SSTORE PUSH3 0x236E08 PUSH32 0x2B232C97452F0950C94E2539FDC7E69D21166113CF7A9BCB99B220A3FE5D720A SSTORE PUSH3 0x277182 PUSH32 0x62103CF3131C85DF57AAD364D21CBA02556D3092D6CB54C298C2E7726A7870BD SSTORE PUSH3 0x2AD63A PUSH32 0x870253054E3D98B71ABEC8FFF9EBF8A15D167F15909091A800D4ACAAB9266D2B SSTORE PUSH3 0x2DC6C0 PUSH32 0x5B8B9143058BA3A137192C563CA6541845E62F0A2F9A667AAC4DB2FA3C334E3C SSTORE PUSH3 0x305E85 PUSH32 0x324FDF7BFE7BD2828491073F0B7868A9A19EE3EFF384C2805040BE3E426447F5 SSTORE PUSH3 0x32B048 PUSH32 0x3E9ABACA0AAD9EDE81F4474766C846D8539F70688E1C8F521BBE1597874E3DC4 SSTORE PUSH3 0x34C967 PUSH32 0x9115655CBCDB654012CF1B2F7E5DBF11C9EF14E152A19D5F8EA75A329092D5A6 SSTORE PUSH3 0x36B3C2 PUSH32 0xD0A75BF7EA87FBA36FF8A17B4519C45FB727609E6C9161B106680B25B3E2705F SSTORE PUSH3 0x3876D7 PUSH32 0x7CA5987043AC53676C6E30F77FF1A34E98A5FAE86B27E5D0CF74AC1711B8A8DB SSTORE PUSH3 0x3A187A PUSH32 0xE9BC119772DF33AC6A685B572C53E6A4988BBDDE79A460A23BED029791109F39 SSTORE PUSH3 0x3B9D4A PUSH32 0x7536F03FC5DB63CA945DB399FD3B92BFF9B5879A5C0D7D84D2973EF5C841EA06 SSTORE PUSH3 0x3D0900 PUSH32 0x20ABEE21EEF15C21BC31A406C2B8AC3AFC5DF94A4B02B38ABB286F4334E6C5B SSTORE PUSH3 0x3E5EA6 PUSH32 0xA29F2962B8BADECBF4D3036E28FCD7DCF22DB126F130193790F7698EE4D3DD84 SSTORE PUSH3 0x3FA0C5 PUSH32 0x1CB7CE0668E72B96F704AF9E1445A9DC6F6AC599EEC355BFCFE4D3BEFBB001BE SSTORE PUSH3 0x40D177 PUSH32 0x50A82F9CBCDFACA82FE46B4A494D325EE6DC33D1FA55B218AB142E6CC2C8A58B SSTORE PUSH3 0x41F288 PUSH32 0x9998FE8C12A1A1395171FC2449145BB1F0C273BFC80AB4EA62EB7A9CB439450C SSTORE PUSH3 0x43057D PUSH32 0x52774D722AB93275A0199DA6072CCA5400BF7F03BF064DD4A2B1AF238C418D49 SSTORE PUSH3 0x440BA7 PUSH32 0xB44B86596A635358E7AA60B17D32860C3F1EFE2D3E53FB82C0BB23213B9C4BE3 SSTORE PUSH3 0x450629 PUSH32 0xDC275F13E83BCAD5305F77E8F2F06C8D9840EE8B7D606EE958F86F59784B2DE3 SSTORE PUSH3 0x45F602 PUSH32 0x1DA244B7F8B81D82E17FDE46FBF307DA20557945243B38EF4C87C9487B59901B SSTORE PUSH3 0x46DC10 PUSH32 0xB0BAD370A213AC7DCB3DFE3423B8D60077054DA2A57D974F5E9768EF98FD60B6 SSTORE PUSH3 0x47B917 PUSH32 0xED3D8EE28C5F40179E0B53BF87B486C0B1A6CCFB36F03B3C762C723793E06631 SSTORE PUSH3 0x488DC7 PUSH32 0x15129B35860F89EA2AC5B4BA3D68417E9EC4BAE78E7EAB8959D5F8F3AD42EE79 SSTORE PUSH3 0x495ABA PUSH32 0xF548ADFDEDFD2F8B2416994318306C690DADB026395430E32E9A141187933C86 SSTORE PUSH3 0x4A207C PUSH32 0xB84E4298F3A6292774B798B43A202CE92291460F19FE80ED2D2D7E8E4674DCBA SSTORE PUSH3 0x4ADF8A PUSH32 0x24D30D6DA666A4009A2A398534C9F4AD83932433C3C6D78B8E8D1C3EFB30A9BC SSTORE PUSH3 0x4B9854 PUSH32 0xCDBF706FAFF1444E72B0106AE4486B0256043747C99858DED580D001655540F5 SSTORE PUSH3 0x4C4B40 PUSH32 0x569E75FC77C1A856F6DAAF9E69D8A9566CA34AA47F9133711CE065A571AF0CFD SSTORE PUSH3 0x4CF8AA PUSH32 0x20B8703968A1421B7417FBC8615CBE909DC21C5D6AB0D6FD4579BAE332ADC937 SSTORE PUSH3 0x4DA0E6 PUSH32 0x660960054C44C4D83C420AF65C54E6F3437517CFFAA9996495231FEE01BDBA41 SSTORE PUSH3 0x4E4443 PUSH32 0x2A400E8B310FBD326E4C5C4AED5C8212A6B2BD98D80DBEF0077B1B2EE20907D4 SSTORE PUSH3 0x4EE305 PUSH32 0xFAAF1897615A4D5824A81780F33DD422A304CAE5E7B14F0F9215D1A3DEEEA9E2 SSTORE PUSH3 0x4F7D6D PUSH32 0xD554518F31B5833712AFF068198F0745641F5708162A7286BFAA31C5F461F1BA SSTORE PUSH3 0x5013B7 PUSH32 0xD54E89DEE95B843939C00DCE8C49063DF67EFE61A3C8EC818CCAEE72D7B7F5A3 SSTORE PUSH3 0x50A61A PUSH32 0xD6866844F1A8C30F9968E80FA46697288DA4B41C675B67A51469639E5AFC2435 SSTORE PUSH3 0x5134C8 PUSH32 0x5BBFE49FC46BD3C0EFD63509AF9EB2A12636D52D97F4D1CF52BF53227EF389C2 SSTORE PUSH3 0x51BFF0 PUSH32 0x49BFE3C65DD9F3794050D39474BEC15417A1630ABED1727C133877E89823C14F SSTORE PUSH3 0x5247BD PUSH32 0x64D962E4EEC2A0D2E4053FC69D3B480F61C5923C09E4BAD52CDEEC343FF95073 SSTORE PUSH3 0x52CC58 PUSH32 0xE7CAE067B01565DD4B0755DFBF1D7C22C5312C3CF1FBED6E1243374844E8EA87 SSTORE PUSH3 0x534DE7 PUSH32 0x2BFB33747D039531BB279F93C386332AE05E0C10B395017FD2D93FE9FC4C6E23 SSTORE PUSH3 0x53CC8D PUSH32 0x1C0457050CA41A86014D854F2D228A8EF35463CC39136C54A5E4F4078EEEF5C1 SSTORE PUSH3 0x544869 PUSH32 0x775C7D9143A499372F77B03579DCBB57F9394AD88B4BE4180D4B72BA058CD69D SSTORE PUSH3 0x54C19C PUSH32 0x706825D676D3CE2A83ED578770284DDBF9EABDBA0C4E14BBA165C41389B73C56 SSTORE PUSH3 0x553842 PUSH32 0x28C3DD0E618E8BDDF8CF30CD1A2E788F719D9C1F097596A24ACBE0C7CB1E05C6 SSTORE PUSH3 0x55AC75 PUSH32 0xA20A1F31E7E0C47A407717C0B73E822E9CE414E0FC1925C4DF69C43F77AC765E SSTORE PUSH3 0x561E50 PUSH32 0x9E91C95F108EAD30341468DB9696E39ED81DE6A68BC8C6702BCB66393FCE6E75 SSTORE PUSH3 0x568DE9 PUSH32 0x3884095CA26754C19839D1D65ED3564B4558896672AE6763C55FD1245D56EF7B SSTORE PUSH3 0x56FB57 PUSH32 0x34C816DAB9C312A23FA45B66DBF9C10A2294A4455B7A50973D5E33FD47C39F4A SSTORE PUSH3 0x5766B0 PUSH32 0xDE8D66B2BD125DBAB6C2314A8CD08CA7E2AC381B265AEFA7CE27C5D9D75D933 SSTORE PUSH3 0x57D007 PUSH32 0xE6BCCEFD92FC2FA71227CBD31F39B085FABC5C0F7B7D07EB4A639C53AD5822F4 SSTORE PUSH3 0x58376F PUSH32 0x4E349FCA397A2203DBB3E457A82DC8AE1A5129362FDFCDAE82619128CA92C033 SSTORE PUSH3 0x589CFA PUSH32 0x463154DFFD5DDCE82BAA6DDAA825FFDA4B4CC1DD8ABD5AF72F421C487B1335DB SSTORE PUSH3 0x5900BA PUSH32 0xA68E398350BE805D9560B1EC3307F811E9F6DDA9BF8906288E5B598EC4EA1928 SSTORE PUSH3 0x5962BC PUSH32 0xFB34942EBC6F77E2A4779D58CEBAD9F418CB83CEE5AE5135CE8E901B843C3496 SSTORE PUSH3 0x59C313 PUSH32 0x13878D49584E1449CB7C4D09E4633874E2C2915817F025FD56E9AC92BF634FE9 SSTORE PUSH3 0x5A21CA PUSH32 0xEFAA5C7CC1ADB414582A0DC440BEE1CEB90207C7493C33CC335D47995E044104 SSTORE PUSH3 0x5A7EF1 PUSH32 0xA81C3A5A553FAB8C561679D85BB19E6A7EB0218B4839501A326C84CD4158B2D5 SSTORE PUSH3 0x5ADA94 PUSH32 0x5EE7521A899A1BBD499AD817E1D673D594EB84EF5130440E43ABD9AB11104867 SSTORE PUSH3 0x5B34BF PUSH32 0x5C51F339E19E5238FD1FE3AD8516AE4DF2BC1DCE47A36FC5EB7F2877185D9EDA SSTORE PUSH3 0x5B8D80 PUSH32 0x55A5BD2F1561A275DBA97A3E23BF64B586A74CC4C4A2DC9F1C147FFDBBCE1122 SSTORE PUSH3 0x5BE4DF PUSH32 0x3511B8EB393FD3B4CE4300791EEE67B9F8A8531A570FF8912FC2B075959B0A2B SSTORE PUSH3 0x5C3AEA PUSH32 0x2852B577EB917E124A16FFD8DC1EFC55441AABD0717D5D636C873192A2F58242 SSTORE PUSH3 0x5C8FA9 PUSH32 0x12F11D7A24FD4754D73B8FE1DA0ACA1FD3F1AA67E379ACF825EA7817DED4A9BE SSTORE PUSH3 0x5CE326 PUSH32 0xF02924C33170F8EA85C75F37820CB709AC1AD023D409A00F0C3417335C3C2E55 SSTORE PUSH3 0x5D356C PUSH32 0x8279194EB4B29C3028809787A815B5FCDA9C911D6A8C1DAB7E4EF293ADF594B9 SSTORE PUSH3 0x5D8683 PUSH32 0x5FDB3BAE7605635C99696D6886565EB14E12E4F81036089E8C08D464CDBE1627 SSTORE PUSH3 0x5DD673 PUSH32 0x8908F5B1FA9C621F1C60F18C20E096502B8355321351F8D252A3551A3BA770DF SSTORE PUSH3 0x5E2545 PUSH32 0xB4C4E2B6245313EBC2E84FD30CD4004AEF84BD2A40151A93462F49C26E7506FB SSTORE PUSH3 0x5E7300 PUSH32 0x901CA3ACA1B292C5C6A1550922E912FC3D21ED9DBCCA3B2C46AB298FE770EE3B SSTORE PUSH3 0x5EBFAD PUSH32 0xAF2119B7C214AE78969BA62732E44D4A27B5C140E313A2CF0E18ED8E715C9309 SSTORE PUSH3 0x5F0B52 PUSH32 0x1F7174D3D8FDBE34B9AEDED13C683EDD11EA2390304AE93F2846B80EB92F3A3D SSTORE PUSH3 0x5F55F7 PUSH32 0xFEC8FC345C07E1CB780845776A87475444A9AD5D006D1C0BA391A7299932FC3D SSTORE PUSH3 0x5F9FA2 PUSH32 0x9AEB295F3776ED2ED0CFAC59C56DC7082DDDA9B6FB55B3BCE5672DD474EAB0B0 SSTORE PUSH3 0x5FE85A PUSH32 0xBC1B1BCC71127FE45B676F9E483B926BD80482BED59DC990C5F13506110621EE SSTORE PUSH3 0x603024 PUSH32 0x3F5212DF9218F2B491A27F248EDE579DE03ABBD94C4B33B8082CF0A227F4D8AA SSTORE PUSH3 0x607708 PUSH32 0xCE88C2024293C40081D827EB1442391A6E97FEE8350FA59E1B7B8ACFC8713900 SSTORE PUSH3 0x60BD0A PUSH32 0xECF130467C3CA6D7C047F2161CA24C032BBC3D4B2A77446D9E0DAC48AFF2D09A SSTORE PUSH3 0x610230 PUSH32 0xDBDA1A136D50200849F8280B0C8C10720F88F3C1E0A6BDC54AFC86D4BA2FCEA3 SSTORE PUSH3 0x61467F PUSH32 0x66F4851715B29678B0CCA267BFDE816A0838D4B72DDC17590AADFD30FC1F1D13 SSTORE PUSH3 0x6189FD PUSH32 0x252B89BF90B319923F6559E774E32F611A27A81D0F532F5B807532A98A9DA5DF SSTORE PUSH3 0x61CCAE PUSH32 0x26FA9BE578B8B817D2C38C2BF2937EB5C8C883596C0DE630888DC7B5A78FC741 SSTORE PUSH3 0x620E98 PUSH32 0x2FB528E6D471A01E3882E5387DA3916BB9170371273D83F39D41CA7D6CF645DD SSTORE PUSH3 0x624FBF PUSH32 0x38A644C74784D8C3EA245C3A1A2E10A4B1F65348C8BA4914EBA002C10F9841CD SSTORE PUSH3 0x629027 PUSH32 0x630A341ADB3AD67BE2247788989A78092DFE1BDC3C736FED4044992D522638E SSTORE PUSH3 0x62CFD5 PUSH32 0xAA9C48AFFDB922D59F20F1D42AC3E33FDA279577A858E81575CB3E6BB2721CD3 SSTORE PUSH3 0x630ECD PUSH32 0x72C829B6FF1176AA52FA1B14A601E30DF23C347F3EFCD72B6AF910346DD8917D SSTORE PUSH3 0x634D12 PUSH32 0x850851725D682F1253EAF508BB01A9ACCD1B7E85E9304C89EA15B305A8E841AD SSTORE PUSH3 0x638AA9 PUSH32 0xD535FBEFA7125C4A47F58BB6D6723C954E19556F2ECA67DA8B68AE7EF937DD77 SSTORE PUSH3 0x63C796 PUSH32 0x81562E4F3949FBDC22D278B4FEDBAA5DCE7E2385B03E958E7F52FD6ED7B68FFF SSTORE PUSH3 0x6403DC PUSH32 0xFF91E8593B941CC006A9AF6DD29CF00C1D93D745CD30E13D28DB6AD34229C727 SSTORE PUSH3 0x643F7F PUSH32 0xD97CBAA9A69D46AA3F57910DA3A2981DDACB51CC9A918902A0BA29B879CA9213 SSTORE PUSH3 0x647A82 PUSH32 0x493F012B4FEE264D1B91D564C0D88212EEB0A4DE487E2B0DA91B21EF0A242CEF SSTORE PUSH3 0x64B4E8 PUSH32 0xD376C0DC9E6A0A44867C5E1FEFD6ECEF82BBD522B0A13A792FEF5100445EE323 SSTORE PUSH3 0x64EEB5 PUSH32 0x82DBA07FF31D1C675816F9969FAAC321DE6F27D903DA0F4C49327D1F3945E7FC SSTORE PUSH3 0x6527EC PUSH32 0x1C4951E729ACBC05299798279CD10E5BE143681A3D883A027EDEC470C12B1A9 SSTORE PUSH3 0x656090 PUSH32 0x9DB7038E59677010CA8F72FA448BAD1B4F3C53346B666689163CCAC31DB46772 SSTORE PUSH3 0x6598A3 PUSH32 0x4A7203F705E51DF4A56139A9B86B4A0970BED7AB7A3446EAFFE2289989C1645C SSTORE PUSH3 0x65D029 PUSH32 0x422CCCB7CEA5C0E46F340BB7B21B81DEBAC329F72E31669C20FF0F3A05CC2B5B SSTORE PUSH3 0x660724 PUSH32 0x682158D08466D11C566D5712D4396197FDD67E65BE71D83C97EF719EC468867B SSTORE PUSH3 0x663D97 PUSH32 0xAA071F48F62AAAA1F6320AAA7BD2AD2D552D05160892C14D699D38C9920D5F99 SSTORE PUSH3 0x667385 PUSH32 0x366A7B92ACDA364086CC991F618BF9F10B629EC0F7AE94543F96B691B69EC992 SSTORE PUSH3 0x66A8F0 PUSH32 0xF3261457F4FD0B7C00A1511877AB27B74183AC470BE8DB3A7ECDC64335F6F979 SSTORE PUSH3 0x66DDDA PUSH32 0x2DC7A963308417AD45132DA282495EB244F38A7DB03940A4D808BE607669C622 SSTORE PUSH3 0x671247 PUSH32 0x3C1FCBA39712202DBD455253568BF32DD0A3BEDB5C3FF0DE4B22D4E45E50DC92 SSTORE PUSH3 0x674638 PUSH32 0xAA31D2A33B224BEE3888830916F2F56F41BB5A40ED8A3273C6E72E6992D6223A SSTORE PUSH3 0x6779AF PUSH32 0x6CE4024642C4779DC119F2ECE9B9CC34663EF4CFD6A7942D809A7DE1813ACA7D SSTORE PUSH3 0x67ACAF PUSH32 0xD4A194D790FCC0F5AF64AD0623A90DB8616CE232C92824F4B3DF27138FD65B44 SSTORE PUSH3 0x67DF3A PUSH32 0xAA8101E6BCC25D8E6C1C04375F2C0E9336E0B38A69CA3C5C1594014F9E6556FF SSTORE PUSH3 0x681152 PUSH32 0xA58E64716096E1E13583668E642BB90B4CBAFC88AB1BB05B08A75FC65D12C990 SSTORE PUSH3 0x6842FA PUSH32 0xA4216FADF8963DB747830F6F7DFFE386C78451377C8E7BC59E38F7340FC2E7BB SSTORE PUSH3 0x687432 PUSH32 0x915DA9ABDAE48B56E38F1C8581EB1F6060CDB1AAC1FD60A1040A8EAB69DB2431 SSTORE PUSH3 0x68A4FC PUSH32 0x23AEC33011CEC136936404546E8D71610B1EA813717B1B6BF3B77B689326A34B SSTORE PUSH3 0x68D55C PUSH32 0x7786F24EC8E68C1F537753BE90A834AEB9797AA2ADE11DC9F54973D24A879C0E SSTORE PUSH3 0x690553 PUSH32 0x93C4565FC7413E23AA19DA3DCFB22C55A18536D0BF6400E7E5A27AC61B7D8B4C SSTORE PUSH3 0x6934E1 PUSH32 0x268EF3855C7EDE1FA90865CB7BE57F1E39B20DB2AAFDD81FC63C1AF98B87BCB SSTORE PUSH3 0x69640A PUSH32 0x9FDC47A4DC677AC109A2707B2BA7A0FFA79DAC07A74CD31F7E4A5082892891BE SSTORE PUSH3 0x6992CF PUSH32 0xC7713B32D1B096C489857DB2AD0B9DE70D32806514C7CCFA228C3B89481AA0D7 SSTORE PUSH3 0x69C131 PUSH32 0x68FF5AA0D3D395B63C7D13437473FD851E32C1D1471EEA4EF3A8CFD334DA6C8C SSTORE PUSH3 0x69EF32 PUSH32 0xDE31A920DBDD1F015B2A842F0275DC8DEC6A82FF94D9B796A36F23C64A3C8332 SSTORE PUSH3 0x6A1CD4 PUSH32 0xD4F97B7188F5E51283DE9C7987C054BC565B916A9584807585B410167243CEE6 SSTORE PUSH3 0x6A4A18 PUSH32 0x6515432D9C8ED80DDC22D864380FF3C9B81AE737E57D049DD92ABEE2D8E1A7DA SSTORE PUSH3 0x6A76FF PUSH32 0xA8988CE170D37BBB1B7200883263A98C2AC48AC55FE73ABBD3479758330CEAB8 SSTORE PUSH3 0x6AA38C PUSH32 0xD999B6A905CB253021254361EB51AC2428D229184F9DD8342BC05B348B9500FB SSTORE PUSH1 0x80 SWAP1 MSTORE PUSH3 0x6ACFC0 PUSH32 0xF9CAB2EA5FC2898CA670240C87501F552F715E74F50142C35920C55EB3C0EA1A SSTORE PUSH2 0x224 DUP1 PUSH2 0x1329 PUSH1 0x0 CODECOPY PUSH1 0x0 RETURN INVALID PUSH1 0x80 PUSH1 0x40 MSTORE CALLVALUE DUP1 ISZERO PUSH2 0x10 JUMPI PUSH1 0x0 DUP1 REVERT JUMPDEST POP PUSH1 0x4 CALLDATASIZE LT PUSH2 0x2B JUMPI PUSH1 0x0 CALLDATALOAD PUSH1 0xE0 SHR DUP1 PUSH4 0xE3581B68 EQ PUSH2 0x30 JUMPI JUMPDEST PUSH1 0x0 DUP1 REVERT JUMPDEST PUSH2 0x4D PUSH1 0x4 DUP1 CALLDATASIZE SUB PUSH1 0x20 DUP2 LT ISZERO PUSH2 0x46 JUMPI PUSH1 0x0 DUP1 REVERT JUMPDEST POP CALLDATALOAD PUSH2 0x5F JUMP JUMPDEST PUSH1 0x40 DUP1 MLOAD SWAP2 DUP3 MSTORE MLOAD SWAP1 DUP2 SWAP1 SUB PUSH1 0x20 ADD SWAP1 RETURN JUMPDEST PUSH1 0x0 DUP1 DUP3 GT PUSH2 0xAD JUMPI PUSH1 0x40 DUP1 MLOAD PUSH3 0x461BCD PUSH1 0xE5 SHL DUP2 MSTORE PUSH1 0x20 PUSH1 0x4 DUP3 ADD MSTORE PUSH1 0x15 PUSH1 0x24 DUP3 ADD MSTORE PUSH21 0x4E756D6265722063616E6E6F74206265207A65726F PUSH1 0x58 SHL PUSH1 0x44 DUP3 ADD MSTORE SWAP1 MLOAD SWAP1 DUP2 SWAP1 SUB PUSH1 0x64 ADD SWAP1 REVERT JUMPDEST PUSH1 0x0 DUP3 PUSH1 0x1 EQ ISZERO PUSH2 0xC2 JUMPI PUSH1 0x0 SWAP2 POP POP PUSH2 0x10C JUMP JUMPDEST JUMPDEST PUSH1 0x0 DUP4 DUP2 MSTORE PUSH1 0x20 DUP2 SWAP1 MSTORE PUSH1 0x40 SWAP1 KECCAK256 SLOAD PUSH2 0xE2 JUMPI PUSH1 0x1 SWAP3 DUP4 SHR SWAP3 ADD PUSH2 0xC3 JUMP JUMPDEST PUSH1 0x0 DUP4 DUP2 MSTORE PUSH1 0x20 DUP2 SWAP1 MSTORE PUSH1 0x40 SWAP1 KECCAK256 SLOAD PUSH2 0x108 SWAP1 PUSH2 0x102 DUP4 PUSH3 0xF4240 PUSH2 0x111 JUMP JUMPDEST SWAP1 PUSH2 0x173 JUMP JUMPDEST SWAP2 POP POP JUMPDEST SWAP2 SWAP1 POP JUMP JUMPDEST PUSH1 0x0 DUP3 PUSH2 0x120 JUMPI POP PUSH1 0x0 PUSH2 0x16D JUMP JUMPDEST DUP3 DUP3 MUL DUP3 DUP5 DUP3 DUP2 PUSH2 0x12D JUMPI INVALID JUMPDEST DIV EQ PUSH2 0x16A JUMPI PUSH1 0x40 MLOAD PUSH3 0x461BCD PUSH1 0xE5 SHL DUP2 MSTORE PUSH1 0x4 ADD DUP1 DUP1 PUSH1 0x20 ADD DUP3 DUP2 SUB DUP3 MSTORE PUSH1 0x21 DUP2 MSTORE PUSH1 0x20 ADD DUP1 PUSH2 0x1CE PUSH1 0x21 SWAP2 CODECOPY PUSH1 0x40 ADD SWAP2 POP POP PUSH1 0x40 MLOAD DUP1 SWAP2 SUB SWAP1 REVERT JUMPDEST SWAP1 POP JUMPDEST SWAP3 SWAP2 POP POP JUMP JUMPDEST PUSH1 0x0 DUP3 DUP3 ADD DUP4 DUP2 LT ISZERO PUSH2 0x16A JUMPI PUSH1 0x40 DUP1 MLOAD PUSH3 0x461BCD PUSH1 0xE5 SHL DUP2 MSTORE PUSH1 0x20 PUSH1 0x4 DUP3 ADD MSTORE PUSH1 0x1B PUSH1 0x24 DUP3 ADD MSTORE PUSH32 0x536166654D6174683A206164646974696F6E206F766572666C6F770000000000 PUSH1 0x44 DUP3 ADD MSTORE SWAP1 MLOAD SWAP1 DUP2 SWAP1 SUB PUSH1 0x64 ADD SWAP1 REVERT INVALID MSTORE8 PUSH2 0x6665 0x4D PUSH2 0x7468 GASPRICE KECCAK256 PUSH14 0x756C7469706C69636174696F6E20 PUSH16 0x766572666C6F77A26469706673582212 KECCAK256 0x26 DIFFICULTY 0x2B 0xE3 INVALID DUP9 PUSH31 0xC86F7FC5102F303342155CD300266DB13A85F5389BB30E24DC64736F6C6343 STOP SMOD DIV STOP CALLER "
    },
    "gasEstimates": {
      "creation": {
        "codeDepositCost": "109600",
        "executionCost": "2545954",
        "totalCost": "2655554"
      },
      "external": {
        "log2ApproxTimes1M(uint256)": "infinite"
      }
    },
    "methodIdentifiers": {
      "log2ApproxTimes1M(uint256)": "e3581b68"
    }
  },
  "storageLayout": {
    "storage": [
      {
        "astId": 205,
        "contract": "contracts/CartesiMath.sol:CartesiMath",
        "label": "log2tableTimes1M",
        "offset": 0,
        "slot": "0",
        "type": "t_mapping(t_uint256,t_uint256)"
      }
    ],
    "types": {
      "t_mapping(t_uint256,t_uint256)": {
        "encoding": "mapping",
        "key": "t_uint256",
        "label": "mapping(uint256 => uint256)",
        "numberOfBytes": "32",
        "value": "t_uint256"
      },
      "t_uint256": {
        "encoding": "inplace",
        "label": "uint256",
        "numberOfBytes": "32"
      }
    }
  },
  "userdoc": {
    "kind": "user",
    "methods": {
      "log2ApproxTimes1M(uint256)": {
        "notice": "Approximates log2 * 1M"
      }
    },
    "version": 1
  }
}