{
  "contractName": "CartesiMath",
  "sourceName": "contracts/CartesiMath.sol",
  "abi": [
    {
      "inputs": [
        {
          "internalType": "uint256",
          "name": "_num",
          "type": "uint256"
        }
      ],
      "name": "getLog2TableTimes1M",
      "outputs": [
        {
          "internalType": "uint256",
          "name": "",
          "type": "uint256"
        }
      ],
      "stateMutability": "pure",
      "type": "function"
    },
    {
      "inputs": [
        {
          "internalType": "uint256",
          "name": "_num",
          "type": "uint256"
        }
      ],
      "name": "log2ApproxTimes1M",
      "outputs": [
        {
          "internalType": "uint256",
          "name": "",
          "type": "uint256"
        }
      ],
      "stateMutability": "pure",
      "type": "function"
    }
  ],
  "bytecode": "0x610439610026600b82828239805160001a60731461001957fe5b30600052607381538281f3fe73000000000000000000000000000000000000000030146080604052600436106100405760003560e01c806332ef283b14610045578063e3581b6814610074575b600080fd5b6100626004803603602081101561005b57600080fd5b5035610091565b60408051918252519081900360200190f35b6100626004803603602081101561008a57600080fd5b5035610107565b600080805b60038160ff1610156100fb576000604051806101a00160405280610180815260200161028461018091398260ff166001870360030201815181106100d657fe5b01602001516001600160f81b03191660ff60088402161c929092179150600101610096565b5060e81c90505b919050565b6000808211610155576040805162461bcd60e51b81526020600482015260156024820152744e756d6265722063616e6e6f74206265207a65726f60581b604482015290519081900360640190fd5b6000826001141561016a576000915050610102565b5b608083111561018057600192831c920161016b565b61019f61018c84610091565b61019983620f42406101a6565b90610208565b9392505050565b6000826101b557506000610202565b828202828482816101c257fe5b04146101ff5760405162461bcd60e51b81526004018080602001828103825260218152602001806102636021913960400191505060405180910390fd5b90505b92915050565b6000828201838110156101ff576040805162461bcd60e51b815260206004820152601b60248201527f536166654d6174683a206164646974696f6e206f766572666c6f770000000000604482015290519081900360640190fdfe536166654d6174683a206d756c7469706c69636174696f6e206f766572666c6f770000000f4240182f421e8480236e082771822ad63a2dc6c0305e8532b04834c96736b3c23876d73a187a3b9d4a3d09003e5ea63fa0c540d17741f28843057d440ba745062945f60246dc1047b917488dc7495aba4a207c4adf8a4b98544c4b404cf8aa4da0e64e44434ee3054f7d6d5013b750a61a5134c851bff05247bd52cc58534de753cc8d54486954c19c55384255ac75561e50568de956fb575766b057d00758376f589cfa5900ba5962bc59c3135a21ca5a7ef15ada945b34bf5b8d805be4df5c3aea5c8fa95ce3265d356c5d86835dd6735e25455e73005ebfad5f0b525f55f75f9fa25fe85a60302460770860bd0a61023061467f6189fd61ccae620e98624fbf62902762cfd5630ecd634d12638aa963c7966403dc643f7f647a8264b4e864eeb56527ec6560906598a365d029660724663d9766738566a8f066ddda6712476746386779af67acaf67df3a6811526842fa68743268a4fc68d55c6905536934e169640a6992cf69c13169ef326a1cd46a4a186a76ff6aa38c6acfc0a26469706673582212204f905fe0579cad7d46c7f4e810e21ce57ab2a65919f34804a7c6c2ba21f5863164736f6c63430007040033",
  "linkReferences": {},
  "deployedLinkReferences": {},
  "devdoc": {
    "kind": "dev",
    "methods": {
      "log2ApproxTimes1M(uint256)": {
        "params": {
          "_num": "number to take log2 * 1M of"
        }
      }
    },
    "version": 1
  },
  "evm": {
    "bytecode": {
      "linkReferences": {},
      "opcodes": "PUSH2 0x439 PUSH2 0x26 PUSH1 0xB DUP3 DUP3 DUP3 CODECOPY DUP1 MLOAD PUSH1 0x0 BYTE PUSH1 0x73 EQ PUSH2 0x19 JUMPI INVALID JUMPDEST ADDRESS PUSH1 0x0 MSTORE PUSH1 0x73 DUP2 MSTORE8 DUP3 DUP2 RETURN INVALID PUSH20 0x0 ADDRESS EQ PUSH1 0x80 PUSH1 0x40 MSTORE PUSH1 0x4 CALLDATASIZE LT PUSH2 0x40 JUMPI PUSH1 0x0 CALLDATALOAD PUSH1 0xE0 SHR DUP1 PUSH4 0x32EF283B EQ PUSH2 0x45 JUMPI DUP1 PUSH4 0xE3581B68 EQ PUSH2 0x74 JUMPI JUMPDEST PUSH1 0x0 DUP1 REVERT JUMPDEST PUSH2 0x62 PUSH1 0x4 DUP1 CALLDATASIZE SUB PUSH1 0x20 DUP2 LT ISZERO PUSH2 0x5B JUMPI PUSH1 0x0 DUP1 REVERT JUMPDEST POP CALLDATALOAD PUSH2 0x91 JUMP JUMPDEST PUSH1 0x40 DUP1 MLOAD SWAP2 DUP3 MSTORE MLOAD SWAP1 DUP2 SWAP1 SUB PUSH1 0x20 ADD SWAP1 RETURN JUMPDEST PUSH2 0x62 PUSH1 0x4 DUP1 CALLDATASIZE SUB PUSH1 0x20 DUP2 LT ISZERO PUSH2 0x8A JUMPI PUSH1 0x0 DUP1 REVERT JUMPDEST POP CALLDATALOAD PUSH2 0x107 JUMP JUMPDEST PUSH1 0x0 DUP1 DUP1 JUMPDEST PUSH1 0x3 DUP2 PUSH1 0xFF AND LT ISZERO PUSH2 0xFB JUMPI PUSH1 0x0 PUSH1 0x40 MLOAD DUP1 PUSH2 0x1A0 ADD PUSH1 0x40 MSTORE DUP1 PUSH2 0x180 DUP2 MSTORE PUSH1 0x20 ADD PUSH2 0x284 PUSH2 0x180 SWAP2 CODECOPY DUP3 PUSH1 0xFF AND PUSH1 0x1 DUP8 SUB PUSH1 0x3 MUL ADD DUP2 MLOAD DUP2 LT PUSH2 0xD6 JUMPI INVALID JUMPDEST ADD PUSH1 0x20 ADD MLOAD PUSH1 0x1 PUSH1 0x1 PUSH1 0xF8 SHL SUB NOT AND PUSH1 0xFF PUSH1 0x8 DUP5 MUL AND SHR SWAP3 SWAP1 SWAP3 OR SWAP2 POP PUSH1 0x1 ADD PUSH2 0x96 JUMP JUMPDEST POP PUSH1 0xE8 SHR SWAP1 POP JUMPDEST SWAP2 SWAP1 POP JUMP JUMPDEST PUSH1 0x0 DUP1 DUP3 GT PUSH2 0x155 JUMPI PUSH1 0x40 DUP1 MLOAD PUSH3 0x461BCD PUSH1 0xE5 SHL DUP2 MSTORE PUSH1 0x20 PUSH1 0x4 DUP3 ADD MSTORE PUSH1 0x15 PUSH1 0x24 DUP3 ADD MSTORE PUSH21 0x4E756D6265722063616E6E6F74206265207A65726F PUSH1 0x58 SHL PUSH1 0x44 DUP3 ADD MSTORE SWAP1 MLOAD SWAP1 DUP2 SWAP1 SUB PUSH1 0x64 ADD SWAP1 REVERT JUMPDEST PUSH1 0x0 DUP3 PUSH1 0x1 EQ ISZERO PUSH2 0x16A JUMPI PUSH1 0x0 SWAP2 POP POP PUSH2 0x102 JUMP JUMPDEST JUMPDEST PUSH1 0x80 DUP4 GT ISZERO PUSH2 0x180 JUMPI PUSH1 0x1 SWAP3 DUP4 SHR SWAP3 ADD PUSH2 0x16B JUMP JUMPDEST PUSH2 0x19F PUSH2 0x18C DUP5 PUSH2 0x91 JUMP JUMPDEST PUSH2 0x199 DUP4 PUSH3 0xF4240 PUSH2 0x1A6 JUMP JUMPDEST SWAP1 PUSH2 0x208 JUMP JUMPDEST SWAP4 SWAP3 POP POP POP JUMP JUMPDEST PUSH1 0x0 DUP3 PUSH2 0x1B5 JUMPI POP PUSH1 0x0 PUSH2 0x202 JUMP JUMPDEST DUP3 DUP3 MUL DUP3 DUP5 DUP3 DUP2 PUSH2 0x1C2 JUMPI INVALID JUMPDEST DIV EQ PUSH2 0x1FF JUMPI PUSH1 0x40 MLOAD PUSH3 0x461BCD PUSH1 0xE5 SHL DUP2 MSTORE PUSH1 0x4 ADD DUP1 DUP1 PUSH1 0x20 ADD DUP3 DUP2 SUB DUP3 MSTORE PUSH1 0x21 DUP2 MSTORE PUSH1 0x20 ADD DUP1 PUSH2 0x263 PUSH1 0x21 SWAP2 CODECOPY PUSH1 0x40 ADD SWAP2 POP POP PUSH1 0x40 MLOAD DUP1 SWAP2 SUB SWAP1 REVERT JUMPDEST SWAP1 POP JUMPDEST SWAP3 SWAP2 POP POP JUMP JUMPDEST PUSH1 0x0 DUP3 DUP3 ADD DUP4 DUP2 LT ISZERO PUSH2 0x1FF JUMPI PUSH1 0x40 DUP1 MLOAD PUSH3 0x461BCD PUSH1 0xE5 SHL DUP2 MSTORE PUSH1 0x20 PUSH1 0x4 DUP3 ADD MSTORE PUSH1 0x1B PUSH1 0x24 DUP3 ADD MSTORE PUSH32 0x536166654D6174683A206164646974696F6E206F766572666C6F770000000000 PUSH1 0x44 DUP3 ADD MSTORE SWAP1 MLOAD SWAP1 DUP2 SWAP1 SUB PUSH1 0x64 ADD SWAP1 REVERT INVALID MSTORE8 PUSH2 0x6665 0x4D PUSH2 0x7468 GASPRICE KECCAK256 PUSH14 0x756C7469706C69636174696F6E20 PUSH16 0x766572666C6F770000000F4240182F42 0x1E DUP5 DUP1 0x23 PUSH15 0x82771822AD63A2DC6C0305E8532B0 0x48 CALLVALUE 0xC9 PUSH8 0x36B3C23876D73A18 PUSH27 0x3B9D4A3D09003E5EA63FA0C540D17741F28843057D440BA7450629 GASLIMIT 0xF6 MUL CHAINID 0xDC LT SELFBALANCE 0xB9 OR 0x48 DUP14 0xC7 0x49 GAS 0xBA 0x4A KECCAK256 PUSH29 0x4ADF8A4B98544C4B404CF8AA4DA0E64E44434EE3054F7D6D5013B750A6 BYTE MLOAD CALLVALUE 0xC8 MLOAD 0xBF CREATE MSTORE SELFBALANCE 0xBD MSTORE 0xCC PC MSTORE8 0x4D 0xE7 MSTORE8 0xCC DUP14 SLOAD 0x48 PUSH10 0x54C19C55384255AC7556 0x1E POP JUMP DUP14 0xE9 JUMP 0xFB JUMPI JUMPI PUSH7 0xB057D00758376F PC SWAP13 STATICCALL MSIZE STOP 0xBA MSIZE PUSH3 0xBC59C3 SGT GAS 0x21 0xCA GAS PUSH31 0xF15ADA945B34BF5B8D805BE4DF5C3AEA5C8FA95CE3265D356C5D86835DD673 0x5E 0x25 GASLIMIT 0x5E PUSH20 0x5EBFAD5F0B525F55F75F9FA25FE85A60302460 PUSH24 0x860BD0A61023061467F6189FD61CCAE620E98624FBF6290 0x27 PUSH3 0xCFD563 0xE 0xCD PUSH4 0x4D12638A 0xA9 PUSH4 0xC7966403 0xDC PUSH5 0x3F7F647A82 PUSH5 0xB4E864EEB5 PUSH6 0x27EC65609065 SWAP9 LOG3 PUSH6 0xD02966072466 RETURNDATASIZE SWAP8 PUSH7 0x738566A8F066DD 0xDA PUSH8 0x12476746386779AF PUSH8 0xACAF67DF3A681152 PUSH9 0x42FA68743268A4FC68 0xD5 0x5C PUSH10 0x5536934E169640A6992 0xCF PUSH10 0xC13169EF326A1CD46A4A XOR PUSH11 0x76FF6AA38C6ACFC0A26469 PUSH17 0x6673582212204F905FE0579CAD7D46C7F4 0xE8 LT 0xE2 SHR 0xE5 PUSH27 0xB2A65919F34804A7C6C2BA21F5863164736F6C6343000704003300 "
    },
    "gasEstimates": {
      "creation": {
        "codeDepositCost": "216200",
        "executionCost": "285",
        "totalCost": "216485"
      },
      "external": {
        "getLog2TableTimes1M(uint256)": "infinite",
        "log2ApproxTimes1M(uint256)": "infinite"
      }
    },
    "methodIdentifiers": {
      "getLog2TableTimes1M(uint256)": "32ef283b",
      "log2ApproxTimes1M(uint256)": "e3581b68"
    }
  },
  "storageLayout": {
    "storage": [],
    "types": null
  },
  "userdoc": {
    "kind": "user",
    "methods": {
      "log2ApproxTimes1M(uint256)": {
        "notice": "Approximates log2 * 1M"
      }
    },
    "version": 1
  }
}