{
  "contractName": "Merkle",
  "sourceName": "contracts/Merkle.sol",
  "abi": [
    {
      "inputs": [
        {
          "internalType": "bytes32[]",
          "name": "hashes",
          "type": "bytes32[]"
        }
      ],
      "name": "calculateRootFromPowerOfTwo",
      "outputs": [
        {
          "internalType": "bytes32",
          "name": "",
          "type": "bytes32"
        }
      ],
      "stateMutability": "pure",
      "type": "function"
    },
    {
      "inputs": [
        {
          "internalType": "uint256",
          "name": "_index",
          "type": "uint256"
        }
      ],
      "name": "getEmptyTreeHashAtIndex",
      "outputs": [
        {
          "internalType": "bytes32",
          "name": "",
          "type": "bytes32"
        }
      ],
      "stateMutability": "pure",
      "type": "function"
    },
    {
      "inputs": [
        {
          "internalType": "bytes",
          "name": "_data",
          "type": "bytes"
        },
        {
          "internalType": "uint256",
          "name": "_wordIndex",
          "type": "uint256"
        }
      ],
      "name": "getHashOfWordAtIndex",
      "outputs": [
        {
          "internalType": "bytes32",
          "name": "",
          "type": "bytes32"
        }
      ],
      "stateMutability": "pure",
      "type": "function"
    },
    {
      "inputs": [
        {
          "internalType": "bytes",
          "name": "_data",
          "type": "bytes"
        },
        {
          "internalType": "uint8",
          "name": "_log2Size",
          "type": "uint8"
        }
      ],
      "name": "getMerkleRootFromBytes",
      "outputs": [
        {
          "internalType": "bytes32",
          "name": "",
          "type": "bytes32"
        }
      ],
      "stateMutability": "pure",
      "type": "function"
    },
    {
      "inputs": [
        {
          "internalType": "uint8",
          "name": "_log2Size",
          "type": "uint8"
        }
      ],
      "name": "getPristineHash",
      "outputs": [
        {
          "internalType": "bytes32",
          "name": "",
          "type": "bytes32"
        }
      ],
      "stateMutability": "pure",
      "type": "function"
    },
    {
      "inputs": [
        {
          "internalType": "uint64",
          "name": "_position",
          "type": "uint64"
        },
        {
          "internalType": "bytes8",
          "name": "_value",
          "type": "bytes8"
        },
        {
          "internalType": "bytes32[]",
          "name": "proof",
          "type": "bytes32[]"
        }
      ],
      "name": "getRoot",
      "outputs": [
        {
          "internalType": "bytes32",
          "name": "",
          "type": "bytes32"
        }
      ],
      "stateMutability": "pure",
      "type": "function"
    },
    {
      "inputs": [
        {
          "internalType": "uint64",
          "name": "_position",
          "type": "uint64"
        },
        {
          "internalType": "uint8",
          "name": "_logSizeOfReplacement",
          "type": "uint8"
        },
        {
          "internalType": "uint8",
          "name": "_logSizeOfFullDrive",
          "type": "uint8"
        },
        {
          "internalType": "bytes32",
          "name": "_replacement",
          "type": "bytes32"
        },
        {
          "internalType": "bytes32[]",
          "name": "siblings",
          "type": "bytes32[]"
        }
      ],
      "name": "getRootAfterReplacementInDrive",
      "outputs": [
        {
          "internalType": "bytes32",
          "name": "",
          "type": "bytes32"
        }
      ],
      "stateMutability": "pure",
      "type": "function"
    },
    {
      "inputs": [
        {
          "internalType": "uint64",
          "name": "_position",
          "type": "uint64"
        },
        {
          "internalType": "uint8",
          "name": "_logOfSize",
          "type": "uint8"
        },
        {
          "internalType": "bytes32",
          "name": "_drive",
          "type": "bytes32"
        },
        {
          "internalType": "bytes32[]",
          "name": "siblings",
          "type": "bytes32[]"
        }
      ],
      "name": "getRootWithDrive",
      "outputs": [
        {
          "internalType": "bytes32",
          "name": "",
          "type": "bytes32"
        }
      ],
      "stateMutability": "pure",
      "type": "function"
    }
  ],
  "bytecode": "0x611c2b61003a600b82828239805160001a60731461002d57634e487b7160e01b600052600060045260246000fd5b30600052607381538281f3fe73000000000000000000000000000000000000000030146080604052600436106100925760003560e01c806382b0eab81161006557806382b0eab8146100f55780638492d93b14610108578063a73426881461011b578063d7304dd91461012e57600080fd5b8063297081181461009757806334bd712d146100bc578063451a1055146100cf57806349fd2697146100e2575b600080fd5b6100aa6100a53660046111e5565b610141565b60405190815260200160405180910390f35b6100aa6100ca366004611048565b610460565b6100aa6100dd3660046110e5565b6105c9565b6100aa6100f0366004611091565b61065a565b6100aa610103366004610fee565b610b35565b6100aa610116366004611115565b610da3565b6100aa61012936600461125f565b610dee565b6100aa61013c36600461117e565b610ee4565b60008460ff168460ff1610156101ad5760405162461bcd60e51b815260206004820152602660248201527f5265706c6163656d656e7420626967676572207468616e206f726967696e616c60448201526520647269766560d01b60648201526084015b60405180910390fd5b60038560ff16101561020f5760405162461bcd60e51b815260206004820152602560248201527f5265706c6163656d656e74206d757374206265206174206c65617374206f6e65604482015264081ddbdc9960da1b60648201526084016101a4565b60408460ff16111561027e5760405162461bcd60e51b815260206004820152603260248201527f46756c6c2064726976652063616e277420626520626967676572207468616e206044820152713a34329036b0b1b434b7329034ba39b2b63360711b60648201526084016101a4565b600160ff861681901b908790610294908361138a565b166001600160401b03166000146102ed5760405162461bcd60e51b815260206004820152601760248201527f506f736974696f6e206973206e6f7420616c69676e656400000000000000000060448201526064016101a4565b6102f786866113b2565b60ff168351146103495760405162461bcd60e51b815260206004820152601b60248201527f50726f6f66206c656e67746820646f6573206e6f74206d61746368000000000060448201526064016101a4565b60005b8351816001600160401b03161015610454576001600160401b038281168183161b8916166103dd578484826001600160401b03168151811061039e57634e487b7160e01b600052603260045260246000fd5b60200260200101516040516020016103c0929190918252602082015260400190565b604051602081830303815290604052805190602001209450610442565b83816001600160401b03168151811061040657634e487b7160e01b600052603260045260246000fd5b602002602001015185604051602001610429929190918252602082015260400190565b6040516020818303038152906040528051906020012094505b8061044c816113f0565b91505061034c565b50929695505050505050565b6000600382901b81610473600883611317565b9050848211156104ba5760405162461bcd60e51b8152602060048201526012602482015271776f7264206f7574206f6620626f756e647360701b60448201526064016101a4565b8481116104fd576104cd818387896112ef565b6040516020016104de929190611297565b60405160208183030381529060405280519060200120925050506105c2565b604080516008808252818301909252600091602082018180368337019050509050600061052a8488611373565b905060005b818110156105b35788886105438388611317565b81811061056057634e487b7160e01b600052603260045260246000fd5b9050013560f81c60f81b83828151811061058a57634e487b7160e01b600052603260045260246000fd5b60200101906001600160f81b031916908160001a905350806105ab816113d5565b91505061052f565b50508051602090910120925050505b9392505050565b6000806105d7836020611354565b90506105e4816020611317565b6107a0101561062b5760405162461bcd60e51b8152602060048201526013602482015272696e646578206f7574206f6620626f756e647360681b60448201526064016101a4565b600080604051806107c001604052806107a081526020016114566107a091399290920160200151949350505050565b600060038260ff1610156106b05760405162461bcd60e51b815260206004820152601760248201527f4d757374206265206174206c65617374206120776f726400000000000000000060448201526064016101a4565b60408260ff1611156106d45760405162461bcd60e51b81526004016101a4906112a7565b826106f6576106ef6106e76003846113b2565b60ff166105c9565b90506105c2565b60006107036003846113b2565b60ff166001901b905084849050600382901b10156107635760405162461bcd60e51b815260206004820152601960248201527f6461746120697320626967676572207468616e2064726976650000000000000060448201526064016101a4565b6040516306c8e54b60e01b8152600385901c600482015260009073__$8b7ebe2a69e01741840a6648963dfd5409$__906306c8e54b9060240160206040518083038186803b1580156107b457600080fd5b505af41580156107c8573d6000803e3d6000fd5b505050506040513d601f19601f820116820180604052508101906107ec919061127b565b6107f790600261132f565b60ff1690506000816001600160401b0381111561082457634e487b7160e01b600052604160045260246000fd5b60405190808252806020026020018201604052801561084d578160200160208202803683370190505b5090506000806000805b86841015610a9157600384901b8a11156108b6576108768b8b86610460565b85848151811061089657634e487b7160e01b600052603260045260246000fd5b6020908102919091010152836108ab816113d5565b945050839150610984565b60405163052dcf5f60e31b81526004810185905273__$8b7ebe2a69e01741840a6648963dfd5409$__9063296e7af89060240160206040518083038186803b15801561090157600080fd5b505af4158015610915573d6000803e3d6000fd5b505050506040513d601f19601f8201168201806040525081019061093991906110fd565b9050610944816105c9565b85848151811061096457634e487b7160e01b600052603260045260246000fd5b602090810291909101015261097c6001821b85611317565b935083811c91505b8261098e816113d5565b9350505b60018216610a8c576000856109a8600186611373565b815181106109c657634e487b7160e01b600052603260045260246000fd5b602002602001015190506000866002866109e09190611373565b815181106109fe57634e487b7160e01b600052603260045260246000fd5b602002602001015190508082604051602001610a24929190918252602082015260400190565b6040516020818303038152906040528051906020012087600287610a489190611373565b81518110610a6657634e487b7160e01b600052603260045260246000fd5b6020908102919091010152610a7c600186611373565b9450600184901c93505050610992565b610857565b82600114610afc5760405162461bcd60e51b815260206004820152603260248201527f66756e6374696f6e20656e6465642062757420737461636b20686173206d6f7260448201527119481d1a185b881bdb9948195b195b595b9d60721b60648201526084016101a4565b84600081518110610b1d57634e487b7160e01b600052603260045260246000fd5b60200260200101519750505050505050509392505050565b805160405163d82ae4b160e01b815260009173__$8b7ebe2a69e01741840a6648963dfd5409$__9163d82ae4b191610b739160040190815260200190565b60206040518083038186803b158015610b8b57600080fd5b505af4158015610b9f573d6000803e3d6000fd5b505050506040513d601f19601f82011682018060405250810190610bc39190611028565b610c285760405162461bcd60e51b815260206004820152603060248201527f54686520696e707574206172726179206d75737420636f6e7461696e20706f7760448201526f6572206f66203220656c656d656e747360801b60648201526084016101a4565b815160011415610c625781600081518110610c5357634e487b7160e01b600052603260045260246000fd5b60200260200101519050919050565b600060018351901c6001600160401b03811115610c8f57634e487b7160e01b600052604160045260246000fd5b604051908082528060200260200182016040528015610cb8578160200160208202803683370190505b50905060005b8351811015610d9457838181518110610ce757634e487b7160e01b600052603260045260246000fd5b602002602001015184826001610cfd9190611317565b81518110610d1b57634e487b7160e01b600052603260045260246000fd5b6020026020010151604051602001610d3d929190918252602082015260400190565b6040516020818303038152906040528051906020012082600183901c81518110610d7757634e487b7160e01b600052603260045260246000fd5b6020908102919091010152610d8d600282611317565b9050610cbe565b506105c281610b35565b919050565b6040516001600160c01b0319831660208201526000908190602801604051602081830303815290604052805190602001209050610de585600360408487610141565b95945050505050565b600060038260ff161015610e445760405162461bcd60e51b815260206004820152601b60248201527f48617320746f206265206174206c65617374206f6e6520776f7264000000000060448201526064016101a4565b60408260ff161115610e685760405162461bcd60e51b81526004016101a4906112a7565b60408051600060208083018290528351600881850301815260289093019093528151919092012060035b8460ff16811015610edc5760408051602081018490529081018390526060016040516020818303038152906040528051906020012091508080610ed4906113d5565b915050610e92565b509392505050565b6000610de5858560408686610141565b600082601f830112610f04578081fd5b813560206001600160401b0380831115610f2057610f2061142d565b8260051b604051601f19603f83011681018181108482111715610f4557610f4561142d565b60405284815283810192508684018288018501891015610f63578687fd5b8692505b85831015610f85578035845292840192600192909201918401610f67565b50979650505050505050565b60008083601f840112610fa2578182fd5b5081356001600160401b03811115610fb8578182fd5b602083019150836020828501011115610fd057600080fd5b9250929050565b80356001600160401b0381168114610d9e57600080fd5b600060208284031215610fff578081fd5b81356001600160401b03811115611014578182fd5b61102084828501610ef4565b949350505050565b600060208284031215611039578081fd5b815180151581146105c2578182fd5b60008060006040848603121561105c578182fd5b83356001600160401b03811115611071578283fd5b61107d86828701610f91565b909790965060209590950135949350505050565b6000806000604084860312156110a5578283fd5b83356001600160401b038111156110ba578384fd5b6110c686828701610f91565b90945092505060208401356110da81611443565b809150509250925092565b6000602082840312156110f6578081fd5b5035919050565b60006020828403121561110e578081fd5b5051919050565b600080600060608486031215611129578283fd5b61113284610fd7565b925060208401356001600160c01b03198116811461114e578283fd5b915060408401356001600160401b03811115611168578182fd5b61117486828701610ef4565b9150509250925092565b60008060008060808587031215611193578081fd5b61119c85610fd7565b935060208501356111ac81611443565b92506040850135915060608501356001600160401b038111156111cd578182fd5b6111d987828801610ef4565b91505092959194509250565b600080600080600060a086880312156111fc578081fd5b61120586610fd7565b9450602086013561121581611443565b9350604086013561122581611443565b92506060860135915060808601356001600160401b03811115611246578182fd5b61125288828901610ef4565b9150509295509295909350565b600060208284031215611270578081fd5b81356105c281611443565b60006020828403121561128c578081fd5b81516105c281611443565b8183823760009101908152919050565b60208082526028908201527f43616e6e6f7420626520626967676572207468616e20746865206d616368696e604082015267329034ba39b2b63360c11b606082015260800190565b600080858511156112fe578182fd5b8386111561130a578182fd5b5050820193919092039150565b6000821982111561132a5761132a611417565b500190565b600060ff821660ff84168060ff0382111561134c5761134c611417565b019392505050565b600081600019048311821515161561136e5761136e611417565b500290565b60008282101561138557611385611417565b500390565b60006001600160401b03838116908316818110156113aa576113aa611417565b039392505050565b600060ff821660ff8416808210156113cc576113cc611417565b90039392505050565b60006000198214156113e9576113e9611417565b5060010190565b60006001600160401b038083168181141561140d5761140d611417565b6001019392505050565b634e487b7160e01b600052601160045260246000fd5b634e487b7160e01b600052604160045260246000fd5b60ff8116811461145257600080fd5b5056fe011b4d03dd8c01f1049143cf9c4c817e4b167f1d1b83e5c6f0f10d89ba1e7bce4d9470a821fbe90117ec357e30bad9305732fb19ddf54a07dd3e29f440619254ae39ce8537aca75e2eff3e38c98011dfe934e700a0967732fc07b430dd656a233fc9a15f5b4869c872f81087bb6104b7d63e6f9ab47f2c43f3535eae7172aa7f17d2dd614cddaa4d879276b11e0672c9560033d3e8453a1d045339d34ba601b9c37b8b13ca95166fb7af16988a70fcc90f38bf9126fd833da710a47fb37a55e68e7a427fa943d9966b389f4f257173676090c6e95f43e2cb6d65f8758111e30930b0b9deb73e155c59740bacf14a6ff04b64bb8e201a506409c3fe381ca4ea90cd5deac729d0fdaccc441d09d7325f41586ba13c801b7eccae0f95d8f3933efed8b96e5b7f6f459e9cb6a2f41bf276c7b85c10cd4662c04cbbb365434726c0a0c9695393027fb106a8153109ac516288a88b28a93817899460d6310b71cf1e6163e8806fa0d4b197a259e8c3ac28864268159d0ac85f8581ca28fa7d2c0c03eb91e3eee5ca7a3da2b3053c9770db73599fb149f620e3facef95e947c0ee860b72122e31e4bbd2b7c783d79cc30f60c6238651da7f0726f767d22747264fdb046f7549f26cc70ed5e18baeb6c81bb0625cb95bb4019aeecd40774ee87ae29ec517a71f6ee264c5d761379b3d7d617ca83677374b49d10aec50505ac087408ca892b573c267a712a52e1d06421fe276a03efb1889f337201110fdc32a81f8e152499af665835aabfdc6740c7e2c3791a31c3cdc9f5ab962f681b12fc092816a62f27d86025599a41233848702f0cfc0437b445682df51147a632a0a083d2d38b5e13e466a8935afff58bb533b3ef5d27fba63ee6b0fd9e67ff20af9d50deee3f8bf065ec220c1fd4ba57e341261d55997f85d66d32152526736872693d2b437a233e2337b715f6ac9a6a272622fdc2d67fcfe1da3459f8dab4ed7e40a657a54c36766c5e8ac9a88b35b05c34747e6507f6b044ab66180dc76ac1a696de03189593fedc0d0dbbd855c8ead673544899b0960e4a5a7ca43b4ef90afe607de7698caefdc242788f654b57a4fb32a71b335ef6ff9a4cc118b282b53bdd6d6192b7a82c3c5126b9c7e33c8e5a5ac9738b8bd31247fb7402054f97b573e8abb9faad219f4fd085aceaa7f542d787ee4196d365f3cc566e7bbcfbfd451230c48d804c017d21e2d8fa914e2559bb72bf0ab78c8ab92f00ef0d0d576eccdd486b64138a4172674857e543d1d5b639058dd908186597e366ad5f3d9c7ceaff44d04d1550b8d33abc751df07437834ba5acb32328a396994aebb3c40f759c2d6d7a3cb5377e55d5d218ef5a296dda8ddc355f3f50c3d0b660a51dfa4d98a6a5a33564556cf83c1373a814641d6a1dcef97b883fee61bb84fe60a3409340217e629cc7e4dcc93b85d8820921ff5826148b60e6939acd7838e1d7f20562bff8ee4b5ec4a05ad997a57b9796fdcb2eda87883c2640b072b140b946bfdf6575cacc066fdae04f6951e63624cbd316a677cad529bbe4e97b9144e4bc06c4afd1de55dd3e1175f90423847a230d34dfb71ed56f2965a7f6c72e6aa33c24c303fd67745d632656c5ef90bec80f4f5d1daa251988826cef375c81c36bf457e09687056f924677cb0bccf98dff81e014ce25f2d132497923e267363963cdf4302c5049d63131dc03fd95f65d8b6aa5934f817252c028c90f56d413b9d5d10d89790707dae2fabb249f649929927c21dd71e3f656826de5451c5da375aadecbd59d5ebf3a31fae65ac1b316a1611f1b276b26530f58d7247df459ce1f86db1d734f6f811932f042cee45d0e455306d01081bc3384f82c5fb2aacaa19d89cdfa46cc916eac61121475ba2e6191b4feecbe1789717021a158ace5d06744b40f551076b67cd63af60007f8c99876e1424883a45ec49d497ddaf808a5521ca74a999ab0b3c7aa9c80f85e93977ec61ce68b20307a1a81f71ca645b568fcd319ccbb5f651e87b707d37c39e15f945ea69e2f7c7d2ccc85b7e654c07e96f0636ae4044fe0e38590b431795ad0f8647bdd613713ada493cc17efd313206380e6a685b8198475bbd021c6e9d94daab2214947127506073e44d5408ba166c512a0b86805d07f5a44d3c41706be2bc15e712e55805248b92e8677d90f6d284d1d6ffaff2c430657042a0e82624fa3717b06cc0a6fd12230ea586dae83019fb9e06034ed2803c98d554b93c9a52348cafff75c40174a91f9ae6b8647854a156029f0b88b83316663ce574a4978277bb6bb27a31085634b6ec78864b6d8201c7e93903d75815067e378289a3d072ae172dafa6a452470f8d645bebfad9779594fc0784bb764a22e3a8181d93db7bf97893c414217a618ccb14caa9e92e8c61673afc9583662e812adba1f87a9c68202d60e909efab43c42c0cb00695fc7f1ffe67c75ca894c3c51e1e5e731360199e600f6ced9a87b2a6a87e70bf251bb5075ab222138288164b2eda727515ea7de12e2496d4fe42ea8d1a120c03cf9c50622c2afe4acb0dad98fd62d07ab4e828a94495f6d1ab973982c7ccbe6c1fae02788e4422ae22282fa49cbdb04ba54a7a238c6fc41187451383460762c06d1c8a72b9cd718866ad4b689e10c9a8c38fe5ef045bd785b01e980fc82c7e3532ce81876b778dd9f1ceeba4478e86411fb6fdd790683916ca832592485093644e8760cd7b4c01dba1ccc82b661bf13f0e3f34acd6b88a2646970667358221220813b9a38cd5e0772b16f859d9a66ce6200c68281ffac8c91413c40f7bf8e5d8c64736f6c63430008040033",
  "linkReferences": {
    "contracts/CartesiMath.sol": {
      "CartesiMath": [
        {
          "length": 20,
          "start": 1977
        },
        {
          "length": 20,
          "start": 2310
        },
        {
          "length": 20,
          "start": 2947
        }
      ]
    }
  },
  "deployedLinkReferences": {
    "contracts/CartesiMath.sol": {
      "CartesiMath": [
        {
          "length": 20,
          "start": 1919
        },
        {
          "length": 20,
          "start": 2252
        },
        {
          "length": 20,
          "start": 2889
        }
      ]
    }
  },
  "devdoc": {
    "kind": "dev",
    "methods": {
      "calculateRootFromPowerOfTwo(bytes32[])": {
        "params": {
          "hashes": "The array containing power of 2 elements"
        },
        "returns": {
          "_0": "byte32 the root hash being calculated"
        }
      },
      "getEmptyTreeHashAtIndex(uint256)": {
        "details": "first index is keccak(0), second index is keccak(keccak(0), keccak(0))",
        "params": {
          "_index": "of hash wanted"
        }
      },
      "getHashOfWordAtIndex(bytes,uint256)": {
        "details": "if word is incomplete (< 8 bytes) it gets padded with zeroes",
        "params": {
          "_data": "array of bytes",
          "_wordIndex": "index of word inside the bytes to get the hash of"
        }
      },
      "getMerkleRootFromBytes(bytes,uint8)": {
        "details": "_data is padded with zeroes until is multiple of 8root is completed with zero tree until log2size is completehashes are taken word by word (8 bytes by 8 bytes)",
        "params": {
          "_data": "array of bytes to be merklelized",
          "_log2Size": "log2 of total size of the drive"
        }
      },
      "getPristineHash(uint8)": {
        "details": "using the precomputed EMPTY_TREE_HASHES is cheaper",
        "params": {
          "_log2Size": "log2 of size of the empty drive"
        },
        "returns": {
          "_0": "merkle root hash of the drive of size 1 << log2Size filled with zeros"
        }
      },
      "getRoot(uint64,bytes8,bytes32[])": {
        "params": {
          "_position": "position of word in drive",
          "_value": "word to include in drive",
          "proof": "array of siblings to generate merkle root"
        },
        "returns": {
          "_0": "new merkle root hash after _value inclusion"
        }
      },
      "getRootAfterReplacementInDrive(uint64,uint8,uint8,bytes32,bytes32[])": {
        "params": {
          "_logSizeOfFullDrive": "log2 of size the full drive, which can be the entire machine",
          "_logSizeOfReplacement": "log2 of size the replacement",
          "_position": "position of _drive",
          "_replacement": "hash of the replacement",
          "siblings": "of replacement that merkle root can be calculated"
        }
      },
      "getRootWithDrive(uint64,uint8,bytes32,bytes32[])": {
        "params": {
          "_drive": "drive to be included",
          "_logOfSize": "log2 of size of _drive",
          "_position": "position of _drive",
          "siblings": "_drive's so that merkle root can be calculated"
        }
      }
    },
    "version": 1
  },
  "evm": {
    "bytecode": {
      "linkReferences": {
        "contracts/CartesiMath.sol": {
          "CartesiMath": [
            {
              "length": 20,
              "start": 1977
            },
            {
              "length": 20,
              "start": 2310
            },
            {
              "length": 20,
              "start": 2947
            }
          ]
        }
      },
      "opcodes": "PUSH2 0x1C2B PUSH2 0x3A PUSH1 0xB DUP3 DUP3 DUP3 CODECOPY DUP1 MLOAD PUSH1 0x0 BYTE PUSH1 0x73 EQ PUSH2 0x2D JUMPI PUSH4 0x4E487B71 PUSH1 0xE0 SHL PUSH1 0x0 MSTORE PUSH1 0x0 PUSH1 0x4 MSTORE PUSH1 0x24 PUSH1 0x0 REVERT JUMPDEST ADDRESS PUSH1 0x0 MSTORE PUSH1 0x73 DUP2 MSTORE8 DUP3 DUP2 RETURN INVALID PUSH20 0x0 ADDRESS EQ PUSH1 0x80 PUSH1 0x40 MSTORE PUSH1 0x4 CALLDATASIZE LT PUSH2 0x92 JUMPI PUSH1 0x0 CALLDATALOAD PUSH1 0xE0 SHR DUP1 PUSH4 0x82B0EAB8 GT PUSH2 0x65 JUMPI DUP1 PUSH4 0x82B0EAB8 EQ PUSH2 0xF5 JUMPI DUP1 PUSH4 0x8492D93B EQ PUSH2 0x108 JUMPI DUP1 PUSH4 0xA7342688 EQ PUSH2 0x11B JUMPI DUP1 PUSH4 0xD7304DD9 EQ PUSH2 0x12E JUMPI PUSH1 0x0 DUP1 REVERT JUMPDEST DUP1 PUSH4 0x29708118 EQ PUSH2 0x97 JUMPI DUP1 PUSH4 0x34BD712D EQ PUSH2 0xBC JUMPI DUP1 PUSH4 0x451A1055 EQ PUSH2 0xCF JUMPI DUP1 PUSH4 0x49FD2697 EQ PUSH2 0xE2 JUMPI JUMPDEST PUSH1 0x0 DUP1 REVERT JUMPDEST PUSH2 0xAA PUSH2 0xA5 CALLDATASIZE PUSH1 0x4 PUSH2 0x11E5 JUMP JUMPDEST PUSH2 0x141 JUMP JUMPDEST PUSH1 0x40 MLOAD SWAP1 DUP2 MSTORE PUSH1 0x20 ADD PUSH1 0x40 MLOAD DUP1 SWAP2 SUB SWAP1 RETURN JUMPDEST PUSH2 0xAA PUSH2 0xCA CALLDATASIZE PUSH1 0x4 PUSH2 0x1048 JUMP JUMPDEST PUSH2 0x460 JUMP JUMPDEST PUSH2 0xAA PUSH2 0xDD CALLDATASIZE PUSH1 0x4 PUSH2 0x10E5 JUMP JUMPDEST PUSH2 0x5C9 JUMP JUMPDEST PUSH2 0xAA PUSH2 0xF0 CALLDATASIZE PUSH1 0x4 PUSH2 0x1091 JUMP JUMPDEST PUSH2 0x65A JUMP JUMPDEST PUSH2 0xAA PUSH2 0x103 CALLDATASIZE PUSH1 0x4 PUSH2 0xFEE JUMP JUMPDEST PUSH2 0xB35 JUMP JUMPDEST PUSH2 0xAA PUSH2 0x116 CALLDATASIZE PUSH1 0x4 PUSH2 0x1115 JUMP JUMPDEST PUSH2 0xDA3 JUMP JUMPDEST PUSH2 0xAA PUSH2 0x129 CALLDATASIZE PUSH1 0x4 PUSH2 0x125F JUMP JUMPDEST PUSH2 0xDEE JUMP JUMPDEST PUSH2 0xAA PUSH2 0x13C CALLDATASIZE PUSH1 0x4 PUSH2 0x117E JUMP JUMPDEST PUSH2 0xEE4 JUMP JUMPDEST PUSH1 0x0 DUP5 PUSH1 0xFF AND DUP5 PUSH1 0xFF AND LT ISZERO PUSH2 0x1AD JUMPI PUSH1 0x40 MLOAD PUSH3 0x461BCD PUSH1 0xE5 SHL DUP2 MSTORE PUSH1 0x20 PUSH1 0x4 DUP3 ADD MSTORE PUSH1 0x26 PUSH1 0x24 DUP3 ADD MSTORE PUSH32 0x5265706C6163656D656E7420626967676572207468616E206F726967696E616C PUSH1 0x44 DUP3 ADD MSTORE PUSH6 0x206472697665 PUSH1 0xD0 SHL PUSH1 0x64 DUP3 ADD MSTORE PUSH1 0x84 ADD JUMPDEST PUSH1 0x40 MLOAD DUP1 SWAP2 SUB SWAP1 REVERT JUMPDEST PUSH1 0x3 DUP6 PUSH1 0xFF AND LT ISZERO PUSH2 0x20F JUMPI PUSH1 0x40 MLOAD PUSH3 0x461BCD PUSH1 0xE5 SHL DUP2 MSTORE PUSH1 0x20 PUSH1 0x4 DUP3 ADD MSTORE PUSH1 0x25 PUSH1 0x24 DUP3 ADD MSTORE PUSH32 0x5265706C6163656D656E74206D757374206265206174206C65617374206F6E65 PUSH1 0x44 DUP3 ADD MSTORE PUSH5 0x81DDBDC99 PUSH1 0xDA SHL PUSH1 0x64 DUP3 ADD MSTORE PUSH1 0x84 ADD PUSH2 0x1A4 JUMP JUMPDEST PUSH1 0x40 DUP5 PUSH1 0xFF AND GT ISZERO PUSH2 0x27E JUMPI PUSH1 0x40 MLOAD PUSH3 0x461BCD PUSH1 0xE5 SHL DUP2 MSTORE PUSH1 0x20 PUSH1 0x4 DUP3 ADD MSTORE PUSH1 0x32 PUSH1 0x24 DUP3 ADD MSTORE PUSH32 0x46756C6C2064726976652063616E277420626520626967676572207468616E20 PUSH1 0x44 DUP3 ADD MSTORE PUSH18 0x3A34329036B0B1B434B7329034BA39B2B633 PUSH1 0x71 SHL PUSH1 0x64 DUP3 ADD MSTORE PUSH1 0x84 ADD PUSH2 0x1A4 JUMP JUMPDEST PUSH1 0x1 PUSH1 0xFF DUP7 AND DUP2 SWAP1 SHL SWAP1 DUP8 SWAP1 PUSH2 0x294 SWAP1 DUP4 PUSH2 0x138A JUMP JUMPDEST AND PUSH1 0x1 PUSH1 0x1 PUSH1 0x40 SHL SUB AND PUSH1 0x0 EQ PUSH2 0x2ED JUMPI PUSH1 0x40 MLOAD PUSH3 0x461BCD PUSH1 0xE5 SHL DUP2 MSTORE PUSH1 0x20 PUSH1 0x4 DUP3 ADD MSTORE PUSH1 0x17 PUSH1 0x24 DUP3 ADD MSTORE PUSH32 0x506F736974696F6E206973206E6F7420616C69676E6564000000000000000000 PUSH1 0x44 DUP3 ADD MSTORE PUSH1 0x64 ADD PUSH2 0x1A4 JUMP JUMPDEST PUSH2 0x2F7 DUP7 DUP7 PUSH2 0x13B2 JUMP JUMPDEST PUSH1 0xFF AND DUP4 MLOAD EQ PUSH2 0x349 JUMPI PUSH1 0x40 MLOAD PUSH3 0x461BCD PUSH1 0xE5 SHL DUP2 MSTORE PUSH1 0x20 PUSH1 0x4 DUP3 ADD MSTORE PUSH1 0x1B PUSH1 0x24 DUP3 ADD MSTORE PUSH32 0x50726F6F66206C656E67746820646F6573206E6F74206D617463680000000000 PUSH1 0x44 DUP3 ADD MSTORE PUSH1 0x64 ADD PUSH2 0x1A4 JUMP JUMPDEST PUSH1 0x0 JUMPDEST DUP4 MLOAD DUP2 PUSH1 0x1 PUSH1 0x1 PUSH1 0x40 SHL SUB AND LT ISZERO PUSH2 0x454 JUMPI PUSH1 0x1 PUSH1 0x1 PUSH1 0x40 SHL SUB DUP3 DUP2 AND DUP2 DUP4 AND SHL DUP10 AND AND PUSH2 0x3DD JUMPI DUP5 DUP5 DUP3 PUSH1 0x1 PUSH1 0x1 PUSH1 0x40 SHL SUB AND DUP2 MLOAD DUP2 LT PUSH2 0x39E JUMPI PUSH4 0x4E487B71 PUSH1 0xE0 SHL PUSH1 0x0 MSTORE PUSH1 0x32 PUSH1 0x4 MSTORE PUSH1 0x24 PUSH1 0x0 REVERT JUMPDEST PUSH1 0x20 MUL PUSH1 0x20 ADD ADD MLOAD PUSH1 0x40 MLOAD PUSH1 0x20 ADD PUSH2 0x3C0 SWAP3 SWAP2 SWAP1 SWAP2 DUP3 MSTORE PUSH1 0x20 DUP3 ADD MSTORE PUSH1 0x40 ADD SWAP1 JUMP JUMPDEST PUSH1 0x40 MLOAD PUSH1 0x20 DUP2 DUP4 SUB SUB DUP2 MSTORE SWAP1 PUSH1 0x40 MSTORE DUP1 MLOAD SWAP1 PUSH1 0x20 ADD KECCAK256 SWAP5 POP PUSH2 0x442 JUMP JUMPDEST DUP4 DUP2 PUSH1 0x1 PUSH1 0x1 PUSH1 0x40 SHL SUB AND DUP2 MLOAD DUP2 LT PUSH2 0x406 JUMPI PUSH4 0x4E487B71 PUSH1 0xE0 SHL PUSH1 0x0 MSTORE PUSH1 0x32 PUSH1 0x4 MSTORE PUSH1 0x24 PUSH1 0x0 REVERT JUMPDEST PUSH1 0x20 MUL PUSH1 0x20 ADD ADD MLOAD DUP6 PUSH1 0x40 MLOAD PUSH1 0x20 ADD PUSH2 0x429 SWAP3 SWAP2 SWAP1 SWAP2 DUP3 MSTORE PUSH1 0x20 DUP3 ADD MSTORE PUSH1 0x40 ADD SWAP1 JUMP JUMPDEST PUSH1 0x40 MLOAD PUSH1 0x20 DUP2 DUP4 SUB SUB DUP2 MSTORE SWAP1 PUSH1 0x40 MSTORE DUP1 MLOAD SWAP1 PUSH1 0x20 ADD KECCAK256 SWAP5 POP JUMPDEST DUP1 PUSH2 0x44C DUP2 PUSH2 0x13F0 JUMP JUMPDEST SWAP2 POP POP PUSH2 0x34C JUMP JUMPDEST POP SWAP3 SWAP7 SWAP6 POP POP POP POP POP POP JUMP JUMPDEST PUSH1 0x0 PUSH1 0x3 DUP3 SWAP1 SHL DUP2 PUSH2 0x473 PUSH1 0x8 DUP4 PUSH2 0x1317 JUMP JUMPDEST SWAP1 POP DUP5 DUP3 GT ISZERO PUSH2 0x4BA JUMPI PUSH1 0x40 MLOAD PUSH3 0x461BCD PUSH1 0xE5 SHL DUP2 MSTORE PUSH1 0x20 PUSH1 0x4 DUP3 ADD MSTORE PUSH1 0x12 PUSH1 0x24 DUP3 ADD MSTORE PUSH18 0x776F7264206F7574206F6620626F756E6473 PUSH1 0x70 SHL PUSH1 0x44 DUP3 ADD MSTORE PUSH1 0x64 ADD PUSH2 0x1A4 JUMP JUMPDEST DUP5 DUP2 GT PUSH2 0x4FD JUMPI PUSH2 0x4CD DUP2 DUP4 DUP8 DUP10 PUSH2 0x12EF JUMP JUMPDEST PUSH1 0x40 MLOAD PUSH1 0x20 ADD PUSH2 0x4DE SWAP3 SWAP2 SWAP1 PUSH2 0x1297 JUMP JUMPDEST PUSH1 0x40 MLOAD PUSH1 0x20 DUP2 DUP4 SUB SUB DUP2 MSTORE SWAP1 PUSH1 0x40 MSTORE DUP1 MLOAD SWAP1 PUSH1 0x20 ADD KECCAK256 SWAP3 POP POP POP PUSH2 0x5C2 JUMP JUMPDEST PUSH1 0x40 DUP1 MLOAD PUSH1 0x8 DUP1 DUP3 MSTORE DUP2 DUP4 ADD SWAP1 SWAP3 MSTORE PUSH1 0x0 SWAP2 PUSH1 0x20 DUP3 ADD DUP2 DUP1 CALLDATASIZE DUP4 CALLDATACOPY ADD SWAP1 POP POP SWAP1 POP PUSH1 0x0 PUSH2 0x52A DUP5 DUP9 PUSH2 0x1373 JUMP JUMPDEST SWAP1 POP PUSH1 0x0 JUMPDEST DUP2 DUP2 LT ISZERO PUSH2 0x5B3 JUMPI DUP9 DUP9 PUSH2 0x543 DUP4 DUP9 PUSH2 0x1317 JUMP JUMPDEST DUP2 DUP2 LT PUSH2 0x560 JUMPI PUSH4 0x4E487B71 PUSH1 0xE0 SHL PUSH1 0x0 MSTORE PUSH1 0x32 PUSH1 0x4 MSTORE PUSH1 0x24 PUSH1 0x0 REVERT JUMPDEST SWAP1 POP ADD CALLDATALOAD PUSH1 0xF8 SHR PUSH1 0xF8 SHL DUP4 DUP3 DUP2 MLOAD DUP2 LT PUSH2 0x58A JUMPI PUSH4 0x4E487B71 PUSH1 0xE0 SHL PUSH1 0x0 MSTORE PUSH1 0x32 PUSH1 0x4 MSTORE PUSH1 0x24 PUSH1 0x0 REVERT JUMPDEST PUSH1 0x20 ADD ADD SWAP1 PUSH1 0x1 PUSH1 0x1 PUSH1 0xF8 SHL SUB NOT AND SWAP1 DUP2 PUSH1 0x0 BYTE SWAP1 MSTORE8 POP DUP1 PUSH2 0x5AB DUP2 PUSH2 0x13D5 JUMP JUMPDEST SWAP2 POP POP PUSH2 0x52F JUMP JUMPDEST POP POP DUP1 MLOAD PUSH1 0x20 SWAP1 SWAP2 ADD KECCAK256 SWAP3 POP POP POP JUMPDEST SWAP4 SWAP3 POP POP POP JUMP JUMPDEST PUSH1 0x0 DUP1 PUSH2 0x5D7 DUP4 PUSH1 0x20 PUSH2 0x1354 JUMP JUMPDEST SWAP1 POP PUSH2 0x5E4 DUP2 PUSH1 0x20 PUSH2 0x1317 JUMP JUMPDEST PUSH2 0x7A0 LT ISZERO PUSH2 0x62B JUMPI PUSH1 0x40 MLOAD PUSH3 0x461BCD PUSH1 0xE5 SHL DUP2 MSTORE PUSH1 0x20 PUSH1 0x4 DUP3 ADD MSTORE PUSH1 0x13 PUSH1 0x24 DUP3 ADD MSTORE PUSH19 0x696E646578206F7574206F6620626F756E6473 PUSH1 0x68 SHL PUSH1 0x44 DUP3 ADD MSTORE PUSH1 0x64 ADD PUSH2 0x1A4 JUMP JUMPDEST PUSH1 0x0 DUP1 PUSH1 0x40 MLOAD DUP1 PUSH2 0x7C0 ADD PUSH1 0x40 MSTORE DUP1 PUSH2 0x7A0 DUP2 MSTORE PUSH1 0x20 ADD PUSH2 0x1456 PUSH2 0x7A0 SWAP2 CODECOPY SWAP3 SWAP1 SWAP3 ADD PUSH1 0x20 ADD MLOAD SWAP5 SWAP4 POP POP POP POP JUMP JUMPDEST PUSH1 0x0 PUSH1 0x3 DUP3 PUSH1 0xFF AND LT ISZERO PUSH2 0x6B0 JUMPI PUSH1 0x40 MLOAD PUSH3 0x461BCD PUSH1 0xE5 SHL DUP2 MSTORE PUSH1 0x20 PUSH1 0x4 DUP3 ADD MSTORE PUSH1 0x17 PUSH1 0x24 DUP3 ADD MSTORE PUSH32 0x4D757374206265206174206C65617374206120776F7264000000000000000000 PUSH1 0x44 DUP3 ADD MSTORE PUSH1 0x64 ADD PUSH2 0x1A4 JUMP JUMPDEST PUSH1 0x40 DUP3 PUSH1 0xFF AND GT ISZERO PUSH2 0x6D4 JUMPI PUSH1 0x40 MLOAD PUSH3 0x461BCD PUSH1 0xE5 SHL DUP2 MSTORE PUSH1 0x4 ADD PUSH2 0x1A4 SWAP1 PUSH2 0x12A7 JUMP JUMPDEST DUP3 PUSH2 0x6F6 JUMPI PUSH2 0x6EF PUSH2 0x6E7 PUSH1 0x3 DUP5 PUSH2 0x13B2 JUMP JUMPDEST PUSH1 0xFF AND PUSH2 0x5C9 JUMP JUMPDEST SWAP1 POP PUSH2 0x5C2 JUMP JUMPDEST PUSH1 0x0 PUSH2 0x703 PUSH1 0x3 DUP5 PUSH2 0x13B2 JUMP JUMPDEST PUSH1 0xFF AND PUSH1 0x1 SWAP1 SHL SWAP1 POP DUP5 DUP5 SWAP1 POP PUSH1 0x3 DUP3 SWAP1 SHL LT ISZERO PUSH2 0x763 JUMPI PUSH1 0x40 MLOAD PUSH3 0x461BCD PUSH1 0xE5 SHL DUP2 MSTORE PUSH1 0x20 PUSH1 0x4 DUP3 ADD MSTORE PUSH1 0x19 PUSH1 0x24 DUP3 ADD MSTORE PUSH32 0x6461746120697320626967676572207468616E20647269766500000000000000 PUSH1 0x44 DUP3 ADD MSTORE PUSH1 0x64 ADD PUSH2 0x1A4 JUMP JUMPDEST PUSH1 0x40 MLOAD PUSH4 0x6C8E54B PUSH1 0xE0 SHL DUP2 MSTORE PUSH1 0x3 DUP6 SWAP1 SHR PUSH1 0x4 DUP3 ADD MSTORE PUSH1 0x0 SWAP1 PUSH20 0x0 SWAP1 PUSH4 0x6C8E54B SWAP1 PUSH1 0x24 ADD PUSH1 0x20 PUSH1 0x40 MLOAD DUP1 DUP4 SUB DUP2 DUP7 DUP1 EXTCODESIZE ISZERO DUP1 ISZERO PUSH2 0x7B4 JUMPI PUSH1 0x0 DUP1 REVERT JUMPDEST POP GAS DELEGATECALL ISZERO DUP1 ISZERO PUSH2 0x7C8 JUMPI RETURNDATASIZE PUSH1 0x0 DUP1 RETURNDATACOPY RETURNDATASIZE PUSH1 0x0 REVERT JUMPDEST POP POP POP POP PUSH1 0x40 MLOAD RETURNDATASIZE PUSH1 0x1F NOT PUSH1 0x1F DUP3 ADD AND DUP3 ADD DUP1 PUSH1 0x40 MSTORE POP DUP2 ADD SWAP1 PUSH2 0x7EC SWAP2 SWAP1 PUSH2 0x127B JUMP JUMPDEST PUSH2 0x7F7 SWAP1 PUSH1 0x2 PUSH2 0x132F JUMP JUMPDEST PUSH1 0xFF AND SWAP1 POP PUSH1 0x0 DUP2 PUSH1 0x1 PUSH1 0x1 PUSH1 0x40 SHL SUB DUP2 GT ISZERO PUSH2 0x824 JUMPI PUSH4 0x4E487B71 PUSH1 0xE0 SHL PUSH1 0x0 MSTORE PUSH1 0x41 PUSH1 0x4 MSTORE PUSH1 0x24 PUSH1 0x0 REVERT JUMPDEST PUSH1 0x40 MLOAD SWAP1 DUP1 DUP3 MSTORE DUP1 PUSH1 0x20 MUL PUSH1 0x20 ADD DUP3 ADD PUSH1 0x40 MSTORE DUP1 ISZERO PUSH2 0x84D JUMPI DUP2 PUSH1 0x20 ADD PUSH1 0x20 DUP3 MUL DUP1 CALLDATASIZE DUP4 CALLDATACOPY ADD SWAP1 POP JUMPDEST POP SWAP1 POP PUSH1 0x0 DUP1 PUSH1 0x0 DUP1 JUMPDEST DUP7 DUP5 LT ISZERO PUSH2 0xA91 JUMPI PUSH1 0x3 DUP5 SWAP1 SHL DUP11 GT ISZERO PUSH2 0x8B6 JUMPI PUSH2 0x876 DUP12 DUP12 DUP7 PUSH2 0x460 JUMP JUMPDEST DUP6 DUP5 DUP2 MLOAD DUP2 LT PUSH2 0x896 JUMPI PUSH4 0x4E487B71 PUSH1 0xE0 SHL PUSH1 0x0 MSTORE PUSH1 0x32 PUSH1 0x4 MSTORE PUSH1 0x24 PUSH1 0x0 REVERT JUMPDEST PUSH1 0x20 SWAP1 DUP2 MUL SWAP2 SWAP1 SWAP2 ADD ADD MSTORE DUP4 PUSH2 0x8AB DUP2 PUSH2 0x13D5 JUMP JUMPDEST SWAP5 POP POP DUP4 SWAP2 POP PUSH2 0x984 JUMP JUMPDEST PUSH1 0x40 MLOAD PUSH4 0x52DCF5F PUSH1 0xE3 SHL DUP2 MSTORE PUSH1 0x4 DUP2 ADD DUP6 SWAP1 MSTORE PUSH20 0x0 SWAP1 PUSH4 0x296E7AF8 SWAP1 PUSH1 0x24 ADD PUSH1 0x20 PUSH1 0x40 MLOAD DUP1 DUP4 SUB DUP2 DUP7 DUP1 EXTCODESIZE ISZERO DUP1 ISZERO PUSH2 0x901 JUMPI PUSH1 0x0 DUP1 REVERT JUMPDEST POP GAS DELEGATECALL ISZERO DUP1 ISZERO PUSH2 0x915 JUMPI RETURNDATASIZE PUSH1 0x0 DUP1 RETURNDATACOPY RETURNDATASIZE PUSH1 0x0 REVERT JUMPDEST POP POP POP POP PUSH1 0x40 MLOAD RETURNDATASIZE PUSH1 0x1F NOT PUSH1 0x1F DUP3 ADD AND DUP3 ADD DUP1 PUSH1 0x40 MSTORE POP DUP2 ADD SWAP1 PUSH2 0x939 SWAP2 SWAP1 PUSH2 0x10FD JUMP JUMPDEST SWAP1 POP PUSH2 0x944 DUP2 PUSH2 0x5C9 JUMP JUMPDEST DUP6 DUP5 DUP2 MLOAD DUP2 LT PUSH2 0x964 JUMPI PUSH4 0x4E487B71 PUSH1 0xE0 SHL PUSH1 0x0 MSTORE PUSH1 0x32 PUSH1 0x4 MSTORE PUSH1 0x24 PUSH1 0x0 REVERT JUMPDEST PUSH1 0x20 SWAP1 DUP2 MUL SWAP2 SWAP1 SWAP2 ADD ADD MSTORE PUSH2 0x97C PUSH1 0x1 DUP3 SHL DUP6 PUSH2 0x1317 JUMP JUMPDEST SWAP4 POP DUP4 DUP2 SHR SWAP2 POP JUMPDEST DUP3 PUSH2 0x98E DUP2 PUSH2 0x13D5 JUMP JUMPDEST SWAP4 POP POP JUMPDEST PUSH1 0x1 DUP3 AND PUSH2 0xA8C JUMPI PUSH1 0x0 DUP6 PUSH2 0x9A8 PUSH1 0x1 DUP7 PUSH2 0x1373 JUMP JUMPDEST DUP2 MLOAD DUP2 LT PUSH2 0x9C6 JUMPI PUSH4 0x4E487B71 PUSH1 0xE0 SHL PUSH1 0x0 MSTORE PUSH1 0x32 PUSH1 0x4 MSTORE PUSH1 0x24 PUSH1 0x0 REVERT JUMPDEST PUSH1 0x20 MUL PUSH1 0x20 ADD ADD MLOAD SWAP1 POP PUSH1 0x0 DUP7 PUSH1 0x2 DUP7 PUSH2 0x9E0 SWAP2 SWAP1 PUSH2 0x1373 JUMP JUMPDEST DUP2 MLOAD DUP2 LT PUSH2 0x9FE JUMPI PUSH4 0x4E487B71 PUSH1 0xE0 SHL PUSH1 0x0 MSTORE PUSH1 0x32 PUSH1 0x4 MSTORE PUSH1 0x24 PUSH1 0x0 REVERT JUMPDEST PUSH1 0x20 MUL PUSH1 0x20 ADD ADD MLOAD SWAP1 POP DUP1 DUP3 PUSH1 0x40 MLOAD PUSH1 0x20 ADD PUSH2 0xA24 SWAP3 SWAP2 SWAP1 SWAP2 DUP3 MSTORE PUSH1 0x20 DUP3 ADD MSTORE PUSH1 0x40 ADD SWAP1 JUMP JUMPDEST PUSH1 0x40 MLOAD PUSH1 0x20 DUP2 DUP4 SUB SUB DUP2 MSTORE SWAP1 PUSH1 0x40 MSTORE DUP1 MLOAD SWAP1 PUSH1 0x20 ADD KECCAK256 DUP8 PUSH1 0x2 DUP8 PUSH2 0xA48 SWAP2 SWAP1 PUSH2 0x1373 JUMP JUMPDEST DUP2 MLOAD DUP2 LT PUSH2 0xA66 JUMPI PUSH4 0x4E487B71 PUSH1 0xE0 SHL PUSH1 0x0 MSTORE PUSH1 0x32 PUSH1 0x4 MSTORE PUSH1 0x24 PUSH1 0x0 REVERT JUMPDEST PUSH1 0x20 SWAP1 DUP2 MUL SWAP2 SWAP1 SWAP2 ADD ADD MSTORE PUSH2 0xA7C PUSH1 0x1 DUP7 PUSH2 0x1373 JUMP JUMPDEST SWAP5 POP PUSH1 0x1 DUP5 SWAP1 SHR SWAP4 POP POP POP PUSH2 0x992 JUMP JUMPDEST PUSH2 0x857 JUMP JUMPDEST DUP3 PUSH1 0x1 EQ PUSH2 0xAFC JUMPI PUSH1 0x40 MLOAD PUSH3 0x461BCD PUSH1 0xE5 SHL DUP2 MSTORE PUSH1 0x20 PUSH1 0x4 DUP3 ADD MSTORE PUSH1 0x32 PUSH1 0x24 DUP3 ADD MSTORE PUSH32 0x66756E6374696F6E20656E6465642062757420737461636B20686173206D6F72 PUSH1 0x44 DUP3 ADD MSTORE PUSH18 0x19481D1A185B881BDB9948195B195B595B9D PUSH1 0x72 SHL PUSH1 0x64 DUP3 ADD MSTORE PUSH1 0x84 ADD PUSH2 0x1A4 JUMP JUMPDEST DUP5 PUSH1 0x0 DUP2 MLOAD DUP2 LT PUSH2 0xB1D JUMPI PUSH4 0x4E487B71 PUSH1 0xE0 SHL PUSH1 0x0 MSTORE PUSH1 0x32 PUSH1 0x4 MSTORE PUSH1 0x24 PUSH1 0x0 REVERT JUMPDEST PUSH1 0x20 MUL PUSH1 0x20 ADD ADD MLOAD SWAP8 POP POP POP POP POP POP POP POP SWAP4 SWAP3 POP POP POP JUMP JUMPDEST DUP1 MLOAD PUSH1 0x40 MLOAD PUSH4 0xD82AE4B1 PUSH1 0xE0 SHL DUP2 MSTORE PUSH1 0x0 SWAP2 PUSH20 0x0 SWAP2 PUSH4 0xD82AE4B1 SWAP2 PUSH2 0xB73 SWAP2 PUSH1 0x4 ADD SWAP1 DUP2 MSTORE PUSH1 0x20 ADD SWAP1 JUMP JUMPDEST PUSH1 0x20 PUSH1 0x40 MLOAD DUP1 DUP4 SUB DUP2 DUP7 DUP1 EXTCODESIZE ISZERO DUP1 ISZERO PUSH2 0xB8B JUMPI PUSH1 0x0 DUP1 REVERT JUMPDEST POP GAS DELEGATECALL ISZERO DUP1 ISZERO PUSH2 0xB9F JUMPI RETURNDATASIZE PUSH1 0x0 DUP1 RETURNDATACOPY RETURNDATASIZE PUSH1 0x0 REVERT JUMPDEST POP POP POP POP PUSH1 0x40 MLOAD RETURNDATASIZE PUSH1 0x1F NOT PUSH1 0x1F DUP3 ADD AND DUP3 ADD DUP1 PUSH1 0x40 MSTORE POP DUP2 ADD SWAP1 PUSH2 0xBC3 SWAP2 SWAP1 PUSH2 0x1028 JUMP JUMPDEST PUSH2 0xC28 JUMPI PUSH1 0x40 MLOAD PUSH3 0x461BCD PUSH1 0xE5 SHL DUP2 MSTORE PUSH1 0x20 PUSH1 0x4 DUP3 ADD MSTORE PUSH1 0x30 PUSH1 0x24 DUP3 ADD MSTORE PUSH32 0x54686520696E707574206172726179206D75737420636F6E7461696E20706F77 PUSH1 0x44 DUP3 ADD MSTORE PUSH16 0x6572206F66203220656C656D656E7473 PUSH1 0x80 SHL PUSH1 0x64 DUP3 ADD MSTORE PUSH1 0x84 ADD PUSH2 0x1A4 JUMP JUMPDEST DUP2 MLOAD PUSH1 0x1 EQ ISZERO PUSH2 0xC62 JUMPI DUP2 PUSH1 0x0 DUP2 MLOAD DUP2 LT PUSH2 0xC53 JUMPI PUSH4 0x4E487B71 PUSH1 0xE0 SHL PUSH1 0x0 MSTORE PUSH1 0x32 PUSH1 0x4 MSTORE PUSH1 0x24 PUSH1 0x0 REVERT JUMPDEST PUSH1 0x20 MUL PUSH1 0x20 ADD ADD MLOAD SWAP1 POP SWAP2 SWAP1 POP JUMP JUMPDEST PUSH1 0x0 PUSH1 0x1 DUP4 MLOAD SWAP1 SHR PUSH1 0x1 PUSH1 0x1 PUSH1 0x40 SHL SUB DUP2 GT ISZERO PUSH2 0xC8F JUMPI PUSH4 0x4E487B71 PUSH1 0xE0 SHL PUSH1 0x0 MSTORE PUSH1 0x41 PUSH1 0x4 MSTORE PUSH1 0x24 PUSH1 0x0 REVERT JUMPDEST PUSH1 0x40 MLOAD SWAP1 DUP1 DUP3 MSTORE DUP1 PUSH1 0x20 MUL PUSH1 0x20 ADD DUP3 ADD PUSH1 0x40 MSTORE DUP1 ISZERO PUSH2 0xCB8 JUMPI DUP2 PUSH1 0x20 ADD PUSH1 0x20 DUP3 MUL DUP1 CALLDATASIZE DUP4 CALLDATACOPY ADD SWAP1 POP JUMPDEST POP SWAP1 POP PUSH1 0x0 JUMPDEST DUP4 MLOAD DUP2 LT ISZERO PUSH2 0xD94 JUMPI DUP4 DUP2 DUP2 MLOAD DUP2 LT PUSH2 0xCE7 JUMPI PUSH4 0x4E487B71 PUSH1 0xE0 SHL PUSH1 0x0 MSTORE PUSH1 0x32 PUSH1 0x4 MSTORE PUSH1 0x24 PUSH1 0x0 REVERT JUMPDEST PUSH1 0x20 MUL PUSH1 0x20 ADD ADD MLOAD DUP5 DUP3 PUSH1 0x1 PUSH2 0xCFD SWAP2 SWAP1 PUSH2 0x1317 JUMP JUMPDEST DUP2 MLOAD DUP2 LT PUSH2 0xD1B JUMPI PUSH4 0x4E487B71 PUSH1 0xE0 SHL PUSH1 0x0 MSTORE PUSH1 0x32 PUSH1 0x4 MSTORE PUSH1 0x24 PUSH1 0x0 REVERT JUMPDEST PUSH1 0x20 MUL PUSH1 0x20 ADD ADD MLOAD PUSH1 0x40 MLOAD PUSH1 0x20 ADD PUSH2 0xD3D SWAP3 SWAP2 SWAP1 SWAP2 DUP3 MSTORE PUSH1 0x20 DUP3 ADD MSTORE PUSH1 0x40 ADD SWAP1 JUMP JUMPDEST PUSH1 0x40 MLOAD PUSH1 0x20 DUP2 DUP4 SUB SUB DUP2 MSTORE SWAP1 PUSH1 0x40 MSTORE DUP1 MLOAD SWAP1 PUSH1 0x20 ADD KECCAK256 DUP3 PUSH1 0x1 DUP4 SWAP1 SHR DUP2 MLOAD DUP2 LT PUSH2 0xD77 JUMPI PUSH4 0x4E487B71 PUSH1 0xE0 SHL PUSH1 0x0 MSTORE PUSH1 0x32 PUSH1 0x4 MSTORE PUSH1 0x24 PUSH1 0x0 REVERT JUMPDEST PUSH1 0x20 SWAP1 DUP2 MUL SWAP2 SWAP1 SWAP2 ADD ADD MSTORE PUSH2 0xD8D PUSH1 0x2 DUP3 PUSH2 0x1317 JUMP JUMPDEST SWAP1 POP PUSH2 0xCBE JUMP JUMPDEST POP PUSH2 0x5C2 DUP2 PUSH2 0xB35 JUMP JUMPDEST SWAP2 SWAP1 POP JUMP JUMPDEST PUSH1 0x40 MLOAD PUSH1 0x1 PUSH1 0x1 PUSH1 0xC0 SHL SUB NOT DUP4 AND PUSH1 0x20 DUP3 ADD MSTORE PUSH1 0x0 SWAP1 DUP2 SWAP1 PUSH1 0x28 ADD PUSH1 0x40 MLOAD PUSH1 0x20 DUP2 DUP4 SUB SUB DUP2 MSTORE SWAP1 PUSH1 0x40 MSTORE DUP1 MLOAD SWAP1 PUSH1 0x20 ADD KECCAK256 SWAP1 POP PUSH2 0xDE5 DUP6 PUSH1 0x3 PUSH1 0x40 DUP5 DUP8 PUSH2 0x141 JUMP JUMPDEST SWAP6 SWAP5 POP POP POP POP POP JUMP JUMPDEST PUSH1 0x0 PUSH1 0x3 DUP3 PUSH1 0xFF AND LT ISZERO PUSH2 0xE44 JUMPI PUSH1 0x40 MLOAD PUSH3 0x461BCD PUSH1 0xE5 SHL DUP2 MSTORE PUSH1 0x20 PUSH1 0x4 DUP3 ADD MSTORE PUSH1 0x1B PUSH1 0x24 DUP3 ADD MSTORE PUSH32 0x48617320746F206265206174206C65617374206F6E6520776F72640000000000 PUSH1 0x44 DUP3 ADD MSTORE PUSH1 0x64 ADD PUSH2 0x1A4 JUMP JUMPDEST PUSH1 0x40 DUP3 PUSH1 0xFF AND GT ISZERO PUSH2 0xE68 JUMPI PUSH1 0x40 MLOAD PUSH3 0x461BCD PUSH1 0xE5 SHL DUP2 MSTORE PUSH1 0x4 ADD PUSH2 0x1A4 SWAP1 PUSH2 0x12A7 JUMP JUMPDEST PUSH1 0x40 DUP1 MLOAD PUSH1 0x0 PUSH1 0x20 DUP1 DUP4 ADD DUP3 SWAP1 MSTORE DUP4 MLOAD PUSH1 0x8 DUP2 DUP6 SUB ADD DUP2 MSTORE PUSH1 0x28 SWAP1 SWAP4 ADD SWAP1 SWAP4 MSTORE DUP2 MLOAD SWAP2 SWAP1 SWAP3 ADD KECCAK256 PUSH1 0x3 JUMPDEST DUP5 PUSH1 0xFF AND DUP2 LT ISZERO PUSH2 0xEDC JUMPI PUSH1 0x40 DUP1 MLOAD PUSH1 0x20 DUP2 ADD DUP5 SWAP1 MSTORE SWAP1 DUP2 ADD DUP4 SWAP1 MSTORE PUSH1 0x60 ADD PUSH1 0x40 MLOAD PUSH1 0x20 DUP2 DUP4 SUB SUB DUP2 MSTORE SWAP1 PUSH1 0x40 MSTORE DUP1 MLOAD SWAP1 PUSH1 0x20 ADD KECCAK256 SWAP2 POP DUP1 DUP1 PUSH2 0xED4 SWAP1 PUSH2 0x13D5 JUMP JUMPDEST SWAP2 POP POP PUSH2 0xE92 JUMP JUMPDEST POP SWAP4 SWAP3 POP POP POP JUMP JUMPDEST PUSH1 0x0 PUSH2 0xDE5 DUP6 DUP6 PUSH1 0x40 DUP7 DUP7 PUSH2 0x141 JUMP JUMPDEST PUSH1 0x0 DUP3 PUSH1 0x1F DUP4 ADD SLT PUSH2 0xF04 JUMPI DUP1 DUP2 REVERT JUMPDEST DUP2 CALLDATALOAD PUSH1 0x20 PUSH1 0x1 PUSH1 0x1 PUSH1 0x40 SHL SUB DUP1 DUP4 GT ISZERO PUSH2 0xF20 JUMPI PUSH2 0xF20 PUSH2 0x142D JUMP JUMPDEST DUP3 PUSH1 0x5 SHL PUSH1 0x40 MLOAD PUSH1 0x1F NOT PUSH1 0x3F DUP4 ADD AND DUP2 ADD DUP2 DUP2 LT DUP5 DUP3 GT OR ISZERO PUSH2 0xF45 JUMPI PUSH2 0xF45 PUSH2 0x142D JUMP JUMPDEST PUSH1 0x40 MSTORE DUP5 DUP2 MSTORE DUP4 DUP2 ADD SWAP3 POP DUP7 DUP5 ADD DUP3 DUP9 ADD DUP6 ADD DUP10 LT ISZERO PUSH2 0xF63 JUMPI DUP7 DUP8 REVERT JUMPDEST DUP7 SWAP3 POP JUMPDEST DUP6 DUP4 LT ISZERO PUSH2 0xF85 JUMPI DUP1 CALLDATALOAD DUP5 MSTORE SWAP3 DUP5 ADD SWAP3 PUSH1 0x1 SWAP3 SWAP1 SWAP3 ADD SWAP2 DUP5 ADD PUSH2 0xF67 JUMP JUMPDEST POP SWAP8 SWAP7 POP POP POP POP POP POP POP JUMP JUMPDEST PUSH1 0x0 DUP1 DUP4 PUSH1 0x1F DUP5 ADD SLT PUSH2 0xFA2 JUMPI DUP2 DUP3 REVERT JUMPDEST POP DUP2 CALLDATALOAD PUSH1 0x1 PUSH1 0x1 PUSH1 0x40 SHL SUB DUP2 GT ISZERO PUSH2 0xFB8 JUMPI DUP2 DUP3 REVERT JUMPDEST PUSH1 0x20 DUP4 ADD SWAP2 POP DUP4 PUSH1 0x20 DUP3 DUP6 ADD ADD GT ISZERO PUSH2 0xFD0 JUMPI PUSH1 0x0 DUP1 REVERT JUMPDEST SWAP3 POP SWAP3 SWAP1 POP JUMP JUMPDEST DUP1 CALLDATALOAD PUSH1 0x1 PUSH1 0x1 PUSH1 0x40 SHL SUB DUP2 AND DUP2 EQ PUSH2 0xD9E JUMPI PUSH1 0x0 DUP1 REVERT JUMPDEST PUSH1 0x0 PUSH1 0x20 DUP3 DUP5 SUB SLT ISZERO PUSH2 0xFFF JUMPI DUP1 DUP2 REVERT JUMPDEST DUP2 CALLDATALOAD PUSH1 0x1 PUSH1 0x1 PUSH1 0x40 SHL SUB DUP2 GT ISZERO PUSH2 0x1014 JUMPI DUP2 DUP3 REVERT JUMPDEST PUSH2 0x1020 DUP5 DUP3 DUP6 ADD PUSH2 0xEF4 JUMP JUMPDEST SWAP5 SWAP4 POP POP POP POP JUMP JUMPDEST PUSH1 0x0 PUSH1 0x20 DUP3 DUP5 SUB SLT ISZERO PUSH2 0x1039 JUMPI DUP1 DUP2 REVERT JUMPDEST DUP2 MLOAD DUP1 ISZERO ISZERO DUP2 EQ PUSH2 0x5C2 JUMPI DUP2 DUP3 REVERT JUMPDEST PUSH1 0x0 DUP1 PUSH1 0x0 PUSH1 0x40 DUP5 DUP7 SUB SLT ISZERO PUSH2 0x105C JUMPI DUP2 DUP3 REVERT JUMPDEST DUP4 CALLDATALOAD PUSH1 0x1 PUSH1 0x1 PUSH1 0x40 SHL SUB DUP2 GT ISZERO PUSH2 0x1071 JUMPI DUP3 DUP4 REVERT JUMPDEST PUSH2 0x107D DUP7 DUP3 DUP8 ADD PUSH2 0xF91 JUMP JUMPDEST SWAP1 SWAP8 SWAP1 SWAP7 POP PUSH1 0x20 SWAP6 SWAP1 SWAP6 ADD CALLDATALOAD SWAP5 SWAP4 POP POP POP POP JUMP JUMPDEST PUSH1 0x0 DUP1 PUSH1 0x0 PUSH1 0x40 DUP5 DUP7 SUB SLT ISZERO PUSH2 0x10A5 JUMPI DUP3 DUP4 REVERT JUMPDEST DUP4 CALLDATALOAD PUSH1 0x1 PUSH1 0x1 PUSH1 0x40 SHL SUB DUP2 GT ISZERO PUSH2 0x10BA JUMPI DUP4 DUP5 REVERT JUMPDEST PUSH2 0x10C6 DUP7 DUP3 DUP8 ADD PUSH2 0xF91 JUMP JUMPDEST SWAP1 SWAP5 POP SWAP3 POP POP PUSH1 0x20 DUP5 ADD CALLDATALOAD PUSH2 0x10DA DUP2 PUSH2 0x1443 JUMP JUMPDEST DUP1 SWAP2 POP POP SWAP3 POP SWAP3 POP SWAP3 JUMP JUMPDEST PUSH1 0x0 PUSH1 0x20 DUP3 DUP5 SUB SLT ISZERO PUSH2 0x10F6 JUMPI DUP1 DUP2 REVERT JUMPDEST POP CALLDATALOAD SWAP2 SWAP1 POP JUMP JUMPDEST PUSH1 0x0 PUSH1 0x20 DUP3 DUP5 SUB SLT ISZERO PUSH2 0x110E JUMPI DUP1 DUP2 REVERT JUMPDEST POP MLOAD SWAP2 SWAP1 POP JUMP JUMPDEST PUSH1 0x0 DUP1 PUSH1 0x0 PUSH1 0x60 DUP5 DUP7 SUB SLT ISZERO PUSH2 0x1129 JUMPI DUP3 DUP4 REVERT JUMPDEST PUSH2 0x1132 DUP5 PUSH2 0xFD7 JUMP JUMPDEST SWAP3 POP PUSH1 0x20 DUP5 ADD CALLDATALOAD PUSH1 0x1 PUSH1 0x1 PUSH1 0xC0 SHL SUB NOT DUP2 AND DUP2 EQ PUSH2 0x114E JUMPI DUP3 DUP4 REVERT JUMPDEST SWAP2 POP PUSH1 0x40 DUP5 ADD CALLDATALOAD PUSH1 0x1 PUSH1 0x1 PUSH1 0x40 SHL SUB DUP2 GT ISZERO PUSH2 0x1168 JUMPI DUP2 DUP3 REVERT JUMPDEST PUSH2 0x1174 DUP7 DUP3 DUP8 ADD PUSH2 0xEF4 JUMP JUMPDEST SWAP2 POP POP SWAP3 POP SWAP3 POP SWAP3 JUMP JUMPDEST PUSH1 0x0 DUP1 PUSH1 0x0 DUP1 PUSH1 0x80 DUP6 DUP8 SUB SLT ISZERO PUSH2 0x1193 JUMPI DUP1 DUP2 REVERT JUMPDEST PUSH2 0x119C DUP6 PUSH2 0xFD7 JUMP JUMPDEST SWAP4 POP PUSH1 0x20 DUP6 ADD CALLDATALOAD PUSH2 0x11AC DUP2 PUSH2 0x1443 JUMP JUMPDEST SWAP3 POP PUSH1 0x40 DUP6 ADD CALLDATALOAD SWAP2 POP PUSH1 0x60 DUP6 ADD CALLDATALOAD PUSH1 0x1 PUSH1 0x1 PUSH1 0x40 SHL SUB DUP2 GT ISZERO PUSH2 0x11CD JUMPI DUP2 DUP3 REVERT JUMPDEST PUSH2 0x11D9 DUP8 DUP3 DUP9 ADD PUSH2 0xEF4 JUMP JUMPDEST SWAP2 POP POP SWAP3 SWAP6 SWAP2 SWAP5 POP SWAP3 POP JUMP JUMPDEST PUSH1 0x0 DUP1 PUSH1 0x0 DUP1 PUSH1 0x0 PUSH1 0xA0 DUP7 DUP9 SUB SLT ISZERO PUSH2 0x11FC JUMPI DUP1 DUP2 REVERT JUMPDEST PUSH2 0x1205 DUP7 PUSH2 0xFD7 JUMP JUMPDEST SWAP5 POP PUSH1 0x20 DUP7 ADD CALLDATALOAD PUSH2 0x1215 DUP2 PUSH2 0x1443 JUMP JUMPDEST SWAP4 POP PUSH1 0x40 DUP7 ADD CALLDATALOAD PUSH2 0x1225 DUP2 PUSH2 0x1443 JUMP JUMPDEST SWAP3 POP PUSH1 0x60 DUP7 ADD CALLDATALOAD SWAP2 POP PUSH1 0x80 DUP7 ADD CALLDATALOAD PUSH1 0x1 PUSH1 0x1 PUSH1 0x40 SHL SUB DUP2 GT ISZERO PUSH2 0x1246 JUMPI DUP2 DUP3 REVERT JUMPDEST PUSH2 0x1252 DUP9 DUP3 DUP10 ADD PUSH2 0xEF4 JUMP JUMPDEST SWAP2 POP POP SWAP3 SWAP6 POP SWAP3 SWAP6 SWAP1 SWAP4 POP JUMP JUMPDEST PUSH1 0x0 PUSH1 0x20 DUP3 DUP5 SUB SLT ISZERO PUSH2 0x1270 JUMPI DUP1 DUP2 REVERT JUMPDEST DUP2 CALLDATALOAD PUSH2 0x5C2 DUP2 PUSH2 0x1443 JUMP JUMPDEST PUSH1 0x0 PUSH1 0x20 DUP3 DUP5 SUB SLT ISZERO PUSH2 0x128C JUMPI DUP1 DUP2 REVERT JUMPDEST DUP2 MLOAD PUSH2 0x5C2 DUP2 PUSH2 0x1443 JUMP JUMPDEST DUP2 DUP4 DUP3 CALLDATACOPY PUSH1 0x0 SWAP2 ADD SWAP1 DUP2 MSTORE SWAP2 SWAP1 POP JUMP JUMPDEST PUSH1 0x20 DUP1 DUP3 MSTORE PUSH1 0x28 SWAP1 DUP3 ADD MSTORE PUSH32 0x43616E6E6F7420626520626967676572207468616E20746865206D616368696E PUSH1 0x40 DUP3 ADD MSTORE PUSH8 0x329034BA39B2B633 PUSH1 0xC1 SHL PUSH1 0x60 DUP3 ADD MSTORE PUSH1 0x80 ADD SWAP1 JUMP JUMPDEST PUSH1 0x0 DUP1 DUP6 DUP6 GT ISZERO PUSH2 0x12FE JUMPI DUP2 DUP3 REVERT JUMPDEST DUP4 DUP7 GT ISZERO PUSH2 0x130A JUMPI DUP2 DUP3 REVERT JUMPDEST POP POP DUP3 ADD SWAP4 SWAP2 SWAP1 SWAP3 SUB SWAP2 POP JUMP JUMPDEST PUSH1 0x0 DUP3 NOT DUP3 GT ISZERO PUSH2 0x132A JUMPI PUSH2 0x132A PUSH2 0x1417 JUMP JUMPDEST POP ADD SWAP1 JUMP JUMPDEST PUSH1 0x0 PUSH1 0xFF DUP3 AND PUSH1 0xFF DUP5 AND DUP1 PUSH1 0xFF SUB DUP3 GT ISZERO PUSH2 0x134C JUMPI PUSH2 0x134C PUSH2 0x1417 JUMP JUMPDEST ADD SWAP4 SWAP3 POP POP POP JUMP JUMPDEST PUSH1 0x0 DUP2 PUSH1 0x0 NOT DIV DUP4 GT DUP3 ISZERO ISZERO AND ISZERO PUSH2 0x136E JUMPI PUSH2 0x136E PUSH2 0x1417 JUMP JUMPDEST POP MUL SWAP1 JUMP JUMPDEST PUSH1 0x0 DUP3 DUP3 LT ISZERO PUSH2 0x1385 JUMPI PUSH2 0x1385 PUSH2 0x1417 JUMP JUMPDEST POP SUB SWAP1 JUMP JUMPDEST PUSH1 0x0 PUSH1 0x1 PUSH1 0x1 PUSH1 0x40 SHL SUB DUP4 DUP2 AND SWAP1 DUP4 AND DUP2 DUP2 LT ISZERO PUSH2 0x13AA JUMPI PUSH2 0x13AA PUSH2 0x1417 JUMP JUMPDEST SUB SWAP4 SWAP3 POP POP POP JUMP JUMPDEST PUSH1 0x0 PUSH1 0xFF DUP3 AND PUSH1 0xFF DUP5 AND DUP1 DUP3 LT ISZERO PUSH2 0x13CC JUMPI PUSH2 0x13CC PUSH2 0x1417 JUMP JUMPDEST SWAP1 SUB SWAP4 SWAP3 POP POP POP JUMP JUMPDEST PUSH1 0x0 PUSH1 0x0 NOT DUP3 EQ ISZERO PUSH2 0x13E9 JUMPI PUSH2 0x13E9 PUSH2 0x1417 JUMP JUMPDEST POP PUSH1 0x1 ADD SWAP1 JUMP JUMPDEST PUSH1 0x0 PUSH1 0x1 PUSH1 0x1 PUSH1 0x40 SHL SUB DUP1 DUP4 AND DUP2 DUP2 EQ ISZERO PUSH2 0x140D JUMPI PUSH2 0x140D PUSH2 0x1417 JUMP JUMPDEST PUSH1 0x1 ADD SWAP4 SWAP3 POP POP POP JUMP JUMPDEST PUSH4 0x4E487B71 PUSH1 0xE0 SHL PUSH1 0x0 MSTORE PUSH1 0x11 PUSH1 0x4 MSTORE PUSH1 0x24 PUSH1 0x0 REVERT JUMPDEST PUSH4 0x4E487B71 PUSH1 0xE0 SHL PUSH1 0x0 MSTORE PUSH1 0x41 PUSH1 0x4 MSTORE PUSH1 0x24 PUSH1 0x0 REVERT JUMPDEST PUSH1 0xFF DUP2 AND DUP2 EQ PUSH2 0x1452 JUMPI PUSH1 0x0 DUP1 REVERT JUMPDEST POP JUMP INVALID ADD SHL 0x4D SUB 0xDD DUP13 ADD CALL DIV SWAP2 NUMBER 0xCF SWAP13 0x4C DUP2 PUSH31 0x4B167F1D1B83E5C6F0F10D89BA1E7BCE4D9470A821FBE90117EC357E30BAD9 ADDRESS JUMPI ORIGIN 0xFB NOT 0xDD CREATE2 0x4A SMOD 0xDD RETURNDATACOPY 0x29 DELEGATECALL BLOCKHASH PUSH2 0x9254 0xAE CODECOPY 0xCE DUP6 CALLDATACOPY 0xAC 0xA7 0x5E 0x2E SELFDESTRUCT RETURNDATACOPY CODESIZE 0xC9 DUP1 GT 0xDF 0xE9 CALLVALUE 0xE7 STOP LOG0 SWAP7 PUSH24 0x32FC07B430DD656A233FC9A15F5B4869C872F81087BB6104 0xB7 0xD6 RETURNDATACOPY PUSH16 0x9AB47F2C43F3535EAE7172AA7F17D2DD PUSH2 0x4CDD 0xAA 0x4D DUP8 SWAP3 PUSH23 0xB11E0672C9560033D3E8453A1D045339D34BA601B9C37B DUP12 SGT 0xCA SWAP6 AND PUSH16 0xB7AF16988A70FCC90F38BF9126FD833D 0xA7 LT LOG4 PUSH32 0xB37A55E68E7A427FA943D9966B389F4F257173676090C6E95F43E2CB6D65F875 DUP2 GT 0xE3 MULMOD ADDRESS 0xB0 0xB9 0xDE 0xB7 RETURNDATACOPY ISZERO 0x5C MSIZE PUSH21 0xBACF14A6FF04B64BB8E201A506409C3FE381CA4EA SWAP1 0xCD 0x5D 0xEA 0xC7 0x29 0xD0 REVERT 0xAC 0xCC DIFFICULTY SAR MULMOD 0xD7 ORIGIN 0x5F COINBASE PC PUSH12 0xA13C801B7ECCAE0F95D8F393 RETURNDATACOPY INVALID 0xD8 0xB9 PUSH15 0x5B7F6F459E9CB6A2F41BF276C7B85C LT 0xCD CHAINID PUSH3 0xC04CBB 0xB3 PUSH6 0x434726C0A0C9 PUSH10 0x5393027FB106A8153109 0xAC MLOAD PUSH3 0x88A88B 0x28 0xA9 CODESIZE OR DUP10 SWAP5 PUSH1 0xD6 BALANCE SIGNEXTEND PUSH18 0xCF1E6163E8806FA0D4B197A259E8C3AC2886 TIMESTAMP PUSH9 0x159D0AC85F8581CA28 STATICCALL PUSH30 0x2C0C03EB91E3EEE5CA7A3DA2B3053C9770DB73599FB149F620E3FACEF95E SWAP5 PUSH29 0xEE860B72122E31E4BBD2B7C783D79CC30F60C6238651DA7F0726F767D 0x22 PUSH21 0x7264FDB046F7549F26CC70ED5E18BAEB6C81BB0625 0xCB SWAP6 0xBB BLOCKHASH NOT 0xAE 0xEC 0xD4 SMOD PUSH21 0xEE87AE29EC517A71F6EE264C5D761379B3D7D617CA DUP4 PUSH8 0x7374B49D10AEC505 SDIV 0xAC ADDMOD PUSH21 0x8CA892B573C267A712A52E1D06421FE276A03EFB1 DUP9 SWAP16 CALLER PUSH19 0x1110FDC32A81F8E152499AF665835AABFDC67 BLOCKHASH 0xC7 0xE2 0xC3 PUSH26 0x1A31C3CDC9F5AB962F681B12FC092816A62F27D86025599A4123 CODESIZE 0x48 PUSH17 0x2F0CFC0437B445682DF51147A632A0A083 0xD2 0xD3 DUP12 0x5E SGT 0xE4 PUSH7 0xA8935AFFF58BB5 CALLER 0xB3 0xEF 0x5D 0x27 0xFB 0xA6 RETURNDATACOPY 0xE6 0xB0 REVERT SWAP15 PUSH8 0xFF20AF9D50DEEE3F DUP12 CREATE PUSH6 0xEC220C1FD4BA JUMPI 0xE3 COINBASE 0x26 SAR SSTORE SWAP10 PUSH32 0x85D66D32152526736872693D2B437A233E2337B715F6AC9A6A272622FDC2D67F 0xCF 0xE1 0xDA CALLVALUE MSIZE 0xF8 0xDA 0xB4 0xED PUSH31 0x40A657A54C36766C5E8AC9A88B35B05C34747E6507F6B044AB66180DC76AC1 0xA6 SWAP7 0xDE SUB XOR SWAP6 SWAP4 INVALID 0xDC 0xD 0xD 0xBB 0xD8 SSTORE 0xC8 0xEA 0xD6 PUSH20 0x544899B0960E4A5A7CA43B4EF90AFE607DE7698C 0xAE REVERT 0xC2 TIMESTAMP PUSH25 0x8F654B57A4FB32A71B335EF6FF9A4CC118B282B53BDD6D6192 0xB7 0xA8 0x2C EXTCODECOPY MLOAD 0x26 0xB9 0xC7 0xE3 EXTCODECOPY DUP15 GAS GAS 0xC9 PUSH20 0x8B8BD31247FB7402054F97B573E8ABB9FAAD219F 0x4F 0xD0 DUP6 0xAC 0xEA 0xA7 CREATE2 TIMESTAMP 0xD7 DUP8 0xEE COINBASE SWAP7 0xD3 PUSH6 0xF3CC566E7BBC 0xFB REVERT GASLIMIT SLT ADDRESS 0xC4 DUP14 DUP1 0x4C ADD PUSH30 0x21E2D8FA914E2559BB72BF0AB78C8AB92F00EF0D0D576ECCDD486B64138A COINBASE PUSH19 0x674857E543D1D5B639058DD908186597E366AD 0x5F RETURNDATASIZE SWAP13 PUSH29 0xEAFF44D04D1550B8D33ABC751DF07437834BA5ACB32328A396994AEBB3 0xC4 0xF PUSH22 0x9C2D6D7A3CB5377E55D5D218EF5A296DDA8DDC355F3F POP 0xC3 0xD0 0xB6 PUSH1 0xA5 SAR STATICCALL 0x4D SWAP9 0xA6 0xA5 LOG3 CALLDATALOAD PUSH5 0x556CF83C13 PUSH20 0xA814641D6A1DCEF97B883FEE61BB84FE60A34093 BLOCKHASH 0x21 PUSH31 0x629CC7E4DCC93B85D8820921FF5826148B60E6939ACD7838E1D7F20562BFF8 0xEE 0x4B 0x5E 0xC4 LOG0 GAS 0xD9 SWAP8 0xA5 PUSH28 0x9796FDCB2EDA87883C2640B072B140B946BFDF6575CACC066FDAE04F PUSH10 0x51E63624CBD316A677CA 0xD5 0x29 0xBB 0xE4 0xE9 PUSH28 0x9144E4BC06C4AFD1DE55DD3E1175F90423847A230D34DFB71ED56F29 PUSH6 0xA7F6C72E6AA3 EXTCODECOPY 0x24 0xC3 SUB REVERT PUSH8 0x745D632656C5EF90 0xBE 0xC8 0xF 0x4F 0x5D SAR 0xAA 0x25 NOT DUP9 DUP3 PUSH13 0xEF375C81C36BF457E09687056F SWAP3 CHAINID PUSH24 0xCB0BCCF98DFF81E014CE25F2D132497923E267363963CDF4 ADDRESS 0x2C POP 0x49 0xD6 BALANCE BALANCE 0xDC SUB REVERT SWAP6 0xF6 0x5D DUP12 PUSH11 0xA5934F817252C028C90F56 0xD4 SGT 0xB9 0xD5 0xD1 0xD DUP10 PUSH26 0x707DAE2FABB249F649929927C21DD71E3F656826DE5451C5DA3 PUSH22 0xAADECBD59D5EBF3A31FAE65AC1B316A1611F1B276B26 MSTORE8 0xF PC 0xD7 0x24 PUSH30 0xF459CE1F86DB1D734F6F811932F042CEE45D0E455306D01081BC3384F82C 0x5F 0xB2 0xAA 0xCA LOG1 SWAP14 DUP10 0xCD STATICCALL CHAINID 0xCC SWAP2 PUSH15 0xAC61121475BA2E6191B4FEECBE1789 PUSH18 0x7021A158ACE5D06744B40F551076B67CD63A 0xF6 STOP SMOD 0xF8 0xC9 SWAP9 PUSH23 0xE1424883A45EC49D497DDAF808A5521CA74A999AB0B3C7 0xAA SWAP13 DUP1 0xF8 0x5E SWAP4 SWAP8 PUSH31 0xC61CE68B20307A1A81F71CA645B568FCD319CCBB5F651E87B707D37C39E15F SWAP5 0x5E 0xA6 SWAP15 0x2F PUSH29 0x7D2CCC85B7E654C07E96F0636AE4044FE0E38590B431795AD0F8647BDD PUSH2 0x3713 0xAD LOG4 SWAP4 0xCC OR 0xEF 0xD3 SGT KECCAK256 PUSH4 0x80E6A685 0xB8 NOT DUP5 PUSH22 0xBBD021C6E9D94DAAB2214947127506073E44D5408BA1 PUSH7 0xC512A0B86805D0 PUSH32 0x5A44D3C41706BE2BC15E712E55805248B92E8677D90F6D284D1D6FFAFF2C4306 JUMPI DIV 0x2A 0xE DUP3 PUSH3 0x4FA371 PUSH28 0x6CC0A6FD12230EA586DAE83019FB9E06034ED2803C98D554B93C9A5 0x23 0x48 0xCA SELFDESTRUCT 0xF7 0x5C BLOCKHASH OR 0x4A SWAP2 0xF9 0xAE PUSH12 0x8647854A156029F0B88B8331 PUSH7 0x63CE574A497827 PUSH28 0xB6BB27A31085634B6EC78864B6D8201C7E93903D75815067E378289A RETURNDATASIZE SMOD 0x2A 0xE1 PUSH19 0xDAFA6A452470F8D645BEBFAD9779594FC0784B 0xB7 PUSH5 0xA22E3A8181 0xD9 RETURNDATASIZE 0xB7 0xBF SWAP8 DUP10 EXTCODECOPY COINBASE TIMESTAMP OR 0xA6 XOR 0xCC 0xB1 0x4C 0xAA SWAP15 SWAP3 0xE8 0xC6 AND PUSH20 0xAFC9583662E812ADBA1F87A9C68202D60E909EFA 0xB4 EXTCODECOPY TIMESTAMP 0xC0 0xCB STOP PUSH10 0x5FC7F1FFE67C75CA894C EXTCODECOPY MLOAD 0xE1 0xE5 0xE7 BALANCE CALLDATASIZE ADD SWAP10 0xE6 STOP 0xF6 0xCE 0xD9 0xA8 PUSH28 0x2A6A87E70BF251BB5075AB222138288164B2EDA727515EA7DE12E249 PUSH14 0x4FE42EA8D1A120C03CF9C50622C2 0xAF 0xE4 0xAC 0xB0 0xDA 0xD9 DUP16 0xD6 0x2D SMOD 0xAB 0x4E DUP3 DUP11 SWAP5 0x49 0x5F PUSH14 0x1AB973982C7CCBE6C1FAE02788E4 TIMESTAMP 0x2A 0xE2 0x22 DUP3 STATICCALL 0x49 0xCB 0xDB DIV 0xBA SLOAD 0xA7 LOG2 CODESIZE 0xC6 0xFC COINBASE XOR PUSH21 0x51383460762C06D1C8A72B9CD718866AD4B689E10C SWAP11 DUP13 CODESIZE INVALID 0x5E CREATE GASLIMIT 0xBD PUSH25 0x5B01E980FC82C7E3532CE81876B778DD9F1CEEBA4478E86411 0xFB PUSH16 0xDD790683916CA832592485093644E876 0xC 0xD7 0xB4 0xC0 SAR 0xBA SHR 0xCC DUP3 0xB6 PUSH2 0xBF13 CREATE 0xE3 RETURN 0x4A 0xCD PUSH12 0x88A264697066735822122081 EXTCODESIZE SWAP11 CODESIZE 0xCD 0x5E SMOD PUSH19 0xB16F859D9A66CE6200C68281FFAC8C91413C40 0xF7 0xBF DUP15 0x5D DUP13 PUSH5 0x736F6C6343 STOP ADDMOD DIV STOP CALLER "
    },
    "gasEstimates": {
      "creation": {
        "codeDepositCost": "1442200",
        "executionCost": "1537",
        "totalCost": "1443737"
      },
      "external": {
        "calculateRootFromPowerOfTwo(bytes32[])": "infinite",
        "getEmptyTreeHashAtIndex(uint256)": "infinite",
        "getHashOfWordAtIndex(bytes,uint256)": "infinite",
        "getMerkleRootFromBytes(bytes,uint8)": "infinite",
        "getPristineHash(uint8)": "infinite",
        "getRoot(uint64,bytes8,bytes32[])": "infinite",
        "getRootAfterReplacementInDrive(uint64,uint8,uint8,bytes32,bytes32[])": "infinite",
        "getRootWithDrive(uint64,uint8,bytes32,bytes32[])": "infinite"
      }
    },
    "methodIdentifiers": {
      "calculateRootFromPowerOfTwo(bytes32[])": "82b0eab8",
      "getEmptyTreeHashAtIndex(uint256)": "451a1055",
      "getHashOfWordAtIndex(bytes,uint256)": "34bd712d",
      "getMerkleRootFromBytes(bytes,uint8)": "49fd2697",
      "getPristineHash(uint8)": "a7342688",
      "getRoot(uint64,bytes8,bytes32[])": "8492d93b",
      "getRootAfterReplacementInDrive(uint64,uint8,uint8,bytes32,bytes32[])": "29708118",
      "getRootWithDrive(uint64,uint8,bytes32,bytes32[])": "d7304dd9"
    }
  },
  "storageLayout": {
    "storage": [],
    "types": null
  },
  "userdoc": {
    "kind": "user",
    "methods": {
      "calculateRootFromPowerOfTwo(bytes32[])": {
        "notice": "Calculate the root of Merkle tree from an array of power of 2 elements"
      },
      "getEmptyTreeHashAtIndex(uint256)": {
        "notice": "Gets precomputed hash of zero in empty tree hashes"
      },
      "getHashOfWordAtIndex(bytes,uint256)": {
        "notice": "Get the hash of a word in an array of bytes"
      },
      "getMerkleRootFromBytes(bytes,uint8)": {
        "notice": "get merkle root of generic array of bytes"
      },
      "getPristineHash(uint8)": {
        "notice": "Gets the pristine hash of a drive full of zeroes"
      },
      "getRoot(uint64,bytes8,bytes32[])": {
        "notice": "Gets merkle root of drive with _value on _position"
      },
      "getRootAfterReplacementInDrive(uint64,uint8,uint8,bytes32,bytes32[])": {
        "notice": "Gets merkle root hash of drive with a replacement"
      },
      "getRootWithDrive(uint64,uint8,bytes32,bytes32[])": {
        "notice": "Gets merkle root hash of machine with drive _drive"
      }
    },
    "version": 1
  }
}