{
  "contractName": "Merkle",
  "sourceName": "contracts/Merkle.sol",
  "abi": [
    {
      "inputs": [
        {
          "internalType": "bytes32[]",
          "name": "hashes",
          "type": "bytes32[]"
        }
      ],
      "name": "calculateRootFromPowerOfTwo",
      "outputs": [
        {
          "internalType": "bytes32",
          "name": "",
          "type": "bytes32"
        }
      ],
      "stateMutability": "pure",
      "type": "function"
    },
    {
      "inputs": [
        {
          "internalType": "uint256",
          "name": "_index",
          "type": "uint256"
        }
      ],
      "name": "getEmptyTreeHashAtIndex",
      "outputs": [
        {
          "internalType": "bytes32",
          "name": "",
          "type": "bytes32"
        }
      ],
      "stateMutability": "pure",
      "type": "function"
    },
    {
      "inputs": [
        {
          "internalType": "bytes",
          "name": "_data",
          "type": "bytes"
        },
        {
          "internalType": "uint256",
          "name": "_wordIndex",
          "type": "uint256"
        }
      ],
      "name": "getHashOfWordAtIndex",
      "outputs": [
        {
          "internalType": "bytes32",
          "name": "",
          "type": "bytes32"
        }
      ],
      "stateMutability": "pure",
      "type": "function"
    },
    {
      "inputs": [
        {
          "internalType": "bytes",
          "name": "_data",
          "type": "bytes"
        },
        {
          "internalType": "uint256",
          "name": "_log2Size",
          "type": "uint256"
        }
      ],
      "name": "getMerkleRootFromBytes",
      "outputs": [
        {
          "internalType": "bytes32",
          "name": "",
          "type": "bytes32"
        }
      ],
      "stateMutability": "pure",
      "type": "function"
    },
    {
      "inputs": [
        {
          "internalType": "uint256",
          "name": "_position",
          "type": "uint256"
        },
        {
          "internalType": "uint256",
          "name": "_logSizeOfReplacement",
          "type": "uint256"
        },
        {
          "internalType": "uint256",
          "name": "_logSizeOfFullDrive",
          "type": "uint256"
        },
        {
          "internalType": "bytes32",
          "name": "_replacement",
          "type": "bytes32"
        },
        {
          "internalType": "bytes32[]",
          "name": "siblings",
          "type": "bytes32[]"
        }
      ],
      "name": "getRootAfterReplacementInDrive",
      "outputs": [
        {
          "internalType": "bytes32",
          "name": "",
          "type": "bytes32"
        }
      ],
      "stateMutability": "pure",
      "type": "function"
    }
  ],
  "bytecode": "0x6116df61003a600b82828239805160001a60731461002d57634e487b7160e01b600052600060045260246000fd5b30600052607381538281f3fe73000000000000000000000000000000000000000030146080604052600436106100615760003560e01c806334bd712d14610066578063451a10551461008b57806379de46011461009e57806382b0eab8146100b1578063c84583a1146100c4575b600080fd5b610079610074366004610cbd565b6100d7565b60405190815260200160405180910390f35b610079610099366004610d30565b610245565b6100796100ac366004610d60565b6102d6565b6100796100bf366004610bdd565b610505565b6100796100d2366004610cbd565b610756565b6000600382901b816100ea600883610e4f565b9050848211156101365760405162461bcd60e51b8152602060048201526012602482015271776f7264206f7574206f6620626f756e647360701b60448201526064015b60405180910390fd5b8481116101795761014981838789610e27565b60405160200161015a929190610e17565b604051602081830303815290604052805190602001209250505061023e565b60408051600880825281830190925260009160208201818036833701905050905060006101a68488610eab565b905060005b8181101561022f5788886101bf8388610e4f565b8181106101dc57634e487b7160e01b600052603260045260246000fd5b9050013560f81c60f81b83828151811061020657634e487b7160e01b600052603260045260246000fd5b60200101906001600160f81b031916908160001a9053508061022781610ec2565b9150506101ab565b50508051602090910120925050505b9392505050565b600080610253836020610e8c565b9050610260816020610e4f565b6107a010156102a75760405162461bcd60e51b8152602060048201526013602482015272696e646578206f7574206f6620626f756e647360681b604482015260640161012d565b600080604051806107c001604052806107a08152602001610f0a6107a091399290920160200151949350505050565b60008585101580156102e9575060038610155b80156102f6575060408511155b6103605760405162461bcd60e51b815260206004820152603560248201527f33203c3d206c6f6753697a654f665265706c6163656d656e74203c3d206c6f6760448201527414da5e9953d9919d5b1b111c9a5d99480f0f480d8d605a1b606482015260840161012d565b600180871b9088906103729083610eab565b16156103c05760405162461bcd60e51b815260206004820152601760248201527f506f736974696f6e206973206e6f7420616c69676e6564000000000000000000604482015260640161012d565b6103ca8787610eab565b83146104185760405162461bcd60e51b815260206004820152601b60248201527f50726f6f66206c656e67746820646f6573206e6f74206d617463680000000000604482015260640161012d565b60005b838110156104f85781811b891661048b578585858381811061044d57634e487b7160e01b600052603260045260246000fd5b9050602002013560405160200161046e929190918252602082015260400190565b6040516020818303038152906040528051906020012095506104e6565b8484828181106104ab57634e487b7160e01b600052603260045260246000fd5b90506020020135866040516020016104cd929190918252602082015260400190565b6040516020818303038152906040528051906020012095505b806104f081610ec2565b91505061041b565b5093979650505050505050565b805160405163d82ae4b160e01b815260009173__$8b7ebe2a69e01741840a6648963dfd5409$__9163d82ae4b1916105439160040190815260200190565b60206040518083038186803b15801561055b57600080fd5b505af415801561056f573d6000803e3d6000fd5b505050506040513d601f19601f820116820180604052508101906105939190610c9d565b6105df5760405162461bcd60e51b815260206004820152601860248201527f6172726179206c656e206e6f7420706f776572206f6620320000000000000000604482015260640161012d565b815160011415610619578160008151811061060a57634e487b7160e01b600052603260045260246000fd5b60200260200101519050919050565b600060018351901c67ffffffffffffffff81111561064757634e487b7160e01b600052604160045260246000fd5b604051908082528060200260200182016040528015610670578160200160208202803683370190505b50905060005b835181101561074c5783818151811061069f57634e487b7160e01b600052603260045260246000fd5b6020026020010151848260016106b59190610e4f565b815181106106d357634e487b7160e01b600052603260045260246000fd5b60200260200101516040516020016106f5929190918252602082015260400190565b6040516020818303038152906040528051906020012082600183901c8151811061072f57634e487b7160e01b600052603260045260246000fd5b6020908102919091010152610745600282610e4f565b9050610676565b5061023e81610505565b60006003821015801561076a575060408211155b6107b65760405162461bcd60e51b815260206004820152601960248201527f72616e6765206f66206c6f673253697a653a205b332c36345d00000000000000604482015260640161012d565b826107d0576107c9610099600384610eab565b905061023e565b60006107dd600384610eab565b6001901b9050600381901b8411156108375760405162461bcd60e51b815260206004820152601960248201527f6461746120697320626967676572207468616e20647269766500000000000000604482015260640161012d565b6040516306c8e54b60e01b8152600385901c600482015260009073__$8b7ebe2a69e01741840a6648963dfd5409$__906306c8e54b9060240160206040518083038186803b15801561088857600080fd5b505af415801561089c573d6000803e3d6000fd5b505050506040513d601f19601f820116820180604052508101906108c09190610df6565b6108cb906002610e67565b60ff16905060008167ffffffffffffffff8111156108f957634e487b7160e01b600052604160045260246000fd5b604051908082528060200260200182016040528015610922578160200160208202803683370190505b5090506000806000805b86841015610b6657600384901b8a111561098b5761094b8b8b866100d7565b85848151811061096b57634e487b7160e01b600052603260045260246000fd5b60209081029190910101528361098081610ec2565b945050839150610a59565b60405163052dcf5f60e31b81526004810185905273__$8b7ebe2a69e01741840a6648963dfd5409$__9063296e7af89060240160206040518083038186803b1580156109d657600080fd5b505af41580156109ea573d6000803e3d6000fd5b505050506040513d601f19601f82011682018060405250810190610a0e9190610d48565b9050610a1981610245565b858481518110610a3957634e487b7160e01b600052603260045260246000fd5b6020908102919091010152610a516001821b85610e4f565b935083811c91505b82610a6381610ec2565b9350505b60018216610b6157600085610a7d600186610eab565b81518110610a9b57634e487b7160e01b600052603260045260246000fd5b60200260200101519050600086600286610ab59190610eab565b81518110610ad357634e487b7160e01b600052603260045260246000fd5b602002602001015190508082604051602001610af9929190918252602082015260400190565b6040516020818303038152906040528051906020012087600287610b1d9190610eab565b81518110610b3b57634e487b7160e01b600052603260045260246000fd5b6020908102919091010152610b51600186610eab565b9450600184901c93505050610a67565b61092c565b82600114610ba45760405162461bcd60e51b815260206004820152600b60248201526a39ba30b1b59032b93937b960a91b604482015260640161012d565b84600081518110610bc557634e487b7160e01b600052603260045260246000fd5b60200260200101519750505050505050509392505050565b60006020808385031215610bef578182fd5b823567ffffffffffffffff80821115610c06578384fd5b818501915085601f830112610c19578384fd5b813581811115610c2b57610c2b610ef3565b8060051b604051601f19603f83011681018181108582111715610c5057610c50610ef3565b604052828152858101935084860182860187018a1015610c6e578788fd5b8795505b83861015610c90578035855260019590950194938601938601610c72565b5098975050505050505050565b600060208284031215610cae578081fd5b8151801515811461023e578182fd5b600080600060408486031215610cd1578182fd5b833567ffffffffffffffff80821115610ce8578384fd5b818601915086601f830112610cfb578384fd5b813581811115610d09578485fd5b876020828501011115610d1a578485fd5b6020928301989097509590910135949350505050565b600060208284031215610d41578081fd5b5035919050565b600060208284031215610d59578081fd5b5051919050565b60008060008060008060a08789031215610d78578182fd5b86359550602087013594506040870135935060608701359250608087013567ffffffffffffffff80821115610dab578384fd5b818901915089601f830112610dbe578384fd5b813581811115610dcc578485fd5b8a60208260051b8501011115610de0578485fd5b6020830194508093505050509295509295509295565b600060208284031215610e07578081fd5b815160ff8116811461023e578182fd5b8183823760009101908152919050565b60008085851115610e36578182fd5b83861115610e42578182fd5b5050820193919092039150565b60008219821115610e6257610e62610edd565b500190565b600060ff821660ff84168060ff03821115610e8457610e84610edd565b019392505050565b6000816000190483118215151615610ea657610ea6610edd565b500290565b600082821015610ebd57610ebd610edd565b500390565b6000600019821415610ed657610ed6610edd565b5060010190565b634e487b7160e01b600052601160045260246000fd5b634e487b7160e01b600052604160045260246000fdfe011b4d03dd8c01f1049143cf9c4c817e4b167f1d1b83e5c6f0f10d89ba1e7bce4d9470a821fbe90117ec357e30bad9305732fb19ddf54a07dd3e29f440619254ae39ce8537aca75e2eff3e38c98011dfe934e700a0967732fc07b430dd656a233fc9a15f5b4869c872f81087bb6104b7d63e6f9ab47f2c43f3535eae7172aa7f17d2dd614cddaa4d879276b11e0672c9560033d3e8453a1d045339d34ba601b9c37b8b13ca95166fb7af16988a70fcc90f38bf9126fd833da710a47fb37a55e68e7a427fa943d9966b389f4f257173676090c6e95f43e2cb6d65f8758111e30930b0b9deb73e155c59740bacf14a6ff04b64bb8e201a506409c3fe381ca4ea90cd5deac729d0fdaccc441d09d7325f41586ba13c801b7eccae0f95d8f3933efed8b96e5b7f6f459e9cb6a2f41bf276c7b85c10cd4662c04cbbb365434726c0a0c9695393027fb106a8153109ac516288a88b28a93817899460d6310b71cf1e6163e8806fa0d4b197a259e8c3ac28864268159d0ac85f8581ca28fa7d2c0c03eb91e3eee5ca7a3da2b3053c9770db73599fb149f620e3facef95e947c0ee860b72122e31e4bbd2b7c783d79cc30f60c6238651da7f0726f767d22747264fdb046f7549f26cc70ed5e18baeb6c81bb0625cb95bb4019aeecd40774ee87ae29ec517a71f6ee264c5d761379b3d7d617ca83677374b49d10aec50505ac087408ca892b573c267a712a52e1d06421fe276a03efb1889f337201110fdc32a81f8e152499af665835aabfdc6740c7e2c3791a31c3cdc9f5ab962f681b12fc092816a62f27d86025599a41233848702f0cfc0437b445682df51147a632a0a083d2d38b5e13e466a8935afff58bb533b3ef5d27fba63ee6b0fd9e67ff20af9d50deee3f8bf065ec220c1fd4ba57e341261d55997f85d66d32152526736872693d2b437a233e2337b715f6ac9a6a272622fdc2d67fcfe1da3459f8dab4ed7e40a657a54c36766c5e8ac9a88b35b05c34747e6507f6b044ab66180dc76ac1a696de03189593fedc0d0dbbd855c8ead673544899b0960e4a5a7ca43b4ef90afe607de7698caefdc242788f654b57a4fb32a71b335ef6ff9a4cc118b282b53bdd6d6192b7a82c3c5126b9c7e33c8e5a5ac9738b8bd31247fb7402054f97b573e8abb9faad219f4fd085aceaa7f542d787ee4196d365f3cc566e7bbcfbfd451230c48d804c017d21e2d8fa914e2559bb72bf0ab78c8ab92f00ef0d0d576eccdd486b64138a4172674857e543d1d5b639058dd908186597e366ad5f3d9c7ceaff44d04d1550b8d33abc751df07437834ba5acb32328a396994aebb3c40f759c2d6d7a3cb5377e55d5d218ef5a296dda8ddc355f3f50c3d0b660a51dfa4d98a6a5a33564556cf83c1373a814641d6a1dcef97b883fee61bb84fe60a3409340217e629cc7e4dcc93b85d8820921ff5826148b60e6939acd7838e1d7f20562bff8ee4b5ec4a05ad997a57b9796fdcb2eda87883c2640b072b140b946bfdf6575cacc066fdae04f6951e63624cbd316a677cad529bbe4e97b9144e4bc06c4afd1de55dd3e1175f90423847a230d34dfb71ed56f2965a7f6c72e6aa33c24c303fd67745d632656c5ef90bec80f4f5d1daa251988826cef375c81c36bf457e09687056f924677cb0bccf98dff81e014ce25f2d132497923e267363963cdf4302c5049d63131dc03fd95f65d8b6aa5934f817252c028c90f56d413b9d5d10d89790707dae2fabb249f649929927c21dd71e3f656826de5451c5da375aadecbd59d5ebf3a31fae65ac1b316a1611f1b276b26530f58d7247df459ce1f86db1d734f6f811932f042cee45d0e455306d01081bc3384f82c5fb2aacaa19d89cdfa46cc916eac61121475ba2e6191b4feecbe1789717021a158ace5d06744b40f551076b67cd63af60007f8c99876e1424883a45ec49d497ddaf808a5521ca74a999ab0b3c7aa9c80f85e93977ec61ce68b20307a1a81f71ca645b568fcd319ccbb5f651e87b707d37c39e15f945ea69e2f7c7d2ccc85b7e654c07e96f0636ae4044fe0e38590b431795ad0f8647bdd613713ada493cc17efd313206380e6a685b8198475bbd021c6e9d94daab2214947127506073e44d5408ba166c512a0b86805d07f5a44d3c41706be2bc15e712e55805248b92e8677d90f6d284d1d6ffaff2c430657042a0e82624fa3717b06cc0a6fd12230ea586dae83019fb9e06034ed2803c98d554b93c9a52348cafff75c40174a91f9ae6b8647854a156029f0b88b83316663ce574a4978277bb6bb27a31085634b6ec78864b6d8201c7e93903d75815067e378289a3d072ae172dafa6a452470f8d645bebfad9779594fc0784bb764a22e3a8181d93db7bf97893c414217a618ccb14caa9e92e8c61673afc9583662e812adba1f87a9c68202d60e909efab43c42c0cb00695fc7f1ffe67c75ca894c3c51e1e5e731360199e600f6ced9a87b2a6a87e70bf251bb5075ab222138288164b2eda727515ea7de12e2496d4fe42ea8d1a120c03cf9c50622c2afe4acb0dad98fd62d07ab4e828a94495f6d1ab973982c7ccbe6c1fae02788e4422ae22282fa49cbdb04ba54a7a238c6fc41187451383460762c06d1c8a72b9cd718866ad4b689e10c9a8c38fe5ef045bd785b01e980fc82c7e3532ce81876b778dd9f1ceeba4478e86411fb6fdd790683916ca832592485093644e8760cd7b4c01dba1ccc82b661bf13f0e3f34acd6b88a2646970667358221220be79c972192069d105a5fc9aae66c9ff55a7f4076d708aa33a4f2ecaec2873e364736f6c63430008040033",
  "linkReferences": {
    "contracts/CartesiMath.sol": {
      "CartesiMath": [
        {
          "length": 20,
          "start": 1363
        },
        {
          "length": 20,
          "start": 2189
        },
        {
          "length": 20,
          "start": 2523
        }
      ]
    }
  },
  "deployedLinkReferences": {
    "contracts/CartesiMath.sol": {
      "CartesiMath": [
        {
          "length": 20,
          "start": 1305
        },
        {
          "length": 20,
          "start": 2131
        },
        {
          "length": 20,
          "start": 2465
        }
      ]
    }
  },
  "devdoc": {
    "kind": "dev",
    "methods": {
      "calculateRootFromPowerOfTwo(bytes32[])": {
        "params": {
          "hashes": "The array containing power of 2 elements"
        },
        "returns": {
          "_0": "byte32 the root hash being calculated"
        }
      },
      "getEmptyTreeHashAtIndex(uint256)": {
        "details": "first index is keccak(0), second index is keccak(keccak(0), keccak(0))",
        "params": {
          "_index": "of hash wanted"
        }
      },
      "getHashOfWordAtIndex(bytes,uint256)": {
        "details": "if word is incomplete (< 8 bytes) it gets padded with zeroes",
        "params": {
          "_data": "array of bytes",
          "_wordIndex": "index of word inside the bytes to get the hash of"
        }
      },
      "getMerkleRootFromBytes(bytes,uint256)": {
        "details": "_data is padded with zeroes until is multiple of 8root is completed with zero tree until log2size is completehashes are taken word by word (8 bytes by 8 bytes)",
        "params": {
          "_data": "array of bytes to be merklelized",
          "_log2Size": "log2 of total size of the drive"
        }
      },
      "getRootAfterReplacementInDrive(uint256,uint256,uint256,bytes32,bytes32[])": {
        "params": {
          "_logSizeOfFullDrive": "log2 of size the full drive, which can be the entire machine",
          "_logSizeOfReplacement": "log2 of size the replacement",
          "_position": "position of _drive",
          "_replacement": "hash of the replacement",
          "siblings": "of replacement that merkle root can be calculated"
        }
      }
    },
    "version": 1
  },
  "evm": {
    "bytecode": {
      "linkReferences": {
        "contracts/CartesiMath.sol": {
          "CartesiMath": [
            {
              "length": 20,
              "start": 1363
            },
            {
              "length": 20,
              "start": 2189
            },
            {
              "length": 20,
              "start": 2523
            }
          ]
        }
      },
      "opcodes": "PUSH2 0x16DF PUSH2 0x3A PUSH1 0xB DUP3 DUP3 DUP3 CODECOPY DUP1 MLOAD PUSH1 0x0 BYTE PUSH1 0x73 EQ PUSH2 0x2D JUMPI PUSH4 0x4E487B71 PUSH1 0xE0 SHL PUSH1 0x0 MSTORE PUSH1 0x0 PUSH1 0x4 MSTORE PUSH1 0x24 PUSH1 0x0 REVERT JUMPDEST ADDRESS PUSH1 0x0 MSTORE PUSH1 0x73 DUP2 MSTORE8 DUP3 DUP2 RETURN INVALID PUSH20 0x0 ADDRESS EQ PUSH1 0x80 PUSH1 0x40 MSTORE PUSH1 0x4 CALLDATASIZE LT PUSH2 0x61 JUMPI PUSH1 0x0 CALLDATALOAD PUSH1 0xE0 SHR DUP1 PUSH4 0x34BD712D EQ PUSH2 0x66 JUMPI DUP1 PUSH4 0x451A1055 EQ PUSH2 0x8B JUMPI DUP1 PUSH4 0x79DE4601 EQ PUSH2 0x9E JUMPI DUP1 PUSH4 0x82B0EAB8 EQ PUSH2 0xB1 JUMPI DUP1 PUSH4 0xC84583A1 EQ PUSH2 0xC4 JUMPI JUMPDEST PUSH1 0x0 DUP1 REVERT JUMPDEST PUSH2 0x79 PUSH2 0x74 CALLDATASIZE PUSH1 0x4 PUSH2 0xCBD JUMP JUMPDEST PUSH2 0xD7 JUMP JUMPDEST PUSH1 0x40 MLOAD SWAP1 DUP2 MSTORE PUSH1 0x20 ADD PUSH1 0x40 MLOAD DUP1 SWAP2 SUB SWAP1 RETURN JUMPDEST PUSH2 0x79 PUSH2 0x99 CALLDATASIZE PUSH1 0x4 PUSH2 0xD30 JUMP JUMPDEST PUSH2 0x245 JUMP JUMPDEST PUSH2 0x79 PUSH2 0xAC CALLDATASIZE PUSH1 0x4 PUSH2 0xD60 JUMP JUMPDEST PUSH2 0x2D6 JUMP JUMPDEST PUSH2 0x79 PUSH2 0xBF CALLDATASIZE PUSH1 0x4 PUSH2 0xBDD JUMP JUMPDEST PUSH2 0x505 JUMP JUMPDEST PUSH2 0x79 PUSH2 0xD2 CALLDATASIZE PUSH1 0x4 PUSH2 0xCBD JUMP JUMPDEST PUSH2 0x756 JUMP JUMPDEST PUSH1 0x0 PUSH1 0x3 DUP3 SWAP1 SHL DUP2 PUSH2 0xEA PUSH1 0x8 DUP4 PUSH2 0xE4F JUMP JUMPDEST SWAP1 POP DUP5 DUP3 GT ISZERO PUSH2 0x136 JUMPI PUSH1 0x40 MLOAD PUSH3 0x461BCD PUSH1 0xE5 SHL DUP2 MSTORE PUSH1 0x20 PUSH1 0x4 DUP3 ADD MSTORE PUSH1 0x12 PUSH1 0x24 DUP3 ADD MSTORE PUSH18 0x776F7264206F7574206F6620626F756E6473 PUSH1 0x70 SHL PUSH1 0x44 DUP3 ADD MSTORE PUSH1 0x64 ADD JUMPDEST PUSH1 0x40 MLOAD DUP1 SWAP2 SUB SWAP1 REVERT JUMPDEST DUP5 DUP2 GT PUSH2 0x179 JUMPI PUSH2 0x149 DUP2 DUP4 DUP8 DUP10 PUSH2 0xE27 JUMP JUMPDEST PUSH1 0x40 MLOAD PUSH1 0x20 ADD PUSH2 0x15A SWAP3 SWAP2 SWAP1 PUSH2 0xE17 JUMP JUMPDEST PUSH1 0x40 MLOAD PUSH1 0x20 DUP2 DUP4 SUB SUB DUP2 MSTORE SWAP1 PUSH1 0x40 MSTORE DUP1 MLOAD SWAP1 PUSH1 0x20 ADD KECCAK256 SWAP3 POP POP POP PUSH2 0x23E JUMP JUMPDEST PUSH1 0x40 DUP1 MLOAD PUSH1 0x8 DUP1 DUP3 MSTORE DUP2 DUP4 ADD SWAP1 SWAP3 MSTORE PUSH1 0x0 SWAP2 PUSH1 0x20 DUP3 ADD DUP2 DUP1 CALLDATASIZE DUP4 CALLDATACOPY ADD SWAP1 POP POP SWAP1 POP PUSH1 0x0 PUSH2 0x1A6 DUP5 DUP9 PUSH2 0xEAB JUMP JUMPDEST SWAP1 POP PUSH1 0x0 JUMPDEST DUP2 DUP2 LT ISZERO PUSH2 0x22F JUMPI DUP9 DUP9 PUSH2 0x1BF DUP4 DUP9 PUSH2 0xE4F JUMP JUMPDEST DUP2 DUP2 LT PUSH2 0x1DC JUMPI PUSH4 0x4E487B71 PUSH1 0xE0 SHL PUSH1 0x0 MSTORE PUSH1 0x32 PUSH1 0x4 MSTORE PUSH1 0x24 PUSH1 0x0 REVERT JUMPDEST SWAP1 POP ADD CALLDATALOAD PUSH1 0xF8 SHR PUSH1 0xF8 SHL DUP4 DUP3 DUP2 MLOAD DUP2 LT PUSH2 0x206 JUMPI PUSH4 0x4E487B71 PUSH1 0xE0 SHL PUSH1 0x0 MSTORE PUSH1 0x32 PUSH1 0x4 MSTORE PUSH1 0x24 PUSH1 0x0 REVERT JUMPDEST PUSH1 0x20 ADD ADD SWAP1 PUSH1 0x1 PUSH1 0x1 PUSH1 0xF8 SHL SUB NOT AND SWAP1 DUP2 PUSH1 0x0 BYTE SWAP1 MSTORE8 POP DUP1 PUSH2 0x227 DUP2 PUSH2 0xEC2 JUMP JUMPDEST SWAP2 POP POP PUSH2 0x1AB JUMP JUMPDEST POP POP DUP1 MLOAD PUSH1 0x20 SWAP1 SWAP2 ADD KECCAK256 SWAP3 POP POP POP JUMPDEST SWAP4 SWAP3 POP POP POP JUMP JUMPDEST PUSH1 0x0 DUP1 PUSH2 0x253 DUP4 PUSH1 0x20 PUSH2 0xE8C JUMP JUMPDEST SWAP1 POP PUSH2 0x260 DUP2 PUSH1 0x20 PUSH2 0xE4F JUMP JUMPDEST PUSH2 0x7A0 LT ISZERO PUSH2 0x2A7 JUMPI PUSH1 0x40 MLOAD PUSH3 0x461BCD PUSH1 0xE5 SHL DUP2 MSTORE PUSH1 0x20 PUSH1 0x4 DUP3 ADD MSTORE PUSH1 0x13 PUSH1 0x24 DUP3 ADD MSTORE PUSH19 0x696E646578206F7574206F6620626F756E6473 PUSH1 0x68 SHL PUSH1 0x44 DUP3 ADD MSTORE PUSH1 0x64 ADD PUSH2 0x12D JUMP JUMPDEST PUSH1 0x0 DUP1 PUSH1 0x40 MLOAD DUP1 PUSH2 0x7C0 ADD PUSH1 0x40 MSTORE DUP1 PUSH2 0x7A0 DUP2 MSTORE PUSH1 0x20 ADD PUSH2 0xF0A PUSH2 0x7A0 SWAP2 CODECOPY SWAP3 SWAP1 SWAP3 ADD PUSH1 0x20 ADD MLOAD SWAP5 SWAP4 POP POP POP POP JUMP JUMPDEST PUSH1 0x0 DUP6 DUP6 LT ISZERO DUP1 ISZERO PUSH2 0x2E9 JUMPI POP PUSH1 0x3 DUP7 LT ISZERO JUMPDEST DUP1 ISZERO PUSH2 0x2F6 JUMPI POP PUSH1 0x40 DUP6 GT ISZERO JUMPDEST PUSH2 0x360 JUMPI PUSH1 0x40 MLOAD PUSH3 0x461BCD PUSH1 0xE5 SHL DUP2 MSTORE PUSH1 0x20 PUSH1 0x4 DUP3 ADD MSTORE PUSH1 0x35 PUSH1 0x24 DUP3 ADD MSTORE PUSH32 0x33203C3D206C6F6753697A654F665265706C6163656D656E74203C3D206C6F67 PUSH1 0x44 DUP3 ADD MSTORE PUSH21 0x14DA5E9953D9919D5B1B111C9A5D99480F0F480D8D PUSH1 0x5A SHL PUSH1 0x64 DUP3 ADD MSTORE PUSH1 0x84 ADD PUSH2 0x12D JUMP JUMPDEST PUSH1 0x1 DUP1 DUP8 SHL SWAP1 DUP9 SWAP1 PUSH2 0x372 SWAP1 DUP4 PUSH2 0xEAB JUMP JUMPDEST AND ISZERO PUSH2 0x3C0 JUMPI PUSH1 0x40 MLOAD PUSH3 0x461BCD PUSH1 0xE5 SHL DUP2 MSTORE PUSH1 0x20 PUSH1 0x4 DUP3 ADD MSTORE PUSH1 0x17 PUSH1 0x24 DUP3 ADD MSTORE PUSH32 0x506F736974696F6E206973206E6F7420616C69676E6564000000000000000000 PUSH1 0x44 DUP3 ADD MSTORE PUSH1 0x64 ADD PUSH2 0x12D JUMP JUMPDEST PUSH2 0x3CA DUP8 DUP8 PUSH2 0xEAB JUMP JUMPDEST DUP4 EQ PUSH2 0x418 JUMPI PUSH1 0x40 MLOAD PUSH3 0x461BCD PUSH1 0xE5 SHL DUP2 MSTORE PUSH1 0x20 PUSH1 0x4 DUP3 ADD MSTORE PUSH1 0x1B PUSH1 0x24 DUP3 ADD MSTORE PUSH32 0x50726F6F66206C656E67746820646F6573206E6F74206D617463680000000000 PUSH1 0x44 DUP3 ADD MSTORE PUSH1 0x64 ADD PUSH2 0x12D JUMP JUMPDEST PUSH1 0x0 JUMPDEST DUP4 DUP2 LT ISZERO PUSH2 0x4F8 JUMPI DUP2 DUP2 SHL DUP10 AND PUSH2 0x48B JUMPI DUP6 DUP6 DUP6 DUP4 DUP2 DUP2 LT PUSH2 0x44D JUMPI PUSH4 0x4E487B71 PUSH1 0xE0 SHL PUSH1 0x0 MSTORE PUSH1 0x32 PUSH1 0x4 MSTORE PUSH1 0x24 PUSH1 0x0 REVERT JUMPDEST SWAP1 POP PUSH1 0x20 MUL ADD CALLDATALOAD PUSH1 0x40 MLOAD PUSH1 0x20 ADD PUSH2 0x46E SWAP3 SWAP2 SWAP1 SWAP2 DUP3 MSTORE PUSH1 0x20 DUP3 ADD MSTORE PUSH1 0x40 ADD SWAP1 JUMP JUMPDEST PUSH1 0x40 MLOAD PUSH1 0x20 DUP2 DUP4 SUB SUB DUP2 MSTORE SWAP1 PUSH1 0x40 MSTORE DUP1 MLOAD SWAP1 PUSH1 0x20 ADD KECCAK256 SWAP6 POP PUSH2 0x4E6 JUMP JUMPDEST DUP5 DUP5 DUP3 DUP2 DUP2 LT PUSH2 0x4AB JUMPI PUSH4 0x4E487B71 PUSH1 0xE0 SHL PUSH1 0x0 MSTORE PUSH1 0x32 PUSH1 0x4 MSTORE PUSH1 0x24 PUSH1 0x0 REVERT JUMPDEST SWAP1 POP PUSH1 0x20 MUL ADD CALLDATALOAD DUP7 PUSH1 0x40 MLOAD PUSH1 0x20 ADD PUSH2 0x4CD SWAP3 SWAP2 SWAP1 SWAP2 DUP3 MSTORE PUSH1 0x20 DUP3 ADD MSTORE PUSH1 0x40 ADD SWAP1 JUMP JUMPDEST PUSH1 0x40 MLOAD PUSH1 0x20 DUP2 DUP4 SUB SUB DUP2 MSTORE SWAP1 PUSH1 0x40 MSTORE DUP1 MLOAD SWAP1 PUSH1 0x20 ADD KECCAK256 SWAP6 POP JUMPDEST DUP1 PUSH2 0x4F0 DUP2 PUSH2 0xEC2 JUMP JUMPDEST SWAP2 POP POP PUSH2 0x41B JUMP JUMPDEST POP SWAP4 SWAP8 SWAP7 POP POP POP POP POP POP POP JUMP JUMPDEST DUP1 MLOAD PUSH1 0x40 MLOAD PUSH4 0xD82AE4B1 PUSH1 0xE0 SHL DUP2 MSTORE PUSH1 0x0 SWAP2 PUSH20 0x0 SWAP2 PUSH4 0xD82AE4B1 SWAP2 PUSH2 0x543 SWAP2 PUSH1 0x4 ADD SWAP1 DUP2 MSTORE PUSH1 0x20 ADD SWAP1 JUMP JUMPDEST PUSH1 0x20 PUSH1 0x40 MLOAD DUP1 DUP4 SUB DUP2 DUP7 DUP1 EXTCODESIZE ISZERO DUP1 ISZERO PUSH2 0x55B JUMPI PUSH1 0x0 DUP1 REVERT JUMPDEST POP GAS DELEGATECALL ISZERO DUP1 ISZERO PUSH2 0x56F JUMPI RETURNDATASIZE PUSH1 0x0 DUP1 RETURNDATACOPY RETURNDATASIZE PUSH1 0x0 REVERT JUMPDEST POP POP POP POP PUSH1 0x40 MLOAD RETURNDATASIZE PUSH1 0x1F NOT PUSH1 0x1F DUP3 ADD AND DUP3 ADD DUP1 PUSH1 0x40 MSTORE POP DUP2 ADD SWAP1 PUSH2 0x593 SWAP2 SWAP1 PUSH2 0xC9D JUMP JUMPDEST PUSH2 0x5DF JUMPI PUSH1 0x40 MLOAD PUSH3 0x461BCD PUSH1 0xE5 SHL DUP2 MSTORE PUSH1 0x20 PUSH1 0x4 DUP3 ADD MSTORE PUSH1 0x18 PUSH1 0x24 DUP3 ADD MSTORE PUSH32 0x6172726179206C656E206E6F7420706F776572206F6620320000000000000000 PUSH1 0x44 DUP3 ADD MSTORE PUSH1 0x64 ADD PUSH2 0x12D JUMP JUMPDEST DUP2 MLOAD PUSH1 0x1 EQ ISZERO PUSH2 0x619 JUMPI DUP2 PUSH1 0x0 DUP2 MLOAD DUP2 LT PUSH2 0x60A JUMPI PUSH4 0x4E487B71 PUSH1 0xE0 SHL PUSH1 0x0 MSTORE PUSH1 0x32 PUSH1 0x4 MSTORE PUSH1 0x24 PUSH1 0x0 REVERT JUMPDEST PUSH1 0x20 MUL PUSH1 0x20 ADD ADD MLOAD SWAP1 POP SWAP2 SWAP1 POP JUMP JUMPDEST PUSH1 0x0 PUSH1 0x1 DUP4 MLOAD SWAP1 SHR PUSH8 0xFFFFFFFFFFFFFFFF DUP2 GT ISZERO PUSH2 0x647 JUMPI PUSH4 0x4E487B71 PUSH1 0xE0 SHL PUSH1 0x0 MSTORE PUSH1 0x41 PUSH1 0x4 MSTORE PUSH1 0x24 PUSH1 0x0 REVERT JUMPDEST PUSH1 0x40 MLOAD SWAP1 DUP1 DUP3 MSTORE DUP1 PUSH1 0x20 MUL PUSH1 0x20 ADD DUP3 ADD PUSH1 0x40 MSTORE DUP1 ISZERO PUSH2 0x670 JUMPI DUP2 PUSH1 0x20 ADD PUSH1 0x20 DUP3 MUL DUP1 CALLDATASIZE DUP4 CALLDATACOPY ADD SWAP1 POP JUMPDEST POP SWAP1 POP PUSH1 0x0 JUMPDEST DUP4 MLOAD DUP2 LT ISZERO PUSH2 0x74C JUMPI DUP4 DUP2 DUP2 MLOAD DUP2 LT PUSH2 0x69F JUMPI PUSH4 0x4E487B71 PUSH1 0xE0 SHL PUSH1 0x0 MSTORE PUSH1 0x32 PUSH1 0x4 MSTORE PUSH1 0x24 PUSH1 0x0 REVERT JUMPDEST PUSH1 0x20 MUL PUSH1 0x20 ADD ADD MLOAD DUP5 DUP3 PUSH1 0x1 PUSH2 0x6B5 SWAP2 SWAP1 PUSH2 0xE4F JUMP JUMPDEST DUP2 MLOAD DUP2 LT PUSH2 0x6D3 JUMPI PUSH4 0x4E487B71 PUSH1 0xE0 SHL PUSH1 0x0 MSTORE PUSH1 0x32 PUSH1 0x4 MSTORE PUSH1 0x24 PUSH1 0x0 REVERT JUMPDEST PUSH1 0x20 MUL PUSH1 0x20 ADD ADD MLOAD PUSH1 0x40 MLOAD PUSH1 0x20 ADD PUSH2 0x6F5 SWAP3 SWAP2 SWAP1 SWAP2 DUP3 MSTORE PUSH1 0x20 DUP3 ADD MSTORE PUSH1 0x40 ADD SWAP1 JUMP JUMPDEST PUSH1 0x40 MLOAD PUSH1 0x20 DUP2 DUP4 SUB SUB DUP2 MSTORE SWAP1 PUSH1 0x40 MSTORE DUP1 MLOAD SWAP1 PUSH1 0x20 ADD KECCAK256 DUP3 PUSH1 0x1 DUP4 SWAP1 SHR DUP2 MLOAD DUP2 LT PUSH2 0x72F JUMPI PUSH4 0x4E487B71 PUSH1 0xE0 SHL PUSH1 0x0 MSTORE PUSH1 0x32 PUSH1 0x4 MSTORE PUSH1 0x24 PUSH1 0x0 REVERT JUMPDEST PUSH1 0x20 SWAP1 DUP2 MUL SWAP2 SWAP1 SWAP2 ADD ADD MSTORE PUSH2 0x745 PUSH1 0x2 DUP3 PUSH2 0xE4F JUMP JUMPDEST SWAP1 POP PUSH2 0x676 JUMP JUMPDEST POP PUSH2 0x23E DUP2 PUSH2 0x505 JUMP JUMPDEST PUSH1 0x0 PUSH1 0x3 DUP3 LT ISZERO DUP1 ISZERO PUSH2 0x76A JUMPI POP PUSH1 0x40 DUP3 GT ISZERO JUMPDEST PUSH2 0x7B6 JUMPI PUSH1 0x40 MLOAD PUSH3 0x461BCD PUSH1 0xE5 SHL DUP2 MSTORE PUSH1 0x20 PUSH1 0x4 DUP3 ADD MSTORE PUSH1 0x19 PUSH1 0x24 DUP3 ADD MSTORE PUSH32 0x72616E6765206F66206C6F673253697A653A205B332C36345D00000000000000 PUSH1 0x44 DUP3 ADD MSTORE PUSH1 0x64 ADD PUSH2 0x12D JUMP JUMPDEST DUP3 PUSH2 0x7D0 JUMPI PUSH2 0x7C9 PUSH2 0x99 PUSH1 0x3 DUP5 PUSH2 0xEAB JUMP JUMPDEST SWAP1 POP PUSH2 0x23E JUMP JUMPDEST PUSH1 0x0 PUSH2 0x7DD PUSH1 0x3 DUP5 PUSH2 0xEAB JUMP JUMPDEST PUSH1 0x1 SWAP1 SHL SWAP1 POP PUSH1 0x3 DUP2 SWAP1 SHL DUP5 GT ISZERO PUSH2 0x837 JUMPI PUSH1 0x40 MLOAD PUSH3 0x461BCD PUSH1 0xE5 SHL DUP2 MSTORE PUSH1 0x20 PUSH1 0x4 DUP3 ADD MSTORE PUSH1 0x19 PUSH1 0x24 DUP3 ADD MSTORE PUSH32 0x6461746120697320626967676572207468616E20647269766500000000000000 PUSH1 0x44 DUP3 ADD MSTORE PUSH1 0x64 ADD PUSH2 0x12D JUMP JUMPDEST PUSH1 0x40 MLOAD PUSH4 0x6C8E54B PUSH1 0xE0 SHL DUP2 MSTORE PUSH1 0x3 DUP6 SWAP1 SHR PUSH1 0x4 DUP3 ADD MSTORE PUSH1 0x0 SWAP1 PUSH20 0x0 SWAP1 PUSH4 0x6C8E54B SWAP1 PUSH1 0x24 ADD PUSH1 0x20 PUSH1 0x40 MLOAD DUP1 DUP4 SUB DUP2 DUP7 DUP1 EXTCODESIZE ISZERO DUP1 ISZERO PUSH2 0x888 JUMPI PUSH1 0x0 DUP1 REVERT JUMPDEST POP GAS DELEGATECALL ISZERO DUP1 ISZERO PUSH2 0x89C JUMPI RETURNDATASIZE PUSH1 0x0 DUP1 RETURNDATACOPY RETURNDATASIZE PUSH1 0x0 REVERT JUMPDEST POP POP POP POP PUSH1 0x40 MLOAD RETURNDATASIZE PUSH1 0x1F NOT PUSH1 0x1F DUP3 ADD AND DUP3 ADD DUP1 PUSH1 0x40 MSTORE POP DUP2 ADD SWAP1 PUSH2 0x8C0 SWAP2 SWAP1 PUSH2 0xDF6 JUMP JUMPDEST PUSH2 0x8CB SWAP1 PUSH1 0x2 PUSH2 0xE67 JUMP JUMPDEST PUSH1 0xFF AND SWAP1 POP PUSH1 0x0 DUP2 PUSH8 0xFFFFFFFFFFFFFFFF DUP2 GT ISZERO PUSH2 0x8F9 JUMPI PUSH4 0x4E487B71 PUSH1 0xE0 SHL PUSH1 0x0 MSTORE PUSH1 0x41 PUSH1 0x4 MSTORE PUSH1 0x24 PUSH1 0x0 REVERT JUMPDEST PUSH1 0x40 MLOAD SWAP1 DUP1 DUP3 MSTORE DUP1 PUSH1 0x20 MUL PUSH1 0x20 ADD DUP3 ADD PUSH1 0x40 MSTORE DUP1 ISZERO PUSH2 0x922 JUMPI DUP2 PUSH1 0x20 ADD PUSH1 0x20 DUP3 MUL DUP1 CALLDATASIZE DUP4 CALLDATACOPY ADD SWAP1 POP JUMPDEST POP SWAP1 POP PUSH1 0x0 DUP1 PUSH1 0x0 DUP1 JUMPDEST DUP7 DUP5 LT ISZERO PUSH2 0xB66 JUMPI PUSH1 0x3 DUP5 SWAP1 SHL DUP11 GT ISZERO PUSH2 0x98B JUMPI PUSH2 0x94B DUP12 DUP12 DUP7 PUSH2 0xD7 JUMP JUMPDEST DUP6 DUP5 DUP2 MLOAD DUP2 LT PUSH2 0x96B JUMPI PUSH4 0x4E487B71 PUSH1 0xE0 SHL PUSH1 0x0 MSTORE PUSH1 0x32 PUSH1 0x4 MSTORE PUSH1 0x24 PUSH1 0x0 REVERT JUMPDEST PUSH1 0x20 SWAP1 DUP2 MUL SWAP2 SWAP1 SWAP2 ADD ADD MSTORE DUP4 PUSH2 0x980 DUP2 PUSH2 0xEC2 JUMP JUMPDEST SWAP5 POP POP DUP4 SWAP2 POP PUSH2 0xA59 JUMP JUMPDEST PUSH1 0x40 MLOAD PUSH4 0x52DCF5F PUSH1 0xE3 SHL DUP2 MSTORE PUSH1 0x4 DUP2 ADD DUP6 SWAP1 MSTORE PUSH20 0x0 SWAP1 PUSH4 0x296E7AF8 SWAP1 PUSH1 0x24 ADD PUSH1 0x20 PUSH1 0x40 MLOAD DUP1 DUP4 SUB DUP2 DUP7 DUP1 EXTCODESIZE ISZERO DUP1 ISZERO PUSH2 0x9D6 JUMPI PUSH1 0x0 DUP1 REVERT JUMPDEST POP GAS DELEGATECALL ISZERO DUP1 ISZERO PUSH2 0x9EA JUMPI RETURNDATASIZE PUSH1 0x0 DUP1 RETURNDATACOPY RETURNDATASIZE PUSH1 0x0 REVERT JUMPDEST POP POP POP POP PUSH1 0x40 MLOAD RETURNDATASIZE PUSH1 0x1F NOT PUSH1 0x1F DUP3 ADD AND DUP3 ADD DUP1 PUSH1 0x40 MSTORE POP DUP2 ADD SWAP1 PUSH2 0xA0E SWAP2 SWAP1 PUSH2 0xD48 JUMP JUMPDEST SWAP1 POP PUSH2 0xA19 DUP2 PUSH2 0x245 JUMP JUMPDEST DUP6 DUP5 DUP2 MLOAD DUP2 LT PUSH2 0xA39 JUMPI PUSH4 0x4E487B71 PUSH1 0xE0 SHL PUSH1 0x0 MSTORE PUSH1 0x32 PUSH1 0x4 MSTORE PUSH1 0x24 PUSH1 0x0 REVERT JUMPDEST PUSH1 0x20 SWAP1 DUP2 MUL SWAP2 SWAP1 SWAP2 ADD ADD MSTORE PUSH2 0xA51 PUSH1 0x1 DUP3 SHL DUP6 PUSH2 0xE4F JUMP JUMPDEST SWAP4 POP DUP4 DUP2 SHR SWAP2 POP JUMPDEST DUP3 PUSH2 0xA63 DUP2 PUSH2 0xEC2 JUMP JUMPDEST SWAP4 POP POP JUMPDEST PUSH1 0x1 DUP3 AND PUSH2 0xB61 JUMPI PUSH1 0x0 DUP6 PUSH2 0xA7D PUSH1 0x1 DUP7 PUSH2 0xEAB JUMP JUMPDEST DUP2 MLOAD DUP2 LT PUSH2 0xA9B JUMPI PUSH4 0x4E487B71 PUSH1 0xE0 SHL PUSH1 0x0 MSTORE PUSH1 0x32 PUSH1 0x4 MSTORE PUSH1 0x24 PUSH1 0x0 REVERT JUMPDEST PUSH1 0x20 MUL PUSH1 0x20 ADD ADD MLOAD SWAP1 POP PUSH1 0x0 DUP7 PUSH1 0x2 DUP7 PUSH2 0xAB5 SWAP2 SWAP1 PUSH2 0xEAB JUMP JUMPDEST DUP2 MLOAD DUP2 LT PUSH2 0xAD3 JUMPI PUSH4 0x4E487B71 PUSH1 0xE0 SHL PUSH1 0x0 MSTORE PUSH1 0x32 PUSH1 0x4 MSTORE PUSH1 0x24 PUSH1 0x0 REVERT JUMPDEST PUSH1 0x20 MUL PUSH1 0x20 ADD ADD MLOAD SWAP1 POP DUP1 DUP3 PUSH1 0x40 MLOAD PUSH1 0x20 ADD PUSH2 0xAF9 SWAP3 SWAP2 SWAP1 SWAP2 DUP3 MSTORE PUSH1 0x20 DUP3 ADD MSTORE PUSH1 0x40 ADD SWAP1 JUMP JUMPDEST PUSH1 0x40 MLOAD PUSH1 0x20 DUP2 DUP4 SUB SUB DUP2 MSTORE SWAP1 PUSH1 0x40 MSTORE DUP1 MLOAD SWAP1 PUSH1 0x20 ADD KECCAK256 DUP8 PUSH1 0x2 DUP8 PUSH2 0xB1D SWAP2 SWAP1 PUSH2 0xEAB JUMP JUMPDEST DUP2 MLOAD DUP2 LT PUSH2 0xB3B JUMPI PUSH4 0x4E487B71 PUSH1 0xE0 SHL PUSH1 0x0 MSTORE PUSH1 0x32 PUSH1 0x4 MSTORE PUSH1 0x24 PUSH1 0x0 REVERT JUMPDEST PUSH1 0x20 SWAP1 DUP2 MUL SWAP2 SWAP1 SWAP2 ADD ADD MSTORE PUSH2 0xB51 PUSH1 0x1 DUP7 PUSH2 0xEAB JUMP JUMPDEST SWAP5 POP PUSH1 0x1 DUP5 SWAP1 SHR SWAP4 POP POP POP PUSH2 0xA67 JUMP JUMPDEST PUSH2 0x92C JUMP JUMPDEST DUP3 PUSH1 0x1 EQ PUSH2 0xBA4 JUMPI PUSH1 0x40 MLOAD PUSH3 0x461BCD PUSH1 0xE5 SHL DUP2 MSTORE PUSH1 0x20 PUSH1 0x4 DUP3 ADD MSTORE PUSH1 0xB PUSH1 0x24 DUP3 ADD MSTORE PUSH11 0x39BA30B1B59032B93937B9 PUSH1 0xA9 SHL PUSH1 0x44 DUP3 ADD MSTORE PUSH1 0x64 ADD PUSH2 0x12D JUMP JUMPDEST DUP5 PUSH1 0x0 DUP2 MLOAD DUP2 LT PUSH2 0xBC5 JUMPI PUSH4 0x4E487B71 PUSH1 0xE0 SHL PUSH1 0x0 MSTORE PUSH1 0x32 PUSH1 0x4 MSTORE PUSH1 0x24 PUSH1 0x0 REVERT JUMPDEST PUSH1 0x20 MUL PUSH1 0x20 ADD ADD MLOAD SWAP8 POP POP POP POP POP POP POP POP SWAP4 SWAP3 POP POP POP JUMP JUMPDEST PUSH1 0x0 PUSH1 0x20 DUP1 DUP4 DUP6 SUB SLT ISZERO PUSH2 0xBEF JUMPI DUP2 DUP3 REVERT JUMPDEST DUP3 CALLDATALOAD PUSH8 0xFFFFFFFFFFFFFFFF DUP1 DUP3 GT ISZERO PUSH2 0xC06 JUMPI DUP4 DUP5 REVERT JUMPDEST DUP2 DUP6 ADD SWAP2 POP DUP6 PUSH1 0x1F DUP4 ADD SLT PUSH2 0xC19 JUMPI DUP4 DUP5 REVERT JUMPDEST DUP2 CALLDATALOAD DUP2 DUP2 GT ISZERO PUSH2 0xC2B JUMPI PUSH2 0xC2B PUSH2 0xEF3 JUMP JUMPDEST DUP1 PUSH1 0x5 SHL PUSH1 0x40 MLOAD PUSH1 0x1F NOT PUSH1 0x3F DUP4 ADD AND DUP2 ADD DUP2 DUP2 LT DUP6 DUP3 GT OR ISZERO PUSH2 0xC50 JUMPI PUSH2 0xC50 PUSH2 0xEF3 JUMP JUMPDEST PUSH1 0x40 MSTORE DUP3 DUP2 MSTORE DUP6 DUP2 ADD SWAP4 POP DUP5 DUP7 ADD DUP3 DUP7 ADD DUP8 ADD DUP11 LT ISZERO PUSH2 0xC6E JUMPI DUP8 DUP9 REVERT JUMPDEST DUP8 SWAP6 POP JUMPDEST DUP4 DUP7 LT ISZERO PUSH2 0xC90 JUMPI DUP1 CALLDATALOAD DUP6 MSTORE PUSH1 0x1 SWAP6 SWAP1 SWAP6 ADD SWAP5 SWAP4 DUP7 ADD SWAP4 DUP7 ADD PUSH2 0xC72 JUMP JUMPDEST POP SWAP9 SWAP8 POP POP POP POP POP POP POP POP JUMP JUMPDEST PUSH1 0x0 PUSH1 0x20 DUP3 DUP5 SUB SLT ISZERO PUSH2 0xCAE JUMPI DUP1 DUP2 REVERT JUMPDEST DUP2 MLOAD DUP1 ISZERO ISZERO DUP2 EQ PUSH2 0x23E JUMPI DUP2 DUP3 REVERT JUMPDEST PUSH1 0x0 DUP1 PUSH1 0x0 PUSH1 0x40 DUP5 DUP7 SUB SLT ISZERO PUSH2 0xCD1 JUMPI DUP2 DUP3 REVERT JUMPDEST DUP4 CALLDATALOAD PUSH8 0xFFFFFFFFFFFFFFFF DUP1 DUP3 GT ISZERO PUSH2 0xCE8 JUMPI DUP4 DUP5 REVERT JUMPDEST DUP2 DUP7 ADD SWAP2 POP DUP7 PUSH1 0x1F DUP4 ADD SLT PUSH2 0xCFB JUMPI DUP4 DUP5 REVERT JUMPDEST DUP2 CALLDATALOAD DUP2 DUP2 GT ISZERO PUSH2 0xD09 JUMPI DUP5 DUP6 REVERT JUMPDEST DUP8 PUSH1 0x20 DUP3 DUP6 ADD ADD GT ISZERO PUSH2 0xD1A JUMPI DUP5 DUP6 REVERT JUMPDEST PUSH1 0x20 SWAP3 DUP4 ADD SWAP9 SWAP1 SWAP8 POP SWAP6 SWAP1 SWAP2 ADD CALLDATALOAD SWAP5 SWAP4 POP POP POP POP JUMP JUMPDEST PUSH1 0x0 PUSH1 0x20 DUP3 DUP5 SUB SLT ISZERO PUSH2 0xD41 JUMPI DUP1 DUP2 REVERT JUMPDEST POP CALLDATALOAD SWAP2 SWAP1 POP JUMP JUMPDEST PUSH1 0x0 PUSH1 0x20 DUP3 DUP5 SUB SLT ISZERO PUSH2 0xD59 JUMPI DUP1 DUP2 REVERT JUMPDEST POP MLOAD SWAP2 SWAP1 POP JUMP JUMPDEST PUSH1 0x0 DUP1 PUSH1 0x0 DUP1 PUSH1 0x0 DUP1 PUSH1 0xA0 DUP8 DUP10 SUB SLT ISZERO PUSH2 0xD78 JUMPI DUP2 DUP3 REVERT JUMPDEST DUP7 CALLDATALOAD SWAP6 POP PUSH1 0x20 DUP8 ADD CALLDATALOAD SWAP5 POP PUSH1 0x40 DUP8 ADD CALLDATALOAD SWAP4 POP PUSH1 0x60 DUP8 ADD CALLDATALOAD SWAP3 POP PUSH1 0x80 DUP8 ADD CALLDATALOAD PUSH8 0xFFFFFFFFFFFFFFFF DUP1 DUP3 GT ISZERO PUSH2 0xDAB JUMPI DUP4 DUP5 REVERT JUMPDEST DUP2 DUP10 ADD SWAP2 POP DUP10 PUSH1 0x1F DUP4 ADD SLT PUSH2 0xDBE JUMPI DUP4 DUP5 REVERT JUMPDEST DUP2 CALLDATALOAD DUP2 DUP2 GT ISZERO PUSH2 0xDCC JUMPI DUP5 DUP6 REVERT JUMPDEST DUP11 PUSH1 0x20 DUP3 PUSH1 0x5 SHL DUP6 ADD ADD GT ISZERO PUSH2 0xDE0 JUMPI DUP5 DUP6 REVERT JUMPDEST PUSH1 0x20 DUP4 ADD SWAP5 POP DUP1 SWAP4 POP POP POP POP SWAP3 SWAP6 POP SWAP3 SWAP6 POP SWAP3 SWAP6 JUMP JUMPDEST PUSH1 0x0 PUSH1 0x20 DUP3 DUP5 SUB SLT ISZERO PUSH2 0xE07 JUMPI DUP1 DUP2 REVERT JUMPDEST DUP2 MLOAD PUSH1 0xFF DUP2 AND DUP2 EQ PUSH2 0x23E JUMPI DUP2 DUP3 REVERT JUMPDEST DUP2 DUP4 DUP3 CALLDATACOPY PUSH1 0x0 SWAP2 ADD SWAP1 DUP2 MSTORE SWAP2 SWAP1 POP JUMP JUMPDEST PUSH1 0x0 DUP1 DUP6 DUP6 GT ISZERO PUSH2 0xE36 JUMPI DUP2 DUP3 REVERT JUMPDEST DUP4 DUP7 GT ISZERO PUSH2 0xE42 JUMPI DUP2 DUP3 REVERT JUMPDEST POP POP DUP3 ADD SWAP4 SWAP2 SWAP1 SWAP3 SUB SWAP2 POP JUMP JUMPDEST PUSH1 0x0 DUP3 NOT DUP3 GT ISZERO PUSH2 0xE62 JUMPI PUSH2 0xE62 PUSH2 0xEDD JUMP JUMPDEST POP ADD SWAP1 JUMP JUMPDEST PUSH1 0x0 PUSH1 0xFF DUP3 AND PUSH1 0xFF DUP5 AND DUP1 PUSH1 0xFF SUB DUP3 GT ISZERO PUSH2 0xE84 JUMPI PUSH2 0xE84 PUSH2 0xEDD JUMP JUMPDEST ADD SWAP4 SWAP3 POP POP POP JUMP JUMPDEST PUSH1 0x0 DUP2 PUSH1 0x0 NOT DIV DUP4 GT DUP3 ISZERO ISZERO AND ISZERO PUSH2 0xEA6 JUMPI PUSH2 0xEA6 PUSH2 0xEDD JUMP JUMPDEST POP MUL SWAP1 JUMP JUMPDEST PUSH1 0x0 DUP3 DUP3 LT ISZERO PUSH2 0xEBD JUMPI PUSH2 0xEBD PUSH2 0xEDD JUMP JUMPDEST POP SUB SWAP1 JUMP JUMPDEST PUSH1 0x0 PUSH1 0x0 NOT DUP3 EQ ISZERO PUSH2 0xED6 JUMPI PUSH2 0xED6 PUSH2 0xEDD JUMP JUMPDEST POP PUSH1 0x1 ADD SWAP1 JUMP JUMPDEST PUSH4 0x4E487B71 PUSH1 0xE0 SHL PUSH1 0x0 MSTORE PUSH1 0x11 PUSH1 0x4 MSTORE PUSH1 0x24 PUSH1 0x0 REVERT JUMPDEST PUSH4 0x4E487B71 PUSH1 0xE0 SHL PUSH1 0x0 MSTORE PUSH1 0x41 PUSH1 0x4 MSTORE PUSH1 0x24 PUSH1 0x0 REVERT INVALID ADD SHL 0x4D SUB 0xDD DUP13 ADD CALL DIV SWAP2 NUMBER 0xCF SWAP13 0x4C DUP2 PUSH31 0x4B167F1D1B83E5C6F0F10D89BA1E7BCE4D9470A821FBE90117EC357E30BAD9 ADDRESS JUMPI ORIGIN 0xFB NOT 0xDD CREATE2 0x4A SMOD 0xDD RETURNDATACOPY 0x29 DELEGATECALL BLOCKHASH PUSH2 0x9254 0xAE CODECOPY 0xCE DUP6 CALLDATACOPY 0xAC 0xA7 0x5E 0x2E SELFDESTRUCT RETURNDATACOPY CODESIZE 0xC9 DUP1 GT 0xDF 0xE9 CALLVALUE 0xE7 STOP LOG0 SWAP7 PUSH24 0x32FC07B430DD656A233FC9A15F5B4869C872F81087BB6104 0xB7 0xD6 RETURNDATACOPY PUSH16 0x9AB47F2C43F3535EAE7172AA7F17D2DD PUSH2 0x4CDD 0xAA 0x4D DUP8 SWAP3 PUSH23 0xB11E0672C9560033D3E8453A1D045339D34BA601B9C37B DUP12 SGT 0xCA SWAP6 AND PUSH16 0xB7AF16988A70FCC90F38BF9126FD833D 0xA7 LT LOG4 PUSH32 0xB37A55E68E7A427FA943D9966B389F4F257173676090C6E95F43E2CB6D65F875 DUP2 GT 0xE3 MULMOD ADDRESS 0xB0 0xB9 0xDE 0xB7 RETURNDATACOPY ISZERO 0x5C MSIZE PUSH21 0xBACF14A6FF04B64BB8E201A506409C3FE381CA4EA SWAP1 0xCD 0x5D 0xEA 0xC7 0x29 0xD0 REVERT 0xAC 0xCC DIFFICULTY SAR MULMOD 0xD7 ORIGIN 0x5F COINBASE PC PUSH12 0xA13C801B7ECCAE0F95D8F393 RETURNDATACOPY INVALID 0xD8 0xB9 PUSH15 0x5B7F6F459E9CB6A2F41BF276C7B85C LT 0xCD CHAINID PUSH3 0xC04CBB 0xB3 PUSH6 0x434726C0A0C9 PUSH10 0x5393027FB106A8153109 0xAC MLOAD PUSH3 0x88A88B 0x28 0xA9 CODESIZE OR DUP10 SWAP5 PUSH1 0xD6 BALANCE SIGNEXTEND PUSH18 0xCF1E6163E8806FA0D4B197A259E8C3AC2886 TIMESTAMP PUSH9 0x159D0AC85F8581CA28 STATICCALL PUSH30 0x2C0C03EB91E3EEE5CA7A3DA2B3053C9770DB73599FB149F620E3FACEF95E SWAP5 PUSH29 0xEE860B72122E31E4BBD2B7C783D79CC30F60C6238651DA7F0726F767D 0x22 PUSH21 0x7264FDB046F7549F26CC70ED5E18BAEB6C81BB0625 0xCB SWAP6 0xBB BLOCKHASH NOT 0xAE 0xEC 0xD4 SMOD PUSH21 0xEE87AE29EC517A71F6EE264C5D761379B3D7D617CA DUP4 PUSH8 0x7374B49D10AEC505 SDIV 0xAC ADDMOD PUSH21 0x8CA892B573C267A712A52E1D06421FE276A03EFB1 DUP9 SWAP16 CALLER PUSH19 0x1110FDC32A81F8E152499AF665835AABFDC67 BLOCKHASH 0xC7 0xE2 0xC3 PUSH26 0x1A31C3CDC9F5AB962F681B12FC092816A62F27D86025599A4123 CODESIZE 0x48 PUSH17 0x2F0CFC0437B445682DF51147A632A0A083 0xD2 0xD3 DUP12 0x5E SGT 0xE4 PUSH7 0xA8935AFFF58BB5 CALLER 0xB3 0xEF 0x5D 0x27 0xFB 0xA6 RETURNDATACOPY 0xE6 0xB0 REVERT SWAP15 PUSH8 0xFF20AF9D50DEEE3F DUP12 CREATE PUSH6 0xEC220C1FD4BA JUMPI 0xE3 COINBASE 0x26 SAR SSTORE SWAP10 PUSH32 0x85D66D32152526736872693D2B437A233E2337B715F6AC9A6A272622FDC2D67F 0xCF 0xE1 0xDA CALLVALUE MSIZE 0xF8 0xDA 0xB4 0xED PUSH31 0x40A657A54C36766C5E8AC9A88B35B05C34747E6507F6B044AB66180DC76AC1 0xA6 SWAP7 0xDE SUB XOR SWAP6 SWAP4 INVALID 0xDC 0xD 0xD 0xBB 0xD8 SSTORE 0xC8 0xEA 0xD6 PUSH20 0x544899B0960E4A5A7CA43B4EF90AFE607DE7698C 0xAE REVERT 0xC2 TIMESTAMP PUSH25 0x8F654B57A4FB32A71B335EF6FF9A4CC118B282B53BDD6D6192 0xB7 0xA8 0x2C EXTCODECOPY MLOAD 0x26 0xB9 0xC7 0xE3 EXTCODECOPY DUP15 GAS GAS 0xC9 PUSH20 0x8B8BD31247FB7402054F97B573E8ABB9FAAD219F 0x4F 0xD0 DUP6 0xAC 0xEA 0xA7 CREATE2 TIMESTAMP 0xD7 DUP8 0xEE COINBASE SWAP7 0xD3 PUSH6 0xF3CC566E7BBC 0xFB REVERT GASLIMIT SLT ADDRESS 0xC4 DUP14 DUP1 0x4C ADD PUSH30 0x21E2D8FA914E2559BB72BF0AB78C8AB92F00EF0D0D576ECCDD486B64138A COINBASE PUSH19 0x674857E543D1D5B639058DD908186597E366AD 0x5F RETURNDATASIZE SWAP13 PUSH29 0xEAFF44D04D1550B8D33ABC751DF07437834BA5ACB32328A396994AEBB3 0xC4 0xF PUSH22 0x9C2D6D7A3CB5377E55D5D218EF5A296DDA8DDC355F3F POP 0xC3 0xD0 0xB6 PUSH1 0xA5 SAR STATICCALL 0x4D SWAP9 0xA6 0xA5 LOG3 CALLDATALOAD PUSH5 0x556CF83C13 PUSH20 0xA814641D6A1DCEF97B883FEE61BB84FE60A34093 BLOCKHASH 0x21 PUSH31 0x629CC7E4DCC93B85D8820921FF5826148B60E6939ACD7838E1D7F20562BFF8 0xEE 0x4B 0x5E 0xC4 LOG0 GAS 0xD9 SWAP8 0xA5 PUSH28 0x9796FDCB2EDA87883C2640B072B140B946BFDF6575CACC066FDAE04F PUSH10 0x51E63624CBD316A677CA 0xD5 0x29 0xBB 0xE4 0xE9 PUSH28 0x9144E4BC06C4AFD1DE55DD3E1175F90423847A230D34DFB71ED56F29 PUSH6 0xA7F6C72E6AA3 EXTCODECOPY 0x24 0xC3 SUB REVERT PUSH8 0x745D632656C5EF90 0xBE 0xC8 0xF 0x4F 0x5D SAR 0xAA 0x25 NOT DUP9 DUP3 PUSH13 0xEF375C81C36BF457E09687056F SWAP3 CHAINID PUSH24 0xCB0BCCF98DFF81E014CE25F2D132497923E267363963CDF4 ADDRESS 0x2C POP 0x49 0xD6 BALANCE BALANCE 0xDC SUB REVERT SWAP6 0xF6 0x5D DUP12 PUSH11 0xA5934F817252C028C90F56 0xD4 SGT 0xB9 0xD5 0xD1 0xD DUP10 PUSH26 0x707DAE2FABB249F649929927C21DD71E3F656826DE5451C5DA3 PUSH22 0xAADECBD59D5EBF3A31FAE65AC1B316A1611F1B276B26 MSTORE8 0xF PC 0xD7 0x24 PUSH30 0xF459CE1F86DB1D734F6F811932F042CEE45D0E455306D01081BC3384F82C 0x5F 0xB2 0xAA 0xCA LOG1 SWAP14 DUP10 0xCD STATICCALL CHAINID 0xCC SWAP2 PUSH15 0xAC61121475BA2E6191B4FEECBE1789 PUSH18 0x7021A158ACE5D06744B40F551076B67CD63A 0xF6 STOP SMOD 0xF8 0xC9 SWAP9 PUSH23 0xE1424883A45EC49D497DDAF808A5521CA74A999AB0B3C7 0xAA SWAP13 DUP1 0xF8 0x5E SWAP4 SWAP8 PUSH31 0xC61CE68B20307A1A81F71CA645B568FCD319CCBB5F651E87B707D37C39E15F SWAP5 0x5E 0xA6 SWAP15 0x2F PUSH29 0x7D2CCC85B7E654C07E96F0636AE4044FE0E38590B431795AD0F8647BDD PUSH2 0x3713 0xAD LOG4 SWAP4 0xCC OR 0xEF 0xD3 SGT KECCAK256 PUSH4 0x80E6A685 0xB8 NOT DUP5 PUSH22 0xBBD021C6E9D94DAAB2214947127506073E44D5408BA1 PUSH7 0xC512A0B86805D0 PUSH32 0x5A44D3C41706BE2BC15E712E55805248B92E8677D90F6D284D1D6FFAFF2C4306 JUMPI DIV 0x2A 0xE DUP3 PUSH3 0x4FA371 PUSH28 0x6CC0A6FD12230EA586DAE83019FB9E06034ED2803C98D554B93C9A5 0x23 0x48 0xCA SELFDESTRUCT 0xF7 0x5C BLOCKHASH OR 0x4A SWAP2 0xF9 0xAE PUSH12 0x8647854A156029F0B88B8331 PUSH7 0x63CE574A497827 PUSH28 0xB6BB27A31085634B6EC78864B6D8201C7E93903D75815067E378289A RETURNDATASIZE SMOD 0x2A 0xE1 PUSH19 0xDAFA6A452470F8D645BEBFAD9779594FC0784B 0xB7 PUSH5 0xA22E3A8181 0xD9 RETURNDATASIZE 0xB7 0xBF SWAP8 DUP10 EXTCODECOPY COINBASE TIMESTAMP OR 0xA6 XOR 0xCC 0xB1 0x4C 0xAA SWAP15 SWAP3 0xE8 0xC6 AND PUSH20 0xAFC9583662E812ADBA1F87A9C68202D60E909EFA 0xB4 EXTCODECOPY TIMESTAMP 0xC0 0xCB STOP PUSH10 0x5FC7F1FFE67C75CA894C EXTCODECOPY MLOAD 0xE1 0xE5 0xE7 BALANCE CALLDATASIZE ADD SWAP10 0xE6 STOP 0xF6 0xCE 0xD9 0xA8 PUSH28 0x2A6A87E70BF251BB5075AB222138288164B2EDA727515EA7DE12E249 PUSH14 0x4FE42EA8D1A120C03CF9C50622C2 0xAF 0xE4 0xAC 0xB0 0xDA 0xD9 DUP16 0xD6 0x2D SMOD 0xAB 0x4E DUP3 DUP11 SWAP5 0x49 0x5F PUSH14 0x1AB973982C7CCBE6C1FAE02788E4 TIMESTAMP 0x2A 0xE2 0x22 DUP3 STATICCALL 0x49 0xCB 0xDB DIV 0xBA SLOAD 0xA7 LOG2 CODESIZE 0xC6 0xFC COINBASE XOR PUSH21 0x51383460762C06D1C8A72B9CD718866AD4B689E10C SWAP11 DUP13 CODESIZE INVALID 0x5E CREATE GASLIMIT 0xBD PUSH25 0x5B01E980FC82C7E3532CE81876B778DD9F1CEEBA4478E86411 0xFB PUSH16 0xDD790683916CA832592485093644E876 0xC 0xD7 0xB4 0xC0 SAR 0xBA SHR 0xCC DUP3 0xB6 PUSH2 0xBF13 CREATE 0xE3 RETURN 0x4A 0xCD PUSH12 0x88A2646970667358221220BE PUSH26 0xC972192069D105A5FC9AAE66C9FF55A7F4076D708AA33A4F2ECA 0xEC 0x28 PUSH20 0xE364736F6C634300080400330000000000000000 "
    },
    "gasEstimates": {
      "creation": {
        "codeDepositCost": "1171000",
        "executionCost": "1249",
        "totalCost": "1172249"
      },
      "external": {
        "calculateRootFromPowerOfTwo(bytes32[])": "infinite",
        "getEmptyTreeHashAtIndex(uint256)": "infinite",
        "getHashOfWordAtIndex(bytes,uint256)": "infinite",
        "getMerkleRootFromBytes(bytes,uint256)": "infinite",
        "getRootAfterReplacementInDrive(uint256,uint256,uint256,bytes32,bytes32[])": "infinite"
      }
    },
    "methodIdentifiers": {
      "calculateRootFromPowerOfTwo(bytes32[])": "82b0eab8",
      "getEmptyTreeHashAtIndex(uint256)": "451a1055",
      "getHashOfWordAtIndex(bytes,uint256)": "34bd712d",
      "getMerkleRootFromBytes(bytes,uint256)": "c84583a1",
      "getRootAfterReplacementInDrive(uint256,uint256,uint256,bytes32,bytes32[])": "79de4601"
    }
  },
  "storageLayout": {
    "storage": [],
    "types": null
  },
  "userdoc": {
    "kind": "user",
    "methods": {
      "calculateRootFromPowerOfTwo(bytes32[])": {
        "notice": "Calculate the root of Merkle tree from an array of power of 2 elements"
      },
      "getEmptyTreeHashAtIndex(uint256)": {
        "notice": "Gets precomputed hash of zero in empty tree hashes"
      },
      "getHashOfWordAtIndex(bytes,uint256)": {
        "notice": "Get the hash of a word in an array of bytes"
      },
      "getMerkleRootFromBytes(bytes,uint256)": {
        "notice": "get merkle root of generic array of bytes"
      },
      "getRootAfterReplacementInDrive(uint256,uint256,uint256,bytes32,bytes32[])": {
        "notice": "Gets merkle root hash of drive with a replacement"
      }
    },
    "version": 1
  }
}