{
  "contractName": "TestMerkle",
  "sourceName": "contracts/test/TestMerkle.sol",
  "abi": [
    {
      "inputs": [
        {
          "internalType": "bytes32[]",
          "name": "hashes",
          "type": "bytes32[]"
        }
      ],
      "name": "calculateRootFromPowerOfTwo",
      "outputs": [
        {
          "internalType": "bytes32",
          "name": "",
          "type": "bytes32"
        }
      ],
      "stateMutability": "pure",
      "type": "function"
    },
    {
      "inputs": [
        {
          "internalType": "uint256",
          "name": "_index",
          "type": "uint256"
        }
      ],
      "name": "getEmptyTreeHashAtIndex",
      "outputs": [
        {
          "internalType": "bytes32",
          "name": "",
          "type": "bytes32"
        }
      ],
      "stateMutability": "pure",
      "type": "function"
    },
    {
      "inputs": [
        {
          "internalType": "bytes",
          "name": "_data",
          "type": "bytes"
        },
        {
          "internalType": "uint256",
          "name": "_wordIndex",
          "type": "uint256"
        }
      ],
      "name": "getHashOfWordAtIndex",
      "outputs": [
        {
          "internalType": "bytes32",
          "name": "",
          "type": "bytes32"
        }
      ],
      "stateMutability": "pure",
      "type": "function"
    },
    {
      "inputs": [
        {
          "internalType": "bytes",
          "name": "_data",
          "type": "bytes"
        },
        {
          "internalType": "uint256",
          "name": "_log2Size",
          "type": "uint256"
        }
      ],
      "name": "getMerkleRootFromBytes",
      "outputs": [
        {
          "internalType": "bytes32",
          "name": "",
          "type": "bytes32"
        }
      ],
      "stateMutability": "pure",
      "type": "function"
    },
    {
      "inputs": [
        {
          "internalType": "uint256",
          "name": "_position",
          "type": "uint256"
        },
        {
          "internalType": "uint256",
          "name": "_logSizeOfReplacement",
          "type": "uint256"
        },
        {
          "internalType": "uint256",
          "name": "_logSizeOfFullDrive",
          "type": "uint256"
        },
        {
          "internalType": "bytes32",
          "name": "_replacement",
          "type": "bytes32"
        },
        {
          "internalType": "bytes32[]",
          "name": "siblings",
          "type": "bytes32[]"
        }
      ],
      "name": "getRootAfterReplacementInDrive",
      "outputs": [
        {
          "internalType": "bytes32",
          "name": "",
          "type": "bytes32"
        }
      ],
      "stateMutability": "pure",
      "type": "function"
    }
  ],
  "bytecode": "0x608060405234801561001057600080fd5b506105e8806100206000396000f3fe608060405234801561001057600080fd5b50600436106100575760003560e01c806334bd712d1461005c578063451a10551461008157806379de46011461009457806382b0eab8146100a7578063c84583a1146100ba575b600080fd5b61006f61006a3660046103ed565b6100cd565b60405190815260200160405180910390f35b61006f61008f366004610460565b610163565b61006f6100a2366004610478565b6101f0565b61006f6100b53660046103a2565b61028c565b61006f6100c83660046103ed565b6102c6565b6040516334bd712d60e01b815260009073__$334858ba5cb9c8f4fa57878485f86f96e9$__906334bd712d9061010b9087908790879060040161052e565b60206040518083038186803b15801561012357600080fd5b505af4158015610137573d6000803e3d6000fd5b505050506040513d601f19601f8201168201806040525081019061015b91906103d5565b949350505050565b60405163451a105560e01b81526004810182905260009073__$334858ba5cb9c8f4fa57878485f86f96e9$__9063451a1055906024015b60206040518083038186803b1580156101b257600080fd5b505af41580156101c6573d6000803e3d6000fd5b505050506040513d601f19601f820116820180604052508101906101ea91906103d5565b92915050565b6040516379de460160e01b815260009073__$334858ba5cb9c8f4fa57878485f86f96e9$__906379de4601906102329089908990899089908990600401610566565b60206040518083038186803b15801561024a57600080fd5b505af415801561025e573d6000803e3d6000fd5b505050506040513d601f19601f8201168201806040525081019061028291906103d5565b9695505050505050565b6040516310561d5760e31b815260009073__$334858ba5cb9c8f4fa57878485f86f96e9$__906382b0eab89061019a908590600401610514565b60405163c84583a160e01b815260009073__$334858ba5cb9c8f4fa57878485f86f96e9$__9063c84583a19061010b9087908790879060040161052e565b600082601f830112610314578081fd5b8135602067ffffffffffffffff808311156103315761033161059c565b8260051b604051601f19603f830116810181811084821117156103565761035661059c565b60405284815283810192508684018288018501891015610374578687fd5b8692505b85831015610396578035845292840192600192909201918401610378565b50979650505050505050565b6000602082840312156103b3578081fd5b813567ffffffffffffffff8111156103c9578182fd5b61015b84828501610304565b6000602082840312156103e6578081fd5b5051919050565b600080600060408486031215610401578182fd5b833567ffffffffffffffff80821115610418578384fd5b818601915086601f83011261042b578384fd5b813581811115610439578485fd5b87602082850101111561044a578485fd5b6020928301989097509590910135949350505050565b600060208284031215610471578081fd5b5035919050565b600080600080600060a0868803121561048f578081fd5b85359450602086013593506040860135925060608601359150608086013567ffffffffffffffff8111156104c1578182fd5b6104cd88828901610304565b9150509295509295909350565b6000815180845260208085019450808401835b83811015610509578151875295820195908201906001016104ed565b509495945050505050565b60208152600061052760208301846104da565b9392505050565b6040815282604082015282846060830137600080606085840101526060601f19601f8601168301019050826020830152949350505050565b85815284602082015283604082015282606082015260a06080820152600061059160a08301846104da565b979650505050505050565b634e487b7160e01b600052604160045260246000fdfea2646970667358221220aae6cff83e1dd7d81866f0d9d9f8689078edf2f1549e1ce385ed820eafba452964736f6c63430008040033",
  "linkReferences": {
    "contracts/Merkle.sol": {
      "Merkle": [
        {
          "length": 20,
          "start": 255
        },
        {
          "length": 20,
          "start": 412
        },
        {
          "length": 20,
          "start": 546
        },
        {
          "length": 20,
          "start": 702
        },
        {
          "length": 20,
          "start": 760
        }
      ]
    }
  },
  "deployedLinkReferences": {
    "contracts/Merkle.sol": {
      "Merkle": [
        {
          "length": 20,
          "start": 223
        },
        {
          "length": 20,
          "start": 380
        },
        {
          "length": 20,
          "start": 514
        },
        {
          "length": 20,
          "start": 670
        },
        {
          "length": 20,
          "start": 728
        }
      ]
    }
  },
  "devdoc": {
    "kind": "dev",
    "methods": {},
    "version": 1
  },
  "evm": {
    "bytecode": {
      "linkReferences": {
        "contracts/Merkle.sol": {
          "Merkle": [
            {
              "length": 20,
              "start": 255
            },
            {
              "length": 20,
              "start": 412
            },
            {
              "length": 20,
              "start": 546
            },
            {
              "length": 20,
              "start": 702
            },
            {
              "length": 20,
              "start": 760
            }
          ]
        }
      },
      "opcodes": "PUSH1 0x80 PUSH1 0x40 MSTORE CALLVALUE DUP1 ISZERO PUSH2 0x10 JUMPI PUSH1 0x0 DUP1 REVERT JUMPDEST POP PUSH2 0x5E8 DUP1 PUSH2 0x20 PUSH1 0x0 CODECOPY PUSH1 0x0 RETURN INVALID PUSH1 0x80 PUSH1 0x40 MSTORE CALLVALUE DUP1 ISZERO PUSH2 0x10 JUMPI PUSH1 0x0 DUP1 REVERT JUMPDEST POP PUSH1 0x4 CALLDATASIZE LT PUSH2 0x57 JUMPI PUSH1 0x0 CALLDATALOAD PUSH1 0xE0 SHR DUP1 PUSH4 0x34BD712D EQ PUSH2 0x5C JUMPI DUP1 PUSH4 0x451A1055 EQ PUSH2 0x81 JUMPI DUP1 PUSH4 0x79DE4601 EQ PUSH2 0x94 JUMPI DUP1 PUSH4 0x82B0EAB8 EQ PUSH2 0xA7 JUMPI DUP1 PUSH4 0xC84583A1 EQ PUSH2 0xBA JUMPI JUMPDEST PUSH1 0x0 DUP1 REVERT JUMPDEST PUSH2 0x6F PUSH2 0x6A CALLDATASIZE PUSH1 0x4 PUSH2 0x3ED JUMP JUMPDEST PUSH2 0xCD JUMP JUMPDEST PUSH1 0x40 MLOAD SWAP1 DUP2 MSTORE PUSH1 0x20 ADD PUSH1 0x40 MLOAD DUP1 SWAP2 SUB SWAP1 RETURN JUMPDEST PUSH2 0x6F PUSH2 0x8F CALLDATASIZE PUSH1 0x4 PUSH2 0x460 JUMP JUMPDEST PUSH2 0x163 JUMP JUMPDEST PUSH2 0x6F PUSH2 0xA2 CALLDATASIZE PUSH1 0x4 PUSH2 0x478 JUMP JUMPDEST PUSH2 0x1F0 JUMP JUMPDEST PUSH2 0x6F PUSH2 0xB5 CALLDATASIZE PUSH1 0x4 PUSH2 0x3A2 JUMP JUMPDEST PUSH2 0x28C JUMP JUMPDEST PUSH2 0x6F PUSH2 0xC8 CALLDATASIZE PUSH1 0x4 PUSH2 0x3ED JUMP JUMPDEST PUSH2 0x2C6 JUMP JUMPDEST PUSH1 0x40 MLOAD PUSH4 0x34BD712D PUSH1 0xE0 SHL DUP2 MSTORE PUSH1 0x0 SWAP1 PUSH20 0x0 SWAP1 PUSH4 0x34BD712D SWAP1 PUSH2 0x10B SWAP1 DUP8 SWAP1 DUP8 SWAP1 DUP8 SWAP1 PUSH1 0x4 ADD PUSH2 0x52E JUMP JUMPDEST PUSH1 0x20 PUSH1 0x40 MLOAD DUP1 DUP4 SUB DUP2 DUP7 DUP1 EXTCODESIZE ISZERO DUP1 ISZERO PUSH2 0x123 JUMPI PUSH1 0x0 DUP1 REVERT JUMPDEST POP GAS DELEGATECALL ISZERO DUP1 ISZERO PUSH2 0x137 JUMPI RETURNDATASIZE PUSH1 0x0 DUP1 RETURNDATACOPY RETURNDATASIZE PUSH1 0x0 REVERT JUMPDEST POP POP POP POP PUSH1 0x40 MLOAD RETURNDATASIZE PUSH1 0x1F NOT PUSH1 0x1F DUP3 ADD AND DUP3 ADD DUP1 PUSH1 0x40 MSTORE POP DUP2 ADD SWAP1 PUSH2 0x15B SWAP2 SWAP1 PUSH2 0x3D5 JUMP JUMPDEST SWAP5 SWAP4 POP POP POP POP JUMP JUMPDEST PUSH1 0x40 MLOAD PUSH4 0x451A1055 PUSH1 0xE0 SHL DUP2 MSTORE PUSH1 0x4 DUP2 ADD DUP3 SWAP1 MSTORE PUSH1 0x0 SWAP1 PUSH20 0x0 SWAP1 PUSH4 0x451A1055 SWAP1 PUSH1 0x24 ADD JUMPDEST PUSH1 0x20 PUSH1 0x40 MLOAD DUP1 DUP4 SUB DUP2 DUP7 DUP1 EXTCODESIZE ISZERO DUP1 ISZERO PUSH2 0x1B2 JUMPI PUSH1 0x0 DUP1 REVERT JUMPDEST POP GAS DELEGATECALL ISZERO DUP1 ISZERO PUSH2 0x1C6 JUMPI RETURNDATASIZE PUSH1 0x0 DUP1 RETURNDATACOPY RETURNDATASIZE PUSH1 0x0 REVERT JUMPDEST POP POP POP POP PUSH1 0x40 MLOAD RETURNDATASIZE PUSH1 0x1F NOT PUSH1 0x1F DUP3 ADD AND DUP3 ADD DUP1 PUSH1 0x40 MSTORE POP DUP2 ADD SWAP1 PUSH2 0x1EA SWAP2 SWAP1 PUSH2 0x3D5 JUMP JUMPDEST SWAP3 SWAP2 POP POP JUMP JUMPDEST PUSH1 0x40 MLOAD PUSH4 0x79DE4601 PUSH1 0xE0 SHL DUP2 MSTORE PUSH1 0x0 SWAP1 PUSH20 0x0 SWAP1 PUSH4 0x79DE4601 SWAP1 PUSH2 0x232 SWAP1 DUP10 SWAP1 DUP10 SWAP1 DUP10 SWAP1 DUP10 SWAP1 DUP10 SWAP1 PUSH1 0x4 ADD PUSH2 0x566 JUMP JUMPDEST PUSH1 0x20 PUSH1 0x40 MLOAD DUP1 DUP4 SUB DUP2 DUP7 DUP1 EXTCODESIZE ISZERO DUP1 ISZERO PUSH2 0x24A JUMPI PUSH1 0x0 DUP1 REVERT JUMPDEST POP GAS DELEGATECALL ISZERO DUP1 ISZERO PUSH2 0x25E JUMPI RETURNDATASIZE PUSH1 0x0 DUP1 RETURNDATACOPY RETURNDATASIZE PUSH1 0x0 REVERT JUMPDEST POP POP POP POP PUSH1 0x40 MLOAD RETURNDATASIZE PUSH1 0x1F NOT PUSH1 0x1F DUP3 ADD AND DUP3 ADD DUP1 PUSH1 0x40 MSTORE POP DUP2 ADD SWAP1 PUSH2 0x282 SWAP2 SWAP1 PUSH2 0x3D5 JUMP JUMPDEST SWAP7 SWAP6 POP POP POP POP POP POP JUMP JUMPDEST PUSH1 0x40 MLOAD PUSH4 0x10561D57 PUSH1 0xE3 SHL DUP2 MSTORE PUSH1 0x0 SWAP1 PUSH20 0x0 SWAP1 PUSH4 0x82B0EAB8 SWAP1 PUSH2 0x19A SWAP1 DUP6 SWAP1 PUSH1 0x4 ADD PUSH2 0x514 JUMP JUMPDEST PUSH1 0x40 MLOAD PUSH4 0xC84583A1 PUSH1 0xE0 SHL DUP2 MSTORE PUSH1 0x0 SWAP1 PUSH20 0x0 SWAP1 PUSH4 0xC84583A1 SWAP1 PUSH2 0x10B SWAP1 DUP8 SWAP1 DUP8 SWAP1 DUP8 SWAP1 PUSH1 0x4 ADD PUSH2 0x52E JUMP JUMPDEST PUSH1 0x0 DUP3 PUSH1 0x1F DUP4 ADD SLT PUSH2 0x314 JUMPI DUP1 DUP2 REVERT JUMPDEST DUP2 CALLDATALOAD PUSH1 0x20 PUSH8 0xFFFFFFFFFFFFFFFF DUP1 DUP4 GT ISZERO PUSH2 0x331 JUMPI PUSH2 0x331 PUSH2 0x59C JUMP JUMPDEST DUP3 PUSH1 0x5 SHL PUSH1 0x40 MLOAD PUSH1 0x1F NOT PUSH1 0x3F DUP4 ADD AND DUP2 ADD DUP2 DUP2 LT DUP5 DUP3 GT OR ISZERO PUSH2 0x356 JUMPI PUSH2 0x356 PUSH2 0x59C JUMP JUMPDEST PUSH1 0x40 MSTORE DUP5 DUP2 MSTORE DUP4 DUP2 ADD SWAP3 POP DUP7 DUP5 ADD DUP3 DUP9 ADD DUP6 ADD DUP10 LT ISZERO PUSH2 0x374 JUMPI DUP7 DUP8 REVERT JUMPDEST DUP7 SWAP3 POP JUMPDEST DUP6 DUP4 LT ISZERO PUSH2 0x396 JUMPI DUP1 CALLDATALOAD DUP5 MSTORE SWAP3 DUP5 ADD SWAP3 PUSH1 0x1 SWAP3 SWAP1 SWAP3 ADD SWAP2 DUP5 ADD PUSH2 0x378 JUMP JUMPDEST POP SWAP8 SWAP7 POP POP POP POP POP POP POP JUMP JUMPDEST PUSH1 0x0 PUSH1 0x20 DUP3 DUP5 SUB SLT ISZERO PUSH2 0x3B3 JUMPI DUP1 DUP2 REVERT JUMPDEST DUP2 CALLDATALOAD PUSH8 0xFFFFFFFFFFFFFFFF DUP2 GT ISZERO PUSH2 0x3C9 JUMPI DUP2 DUP3 REVERT JUMPDEST PUSH2 0x15B DUP5 DUP3 DUP6 ADD PUSH2 0x304 JUMP JUMPDEST PUSH1 0x0 PUSH1 0x20 DUP3 DUP5 SUB SLT ISZERO PUSH2 0x3E6 JUMPI DUP1 DUP2 REVERT JUMPDEST POP MLOAD SWAP2 SWAP1 POP JUMP JUMPDEST PUSH1 0x0 DUP1 PUSH1 0x0 PUSH1 0x40 DUP5 DUP7 SUB SLT ISZERO PUSH2 0x401 JUMPI DUP2 DUP3 REVERT JUMPDEST DUP4 CALLDATALOAD PUSH8 0xFFFFFFFFFFFFFFFF DUP1 DUP3 GT ISZERO PUSH2 0x418 JUMPI DUP4 DUP5 REVERT JUMPDEST DUP2 DUP7 ADD SWAP2 POP DUP7 PUSH1 0x1F DUP4 ADD SLT PUSH2 0x42B JUMPI DUP4 DUP5 REVERT JUMPDEST DUP2 CALLDATALOAD DUP2 DUP2 GT ISZERO PUSH2 0x439 JUMPI DUP5 DUP6 REVERT JUMPDEST DUP8 PUSH1 0x20 DUP3 DUP6 ADD ADD GT ISZERO PUSH2 0x44A JUMPI DUP5 DUP6 REVERT JUMPDEST PUSH1 0x20 SWAP3 DUP4 ADD SWAP9 SWAP1 SWAP8 POP SWAP6 SWAP1 SWAP2 ADD CALLDATALOAD SWAP5 SWAP4 POP POP POP POP JUMP JUMPDEST PUSH1 0x0 PUSH1 0x20 DUP3 DUP5 SUB SLT ISZERO PUSH2 0x471 JUMPI DUP1 DUP2 REVERT JUMPDEST POP CALLDATALOAD SWAP2 SWAP1 POP JUMP JUMPDEST PUSH1 0x0 DUP1 PUSH1 0x0 DUP1 PUSH1 0x0 PUSH1 0xA0 DUP7 DUP9 SUB SLT ISZERO PUSH2 0x48F JUMPI DUP1 DUP2 REVERT JUMPDEST DUP6 CALLDATALOAD SWAP5 POP PUSH1 0x20 DUP7 ADD CALLDATALOAD SWAP4 POP PUSH1 0x40 DUP7 ADD CALLDATALOAD SWAP3 POP PUSH1 0x60 DUP7 ADD CALLDATALOAD SWAP2 POP PUSH1 0x80 DUP7 ADD CALLDATALOAD PUSH8 0xFFFFFFFFFFFFFFFF DUP2 GT ISZERO PUSH2 0x4C1 JUMPI DUP2 DUP3 REVERT JUMPDEST PUSH2 0x4CD DUP9 DUP3 DUP10 ADD PUSH2 0x304 JUMP JUMPDEST SWAP2 POP POP SWAP3 SWAP6 POP SWAP3 SWAP6 SWAP1 SWAP4 POP JUMP JUMPDEST PUSH1 0x0 DUP2 MLOAD DUP1 DUP5 MSTORE PUSH1 0x20 DUP1 DUP6 ADD SWAP5 POP DUP1 DUP5 ADD DUP4 JUMPDEST DUP4 DUP2 LT ISZERO PUSH2 0x509 JUMPI DUP2 MLOAD DUP8 MSTORE SWAP6 DUP3 ADD SWAP6 SWAP1 DUP3 ADD SWAP1 PUSH1 0x1 ADD PUSH2 0x4ED JUMP JUMPDEST POP SWAP5 SWAP6 SWAP5 POP POP POP POP POP JUMP JUMPDEST PUSH1 0x20 DUP2 MSTORE PUSH1 0x0 PUSH2 0x527 PUSH1 0x20 DUP4 ADD DUP5 PUSH2 0x4DA JUMP JUMPDEST SWAP4 SWAP3 POP POP POP JUMP JUMPDEST PUSH1 0x40 DUP2 MSTORE DUP3 PUSH1 0x40 DUP3 ADD MSTORE DUP3 DUP5 PUSH1 0x60 DUP4 ADD CALLDATACOPY PUSH1 0x0 DUP1 PUSH1 0x60 DUP6 DUP5 ADD ADD MSTORE PUSH1 0x60 PUSH1 0x1F NOT PUSH1 0x1F DUP7 ADD AND DUP4 ADD ADD SWAP1 POP DUP3 PUSH1 0x20 DUP4 ADD MSTORE SWAP5 SWAP4 POP POP POP POP JUMP JUMPDEST DUP6 DUP2 MSTORE DUP5 PUSH1 0x20 DUP3 ADD MSTORE DUP4 PUSH1 0x40 DUP3 ADD MSTORE DUP3 PUSH1 0x60 DUP3 ADD MSTORE PUSH1 0xA0 PUSH1 0x80 DUP3 ADD MSTORE PUSH1 0x0 PUSH2 0x591 PUSH1 0xA0 DUP4 ADD DUP5 PUSH2 0x4DA JUMP JUMPDEST SWAP8 SWAP7 POP POP POP POP POP POP POP JUMP JUMPDEST PUSH4 0x4E487B71 PUSH1 0xE0 SHL PUSH1 0x0 MSTORE PUSH1 0x41 PUSH1 0x4 MSTORE PUSH1 0x24 PUSH1 0x0 REVERT INVALID LOG2 PUSH5 0x6970667358 0x22 SLT KECCAK256 0xAA 0xE6 0xCF 0xF8 RETURNDATACOPY SAR 0xD7 0xD8 XOR PUSH7 0xF0D9D9F8689078 0xED CALLCODE CALL SLOAD SWAP15 SHR 0xE3 DUP6 0xED DUP3 0xE 0xAF 0xBA GASLIMIT 0x29 PUSH5 0x736F6C6343 STOP ADDMOD DIV STOP CALLER "
    },
    "gasEstimates": {
      "creation": {
        "codeDepositCost": "302400",
        "executionCost": "343",
        "totalCost": "302743"
      },
      "external": {
        "calculateRootFromPowerOfTwo(bytes32[])": "infinite",
        "getEmptyTreeHashAtIndex(uint256)": "infinite",
        "getHashOfWordAtIndex(bytes,uint256)": "infinite",
        "getMerkleRootFromBytes(bytes,uint256)": "infinite",
        "getRootAfterReplacementInDrive(uint256,uint256,uint256,bytes32,bytes32[])": "infinite"
      }
    },
    "methodIdentifiers": {
      "calculateRootFromPowerOfTwo(bytes32[])": "82b0eab8",
      "getEmptyTreeHashAtIndex(uint256)": "451a1055",
      "getHashOfWordAtIndex(bytes,uint256)": "34bd712d",
      "getMerkleRootFromBytes(bytes,uint256)": "c84583a1",
      "getRootAfterReplacementInDrive(uint256,uint256,uint256,bytes32,bytes32[])": "79de4601"
    }
  },
  "storageLayout": {
    "storage": [],
    "types": null
  },
  "userdoc": {
    "kind": "user",
    "methods": {},
    "version": 1
  }
}