{
  "contractName": "TestBitmask",
  "sourceName": "contracts/test/TestBitmask.sol",
  "abi": [
    {
      "inputs": [
        {
          "internalType": "uint256",
          "name": "_bit",
          "type": "uint256"
        }
      ],
      "name": "getBit",
      "outputs": [
        {
          "internalType": "bool",
          "name": "",
          "type": "bool"
        }
      ],
      "stateMutability": "view",
      "type": "function"
    },
    {
      "inputs": [
        {
          "internalType": "uint256",
          "name": "_bit",
          "type": "uint256"
        }
      ],
      "name": "setBit",
      "outputs": [],
      "stateMutability": "nonpayable",
      "type": "function"
    },
    {
      "inputs": [
        {
          "internalType": "uint256",
          "name": "_bit",
          "type": "uint256"
        }
      ],
      "name": "unsetBit",
      "outputs": [],
      "stateMutability": "nonpayable",
      "type": "function"
    }
  ],
  "bytecode": "0x608060405234801561001057600080fd5b50610258806100206000396000f3fe608060405234801561001057600080fd5b50600436106100415760003560e01c8063428be8071461004657806383363ef61461005b578063d991aeee1461006e575b600080fd5b61005961005436600461020a565b610095565b005b61005961006936600461020a565b61010a565b61008161007c36600461020a565b610150565b604051901515815260200160405180910390f35b6040516306449da160e41b815260006004820181905260248201839052604482015273__$42c89e72d697364e16223415bf9649dea2$__90636449da10906064015b60006040518083038186803b1580156100ef57600080fd5b505af4158015610103573d6000803e3d6000fd5b5050505050565b6040516306449da160e41b815260006004820152602481018290526001604482015273__$42c89e72d697364e16223415bf9649dea2$__90636449da10906064016100d7565b6040516303fbaf7360e01b8152600060048201819052602482018390529073__$42c89e72d697364e16223415bf9649dea2$__906303fbaf739060440160206040518083038186803b1580156101a557600080fd5b505af41580156101b9573d6000803e3d6000fd5b505050506040513d601f19601f820116820180604052508101906101dd91906101e3565b92915050565b6000602082840312156101f4578081fd5b81518015158114610203578182fd5b9392505050565b60006020828403121561021b578081fd5b503591905056fea264697066735822122081c071ad5e7ba8454c3609b99aa0697a8d06cab47dee7f3c00c08c39f0db23e664736f6c63430008040033",
  "linkReferences": {
    "contracts/Bitmask.sol": {
      "Bitmask": [
        {
          "length": 20,
          "start": 217
        },
        {
          "length": 20,
          "start": 334
        },
        {
          "length": 20,
          "start": 400
        }
      ]
    }
  },
  "deployedLinkReferences": {
    "contracts/Bitmask.sol": {
      "Bitmask": [
        {
          "length": 20,
          "start": 185
        },
        {
          "length": 20,
          "start": 302
        },
        {
          "length": 20,
          "start": 368
        }
      ]
    }
  },
  "devdoc": {
    "kind": "dev",
    "methods": {},
    "version": 1
  },
  "evm": {
    "bytecode": {
      "linkReferences": {
        "contracts/Bitmask.sol": {
          "Bitmask": [
            {
              "length": 20,
              "start": 217
            },
            {
              "length": 20,
              "start": 334
            },
            {
              "length": 20,
              "start": 400
            }
          ]
        }
      },
      "opcodes": "PUSH1 0x80 PUSH1 0x40 MSTORE CALLVALUE DUP1 ISZERO PUSH2 0x10 JUMPI PUSH1 0x0 DUP1 REVERT JUMPDEST POP PUSH2 0x258 DUP1 PUSH2 0x20 PUSH1 0x0 CODECOPY PUSH1 0x0 RETURN INVALID PUSH1 0x80 PUSH1 0x40 MSTORE CALLVALUE DUP1 ISZERO PUSH2 0x10 JUMPI PUSH1 0x0 DUP1 REVERT JUMPDEST POP PUSH1 0x4 CALLDATASIZE LT PUSH2 0x41 JUMPI PUSH1 0x0 CALLDATALOAD PUSH1 0xE0 SHR DUP1 PUSH4 0x428BE807 EQ PUSH2 0x46 JUMPI DUP1 PUSH4 0x83363EF6 EQ PUSH2 0x5B JUMPI DUP1 PUSH4 0xD991AEEE EQ PUSH2 0x6E JUMPI JUMPDEST PUSH1 0x0 DUP1 REVERT JUMPDEST PUSH2 0x59 PUSH2 0x54 CALLDATASIZE PUSH1 0x4 PUSH2 0x20A JUMP JUMPDEST PUSH2 0x95 JUMP JUMPDEST STOP JUMPDEST PUSH2 0x59 PUSH2 0x69 CALLDATASIZE PUSH1 0x4 PUSH2 0x20A JUMP JUMPDEST PUSH2 0x10A JUMP JUMPDEST PUSH2 0x81 PUSH2 0x7C CALLDATASIZE PUSH1 0x4 PUSH2 0x20A JUMP JUMPDEST PUSH2 0x150 JUMP JUMPDEST PUSH1 0x40 MLOAD SWAP1 ISZERO ISZERO DUP2 MSTORE PUSH1 0x20 ADD PUSH1 0x40 MLOAD DUP1 SWAP2 SUB SWAP1 RETURN JUMPDEST PUSH1 0x40 MLOAD PUSH4 0x6449DA1 PUSH1 0xE4 SHL DUP2 MSTORE PUSH1 0x0 PUSH1 0x4 DUP3 ADD DUP2 SWAP1 MSTORE PUSH1 0x24 DUP3 ADD DUP4 SWAP1 MSTORE PUSH1 0x44 DUP3 ADD MSTORE PUSH20 0x0 SWAP1 PUSH4 0x6449DA10 SWAP1 PUSH1 0x64 ADD JUMPDEST PUSH1 0x0 PUSH1 0x40 MLOAD DUP1 DUP4 SUB DUP2 DUP7 DUP1 EXTCODESIZE ISZERO DUP1 ISZERO PUSH2 0xEF JUMPI PUSH1 0x0 DUP1 REVERT JUMPDEST POP GAS DELEGATECALL ISZERO DUP1 ISZERO PUSH2 0x103 JUMPI RETURNDATASIZE PUSH1 0x0 DUP1 RETURNDATACOPY RETURNDATASIZE PUSH1 0x0 REVERT JUMPDEST POP POP POP POP POP JUMP JUMPDEST PUSH1 0x40 MLOAD PUSH4 0x6449DA1 PUSH1 0xE4 SHL DUP2 MSTORE PUSH1 0x0 PUSH1 0x4 DUP3 ADD MSTORE PUSH1 0x24 DUP2 ADD DUP3 SWAP1 MSTORE PUSH1 0x1 PUSH1 0x44 DUP3 ADD MSTORE PUSH20 0x0 SWAP1 PUSH4 0x6449DA10 SWAP1 PUSH1 0x64 ADD PUSH2 0xD7 JUMP JUMPDEST PUSH1 0x40 MLOAD PUSH4 0x3FBAF73 PUSH1 0xE0 SHL DUP2 MSTORE PUSH1 0x0 PUSH1 0x4 DUP3 ADD DUP2 SWAP1 MSTORE PUSH1 0x24 DUP3 ADD DUP4 SWAP1 MSTORE SWAP1 PUSH20 0x0 SWAP1 PUSH4 0x3FBAF73 SWAP1 PUSH1 0x44 ADD PUSH1 0x20 PUSH1 0x40 MLOAD DUP1 DUP4 SUB DUP2 DUP7 DUP1 EXTCODESIZE ISZERO DUP1 ISZERO PUSH2 0x1A5 JUMPI PUSH1 0x0 DUP1 REVERT JUMPDEST POP GAS DELEGATECALL ISZERO DUP1 ISZERO PUSH2 0x1B9 JUMPI RETURNDATASIZE PUSH1 0x0 DUP1 RETURNDATACOPY RETURNDATASIZE PUSH1 0x0 REVERT JUMPDEST POP POP POP POP PUSH1 0x40 MLOAD RETURNDATASIZE PUSH1 0x1F NOT PUSH1 0x1F DUP3 ADD AND DUP3 ADD DUP1 PUSH1 0x40 MSTORE POP DUP2 ADD SWAP1 PUSH2 0x1DD SWAP2 SWAP1 PUSH2 0x1E3 JUMP JUMPDEST SWAP3 SWAP2 POP POP JUMP JUMPDEST PUSH1 0x0 PUSH1 0x20 DUP3 DUP5 SUB SLT ISZERO PUSH2 0x1F4 JUMPI DUP1 DUP2 REVERT JUMPDEST DUP2 MLOAD DUP1 ISZERO ISZERO DUP2 EQ PUSH2 0x203 JUMPI DUP2 DUP3 REVERT JUMPDEST SWAP4 SWAP3 POP POP POP JUMP JUMPDEST PUSH1 0x0 PUSH1 0x20 DUP3 DUP5 SUB SLT ISZERO PUSH2 0x21B JUMPI DUP1 DUP2 REVERT JUMPDEST POP CALLDATALOAD SWAP2 SWAP1 POP JUMP INVALID LOG2 PUSH5 0x6970667358 0x22 SLT KECCAK256 DUP2 0xC0 PUSH18 0xAD5E7BA8454C3609B99AA0697A8D06CAB47D 0xEE PUSH32 0x3C00C08C39F0DB23E664736F6C63430008040033000000000000000000000000 "
    },
    "gasEstimates": {
      "creation": {
        "codeDepositCost": "120000",
        "executionCost": "165",
        "totalCost": "120165"
      },
      "external": {
        "getBit(uint256)": "infinite",
        "setBit(uint256)": "infinite",
        "unsetBit(uint256)": "infinite"
      }
    },
    "methodIdentifiers": {
      "getBit(uint256)": "d991aeee",
      "setBit(uint256)": "83363ef6",
      "unsetBit(uint256)": "428be807"
    }
  },
  "storageLayout": {
    "storage": [
      {
        "astId": 115,
        "contract": "contracts/test/TestBitmask.sol:TestBitmask",
        "label": "bitmask",
        "offset": 0,
        "slot": "0",
        "type": "t_mapping(t_uint256,t_uint256)"
      }
    ],
    "types": {
      "t_mapping(t_uint256,t_uint256)": {
        "encoding": "mapping",
        "key": "t_uint256",
        "label": "mapping(uint256 => uint256)",
        "numberOfBytes": "32",
        "value": "t_uint256"
      },
      "t_uint256": {
        "encoding": "inplace",
        "label": "uint256",
        "numberOfBytes": "32"
      }
    }
  },
  "userdoc": {
    "kind": "user",
    "methods": {},
    "version": 1
  }
}