{
  "contractName": "TestCartesiMath",
  "sourceName": "contracts/test/TestCartesiMath.sol",
  "abi": [
    {
      "inputs": [
        {
          "internalType": "uint256",
          "name": "_num",
          "type": "uint256"
        }
      ],
      "name": "clz",
      "outputs": [
        {
          "internalType": "uint256",
          "name": "",
          "type": "uint256"
        }
      ],
      "stateMutability": "pure",
      "type": "function"
    },
    {
      "inputs": [
        {
          "internalType": "uint256",
          "name": "_num",
          "type": "uint256"
        }
      ],
      "name": "ctz",
      "outputs": [
        {
          "internalType": "uint256",
          "name": "",
          "type": "uint256"
        }
      ],
      "stateMutability": "pure",
      "type": "function"
    },
    {
      "inputs": [
        {
          "internalType": "uint256",
          "name": "_num",
          "type": "uint256"
        }
      ],
      "name": "getLog2Floor",
      "outputs": [
        {
          "internalType": "uint256",
          "name": "",
          "type": "uint256"
        }
      ],
      "stateMutability": "pure",
      "type": "function"
    },
    {
      "inputs": [
        {
          "internalType": "uint256",
          "name": "_num",
          "type": "uint256"
        }
      ],
      "name": "getLog2TableTimes1M",
      "outputs": [
        {
          "internalType": "uint256",
          "name": "",
          "type": "uint256"
        }
      ],
      "stateMutability": "pure",
      "type": "function"
    },
    {
      "inputs": [
        {
          "internalType": "uint256",
          "name": "_num",
          "type": "uint256"
        }
      ],
      "name": "isPowerOf2",
      "outputs": [
        {
          "internalType": "bool",
          "name": "",
          "type": "bool"
        }
      ],
      "stateMutability": "pure",
      "type": "function"
    }
  ],
  "bytecode": "0x608060405234801561001057600080fd5b5061039f806100206000396000f3fe608060405234801561001057600080fd5b50600436106100575760003560e01c806306c8e54b1461005c578063296e7af81461008257806330244f7a1461009557806332ef283b146100a8578063d82ae4b1146100bb575b600080fd5b61006f61006a366004610318565b6100de565b6040519081526020015b60405180910390f35b61006f610090366004610318565b61016d565b61006f6100a3366004610318565b6101fa565b61006f6100b6366004610318565b610235565b6100ce6100c9366004610318565b610270565b6040519015158152602001610079565b6040516306c8e54b60e01b81526004810182905260009073__$8b7ebe2a69e01741840a6648963dfd5409$__906306c8e54b9060240160206040518083038186803b15801561012c57600080fd5b505af4158015610140573d6000803e3d6000fd5b505050506040513d601f19601f820116820180604052508101906101649190610348565b60ff1692915050565b60405163052dcf5f60e31b81526004810182905260009073__$8b7ebe2a69e01741840a6648963dfd5409$__9063296e7af8906024015b60206040518083038186803b1580156101bc57600080fd5b505af41580156101d0573d6000803e3d6000fd5b505050506040513d601f19601f820116820180604052508101906101f49190610330565b92915050565b60405163181227bd60e11b81526004810182905260009073__$8b7ebe2a69e01741840a6648963dfd5409$__906330244f7a906024016101a4565b6040516332ef283b60e01b81526004810182905260009073__$8b7ebe2a69e01741840a6648963dfd5409$__906332ef283b906024016101a4565b60405163d82ae4b160e01b81526004810182905260009073__$8b7ebe2a69e01741840a6648963dfd5409$__9063d82ae4b19060240160206040518083038186803b1580156102be57600080fd5b505af41580156102d2573d6000803e3d6000fd5b505050506040513d601f19601f820116820180604052508101906101f49190600060208284031215610302578081fd5b81518015158114610311578182fd5b9392505050565b600060208284031215610329578081fd5b5035919050565b600060208284031215610341578081fd5b5051919050565b600060208284031215610359578081fd5b815160ff81168114610311578182fdfea26469706673582212200226032deae4c8926d92ae0a06b3be19846020a5677a9979d0637be957a2239e64736f6c63430008040033",
  "linkReferences": {
    "contracts/CartesiMath.sol": {
      "CartesiMath": [
        {
          "length": 20,
          "start": 279
        },
        {
          "length": 20,
          "start": 422
        },
        {
          "length": 20,
          "start": 563
        },
        {
          "length": 20,
          "start": 622
        },
        {
          "length": 20,
          "start": 681
        }
      ]
    }
  },
  "deployedLinkReferences": {
    "contracts/CartesiMath.sol": {
      "CartesiMath": [
        {
          "length": 20,
          "start": 247
        },
        {
          "length": 20,
          "start": 390
        },
        {
          "length": 20,
          "start": 531
        },
        {
          "length": 20,
          "start": 590
        },
        {
          "length": 20,
          "start": 649
        }
      ]
    }
  },
  "devdoc": {
    "kind": "dev",
    "methods": {},
    "version": 1
  },
  "evm": {
    "bytecode": {
      "linkReferences": {
        "contracts/CartesiMath.sol": {
          "CartesiMath": [
            {
              "length": 20,
              "start": 279
            },
            {
              "length": 20,
              "start": 422
            },
            {
              "length": 20,
              "start": 563
            },
            {
              "length": 20,
              "start": 622
            },
            {
              "length": 20,
              "start": 681
            }
          ]
        }
      },
      "opcodes": "PUSH1 0x80 PUSH1 0x40 MSTORE CALLVALUE DUP1 ISZERO PUSH2 0x10 JUMPI PUSH1 0x0 DUP1 REVERT JUMPDEST POP PUSH2 0x39F DUP1 PUSH2 0x20 PUSH1 0x0 CODECOPY PUSH1 0x0 RETURN INVALID PUSH1 0x80 PUSH1 0x40 MSTORE CALLVALUE DUP1 ISZERO PUSH2 0x10 JUMPI PUSH1 0x0 DUP1 REVERT JUMPDEST POP PUSH1 0x4 CALLDATASIZE LT PUSH2 0x57 JUMPI PUSH1 0x0 CALLDATALOAD PUSH1 0xE0 SHR DUP1 PUSH4 0x6C8E54B EQ PUSH2 0x5C JUMPI DUP1 PUSH4 0x296E7AF8 EQ PUSH2 0x82 JUMPI DUP1 PUSH4 0x30244F7A EQ PUSH2 0x95 JUMPI DUP1 PUSH4 0x32EF283B EQ PUSH2 0xA8 JUMPI DUP1 PUSH4 0xD82AE4B1 EQ PUSH2 0xBB JUMPI JUMPDEST PUSH1 0x0 DUP1 REVERT JUMPDEST PUSH2 0x6F PUSH2 0x6A CALLDATASIZE PUSH1 0x4 PUSH2 0x318 JUMP JUMPDEST PUSH2 0xDE JUMP JUMPDEST PUSH1 0x40 MLOAD SWAP1 DUP2 MSTORE PUSH1 0x20 ADD JUMPDEST PUSH1 0x40 MLOAD DUP1 SWAP2 SUB SWAP1 RETURN JUMPDEST PUSH2 0x6F PUSH2 0x90 CALLDATASIZE PUSH1 0x4 PUSH2 0x318 JUMP JUMPDEST PUSH2 0x16D JUMP JUMPDEST PUSH2 0x6F PUSH2 0xA3 CALLDATASIZE PUSH1 0x4 PUSH2 0x318 JUMP JUMPDEST PUSH2 0x1FA JUMP JUMPDEST PUSH2 0x6F PUSH2 0xB6 CALLDATASIZE PUSH1 0x4 PUSH2 0x318 JUMP JUMPDEST PUSH2 0x235 JUMP JUMPDEST PUSH2 0xCE PUSH2 0xC9 CALLDATASIZE PUSH1 0x4 PUSH2 0x318 JUMP JUMPDEST PUSH2 0x270 JUMP JUMPDEST PUSH1 0x40 MLOAD SWAP1 ISZERO ISZERO DUP2 MSTORE PUSH1 0x20 ADD PUSH2 0x79 JUMP JUMPDEST PUSH1 0x40 MLOAD PUSH4 0x6C8E54B PUSH1 0xE0 SHL DUP2 MSTORE PUSH1 0x4 DUP2 ADD DUP3 SWAP1 MSTORE PUSH1 0x0 SWAP1 PUSH20 0x0 SWAP1 PUSH4 0x6C8E54B SWAP1 PUSH1 0x24 ADD PUSH1 0x20 PUSH1 0x40 MLOAD DUP1 DUP4 SUB DUP2 DUP7 DUP1 EXTCODESIZE ISZERO DUP1 ISZERO PUSH2 0x12C JUMPI PUSH1 0x0 DUP1 REVERT JUMPDEST POP GAS DELEGATECALL ISZERO DUP1 ISZERO PUSH2 0x140 JUMPI RETURNDATASIZE PUSH1 0x0 DUP1 RETURNDATACOPY RETURNDATASIZE PUSH1 0x0 REVERT JUMPDEST POP POP POP POP PUSH1 0x40 MLOAD RETURNDATASIZE PUSH1 0x1F NOT PUSH1 0x1F DUP3 ADD AND DUP3 ADD DUP1 PUSH1 0x40 MSTORE POP DUP2 ADD SWAP1 PUSH2 0x164 SWAP2 SWAP1 PUSH2 0x348 JUMP JUMPDEST PUSH1 0xFF AND SWAP3 SWAP2 POP POP JUMP JUMPDEST PUSH1 0x40 MLOAD PUSH4 0x52DCF5F PUSH1 0xE3 SHL DUP2 MSTORE PUSH1 0x4 DUP2 ADD DUP3 SWAP1 MSTORE PUSH1 0x0 SWAP1 PUSH20 0x0 SWAP1 PUSH4 0x296E7AF8 SWAP1 PUSH1 0x24 ADD JUMPDEST PUSH1 0x20 PUSH1 0x40 MLOAD DUP1 DUP4 SUB DUP2 DUP7 DUP1 EXTCODESIZE ISZERO DUP1 ISZERO PUSH2 0x1BC JUMPI PUSH1 0x0 DUP1 REVERT JUMPDEST POP GAS DELEGATECALL ISZERO DUP1 ISZERO PUSH2 0x1D0 JUMPI RETURNDATASIZE PUSH1 0x0 DUP1 RETURNDATACOPY RETURNDATASIZE PUSH1 0x0 REVERT JUMPDEST POP POP POP POP PUSH1 0x40 MLOAD RETURNDATASIZE PUSH1 0x1F NOT PUSH1 0x1F DUP3 ADD AND DUP3 ADD DUP1 PUSH1 0x40 MSTORE POP DUP2 ADD SWAP1 PUSH2 0x1F4 SWAP2 SWAP1 PUSH2 0x330 JUMP JUMPDEST SWAP3 SWAP2 POP POP JUMP JUMPDEST PUSH1 0x40 MLOAD PUSH4 0x181227BD PUSH1 0xE1 SHL DUP2 MSTORE PUSH1 0x4 DUP2 ADD DUP3 SWAP1 MSTORE PUSH1 0x0 SWAP1 PUSH20 0x0 SWAP1 PUSH4 0x30244F7A SWAP1 PUSH1 0x24 ADD PUSH2 0x1A4 JUMP JUMPDEST PUSH1 0x40 MLOAD PUSH4 0x32EF283B PUSH1 0xE0 SHL DUP2 MSTORE PUSH1 0x4 DUP2 ADD DUP3 SWAP1 MSTORE PUSH1 0x0 SWAP1 PUSH20 0x0 SWAP1 PUSH4 0x32EF283B SWAP1 PUSH1 0x24 ADD PUSH2 0x1A4 JUMP JUMPDEST PUSH1 0x40 MLOAD PUSH4 0xD82AE4B1 PUSH1 0xE0 SHL DUP2 MSTORE PUSH1 0x4 DUP2 ADD DUP3 SWAP1 MSTORE PUSH1 0x0 SWAP1 PUSH20 0x0 SWAP1 PUSH4 0xD82AE4B1 SWAP1 PUSH1 0x24 ADD PUSH1 0x20 PUSH1 0x40 MLOAD DUP1 DUP4 SUB DUP2 DUP7 DUP1 EXTCODESIZE ISZERO DUP1 ISZERO PUSH2 0x2BE JUMPI PUSH1 0x0 DUP1 REVERT JUMPDEST POP GAS DELEGATECALL ISZERO DUP1 ISZERO PUSH2 0x2D2 JUMPI RETURNDATASIZE PUSH1 0x0 DUP1 RETURNDATACOPY RETURNDATASIZE PUSH1 0x0 REVERT JUMPDEST POP POP POP POP PUSH1 0x40 MLOAD RETURNDATASIZE PUSH1 0x1F NOT PUSH1 0x1F DUP3 ADD AND DUP3 ADD DUP1 PUSH1 0x40 MSTORE POP DUP2 ADD SWAP1 PUSH2 0x1F4 SWAP2 SWAP1 PUSH1 0x0 PUSH1 0x20 DUP3 DUP5 SUB SLT ISZERO PUSH2 0x302 JUMPI DUP1 DUP2 REVERT JUMPDEST DUP2 MLOAD DUP1 ISZERO ISZERO DUP2 EQ PUSH2 0x311 JUMPI DUP2 DUP3 REVERT JUMPDEST SWAP4 SWAP3 POP POP POP JUMP JUMPDEST PUSH1 0x0 PUSH1 0x20 DUP3 DUP5 SUB SLT ISZERO PUSH2 0x329 JUMPI DUP1 DUP2 REVERT JUMPDEST POP CALLDATALOAD SWAP2 SWAP1 POP JUMP JUMPDEST PUSH1 0x0 PUSH1 0x20 DUP3 DUP5 SUB SLT ISZERO PUSH2 0x341 JUMPI DUP1 DUP2 REVERT JUMPDEST POP MLOAD SWAP2 SWAP1 POP JUMP JUMPDEST PUSH1 0x0 PUSH1 0x20 DUP3 DUP5 SUB SLT ISZERO PUSH2 0x359 JUMPI DUP1 DUP2 REVERT JUMPDEST DUP2 MLOAD PUSH1 0xFF DUP2 AND DUP2 EQ PUSH2 0x311 JUMPI DUP2 DUP3 REVERT INVALID LOG2 PUSH5 0x6970667358 0x22 SLT KECCAK256 MUL 0x26 SUB 0x2D 0xEA 0xE4 0xC8 SWAP3 PUSH14 0x92AE0A06B3BE19846020A5677A99 PUSH26 0xD0637BE957A2239E64736F6C6343000804003300000000000000 "
    },
    "gasEstimates": {
      "creation": {
        "codeDepositCost": "185400",
        "executionCost": "226",
        "totalCost": "185626"
      },
      "external": {
        "clz(uint256)": "infinite",
        "ctz(uint256)": "infinite",
        "getLog2Floor(uint256)": "infinite",
        "getLog2TableTimes1M(uint256)": "infinite",
        "isPowerOf2(uint256)": "infinite"
      }
    },
    "methodIdentifiers": {
      "clz(uint256)": "30244f7a",
      "ctz(uint256)": "296e7af8",
      "getLog2Floor(uint256)": "06c8e54b",
      "getLog2TableTimes1M(uint256)": "32ef283b",
      "isPowerOf2(uint256)": "d82ae4b1"
    }
  },
  "storageLayout": {
    "storage": [],
    "types": null
  },
  "userdoc": {
    "kind": "user",
    "methods": {},
    "version": 1
  }
}