{
  "contractName": "TestCartesiMath",
  "sourceName": "contracts/test/TestCartesiMath.sol",
  "abi": [
    {
      "inputs": [
        {
          "internalType": "uint256",
          "name": "_num",
          "type": "uint256"
        }
      ],
      "name": "getLog2TableTimes1M",
      "outputs": [
        {
          "internalType": "uint256",
          "name": "",
          "type": "uint256"
        }
      ],
      "stateMutability": "pure",
      "type": "function"
    }
  ],
  "bytecode": "0x608060405234801561001057600080fd5b5061010f806100206000396000f3fe6080604052348015600f57600080fd5b506004361060285760003560e01c806332ef283b14602d575b600080fd5b604760048036036020811015604157600080fd5b50356059565b60408051918252519081900360200190f35b600073__$8b7ebe2a69e01741840a6648963dfd5409$__6332ef283b836040518263ffffffff1660e01b81526004018082815260200191505060206040518083038186803b15801560a957600080fd5b505af415801560bc573d6000803e3d6000fd5b505050506040513d602081101560d157600080fd5b50519291505056fea26469706673582212208cf6024f01b975b36f830b8d54bf16e5aef7b8a6f7df3086681b84a954fe7e7e64736f6c63430007040033",
  "linkReferences": {
    "contracts/CartesiMath.sol": {
      "CartesiMath": [
        {
          "length": 20,
          "start": 125
        }
      ]
    }
  },
  "deployedLinkReferences": {
    "contracts/CartesiMath.sol": {
      "CartesiMath": [
        {
          "length": 20,
          "start": 93
        }
      ]
    }
  },
  "devdoc": {
    "kind": "dev",
    "methods": {},
    "version": 1
  },
  "evm": {
    "bytecode": {
      "linkReferences": {
        "contracts/CartesiMath.sol": {
          "CartesiMath": [
            {
              "length": 20,
              "start": 125
            }
          ]
        }
      },
      "opcodes": "PUSH1 0x80 PUSH1 0x40 MSTORE CALLVALUE DUP1 ISZERO PUSH2 0x10 JUMPI PUSH1 0x0 DUP1 REVERT JUMPDEST POP PUSH2 0x10F DUP1 PUSH2 0x20 PUSH1 0x0 CODECOPY PUSH1 0x0 RETURN INVALID PUSH1 0x80 PUSH1 0x40 MSTORE CALLVALUE DUP1 ISZERO PUSH1 0xF JUMPI PUSH1 0x0 DUP1 REVERT JUMPDEST POP PUSH1 0x4 CALLDATASIZE LT PUSH1 0x28 JUMPI PUSH1 0x0 CALLDATALOAD PUSH1 0xE0 SHR DUP1 PUSH4 0x32EF283B EQ PUSH1 0x2D JUMPI JUMPDEST PUSH1 0x0 DUP1 REVERT JUMPDEST PUSH1 0x47 PUSH1 0x4 DUP1 CALLDATASIZE SUB PUSH1 0x20 DUP2 LT ISZERO PUSH1 0x41 JUMPI PUSH1 0x0 DUP1 REVERT JUMPDEST POP CALLDATALOAD PUSH1 0x59 JUMP JUMPDEST PUSH1 0x40 DUP1 MLOAD SWAP2 DUP3 MSTORE MLOAD SWAP1 DUP2 SWAP1 SUB PUSH1 0x20 ADD SWAP1 RETURN JUMPDEST PUSH1 0x0 PUSH20 0x0 PUSH4 0x32EF283B DUP4 PUSH1 0x40 MLOAD DUP3 PUSH4 0xFFFFFFFF AND PUSH1 0xE0 SHL DUP2 MSTORE PUSH1 0x4 ADD DUP1 DUP3 DUP2 MSTORE PUSH1 0x20 ADD SWAP2 POP POP PUSH1 0x20 PUSH1 0x40 MLOAD DUP1 DUP4 SUB DUP2 DUP7 DUP1 EXTCODESIZE ISZERO DUP1 ISZERO PUSH1 0xA9 JUMPI PUSH1 0x0 DUP1 REVERT JUMPDEST POP GAS DELEGATECALL ISZERO DUP1 ISZERO PUSH1 0xBC JUMPI RETURNDATASIZE PUSH1 0x0 DUP1 RETURNDATACOPY RETURNDATASIZE PUSH1 0x0 REVERT JUMPDEST POP POP POP POP PUSH1 0x40 MLOAD RETURNDATASIZE PUSH1 0x20 DUP2 LT ISZERO PUSH1 0xD1 JUMPI PUSH1 0x0 DUP1 REVERT JUMPDEST POP MLOAD SWAP3 SWAP2 POP POP JUMP INVALID LOG2 PUSH5 0x6970667358 0x22 SLT KECCAK256 DUP13 0xF6 MUL 0x4F ADD 0xB9 PUSH22 0xB36F830B8D54BF16E5AEF7B8A6F7DF3086681B84A954 INVALID PUSH31 0x7E64736F6C6343000704003300000000000000000000000000000000000000 "
    },
    "gasEstimates": {
      "creation": {
        "codeDepositCost": "54200",
        "executionCost": "105",
        "totalCost": "54305"
      },
      "external": {
        "getLog2TableTimes1M(uint256)": "infinite"
      }
    },
    "methodIdentifiers": {
      "getLog2TableTimes1M(uint256)": "32ef283b"
    }
  },
  "storageLayout": {
    "storage": [],
    "types": null
  },
  "userdoc": {
    "kind": "user",
    "methods": {},
    "version": 1
  }
}