{
  "contractName": "TestMerkle",
  "sourceName": "contracts/test/TestMerkle.sol",
  "abi": [
    {
      "inputs": [
        {
          "internalType": "bytes32[]",
          "name": "hashes",
          "type": "bytes32[]"
        }
      ],
      "name": "calculateRootFromPowerOfTwo",
      "outputs": [
        {
          "internalType": "bytes32",
          "name": "",
          "type": "bytes32"
        }
      ],
      "stateMutability": "pure",
      "type": "function"
    },
    {
      "inputs": [
        {
          "internalType": "uint256",
          "name": "_index",
          "type": "uint256"
        }
      ],
      "name": "getEmptyTreeHashAtIndex",
      "outputs": [
        {
          "internalType": "bytes32",
          "name": "",
          "type": "bytes32"
        }
      ],
      "stateMutability": "pure",
      "type": "function"
    },
    {
      "inputs": [
        {
          "internalType": "bytes",
          "name": "_data",
          "type": "bytes"
        },
        {
          "internalType": "uint256",
          "name": "_wordIndex",
          "type": "uint256"
        }
      ],
      "name": "getHashOfWordAtIndex",
      "outputs": [
        {
          "internalType": "bytes32",
          "name": "",
          "type": "bytes32"
        }
      ],
      "stateMutability": "pure",
      "type": "function"
    },
    {
      "inputs": [
        {
          "internalType": "bytes",
          "name": "_data",
          "type": "bytes"
        },
        {
          "internalType": "uint8",
          "name": "_log2Size",
          "type": "uint8"
        }
      ],
      "name": "getMerkleRootFromBytes",
      "outputs": [
        {
          "internalType": "bytes32",
          "name": "",
          "type": "bytes32"
        }
      ],
      "stateMutability": "pure",
      "type": "function"
    },
    {
      "inputs": [
        {
          "internalType": "uint8",
          "name": "_log2Size",
          "type": "uint8"
        }
      ],
      "name": "getPristineHash",
      "outputs": [
        {
          "internalType": "bytes32",
          "name": "",
          "type": "bytes32"
        }
      ],
      "stateMutability": "pure",
      "type": "function"
    },
    {
      "inputs": [
        {
          "internalType": "uint64",
          "name": "_position",
          "type": "uint64"
        },
        {
          "internalType": "bytes8",
          "name": "_value",
          "type": "bytes8"
        },
        {
          "internalType": "bytes32[]",
          "name": "proof",
          "type": "bytes32[]"
        }
      ],
      "name": "getRoot",
      "outputs": [
        {
          "internalType": "bytes32",
          "name": "",
          "type": "bytes32"
        }
      ],
      "stateMutability": "pure",
      "type": "function"
    },
    {
      "inputs": [
        {
          "internalType": "uint64",
          "name": "_position",
          "type": "uint64"
        },
        {
          "internalType": "uint8",
          "name": "_logOfSize",
          "type": "uint8"
        },
        {
          "internalType": "bytes32",
          "name": "_drive",
          "type": "bytes32"
        },
        {
          "internalType": "bytes32[]",
          "name": "siblings",
          "type": "bytes32[]"
        }
      ],
      "name": "getRootWithDrive",
      "outputs": [
        {
          "internalType": "bytes32",
          "name": "",
          "type": "bytes32"
        }
      ],
      "stateMutability": "pure",
      "type": "function"
    }
  ],
  "bytecode": "0x608060405234801561001057600080fd5b5061084a806100206000396000f3fe608060405234801561001057600080fd5b506004361061007d5760003560e01c806382b0eab81161005b57806382b0eab8146100cd5780638492d93b146100e0578063a7342688146100f3578063d7304dd91461010657600080fd5b806334bd712d14610082578063451a1055146100a757806349fd2697146100ba575b600080fd5b610095610090366004610526565b610119565b60405190815260200160405180910390f35b6100956100b53660046105c2565b6101af565b6100956100c8366004610570565b61023c565b6100956100db3660046104db565b61027a565b6100956100ee3660046105da565b6102b4565b6100956101013660046106aa565b6102f2565b610095610114366004610644565b61032f565b6040516334bd712d60e01b815260009073__$334858ba5cb9c8f4fa57878485f86f96e9$__906334bd712d9061015790879087908790600401610741565b60206040518083038186803b15801561016f57600080fd5b505af4158015610183573d6000803e3d6000fd5b505050506040513d601f19601f820116820180604052508101906101a7919061050e565b949350505050565b60405163451a105560e01b81526004810182905260009073__$334858ba5cb9c8f4fa57878485f86f96e9$__9063451a1055906024015b60206040518083038186803b1580156101fe57600080fd5b505af4158015610212573d6000803e3d6000fd5b505050506040513d601f19601f82011682018060405250810190610236919061050e565b92915050565b6040516349fd269760e01b815260009073__$334858ba5cb9c8f4fa57878485f86f96e9$__906349fd26979061015790879087908790600401610765565b6040516310561d5760e31b815260009073__$334858ba5cb9c8f4fa57878485f86f96e9$__906382b0eab8906101e690859060040161072e565b604051638492d93b60e01b815260009073__$334858ba5cb9c8f4fa57878485f86f96e9$__90638492d93b906101579087908790879060040161078c565b6040516314e684d160e31b815260ff8216600482015260009073__$334858ba5cb9c8f4fa57878485f86f96e9$__9063a7342688906024016101e6565b60405163d7304dd960e01b815260009073__$334858ba5cb9c8f4fa57878485f86f96e9$__9063d7304dd99061036f9088908890889088906004016107c2565b60206040518083038186803b15801561038757600080fd5b505af415801561039b573d6000803e3d6000fd5b505050506040513d601f19601f820116820180604052508101906103bf919061050e565b95945050505050565b600082601f8301126103d8578081fd5b8135602067ffffffffffffffff808311156103f5576103f56107fe565b8260051b604051601f19603f8301168101818110848211171561041a5761041a6107fe565b60405284815283810192508684018288018501891015610438578687fd5b8692505b8583101561045a57803584529284019260019290920191840161043c565b50979650505050505050565b60008083601f840112610477578182fd5b50813567ffffffffffffffff81111561048e578182fd5b6020830191508360208285010111156104a657600080fd5b9250929050565b803567ffffffffffffffff811681146104c557600080fd5b919050565b803560ff811681146104c557600080fd5b6000602082840312156104ec578081fd5b813567ffffffffffffffff811115610502578182fd5b6101a7848285016103c8565b60006020828403121561051f578081fd5b5051919050565b60008060006040848603121561053a578182fd5b833567ffffffffffffffff811115610550578283fd5b61055c86828701610466565b909790965060209590950135949350505050565b600080600060408486031215610584578283fd5b833567ffffffffffffffff81111561059a578384fd5b6105a686828701610466565b90945092506105b99050602085016104ca565b90509250925092565b6000602082840312156105d3578081fd5b5035919050565b6000806000606084860312156105ee578283fd5b6105f7846104ad565b925060208401356001600160c01b031981168114610613578283fd5b9150604084013567ffffffffffffffff81111561062e578182fd5b61063a868287016103c8565b9150509250925092565b60008060008060808587031215610659578081fd5b610662856104ad565b9350610670602086016104ca565b925060408501359150606085013567ffffffffffffffff811115610692578182fd5b61069e878288016103c8565b91505092959194509250565b6000602082840312156106bb578081fd5b6106c4826104ca565b9392505050565b6000815180845260208085019450808401835b838110156106fa578151875295820195908201906001016106de565b509495945050505050565b81835281816020850137506000828201602090810191909152601f909101601f19169091010190565b6020815260006106c460208301846106cb565b604081526000610755604083018587610705565b9050826020830152949350505050565b604081526000610779604083018587610705565b905060ff83166020830152949350505050565b67ffffffffffffffff8416815267ffffffffffffffff60c01b831660208201526060604082015260006103bf60608301846106cb565b67ffffffffffffffff8516815260ff841660208201528260408201526080606082015260006107f460808301846106cb565b9695505050505050565b634e487b7160e01b600052604160045260246000fdfea2646970667358221220be3cde506cd491e687ced3c0d03c78df5d5660657914e3dda53811c5fbee471664736f6c63430008040033",
  "linkReferences": {
    "contracts/Merkle.sol": {
      "Merkle": [
        {
          "length": 20,
          "start": 331
        },
        {
          "length": 20,
          "start": 488
        },
        {
          "length": 20,
          "start": 622
        },
        {
          "length": 20,
          "start": 684
        },
        {
          "length": 20,
          "start": 742
        },
        {
          "length": 20,
          "start": 813
        },
        {
          "length": 20,
          "start": 865
        }
      ]
    }
  },
  "deployedLinkReferences": {
    "contracts/Merkle.sol": {
      "Merkle": [
        {
          "length": 20,
          "start": 299
        },
        {
          "length": 20,
          "start": 456
        },
        {
          "length": 20,
          "start": 590
        },
        {
          "length": 20,
          "start": 652
        },
        {
          "length": 20,
          "start": 710
        },
        {
          "length": 20,
          "start": 781
        },
        {
          "length": 20,
          "start": 833
        }
      ]
    }
  },
  "devdoc": {
    "kind": "dev",
    "methods": {},
    "version": 1
  },
  "evm": {
    "bytecode": {
      "linkReferences": {
        "contracts/Merkle.sol": {
          "Merkle": [
            {
              "length": 20,
              "start": 331
            },
            {
              "length": 20,
              "start": 488
            },
            {
              "length": 20,
              "start": 622
            },
            {
              "length": 20,
              "start": 684
            },
            {
              "length": 20,
              "start": 742
            },
            {
              "length": 20,
              "start": 813
            },
            {
              "length": 20,
              "start": 865
            }
          ]
        }
      },
      "opcodes": "PUSH1 0x80 PUSH1 0x40 MSTORE CALLVALUE DUP1 ISZERO PUSH2 0x10 JUMPI PUSH1 0x0 DUP1 REVERT JUMPDEST POP PUSH2 0x84A DUP1 PUSH2 0x20 PUSH1 0x0 CODECOPY PUSH1 0x0 RETURN INVALID PUSH1 0x80 PUSH1 0x40 MSTORE CALLVALUE DUP1 ISZERO PUSH2 0x10 JUMPI PUSH1 0x0 DUP1 REVERT JUMPDEST POP PUSH1 0x4 CALLDATASIZE LT PUSH2 0x7D JUMPI PUSH1 0x0 CALLDATALOAD PUSH1 0xE0 SHR DUP1 PUSH4 0x82B0EAB8 GT PUSH2 0x5B JUMPI DUP1 PUSH4 0x82B0EAB8 EQ PUSH2 0xCD JUMPI DUP1 PUSH4 0x8492D93B EQ PUSH2 0xE0 JUMPI DUP1 PUSH4 0xA7342688 EQ PUSH2 0xF3 JUMPI DUP1 PUSH4 0xD7304DD9 EQ PUSH2 0x106 JUMPI PUSH1 0x0 DUP1 REVERT JUMPDEST DUP1 PUSH4 0x34BD712D EQ PUSH2 0x82 JUMPI DUP1 PUSH4 0x451A1055 EQ PUSH2 0xA7 JUMPI DUP1 PUSH4 0x49FD2697 EQ PUSH2 0xBA JUMPI JUMPDEST PUSH1 0x0 DUP1 REVERT JUMPDEST PUSH2 0x95 PUSH2 0x90 CALLDATASIZE PUSH1 0x4 PUSH2 0x526 JUMP JUMPDEST PUSH2 0x119 JUMP JUMPDEST PUSH1 0x40 MLOAD SWAP1 DUP2 MSTORE PUSH1 0x20 ADD PUSH1 0x40 MLOAD DUP1 SWAP2 SUB SWAP1 RETURN JUMPDEST PUSH2 0x95 PUSH2 0xB5 CALLDATASIZE PUSH1 0x4 PUSH2 0x5C2 JUMP JUMPDEST PUSH2 0x1AF JUMP JUMPDEST PUSH2 0x95 PUSH2 0xC8 CALLDATASIZE PUSH1 0x4 PUSH2 0x570 JUMP JUMPDEST PUSH2 0x23C JUMP JUMPDEST PUSH2 0x95 PUSH2 0xDB CALLDATASIZE PUSH1 0x4 PUSH2 0x4DB JUMP JUMPDEST PUSH2 0x27A JUMP JUMPDEST PUSH2 0x95 PUSH2 0xEE CALLDATASIZE PUSH1 0x4 PUSH2 0x5DA JUMP JUMPDEST PUSH2 0x2B4 JUMP JUMPDEST PUSH2 0x95 PUSH2 0x101 CALLDATASIZE PUSH1 0x4 PUSH2 0x6AA JUMP JUMPDEST PUSH2 0x2F2 JUMP JUMPDEST PUSH2 0x95 PUSH2 0x114 CALLDATASIZE PUSH1 0x4 PUSH2 0x644 JUMP JUMPDEST PUSH2 0x32F JUMP JUMPDEST PUSH1 0x40 MLOAD PUSH4 0x34BD712D PUSH1 0xE0 SHL DUP2 MSTORE PUSH1 0x0 SWAP1 PUSH20 0x0 SWAP1 PUSH4 0x34BD712D SWAP1 PUSH2 0x157 SWAP1 DUP8 SWAP1 DUP8 SWAP1 DUP8 SWAP1 PUSH1 0x4 ADD PUSH2 0x741 JUMP JUMPDEST PUSH1 0x20 PUSH1 0x40 MLOAD DUP1 DUP4 SUB DUP2 DUP7 DUP1 EXTCODESIZE ISZERO DUP1 ISZERO PUSH2 0x16F JUMPI PUSH1 0x0 DUP1 REVERT JUMPDEST POP GAS DELEGATECALL ISZERO DUP1 ISZERO PUSH2 0x183 JUMPI RETURNDATASIZE PUSH1 0x0 DUP1 RETURNDATACOPY RETURNDATASIZE PUSH1 0x0 REVERT JUMPDEST POP POP POP POP PUSH1 0x40 MLOAD RETURNDATASIZE PUSH1 0x1F NOT PUSH1 0x1F DUP3 ADD AND DUP3 ADD DUP1 PUSH1 0x40 MSTORE POP DUP2 ADD SWAP1 PUSH2 0x1A7 SWAP2 SWAP1 PUSH2 0x50E JUMP JUMPDEST SWAP5 SWAP4 POP POP POP POP JUMP JUMPDEST PUSH1 0x40 MLOAD PUSH4 0x451A1055 PUSH1 0xE0 SHL DUP2 MSTORE PUSH1 0x4 DUP2 ADD DUP3 SWAP1 MSTORE PUSH1 0x0 SWAP1 PUSH20 0x0 SWAP1 PUSH4 0x451A1055 SWAP1 PUSH1 0x24 ADD JUMPDEST PUSH1 0x20 PUSH1 0x40 MLOAD DUP1 DUP4 SUB DUP2 DUP7 DUP1 EXTCODESIZE ISZERO DUP1 ISZERO PUSH2 0x1FE JUMPI PUSH1 0x0 DUP1 REVERT JUMPDEST POP GAS DELEGATECALL ISZERO DUP1 ISZERO PUSH2 0x212 JUMPI RETURNDATASIZE PUSH1 0x0 DUP1 RETURNDATACOPY RETURNDATASIZE PUSH1 0x0 REVERT JUMPDEST POP POP POP POP PUSH1 0x40 MLOAD RETURNDATASIZE PUSH1 0x1F NOT PUSH1 0x1F DUP3 ADD AND DUP3 ADD DUP1 PUSH1 0x40 MSTORE POP DUP2 ADD SWAP1 PUSH2 0x236 SWAP2 SWAP1 PUSH2 0x50E JUMP JUMPDEST SWAP3 SWAP2 POP POP JUMP JUMPDEST PUSH1 0x40 MLOAD PUSH4 0x49FD2697 PUSH1 0xE0 SHL DUP2 MSTORE PUSH1 0x0 SWAP1 PUSH20 0x0 SWAP1 PUSH4 0x49FD2697 SWAP1 PUSH2 0x157 SWAP1 DUP8 SWAP1 DUP8 SWAP1 DUP8 SWAP1 PUSH1 0x4 ADD PUSH2 0x765 JUMP JUMPDEST PUSH1 0x40 MLOAD PUSH4 0x10561D57 PUSH1 0xE3 SHL DUP2 MSTORE PUSH1 0x0 SWAP1 PUSH20 0x0 SWAP1 PUSH4 0x82B0EAB8 SWAP1 PUSH2 0x1E6 SWAP1 DUP6 SWAP1 PUSH1 0x4 ADD PUSH2 0x72E JUMP JUMPDEST PUSH1 0x40 MLOAD PUSH4 0x8492D93B PUSH1 0xE0 SHL DUP2 MSTORE PUSH1 0x0 SWAP1 PUSH20 0x0 SWAP1 PUSH4 0x8492D93B SWAP1 PUSH2 0x157 SWAP1 DUP8 SWAP1 DUP8 SWAP1 DUP8 SWAP1 PUSH1 0x4 ADD PUSH2 0x78C JUMP JUMPDEST PUSH1 0x40 MLOAD PUSH4 0x14E684D1 PUSH1 0xE3 SHL DUP2 MSTORE PUSH1 0xFF DUP3 AND PUSH1 0x4 DUP3 ADD MSTORE PUSH1 0x0 SWAP1 PUSH20 0x0 SWAP1 PUSH4 0xA7342688 SWAP1 PUSH1 0x24 ADD PUSH2 0x1E6 JUMP JUMPDEST PUSH1 0x40 MLOAD PUSH4 0xD7304DD9 PUSH1 0xE0 SHL DUP2 MSTORE PUSH1 0x0 SWAP1 PUSH20 0x0 SWAP1 PUSH4 0xD7304DD9 SWAP1 PUSH2 0x36F SWAP1 DUP9 SWAP1 DUP9 SWAP1 DUP9 SWAP1 DUP9 SWAP1 PUSH1 0x4 ADD PUSH2 0x7C2 JUMP JUMPDEST PUSH1 0x20 PUSH1 0x40 MLOAD DUP1 DUP4 SUB DUP2 DUP7 DUP1 EXTCODESIZE ISZERO DUP1 ISZERO PUSH2 0x387 JUMPI PUSH1 0x0 DUP1 REVERT JUMPDEST POP GAS DELEGATECALL ISZERO DUP1 ISZERO PUSH2 0x39B JUMPI RETURNDATASIZE PUSH1 0x0 DUP1 RETURNDATACOPY RETURNDATASIZE PUSH1 0x0 REVERT JUMPDEST POP POP POP POP PUSH1 0x40 MLOAD RETURNDATASIZE PUSH1 0x1F NOT PUSH1 0x1F DUP3 ADD AND DUP3 ADD DUP1 PUSH1 0x40 MSTORE POP DUP2 ADD SWAP1 PUSH2 0x3BF SWAP2 SWAP1 PUSH2 0x50E JUMP JUMPDEST SWAP6 SWAP5 POP POP POP POP POP JUMP JUMPDEST PUSH1 0x0 DUP3 PUSH1 0x1F DUP4 ADD SLT PUSH2 0x3D8 JUMPI DUP1 DUP2 REVERT JUMPDEST DUP2 CALLDATALOAD PUSH1 0x20 PUSH8 0xFFFFFFFFFFFFFFFF DUP1 DUP4 GT ISZERO PUSH2 0x3F5 JUMPI PUSH2 0x3F5 PUSH2 0x7FE JUMP JUMPDEST DUP3 PUSH1 0x5 SHL PUSH1 0x40 MLOAD PUSH1 0x1F NOT PUSH1 0x3F DUP4 ADD AND DUP2 ADD DUP2 DUP2 LT DUP5 DUP3 GT OR ISZERO PUSH2 0x41A JUMPI PUSH2 0x41A PUSH2 0x7FE JUMP JUMPDEST PUSH1 0x40 MSTORE DUP5 DUP2 MSTORE DUP4 DUP2 ADD SWAP3 POP DUP7 DUP5 ADD DUP3 DUP9 ADD DUP6 ADD DUP10 LT ISZERO PUSH2 0x438 JUMPI DUP7 DUP8 REVERT JUMPDEST DUP7 SWAP3 POP JUMPDEST DUP6 DUP4 LT ISZERO PUSH2 0x45A JUMPI DUP1 CALLDATALOAD DUP5 MSTORE SWAP3 DUP5 ADD SWAP3 PUSH1 0x1 SWAP3 SWAP1 SWAP3 ADD SWAP2 DUP5 ADD PUSH2 0x43C JUMP JUMPDEST POP SWAP8 SWAP7 POP POP POP POP POP POP POP JUMP JUMPDEST PUSH1 0x0 DUP1 DUP4 PUSH1 0x1F DUP5 ADD SLT PUSH2 0x477 JUMPI DUP2 DUP3 REVERT JUMPDEST POP DUP2 CALLDATALOAD PUSH8 0xFFFFFFFFFFFFFFFF DUP2 GT ISZERO PUSH2 0x48E JUMPI DUP2 DUP3 REVERT JUMPDEST PUSH1 0x20 DUP4 ADD SWAP2 POP DUP4 PUSH1 0x20 DUP3 DUP6 ADD ADD GT ISZERO PUSH2 0x4A6 JUMPI PUSH1 0x0 DUP1 REVERT JUMPDEST SWAP3 POP SWAP3 SWAP1 POP JUMP JUMPDEST DUP1 CALLDATALOAD PUSH8 0xFFFFFFFFFFFFFFFF DUP2 AND DUP2 EQ PUSH2 0x4C5 JUMPI PUSH1 0x0 DUP1 REVERT JUMPDEST SWAP2 SWAP1 POP JUMP JUMPDEST DUP1 CALLDATALOAD PUSH1 0xFF DUP2 AND DUP2 EQ PUSH2 0x4C5 JUMPI PUSH1 0x0 DUP1 REVERT JUMPDEST PUSH1 0x0 PUSH1 0x20 DUP3 DUP5 SUB SLT ISZERO PUSH2 0x4EC JUMPI DUP1 DUP2 REVERT JUMPDEST DUP2 CALLDATALOAD PUSH8 0xFFFFFFFFFFFFFFFF DUP2 GT ISZERO PUSH2 0x502 JUMPI DUP2 DUP3 REVERT JUMPDEST PUSH2 0x1A7 DUP5 DUP3 DUP6 ADD PUSH2 0x3C8 JUMP JUMPDEST PUSH1 0x0 PUSH1 0x20 DUP3 DUP5 SUB SLT ISZERO PUSH2 0x51F JUMPI DUP1 DUP2 REVERT JUMPDEST POP MLOAD SWAP2 SWAP1 POP JUMP JUMPDEST PUSH1 0x0 DUP1 PUSH1 0x0 PUSH1 0x40 DUP5 DUP7 SUB SLT ISZERO PUSH2 0x53A JUMPI DUP2 DUP3 REVERT JUMPDEST DUP4 CALLDATALOAD PUSH8 0xFFFFFFFFFFFFFFFF DUP2 GT ISZERO PUSH2 0x550 JUMPI DUP3 DUP4 REVERT JUMPDEST PUSH2 0x55C DUP7 DUP3 DUP8 ADD PUSH2 0x466 JUMP JUMPDEST SWAP1 SWAP8 SWAP1 SWAP7 POP PUSH1 0x20 SWAP6 SWAP1 SWAP6 ADD CALLDATALOAD SWAP5 SWAP4 POP POP POP POP JUMP JUMPDEST PUSH1 0x0 DUP1 PUSH1 0x0 PUSH1 0x40 DUP5 DUP7 SUB SLT ISZERO PUSH2 0x584 JUMPI DUP3 DUP4 REVERT JUMPDEST DUP4 CALLDATALOAD PUSH8 0xFFFFFFFFFFFFFFFF DUP2 GT ISZERO PUSH2 0x59A JUMPI DUP4 DUP5 REVERT JUMPDEST PUSH2 0x5A6 DUP7 DUP3 DUP8 ADD PUSH2 0x466 JUMP JUMPDEST SWAP1 SWAP5 POP SWAP3 POP PUSH2 0x5B9 SWAP1 POP PUSH1 0x20 DUP6 ADD PUSH2 0x4CA JUMP JUMPDEST SWAP1 POP SWAP3 POP SWAP3 POP SWAP3 JUMP JUMPDEST PUSH1 0x0 PUSH1 0x20 DUP3 DUP5 SUB SLT ISZERO PUSH2 0x5D3 JUMPI DUP1 DUP2 REVERT JUMPDEST POP CALLDATALOAD SWAP2 SWAP1 POP JUMP JUMPDEST PUSH1 0x0 DUP1 PUSH1 0x0 PUSH1 0x60 DUP5 DUP7 SUB SLT ISZERO PUSH2 0x5EE JUMPI DUP3 DUP4 REVERT JUMPDEST PUSH2 0x5F7 DUP5 PUSH2 0x4AD JUMP JUMPDEST SWAP3 POP PUSH1 0x20 DUP5 ADD CALLDATALOAD PUSH1 0x1 PUSH1 0x1 PUSH1 0xC0 SHL SUB NOT DUP2 AND DUP2 EQ PUSH2 0x613 JUMPI DUP3 DUP4 REVERT JUMPDEST SWAP2 POP PUSH1 0x40 DUP5 ADD CALLDATALOAD PUSH8 0xFFFFFFFFFFFFFFFF DUP2 GT ISZERO PUSH2 0x62E JUMPI DUP2 DUP3 REVERT JUMPDEST PUSH2 0x63A DUP7 DUP3 DUP8 ADD PUSH2 0x3C8 JUMP JUMPDEST SWAP2 POP POP SWAP3 POP SWAP3 POP SWAP3 JUMP JUMPDEST PUSH1 0x0 DUP1 PUSH1 0x0 DUP1 PUSH1 0x80 DUP6 DUP8 SUB SLT ISZERO PUSH2 0x659 JUMPI DUP1 DUP2 REVERT JUMPDEST PUSH2 0x662 DUP6 PUSH2 0x4AD JUMP JUMPDEST SWAP4 POP PUSH2 0x670 PUSH1 0x20 DUP7 ADD PUSH2 0x4CA JUMP JUMPDEST SWAP3 POP PUSH1 0x40 DUP6 ADD CALLDATALOAD SWAP2 POP PUSH1 0x60 DUP6 ADD CALLDATALOAD PUSH8 0xFFFFFFFFFFFFFFFF DUP2 GT ISZERO PUSH2 0x692 JUMPI DUP2 DUP3 REVERT JUMPDEST PUSH2 0x69E DUP8 DUP3 DUP9 ADD PUSH2 0x3C8 JUMP JUMPDEST SWAP2 POP POP SWAP3 SWAP6 SWAP2 SWAP5 POP SWAP3 POP JUMP JUMPDEST PUSH1 0x0 PUSH1 0x20 DUP3 DUP5 SUB SLT ISZERO PUSH2 0x6BB JUMPI DUP1 DUP2 REVERT JUMPDEST PUSH2 0x6C4 DUP3 PUSH2 0x4CA JUMP JUMPDEST SWAP4 SWAP3 POP POP POP JUMP JUMPDEST PUSH1 0x0 DUP2 MLOAD DUP1 DUP5 MSTORE PUSH1 0x20 DUP1 DUP6 ADD SWAP5 POP DUP1 DUP5 ADD DUP4 JUMPDEST DUP4 DUP2 LT ISZERO PUSH2 0x6FA JUMPI DUP2 MLOAD DUP8 MSTORE SWAP6 DUP3 ADD SWAP6 SWAP1 DUP3 ADD SWAP1 PUSH1 0x1 ADD PUSH2 0x6DE JUMP JUMPDEST POP SWAP5 SWAP6 SWAP5 POP POP POP POP POP JUMP JUMPDEST DUP2 DUP4 MSTORE DUP2 DUP2 PUSH1 0x20 DUP6 ADD CALLDATACOPY POP PUSH1 0x0 DUP3 DUP3 ADD PUSH1 0x20 SWAP1 DUP2 ADD SWAP2 SWAP1 SWAP2 MSTORE PUSH1 0x1F SWAP1 SWAP2 ADD PUSH1 0x1F NOT AND SWAP1 SWAP2 ADD ADD SWAP1 JUMP JUMPDEST PUSH1 0x20 DUP2 MSTORE PUSH1 0x0 PUSH2 0x6C4 PUSH1 0x20 DUP4 ADD DUP5 PUSH2 0x6CB JUMP JUMPDEST PUSH1 0x40 DUP2 MSTORE PUSH1 0x0 PUSH2 0x755 PUSH1 0x40 DUP4 ADD DUP6 DUP8 PUSH2 0x705 JUMP JUMPDEST SWAP1 POP DUP3 PUSH1 0x20 DUP4 ADD MSTORE SWAP5 SWAP4 POP POP POP POP JUMP JUMPDEST PUSH1 0x40 DUP2 MSTORE PUSH1 0x0 PUSH2 0x779 PUSH1 0x40 DUP4 ADD DUP6 DUP8 PUSH2 0x705 JUMP JUMPDEST SWAP1 POP PUSH1 0xFF DUP4 AND PUSH1 0x20 DUP4 ADD MSTORE SWAP5 SWAP4 POP POP POP POP JUMP JUMPDEST PUSH8 0xFFFFFFFFFFFFFFFF DUP5 AND DUP2 MSTORE PUSH8 0xFFFFFFFFFFFFFFFF PUSH1 0xC0 SHL DUP4 AND PUSH1 0x20 DUP3 ADD MSTORE PUSH1 0x60 PUSH1 0x40 DUP3 ADD MSTORE PUSH1 0x0 PUSH2 0x3BF PUSH1 0x60 DUP4 ADD DUP5 PUSH2 0x6CB JUMP JUMPDEST PUSH8 0xFFFFFFFFFFFFFFFF DUP6 AND DUP2 MSTORE PUSH1 0xFF DUP5 AND PUSH1 0x20 DUP3 ADD MSTORE DUP3 PUSH1 0x40 DUP3 ADD MSTORE PUSH1 0x80 PUSH1 0x60 DUP3 ADD MSTORE PUSH1 0x0 PUSH2 0x7F4 PUSH1 0x80 DUP4 ADD DUP5 PUSH2 0x6CB JUMP JUMPDEST SWAP7 SWAP6 POP POP POP POP POP POP JUMP JUMPDEST PUSH4 0x4E487B71 PUSH1 0xE0 SHL PUSH1 0x0 MSTORE PUSH1 0x41 PUSH1 0x4 MSTORE PUSH1 0x24 PUSH1 0x0 REVERT INVALID LOG2 PUSH5 0x6970667358 0x22 SLT KECCAK256 0xBE EXTCODECOPY 0xDE POP PUSH13 0xD491E687CED3C0D03C78DF5D56 PUSH1 0x65 PUSH26 0x14E3DDA53811C5FBEE471664736F6C6343000804003300000000 "
    },
    "gasEstimates": {
      "creation": {
        "codeDepositCost": "424400",
        "executionCost": "461",
        "totalCost": "424861"
      },
      "external": {
        "calculateRootFromPowerOfTwo(bytes32[])": "infinite",
        "getEmptyTreeHashAtIndex(uint256)": "infinite",
        "getHashOfWordAtIndex(bytes,uint256)": "infinite",
        "getMerkleRootFromBytes(bytes,uint8)": "infinite",
        "getPristineHash(uint8)": "infinite",
        "getRoot(uint64,bytes8,bytes32[])": "infinite",
        "getRootWithDrive(uint64,uint8,bytes32,bytes32[])": "infinite"
      }
    },
    "methodIdentifiers": {
      "calculateRootFromPowerOfTwo(bytes32[])": "82b0eab8",
      "getEmptyTreeHashAtIndex(uint256)": "451a1055",
      "getHashOfWordAtIndex(bytes,uint256)": "34bd712d",
      "getMerkleRootFromBytes(bytes,uint8)": "49fd2697",
      "getPristineHash(uint8)": "a7342688",
      "getRoot(uint64,bytes8,bytes32[])": "8492d93b",
      "getRootWithDrive(uint64,uint8,bytes32,bytes32[])": "d7304dd9"
    }
  },
  "storageLayout": {
    "storage": [],
    "types": null
  },
  "userdoc": {
    "kind": "user",
    "methods": {},
    "version": 1
  }
}