{
  "contractName": "UnrolledCordic",
  "sourceName": "contracts/UnrolledCordic.sol",
  "abi": [
    {
      "inputs": [
        {
          "internalType": "uint256",
          "name": "val",
          "type": "uint256"
        }
      ],
      "name": "log2Times1e18",
      "outputs": [
        {
          "internalType": "uint256",
          "name": "",
          "type": "uint256"
        }
      ],
      "stateMutability": "pure",
      "type": "function"
    }
  ],
  "bytecode": "0x61061061003a600b82828239805160001a60731461002d57634e487b7160e01b600052600060045260246000fd5b30600052607381538281f3fe73000000000000000000000000000000000000000030146080604052600436106100355760003560e01c8063c370ed091461003a575b600080fd5b61004d6100483660046105c2565b61005f565b60405190815260200160405180910390f35b60008061006b836100ca565b9050600060ff826001011361009b5761008c8260010160ff0385901b610131565b6001830160401b0390506100b6565b6100ab60fd19830185901c610131565b6001830160401b0390505b670de0b6b3a76400000260401c9392505050565b600080821161011f5760405162461bcd60e51b815260206004820152601960248201527f6d7573742062652067726561746572207468616e207a65726f00000000000000604482015260640160405180910390fd5b610128826104f9565b60ff0392915050565b600080600183901c8301600160ff1b8110156101585792506704ae00d1cfdeb43d60c41b01825b50600283901c8301600160ff1b81101561017d579250672934f0979a3715fd60c01b01825b50600383901c8301600160ff1b8110156101a157925066ae00d1cfdeb43d60c51b01825b50600483901c8301600160ff1b8110156101c6579250670598fdbeb244c59f60c11b01825b50600583901c8301600160ff1b8110156101eb57925067016bad3758efd87360c21b01825b50600683901c8301600160ff1b8110156102105792506702dcf2d0b85a453160c01b01825b50600783901c8301600160ff1b811015610234579250662dfca16dde10a360c31b01825b50600883901c8301600160ff1b811015610258579250665c2711b5eab1dd60c11b01825b50600983901c8301600160ff1b81101561027c579250665c3e0ffc29d59360c01b01825b50600a83901c8301600160ff1b8110156102a05792506605c4994dd0fd1560c31b01825b50600b83901c8301600160ff1b8110156102c4579250661713d62f7957c360c01b01825b50600c83901c8301600160ff1b8110156102e85792506602e291d85437f960c21b01825b50600d83901c8301600160ff1b81101561030c5792506605c53ac47e94d960c01b01825b50600e83901c8301600160ff1b81101561032f57925065b8a8c9d8be9b60c21b01825b50600f83901c8301600160ff1b8110156103535792506601715305002e4b60c01b01825b50601083901c8301600160ff1b81101561037657925065b8a9ded47c1160c01b01825b50601183901c8301600160ff1b811015610399579250655c55067f6e5960c01b01825b50601283901c8301600160ff1b8110156103bc579250652e2a8905062360c01b01825b50601383901c8301600160ff1b8110156103df57925065171545f3d72b60c01b01825b50601483901c8301600160ff1b811015610402579250650171546ac81560c31b01825b50601583901c8301600160ff1b8110156104255792506502e2a8e11acd60c11b01825b50601683901c8301600160ff1b8110156104485792506502e2a8e6e01f60c01b01825b50601783901c8301600160ff1b81101561046a579250645c551d385960c21b01825b50601883901c8301600160ff1b81101561048c57925064b8aa3acd0760c01b01825b600084600160ff1b03905060016104e87fb8aa3b295c17f0bbbe87fed0691d3e88eb577aa8dd695a588b25166cd1a1324860016104da85600187901c600160ff1b01608090811c91901c0290565b901b608090811c91901c0290565b901b9290920160bf1c949350505050565b6000816105095750610100919050565b60006fffffffffffffffffffffffffffffffff19831661052b57608092831b92015b6001600160c01b0319831661054257604092831b92015b6001600160e01b0319831661055957602092831b92015b6001600160f01b0319831661057057601092831b92015b6001600160f81b0319831661058757600892831b92015b600f60fc1b831661059a57600492831b92015b600360fe1b83166105ad57600292831b92015b600160ff1b83166105bc576001015b92915050565b6000602082840312156105d3578081fd5b503591905056fea264697066735822122032b922c2e6d15e5e910d17dc2b559b12b52d8f78af83f88571d60f2ef692526864736f6c63430008040033",
  "linkReferences": {},
  "deployedLinkReferences": {},
  "devdoc": {
    "kind": "dev",
    "methods": {},
    "version": 1
  },
  "evm": {
    "bytecode": {
      "linkReferences": {},
      "opcodes": "PUSH2 0x610 PUSH2 0x3A PUSH1 0xB DUP3 DUP3 DUP3 CODECOPY DUP1 MLOAD PUSH1 0x0 BYTE PUSH1 0x73 EQ PUSH2 0x2D JUMPI PUSH4 0x4E487B71 PUSH1 0xE0 SHL PUSH1 0x0 MSTORE PUSH1 0x0 PUSH1 0x4 MSTORE PUSH1 0x24 PUSH1 0x0 REVERT JUMPDEST ADDRESS PUSH1 0x0 MSTORE PUSH1 0x73 DUP2 MSTORE8 DUP3 DUP2 RETURN INVALID PUSH20 0x0 ADDRESS EQ PUSH1 0x80 PUSH1 0x40 MSTORE PUSH1 0x4 CALLDATASIZE LT PUSH2 0x35 JUMPI PUSH1 0x0 CALLDATALOAD PUSH1 0xE0 SHR DUP1 PUSH4 0xC370ED09 EQ PUSH2 0x3A JUMPI JUMPDEST PUSH1 0x0 DUP1 REVERT JUMPDEST PUSH2 0x4D PUSH2 0x48 CALLDATASIZE PUSH1 0x4 PUSH2 0x5C2 JUMP JUMPDEST PUSH2 0x5F JUMP JUMPDEST PUSH1 0x40 MLOAD SWAP1 DUP2 MSTORE PUSH1 0x20 ADD PUSH1 0x40 MLOAD DUP1 SWAP2 SUB SWAP1 RETURN JUMPDEST PUSH1 0x0 DUP1 PUSH2 0x6B DUP4 PUSH2 0xCA JUMP JUMPDEST SWAP1 POP PUSH1 0x0 PUSH1 0xFF DUP3 PUSH1 0x1 ADD SGT PUSH2 0x9B JUMPI PUSH2 0x8C DUP3 PUSH1 0x1 ADD PUSH1 0xFF SUB DUP6 SWAP1 SHL PUSH2 0x131 JUMP JUMPDEST PUSH1 0x1 DUP4 ADD PUSH1 0x40 SHL SUB SWAP1 POP PUSH2 0xB6 JUMP JUMPDEST PUSH2 0xAB PUSH1 0xFD NOT DUP4 ADD DUP6 SWAP1 SHR PUSH2 0x131 JUMP JUMPDEST PUSH1 0x1 DUP4 ADD PUSH1 0x40 SHL SUB SWAP1 POP JUMPDEST PUSH8 0xDE0B6B3A7640000 MUL PUSH1 0x40 SHR SWAP4 SWAP3 POP POP POP JUMP JUMPDEST PUSH1 0x0 DUP1 DUP3 GT PUSH2 0x11F JUMPI PUSH1 0x40 MLOAD PUSH3 0x461BCD PUSH1 0xE5 SHL DUP2 MSTORE PUSH1 0x20 PUSH1 0x4 DUP3 ADD MSTORE PUSH1 0x19 PUSH1 0x24 DUP3 ADD MSTORE PUSH32 0x6D7573742062652067726561746572207468616E207A65726F00000000000000 PUSH1 0x44 DUP3 ADD MSTORE PUSH1 0x64 ADD PUSH1 0x40 MLOAD DUP1 SWAP2 SUB SWAP1 REVERT JUMPDEST PUSH2 0x128 DUP3 PUSH2 0x4F9 JUMP JUMPDEST PUSH1 0xFF SUB SWAP3 SWAP2 POP POP JUMP JUMPDEST PUSH1 0x0 DUP1 PUSH1 0x1 DUP4 SWAP1 SHR DUP4 ADD PUSH1 0x1 PUSH1 0xFF SHL DUP2 LT ISZERO PUSH2 0x158 JUMPI SWAP3 POP PUSH8 0x4AE00D1CFDEB43D PUSH1 0xC4 SHL ADD DUP3 JUMPDEST POP PUSH1 0x2 DUP4 SWAP1 SHR DUP4 ADD PUSH1 0x1 PUSH1 0xFF SHL DUP2 LT ISZERO PUSH2 0x17D JUMPI SWAP3 POP PUSH8 0x2934F0979A3715FD PUSH1 0xC0 SHL ADD DUP3 JUMPDEST POP PUSH1 0x3 DUP4 SWAP1 SHR DUP4 ADD PUSH1 0x1 PUSH1 0xFF SHL DUP2 LT ISZERO PUSH2 0x1A1 JUMPI SWAP3 POP PUSH7 0xAE00D1CFDEB43D PUSH1 0xC5 SHL ADD DUP3 JUMPDEST POP PUSH1 0x4 DUP4 SWAP1 SHR DUP4 ADD PUSH1 0x1 PUSH1 0xFF SHL DUP2 LT ISZERO PUSH2 0x1C6 JUMPI SWAP3 POP PUSH8 0x598FDBEB244C59F PUSH1 0xC1 SHL ADD DUP3 JUMPDEST POP PUSH1 0x5 DUP4 SWAP1 SHR DUP4 ADD PUSH1 0x1 PUSH1 0xFF SHL DUP2 LT ISZERO PUSH2 0x1EB JUMPI SWAP3 POP PUSH8 0x16BAD3758EFD873 PUSH1 0xC2 SHL ADD DUP3 JUMPDEST POP PUSH1 0x6 DUP4 SWAP1 SHR DUP4 ADD PUSH1 0x1 PUSH1 0xFF SHL DUP2 LT ISZERO PUSH2 0x210 JUMPI SWAP3 POP PUSH8 0x2DCF2D0B85A4531 PUSH1 0xC0 SHL ADD DUP3 JUMPDEST POP PUSH1 0x7 DUP4 SWAP1 SHR DUP4 ADD PUSH1 0x1 PUSH1 0xFF SHL DUP2 LT ISZERO PUSH2 0x234 JUMPI SWAP3 POP PUSH7 0x2DFCA16DDE10A3 PUSH1 0xC3 SHL ADD DUP3 JUMPDEST POP PUSH1 0x8 DUP4 SWAP1 SHR DUP4 ADD PUSH1 0x1 PUSH1 0xFF SHL DUP2 LT ISZERO PUSH2 0x258 JUMPI SWAP3 POP PUSH7 0x5C2711B5EAB1DD PUSH1 0xC1 SHL ADD DUP3 JUMPDEST POP PUSH1 0x9 DUP4 SWAP1 SHR DUP4 ADD PUSH1 0x1 PUSH1 0xFF SHL DUP2 LT ISZERO PUSH2 0x27C JUMPI SWAP3 POP PUSH7 0x5C3E0FFC29D593 PUSH1 0xC0 SHL ADD DUP3 JUMPDEST POP PUSH1 0xA DUP4 SWAP1 SHR DUP4 ADD PUSH1 0x1 PUSH1 0xFF SHL DUP2 LT ISZERO PUSH2 0x2A0 JUMPI SWAP3 POP PUSH7 0x5C4994DD0FD15 PUSH1 0xC3 SHL ADD DUP3 JUMPDEST POP PUSH1 0xB DUP4 SWAP1 SHR DUP4 ADD PUSH1 0x1 PUSH1 0xFF SHL DUP2 LT ISZERO PUSH2 0x2C4 JUMPI SWAP3 POP PUSH7 0x1713D62F7957C3 PUSH1 0xC0 SHL ADD DUP3 JUMPDEST POP PUSH1 0xC DUP4 SWAP1 SHR DUP4 ADD PUSH1 0x1 PUSH1 0xFF SHL DUP2 LT ISZERO PUSH2 0x2E8 JUMPI SWAP3 POP PUSH7 0x2E291D85437F9 PUSH1 0xC2 SHL ADD DUP3 JUMPDEST POP PUSH1 0xD DUP4 SWAP1 SHR DUP4 ADD PUSH1 0x1 PUSH1 0xFF SHL DUP2 LT ISZERO PUSH2 0x30C JUMPI SWAP3 POP PUSH7 0x5C53AC47E94D9 PUSH1 0xC0 SHL ADD DUP3 JUMPDEST POP PUSH1 0xE DUP4 SWAP1 SHR DUP4 ADD PUSH1 0x1 PUSH1 0xFF SHL DUP2 LT ISZERO PUSH2 0x32F JUMPI SWAP3 POP PUSH6 0xB8A8C9D8BE9B PUSH1 0xC2 SHL ADD DUP3 JUMPDEST POP PUSH1 0xF DUP4 SWAP1 SHR DUP4 ADD PUSH1 0x1 PUSH1 0xFF SHL DUP2 LT ISZERO PUSH2 0x353 JUMPI SWAP3 POP PUSH7 0x1715305002E4B PUSH1 0xC0 SHL ADD DUP3 JUMPDEST POP PUSH1 0x10 DUP4 SWAP1 SHR DUP4 ADD PUSH1 0x1 PUSH1 0xFF SHL DUP2 LT ISZERO PUSH2 0x376 JUMPI SWAP3 POP PUSH6 0xB8A9DED47C11 PUSH1 0xC0 SHL ADD DUP3 JUMPDEST POP PUSH1 0x11 DUP4 SWAP1 SHR DUP4 ADD PUSH1 0x1 PUSH1 0xFF SHL DUP2 LT ISZERO PUSH2 0x399 JUMPI SWAP3 POP PUSH6 0x5C55067F6E59 PUSH1 0xC0 SHL ADD DUP3 JUMPDEST POP PUSH1 0x12 DUP4 SWAP1 SHR DUP4 ADD PUSH1 0x1 PUSH1 0xFF SHL DUP2 LT ISZERO PUSH2 0x3BC JUMPI SWAP3 POP PUSH6 0x2E2A89050623 PUSH1 0xC0 SHL ADD DUP3 JUMPDEST POP PUSH1 0x13 DUP4 SWAP1 SHR DUP4 ADD PUSH1 0x1 PUSH1 0xFF SHL DUP2 LT ISZERO PUSH2 0x3DF JUMPI SWAP3 POP PUSH6 0x171545F3D72B PUSH1 0xC0 SHL ADD DUP3 JUMPDEST POP PUSH1 0x14 DUP4 SWAP1 SHR DUP4 ADD PUSH1 0x1 PUSH1 0xFF SHL DUP2 LT ISZERO PUSH2 0x402 JUMPI SWAP3 POP PUSH6 0x171546AC815 PUSH1 0xC3 SHL ADD DUP3 JUMPDEST POP PUSH1 0x15 DUP4 SWAP1 SHR DUP4 ADD PUSH1 0x1 PUSH1 0xFF SHL DUP2 LT ISZERO PUSH2 0x425 JUMPI SWAP3 POP PUSH6 0x2E2A8E11ACD PUSH1 0xC1 SHL ADD DUP3 JUMPDEST POP PUSH1 0x16 DUP4 SWAP1 SHR DUP4 ADD PUSH1 0x1 PUSH1 0xFF SHL DUP2 LT ISZERO PUSH2 0x448 JUMPI SWAP3 POP PUSH6 0x2E2A8E6E01F PUSH1 0xC0 SHL ADD DUP3 JUMPDEST POP PUSH1 0x17 DUP4 SWAP1 SHR DUP4 ADD PUSH1 0x1 PUSH1 0xFF SHL DUP2 LT ISZERO PUSH2 0x46A JUMPI SWAP3 POP PUSH5 0x5C551D3859 PUSH1 0xC2 SHL ADD DUP3 JUMPDEST POP PUSH1 0x18 DUP4 SWAP1 SHR DUP4 ADD PUSH1 0x1 PUSH1 0xFF SHL DUP2 LT ISZERO PUSH2 0x48C JUMPI SWAP3 POP PUSH5 0xB8AA3ACD07 PUSH1 0xC0 SHL ADD DUP3 JUMPDEST PUSH1 0x0 DUP5 PUSH1 0x1 PUSH1 0xFF SHL SUB SWAP1 POP PUSH1 0x1 PUSH2 0x4E8 PUSH32 0xB8AA3B295C17F0BBBE87FED0691D3E88EB577AA8DD695A588B25166CD1A13248 PUSH1 0x1 PUSH2 0x4DA DUP6 PUSH1 0x1 DUP8 SWAP1 SHR PUSH1 0x1 PUSH1 0xFF SHL ADD PUSH1 0x80 SWAP1 DUP2 SHR SWAP2 SWAP1 SHR MUL SWAP1 JUMP JUMPDEST SWAP1 SHL PUSH1 0x80 SWAP1 DUP2 SHR SWAP2 SWAP1 SHR MUL SWAP1 JUMP JUMPDEST SWAP1 SHL SWAP3 SWAP1 SWAP3 ADD PUSH1 0xBF SHR SWAP5 SWAP4 POP POP POP POP JUMP JUMPDEST PUSH1 0x0 DUP2 PUSH2 0x509 JUMPI POP PUSH2 0x100 SWAP2 SWAP1 POP JUMP JUMPDEST PUSH1 0x0 PUSH16 0xFFFFFFFFFFFFFFFFFFFFFFFFFFFFFFFF NOT DUP4 AND PUSH2 0x52B JUMPI PUSH1 0x80 SWAP3 DUP4 SHL SWAP3 ADD JUMPDEST PUSH1 0x1 PUSH1 0x1 PUSH1 0xC0 SHL SUB NOT DUP4 AND PUSH2 0x542 JUMPI PUSH1 0x40 SWAP3 DUP4 SHL SWAP3 ADD JUMPDEST PUSH1 0x1 PUSH1 0x1 PUSH1 0xE0 SHL SUB NOT DUP4 AND PUSH2 0x559 JUMPI PUSH1 0x20 SWAP3 DUP4 SHL SWAP3 ADD JUMPDEST PUSH1 0x1 PUSH1 0x1 PUSH1 0xF0 SHL SUB NOT DUP4 AND PUSH2 0x570 JUMPI PUSH1 0x10 SWAP3 DUP4 SHL SWAP3 ADD JUMPDEST PUSH1 0x1 PUSH1 0x1 PUSH1 0xF8 SHL SUB NOT DUP4 AND PUSH2 0x587 JUMPI PUSH1 0x8 SWAP3 DUP4 SHL SWAP3 ADD JUMPDEST PUSH1 0xF PUSH1 0xFC SHL DUP4 AND PUSH2 0x59A JUMPI PUSH1 0x4 SWAP3 DUP4 SHL SWAP3 ADD JUMPDEST PUSH1 0x3 PUSH1 0xFE SHL DUP4 AND PUSH2 0x5AD JUMPI PUSH1 0x2 SWAP3 DUP4 SHL SWAP3 ADD JUMPDEST PUSH1 0x1 PUSH1 0xFF SHL DUP4 AND PUSH2 0x5BC JUMPI PUSH1 0x1 ADD JUMPDEST SWAP3 SWAP2 POP POP JUMP JUMPDEST PUSH1 0x0 PUSH1 0x20 DUP3 DUP5 SUB SLT ISZERO PUSH2 0x5D3 JUMPI DUP1 DUP2 REVERT JUMPDEST POP CALLDATALOAD SWAP2 SWAP1 POP JUMP INVALID LOG2 PUSH5 0x6970667358 0x22 SLT KECCAK256 ORIGIN 0xB9 0x22 0xC2 0xE6 0xD1 0x5E 0x5E SWAP2 0xD OR 0xDC 0x2B SSTORE SWAP12 SLT 0xB5 0x2D DUP16 PUSH25 0xAF83F88571D60F2EF692526864736F6C634300080400330000 "
    },
    "gasEstimates": {
      "creation": {
        "codeDepositCost": "310400",
        "executionCost": "380",
        "totalCost": "310780"
      },
      "external": {
        "log2Times1e18(uint256)": "2822"
      },
      "internal": {
        "clz(uint256)": "439",
        "ilog2(uint256)": "infinite",
        "log2m64(uint256)": "1926",
        "mulhi128(uint256,uint256)": "infinite"
      }
    },
    "methodIdentifiers": {
      "log2Times1e18(uint256)": "c370ed09"
    }
  },
  "storageLayout": {
    "storage": [],
    "types": null
  },
  "userdoc": {
    "kind": "user",
    "methods": {},
    "version": 1
  }
}