{
  "contractName": "WorkerManagerAuthManagerImpl",
  "sourceName": "contracts/WorkerManagerAuthManagerImpl.sol",
  "abi": [
    {
      "anonymous": false,
      "inputs": [
        {
          "indexed": true,
          "internalType": "address",
          "name": "user",
          "type": "address"
        },
        {
          "indexed": true,
          "internalType": "address",
          "name": "worker",
          "type": "address"
        },
        {
          "indexed": true,
          "internalType": "address",
          "name": "dapp",
          "type": "address"
        }
      ],
      "name": "Authorization",
      "type": "event"
    },
    {
      "anonymous": false,
      "inputs": [
        {
          "indexed": true,
          "internalType": "address",
          "name": "user",
          "type": "address"
        },
        {
          "indexed": true,
          "internalType": "address",
          "name": "worker",
          "type": "address"
        },
        {
          "indexed": true,
          "internalType": "address",
          "name": "dapp",
          "type": "address"
        }
      ],
      "name": "Deauthorization",
      "type": "event"
    },
    {
      "anonymous": false,
      "inputs": [
        {
          "indexed": true,
          "internalType": "address",
          "name": "worker",
          "type": "address"
        },
        {
          "indexed": true,
          "internalType": "address",
          "name": "user",
          "type": "address"
        }
      ],
      "name": "JobAccepted",
      "type": "event"
    },
    {
      "anonymous": false,
      "inputs": [
        {
          "indexed": true,
          "internalType": "address",
          "name": "worker",
          "type": "address"
        },
        {
          "indexed": true,
          "internalType": "address",
          "name": "user",
          "type": "address"
        }
      ],
      "name": "JobOffer",
      "type": "event"
    },
    {
      "anonymous": false,
      "inputs": [
        {
          "indexed": true,
          "internalType": "address",
          "name": "worker",
          "type": "address"
        },
        {
          "indexed": true,
          "internalType": "address",
          "name": "user",
          "type": "address"
        }
      ],
      "name": "JobRejected",
      "type": "event"
    },
    {
      "anonymous": false,
      "inputs": [
        {
          "indexed": true,
          "internalType": "address",
          "name": "worker",
          "type": "address"
        },
        {
          "indexed": true,
          "internalType": "address",
          "name": "user",
          "type": "address"
        }
      ],
      "name": "Retired",
      "type": "event"
    },
    {
      "inputs": [],
      "name": "acceptJob",
      "outputs": [],
      "stateMutability": "nonpayable",
      "type": "function"
    },
    {
      "inputs": [
        {
          "internalType": "address",
          "name": "_workerAddress",
          "type": "address"
        },
        {
          "internalType": "address",
          "name": "_dappAddress",
          "type": "address"
        }
      ],
      "name": "authorize",
      "outputs": [],
      "stateMutability": "nonpayable",
      "type": "function"
    },
    {
      "inputs": [
        {
          "internalType": "address",
          "name": "_workerAddress",
          "type": "address"
        }
      ],
      "name": "cancelHire",
      "outputs": [],
      "stateMutability": "nonpayable",
      "type": "function"
    },
    {
      "inputs": [
        {
          "internalType": "address",
          "name": "_workerAddress",
          "type": "address"
        },
        {
          "internalType": "address",
          "name": "_dappAddress",
          "type": "address"
        }
      ],
      "name": "deauthorize",
      "outputs": [],
      "stateMutability": "nonpayable",
      "type": "function"
    },
    {
      "inputs": [
        {
          "internalType": "address",
          "name": "_workerAddress",
          "type": "address"
        }
      ],
      "name": "getOwner",
      "outputs": [
        {
          "internalType": "address",
          "name": "",
          "type": "address"
        }
      ],
      "stateMutability": "view",
      "type": "function"
    },
    {
      "inputs": [
        {
          "internalType": "address",
          "name": "_workerAddress",
          "type": "address"
        }
      ],
      "name": "getUser",
      "outputs": [
        {
          "internalType": "address",
          "name": "",
          "type": "address"
        }
      ],
      "stateMutability": "view",
      "type": "function"
    },
    {
      "inputs": [
        {
          "internalType": "address payable",
          "name": "_workerAddress",
          "type": "address"
        }
      ],
      "name": "hire",
      "outputs": [],
      "stateMutability": "payable",
      "type": "function"
    },
    {
      "inputs": [
        {
          "internalType": "address payable",
          "name": "_workerAddress",
          "type": "address"
        },
        {
          "internalType": "address",
          "name": "_dappAddress",
          "type": "address"
        }
      ],
      "name": "hireAndAuthorize",
      "outputs": [],
      "stateMutability": "payable",
      "type": "function"
    },
    {
      "inputs": [
        {
          "internalType": "address",
          "name": "_workerAddress",
          "type": "address"
        },
        {
          "internalType": "address",
          "name": "_dappAddress",
          "type": "address"
        }
      ],
      "name": "isAuthorized",
      "outputs": [
        {
          "internalType": "bool",
          "name": "",
          "type": "bool"
        }
      ],
      "stateMutability": "view",
      "type": "function"
    },
    {
      "inputs": [
        {
          "internalType": "address",
          "name": "workerAddress",
          "type": "address"
        }
      ],
      "name": "isAvailable",
      "outputs": [
        {
          "internalType": "bool",
          "name": "",
          "type": "bool"
        }
      ],
      "stateMutability": "view",
      "type": "function"
    },
    {
      "inputs": [
        {
          "internalType": "address",
          "name": "_workerAddress",
          "type": "address"
        }
      ],
      "name": "isOwned",
      "outputs": [
        {
          "internalType": "bool",
          "name": "",
          "type": "bool"
        }
      ],
      "stateMutability": "view",
      "type": "function"
    },
    {
      "inputs": [
        {
          "internalType": "address",
          "name": "workerAddress",
          "type": "address"
        }
      ],
      "name": "isPending",
      "outputs": [
        {
          "internalType": "bool",
          "name": "",
          "type": "bool"
        }
      ],
      "stateMutability": "view",
      "type": "function"
    },
    {
      "inputs": [
        {
          "internalType": "address",
          "name": "_workerAddress",
          "type": "address"
        }
      ],
      "name": "isRetired",
      "outputs": [
        {
          "internalType": "bool",
          "name": "",
          "type": "bool"
        }
      ],
      "stateMutability": "view",
      "type": "function"
    },
    {
      "inputs": [],
      "name": "rejectJob",
      "outputs": [],
      "stateMutability": "payable",
      "type": "function"
    },
    {
      "inputs": [
        {
          "internalType": "address payable",
          "name": "_workerAddress",
          "type": "address"
        }
      ],
      "name": "retire",
      "outputs": [],
      "stateMutability": "nonpayable",
      "type": "function"
    }
  ],
  "bytecode": "0x608060405234801561001057600080fd5b50610da7806100206000396000f3fe6080604052600436106100e85760003560e01c80639b789b7e1161008a578063d9d6bd8611610059578063d9d6bd861461031f578063dbd9655414610345578063f4dc754b14610373578063fa544161146103a6576100e8565b80639b789b7e146102715780639e6371ba14610286578063a00745b6146102b9578063b64b3bed146102ec576100e8565b806365e4ad9e116100c657806365e4ad9e146101795780636d3c6275146101b45780636d892f7e146101e75780636f77926b14610222576100e8565b806303d6e81e146100ed5780632896f60b146100f75780632bef45951461013e575b600080fd5b6100f56103d9565b005b34801561010357600080fd5b5061012a6004803603602081101561011a57600080fd5b50356001600160a01b03166104f1565b604080519115158252519081900360200190f35b34801561014a57600080fd5b506100f56004803603604081101561016157600080fd5b506001600160a01b0381358116916020013516610523565b34801561018557600080fd5b5061012a6004803603604081101561019c57600080fd5b506001600160a01b0381358116916020013516610653565b3480156101c057600080fd5b5061012a600480360360208110156101d757600080fd5b50356001600160a01b0316610687565b3480156101f357600080fd5b506100f56004803603604081101561020a57600080fd5b506001600160a01b0381358116916020013516610690565b34801561022e57600080fd5b506102556004803603602081101561024557600080fd5b50356001600160a01b03166107b7565b604080516001600160a01b039092168252519081900360200190f35b34801561027d57600080fd5b506100f56107d5565b34801561029257600080fd5b506100f5600480360360208110156102a957600080fd5b50356001600160a01b031661088a565b3480156102c557600080fd5b5061012a600480360360208110156102dc57600080fd5b50356001600160a01b03166109b4565b3480156102f857600080fd5b506100f56004803603602081101561030f57600080fd5b50356001600160a01b03166109bd565b6100f56004803603602081101561033557600080fd5b50356001600160a01b0316610a79565b6100f56004803603604081101561035b57600080fd5b506001600160a01b0381358116916020013516610c85565b34801561037f57600080fd5b5061012a6004803603602081101561039657600080fd5b50356001600160a01b0316610c9c565b3480156103b257600080fd5b50610255600480360360208110156103c957600080fd5b50356001600160a01b0316610ca5565b336000908152602081905260409020546001600160a01b0316610443576040805162461bcd60e51b815260206004820181905260248201527f776f726b657220646f6573206e6f7420686176652061206a6f62206f66666572604482015290519081900360640190fd5b3360009081526020818152604080832080546001600160a01b031981169091556001909252808320805460ff19169055516001600160a01b039091169182913480156108fc0292909190818181858888f193505050501580156104aa573d6000803e3d6000fd5b50336000818152602081905260408082205490516001600160a01b0390911692917fac8bfc64efe7b663f325ca81c7468a291a868aacc74c8f91cdc5c8141c15e38a91a350565b6000805b6001600160a01b03831660009081526001602052604090205460ff16600381111561051c57fe5b1492915050565b813361052e826107b7565b6001600160a01b031614610589576040805162461bcd60e51b815260206004820152601a60248201527f776f726b6572206e6f742068697265642062792073656e646572000000000000604482015290519081900360640190fd5b6000610596338585610cfe565b60008181526002602052604090205490915060ff16156105fd576040805162461bcd60e51b815260206004820152601760248201527f6461707020616c726561647920617574686f72697a6564000000000000000000604482015290519081900360640190fd5b600081815260026020526040808220805460ff19166001179055516001600160a01b03808616929087169133917fde756a416a233cdb16c23a1fa5dcb3113164968df8607e0a4eeca25974b96e0391a450505050565b60006002600061066c61066586610ca5565b8686610cfe565b815260208101919091526040016000205460ff169392505050565b600060036104f5565b813361069b826107b7565b6001600160a01b0316146106f6576040805162461bcd60e51b815260206004820152601a60248201527f776f726b6572206e6f742068697265642062792073656e646572000000000000604482015290519081900360640190fd5b6000610703338585610cfe565b60008181526002602052604090205490915060ff161515600114610764576040805162461bcd60e51b815260206004820152601360248201527219185c1c081b9bdd08185d5d1a1bdc9a5e9959606a1b604482015290519081900360640190fd5b600081815260026020526040808220805460ff19169055516001600160a01b03808616929087169133917f4d2275ddb8a6d9c36c95476c2eaf9746c1785b4ab76a99719fd647b36da46cee91a450505050565b6001600160a01b039081166000908152602081905260409020541690565b60013360009081526001602052604090205460ff1660038111156107f557fe5b146108315760405162461bcd60e51b8152600401808060200182810382526022815260200180610d506022913960400191505060405180910390fd5b336000818152600160209081526040808320805460ff19166002179055908290528082205490516001600160a01b0390911692917f0cfa12ab8ee8dc6f9b68938d5e764dafed737d43dc5ec8443abf81e645276eb691a3565b60026001600160a01b03821660009081526001602052604090205460ff1660038111156108b357fe5b146108f8576040805162461bcd60e51b815260206004820152601060248201526f1ddbdc9ad95c881b9bdd081bdddb995960821b604482015290519081900360640190fd5b6001600160a01b03818116600090815260208190526040902054163314610966576040805162461bcd60e51b815260206004820152601c60248201527f6f6e6c79206f776e65722063616e2072657469726520776f726b657200000000604482015290519081900360640190fd5b6001600160a01b038116600081815260016020526040808220805460ff19166003179055513392917f657b373e1262c26d1f1a83e8949f0af9067fe48026b308e47eec5ef6b40ff25d91a350565b600060016104f5565b6001600160a01b03818116600090815260208190526040902054163314610a2b576040805162461bcd60e51b815260206004820152601f60248201527f6f6e6c792068697265722063616e2063616e63656c20746865206f6666657200604482015290519081900360640190fd5b6001600160a01b038116600081815260016020526040808220805460ff19166003179055513392917fac8bfc64efe7b663f325ca81c7468a291a868aacc74c8f91cdc5c8141c15e38a91a350565b610a82816104f1565b610ad3576040805162461bcd60e51b815260206004820152601760248201527f776f726b6572206973206e6f7420617661696c61626c65000000000000000000604482015290519081900360640190fd5b6001600160a01b038116610b2e576040805162461bcd60e51b815260206004820152601d60248201527f776f726b657220616464726573732063616e206e6f7420626520307830000000604482015290519081900360640190fd5b66038d7ea4c68000341015610b82576040805162461bcd60e51b815260206004820152601560248201527466756e64696e672062656c6f77206d696e696d756d60581b604482015290519081900360640190fd5b6729a2241af62c0000341115610bd7576040805162461bcd60e51b815260206004820152601560248201527466756e64696e672061626f7665206d6178696d756d60581b604482015290519081900360640190fd5b6001600160a01b03811660009081526020818152604080832080546001600160a01b03191633179055600191829052909120805460ff1916828002179055506040516001600160a01b038216903480156108fc02916000818181858888f19350505050158015610c4b573d6000803e3d6000fd5b5060405133906001600160a01b038316907f2e0aa97ef0e6f4f76319861c90e91beec7a7a44a698cab856dfc1985a0c588f090600090a350565b610c8e82610a79565b610c988282610523565b5050565b600060026104f5565b600060026001600160a01b03831660009081526001602052604090205460ff166003811115610cd057fe5b14610cdc576000610cf8565b6001600160a01b03808316600090815260208190526040902054165b92915050565b604080516bffffffffffffffffffffffff19606095861b811660208084019190915294861b811660348301529290941b90911660488401528051603c818503018152605c909301905281519101209056fe776f726b6572206e6f74206973206e6f7420696e2070656e64696e67207374617465a26469706673582212208c53bf1eedc7351032f43e555009382924e5be081917cbd30b4284e0f572d9bc64736f6c63430007040033",
  "linkReferences": {},
  "deployedLinkReferences": {},
  "devdoc": {
    "kind": "dev",
    "methods": {
      "authorize(address,address)": {
        "params": {
          "_dappAddress": "address of the dapp that permission will be given to",
          "_workerAddress": "address of the worker node to given permission"
        }
      },
      "isAuthorized(address,address)": {
        "params": {
          "_dappAddress": "address of the DApp",
          "_workerAddress": "address of the worker"
        }
      },
      "isAvailable(address)": {
        "params": {
          "workerAddress": "address of the worker node"
        }
      },
      "isPending(address)": {
        "params": {
          "workerAddress": "address of the worker node"
        }
      }
    },
    "stateVariables": {
      "MAXIMUM_FUNDING": {
        "details": "transfers bigger than maximum value should be done directly"
      },
      "MINIMUM_FUNDING": {
        "details": "user can only hire a worker if he sends more than minimum value"
      },
      "permissions": {
        "details": "permissions keyed by hash(user, worker, dapp)"
      },
      "stateOf": {
        "details": "mapping from worker to its internal state"
      },
      "userOf": {
        "details": "mapping from worker to its user"
      }
    },
    "version": 1
  },
  "evm": {
    "bytecode": {
      "linkReferences": {},
      "opcodes": "PUSH1 0x80 PUSH1 0x40 MSTORE CALLVALUE DUP1 ISZERO PUSH2 0x10 JUMPI PUSH1 0x0 DUP1 REVERT JUMPDEST POP PUSH2 0xDA7 DUP1 PUSH2 0x20 PUSH1 0x0 CODECOPY PUSH1 0x0 RETURN INVALID PUSH1 0x80 PUSH1 0x40 MSTORE PUSH1 0x4 CALLDATASIZE LT PUSH2 0xE8 JUMPI PUSH1 0x0 CALLDATALOAD PUSH1 0xE0 SHR DUP1 PUSH4 0x9B789B7E GT PUSH2 0x8A JUMPI DUP1 PUSH4 0xD9D6BD86 GT PUSH2 0x59 JUMPI DUP1 PUSH4 0xD9D6BD86 EQ PUSH2 0x31F JUMPI DUP1 PUSH4 0xDBD96554 EQ PUSH2 0x345 JUMPI DUP1 PUSH4 0xF4DC754B EQ PUSH2 0x373 JUMPI DUP1 PUSH4 0xFA544161 EQ PUSH2 0x3A6 JUMPI PUSH2 0xE8 JUMP JUMPDEST DUP1 PUSH4 0x9B789B7E EQ PUSH2 0x271 JUMPI DUP1 PUSH4 0x9E6371BA EQ PUSH2 0x286 JUMPI DUP1 PUSH4 0xA00745B6 EQ PUSH2 0x2B9 JUMPI DUP1 PUSH4 0xB64B3BED EQ PUSH2 0x2EC JUMPI PUSH2 0xE8 JUMP JUMPDEST DUP1 PUSH4 0x65E4AD9E GT PUSH2 0xC6 JUMPI DUP1 PUSH4 0x65E4AD9E EQ PUSH2 0x179 JUMPI DUP1 PUSH4 0x6D3C6275 EQ PUSH2 0x1B4 JUMPI DUP1 PUSH4 0x6D892F7E EQ PUSH2 0x1E7 JUMPI DUP1 PUSH4 0x6F77926B EQ PUSH2 0x222 JUMPI PUSH2 0xE8 JUMP JUMPDEST DUP1 PUSH4 0x3D6E81E EQ PUSH2 0xED JUMPI DUP1 PUSH4 0x2896F60B EQ PUSH2 0xF7 JUMPI DUP1 PUSH4 0x2BEF4595 EQ PUSH2 0x13E JUMPI JUMPDEST PUSH1 0x0 DUP1 REVERT JUMPDEST PUSH2 0xF5 PUSH2 0x3D9 JUMP JUMPDEST STOP JUMPDEST CALLVALUE DUP1 ISZERO PUSH2 0x103 JUMPI PUSH1 0x0 DUP1 REVERT JUMPDEST POP PUSH2 0x12A PUSH1 0x4 DUP1 CALLDATASIZE SUB PUSH1 0x20 DUP2 LT ISZERO PUSH2 0x11A JUMPI PUSH1 0x0 DUP1 REVERT JUMPDEST POP CALLDATALOAD PUSH1 0x1 PUSH1 0x1 PUSH1 0xA0 SHL SUB AND PUSH2 0x4F1 JUMP JUMPDEST PUSH1 0x40 DUP1 MLOAD SWAP2 ISZERO ISZERO DUP3 MSTORE MLOAD SWAP1 DUP2 SWAP1 SUB PUSH1 0x20 ADD SWAP1 RETURN JUMPDEST CALLVALUE DUP1 ISZERO PUSH2 0x14A JUMPI PUSH1 0x0 DUP1 REVERT JUMPDEST POP PUSH2 0xF5 PUSH1 0x4 DUP1 CALLDATASIZE SUB PUSH1 0x40 DUP2 LT ISZERO PUSH2 0x161 JUMPI PUSH1 0x0 DUP1 REVERT JUMPDEST POP PUSH1 0x1 PUSH1 0x1 PUSH1 0xA0 SHL SUB DUP2 CALLDATALOAD DUP2 AND SWAP2 PUSH1 0x20 ADD CALLDATALOAD AND PUSH2 0x523 JUMP JUMPDEST CALLVALUE DUP1 ISZERO PUSH2 0x185 JUMPI PUSH1 0x0 DUP1 REVERT JUMPDEST POP PUSH2 0x12A PUSH1 0x4 DUP1 CALLDATASIZE SUB PUSH1 0x40 DUP2 LT ISZERO PUSH2 0x19C JUMPI PUSH1 0x0 DUP1 REVERT JUMPDEST POP PUSH1 0x1 PUSH1 0x1 PUSH1 0xA0 SHL SUB DUP2 CALLDATALOAD DUP2 AND SWAP2 PUSH1 0x20 ADD CALLDATALOAD AND PUSH2 0x653 JUMP JUMPDEST CALLVALUE DUP1 ISZERO PUSH2 0x1C0 JUMPI PUSH1 0x0 DUP1 REVERT JUMPDEST POP PUSH2 0x12A PUSH1 0x4 DUP1 CALLDATASIZE SUB PUSH1 0x20 DUP2 LT ISZERO PUSH2 0x1D7 JUMPI PUSH1 0x0 DUP1 REVERT JUMPDEST POP CALLDATALOAD PUSH1 0x1 PUSH1 0x1 PUSH1 0xA0 SHL SUB AND PUSH2 0x687 JUMP JUMPDEST CALLVALUE DUP1 ISZERO PUSH2 0x1F3 JUMPI PUSH1 0x0 DUP1 REVERT JUMPDEST POP PUSH2 0xF5 PUSH1 0x4 DUP1 CALLDATASIZE SUB PUSH1 0x40 DUP2 LT ISZERO PUSH2 0x20A JUMPI PUSH1 0x0 DUP1 REVERT JUMPDEST POP PUSH1 0x1 PUSH1 0x1 PUSH1 0xA0 SHL SUB DUP2 CALLDATALOAD DUP2 AND SWAP2 PUSH1 0x20 ADD CALLDATALOAD AND PUSH2 0x690 JUMP JUMPDEST CALLVALUE DUP1 ISZERO PUSH2 0x22E JUMPI PUSH1 0x0 DUP1 REVERT JUMPDEST POP PUSH2 0x255 PUSH1 0x4 DUP1 CALLDATASIZE SUB PUSH1 0x20 DUP2 LT ISZERO PUSH2 0x245 JUMPI PUSH1 0x0 DUP1 REVERT JUMPDEST POP CALLDATALOAD PUSH1 0x1 PUSH1 0x1 PUSH1 0xA0 SHL SUB AND PUSH2 0x7B7 JUMP JUMPDEST PUSH1 0x40 DUP1 MLOAD PUSH1 0x1 PUSH1 0x1 PUSH1 0xA0 SHL SUB SWAP1 SWAP3 AND DUP3 MSTORE MLOAD SWAP1 DUP2 SWAP1 SUB PUSH1 0x20 ADD SWAP1 RETURN JUMPDEST CALLVALUE DUP1 ISZERO PUSH2 0x27D JUMPI PUSH1 0x0 DUP1 REVERT JUMPDEST POP PUSH2 0xF5 PUSH2 0x7D5 JUMP JUMPDEST CALLVALUE DUP1 ISZERO PUSH2 0x292 JUMPI PUSH1 0x0 DUP1 REVERT JUMPDEST POP PUSH2 0xF5 PUSH1 0x4 DUP1 CALLDATASIZE SUB PUSH1 0x20 DUP2 LT ISZERO PUSH2 0x2A9 JUMPI PUSH1 0x0 DUP1 REVERT JUMPDEST POP CALLDATALOAD PUSH1 0x1 PUSH1 0x1 PUSH1 0xA0 SHL SUB AND PUSH2 0x88A JUMP JUMPDEST CALLVALUE DUP1 ISZERO PUSH2 0x2C5 JUMPI PUSH1 0x0 DUP1 REVERT JUMPDEST POP PUSH2 0x12A PUSH1 0x4 DUP1 CALLDATASIZE SUB PUSH1 0x20 DUP2 LT ISZERO PUSH2 0x2DC JUMPI PUSH1 0x0 DUP1 REVERT JUMPDEST POP CALLDATALOAD PUSH1 0x1 PUSH1 0x1 PUSH1 0xA0 SHL SUB AND PUSH2 0x9B4 JUMP JUMPDEST CALLVALUE DUP1 ISZERO PUSH2 0x2F8 JUMPI PUSH1 0x0 DUP1 REVERT JUMPDEST POP PUSH2 0xF5 PUSH1 0x4 DUP1 CALLDATASIZE SUB PUSH1 0x20 DUP2 LT ISZERO PUSH2 0x30F JUMPI PUSH1 0x0 DUP1 REVERT JUMPDEST POP CALLDATALOAD PUSH1 0x1 PUSH1 0x1 PUSH1 0xA0 SHL SUB AND PUSH2 0x9BD JUMP JUMPDEST PUSH2 0xF5 PUSH1 0x4 DUP1 CALLDATASIZE SUB PUSH1 0x20 DUP2 LT ISZERO PUSH2 0x335 JUMPI PUSH1 0x0 DUP1 REVERT JUMPDEST POP CALLDATALOAD PUSH1 0x1 PUSH1 0x1 PUSH1 0xA0 SHL SUB AND PUSH2 0xA79 JUMP JUMPDEST PUSH2 0xF5 PUSH1 0x4 DUP1 CALLDATASIZE SUB PUSH1 0x40 DUP2 LT ISZERO PUSH2 0x35B JUMPI PUSH1 0x0 DUP1 REVERT JUMPDEST POP PUSH1 0x1 PUSH1 0x1 PUSH1 0xA0 SHL SUB DUP2 CALLDATALOAD DUP2 AND SWAP2 PUSH1 0x20 ADD CALLDATALOAD AND PUSH2 0xC85 JUMP JUMPDEST CALLVALUE DUP1 ISZERO PUSH2 0x37F JUMPI PUSH1 0x0 DUP1 REVERT JUMPDEST POP PUSH2 0x12A PUSH1 0x4 DUP1 CALLDATASIZE SUB PUSH1 0x20 DUP2 LT ISZERO PUSH2 0x396 JUMPI PUSH1 0x0 DUP1 REVERT JUMPDEST POP CALLDATALOAD PUSH1 0x1 PUSH1 0x1 PUSH1 0xA0 SHL SUB AND PUSH2 0xC9C JUMP JUMPDEST CALLVALUE DUP1 ISZERO PUSH2 0x3B2 JUMPI PUSH1 0x0 DUP1 REVERT JUMPDEST POP PUSH2 0x255 PUSH1 0x4 DUP1 CALLDATASIZE SUB PUSH1 0x20 DUP2 LT ISZERO PUSH2 0x3C9 JUMPI PUSH1 0x0 DUP1 REVERT JUMPDEST POP CALLDATALOAD PUSH1 0x1 PUSH1 0x1 PUSH1 0xA0 SHL SUB AND PUSH2 0xCA5 JUMP JUMPDEST CALLER PUSH1 0x0 SWAP1 DUP2 MSTORE PUSH1 0x20 DUP2 SWAP1 MSTORE PUSH1 0x40 SWAP1 KECCAK256 SLOAD PUSH1 0x1 PUSH1 0x1 PUSH1 0xA0 SHL SUB AND PUSH2 0x443 JUMPI PUSH1 0x40 DUP1 MLOAD PUSH3 0x461BCD PUSH1 0xE5 SHL DUP2 MSTORE PUSH1 0x20 PUSH1 0x4 DUP3 ADD DUP2 SWAP1 MSTORE PUSH1 0x24 DUP3 ADD MSTORE PUSH32 0x776F726B657220646F6573206E6F7420686176652061206A6F62206F66666572 PUSH1 0x44 DUP3 ADD MSTORE SWAP1 MLOAD SWAP1 DUP2 SWAP1 SUB PUSH1 0x64 ADD SWAP1 REVERT JUMPDEST CALLER PUSH1 0x0 SWAP1 DUP2 MSTORE PUSH1 0x20 DUP2 DUP2 MSTORE PUSH1 0x40 DUP1 DUP4 KECCAK256 DUP1 SLOAD PUSH1 0x1 PUSH1 0x1 PUSH1 0xA0 SHL SUB NOT DUP2 AND SWAP1 SWAP2 SSTORE PUSH1 0x1 SWAP1 SWAP3 MSTORE DUP1 DUP4 KECCAK256 DUP1 SLOAD PUSH1 0xFF NOT AND SWAP1 SSTORE MLOAD PUSH1 0x1 PUSH1 0x1 PUSH1 0xA0 SHL SUB SWAP1 SWAP2 AND SWAP2 DUP3 SWAP2 CALLVALUE DUP1 ISZERO PUSH2 0x8FC MUL SWAP3 SWAP1 SWAP2 SWAP1 DUP2 DUP2 DUP2 DUP6 DUP9 DUP9 CALL SWAP4 POP POP POP POP ISZERO DUP1 ISZERO PUSH2 0x4AA JUMPI RETURNDATASIZE PUSH1 0x0 DUP1 RETURNDATACOPY RETURNDATASIZE PUSH1 0x0 REVERT JUMPDEST POP CALLER PUSH1 0x0 DUP2 DUP2 MSTORE PUSH1 0x20 DUP2 SWAP1 MSTORE PUSH1 0x40 DUP1 DUP3 KECCAK256 SLOAD SWAP1 MLOAD PUSH1 0x1 PUSH1 0x1 PUSH1 0xA0 SHL SUB SWAP1 SWAP2 AND SWAP3 SWAP2 PUSH32 0xAC8BFC64EFE7B663F325CA81C7468A291A868AACC74C8F91CDC5C8141C15E38A SWAP2 LOG3 POP JUMP JUMPDEST PUSH1 0x0 DUP1 JUMPDEST PUSH1 0x1 PUSH1 0x1 PUSH1 0xA0 SHL SUB DUP4 AND PUSH1 0x0 SWAP1 DUP2 MSTORE PUSH1 0x1 PUSH1 0x20 MSTORE PUSH1 0x40 SWAP1 KECCAK256 SLOAD PUSH1 0xFF AND PUSH1 0x3 DUP2 GT ISZERO PUSH2 0x51C JUMPI INVALID JUMPDEST EQ SWAP3 SWAP2 POP POP JUMP JUMPDEST DUP2 CALLER PUSH2 0x52E DUP3 PUSH2 0x7B7 JUMP JUMPDEST PUSH1 0x1 PUSH1 0x1 PUSH1 0xA0 SHL SUB AND EQ PUSH2 0x589 JUMPI PUSH1 0x40 DUP1 MLOAD PUSH3 0x461BCD PUSH1 0xE5 SHL DUP2 MSTORE PUSH1 0x20 PUSH1 0x4 DUP3 ADD MSTORE PUSH1 0x1A PUSH1 0x24 DUP3 ADD MSTORE PUSH32 0x776F726B6572206E6F742068697265642062792073656E646572000000000000 PUSH1 0x44 DUP3 ADD MSTORE SWAP1 MLOAD SWAP1 DUP2 SWAP1 SUB PUSH1 0x64 ADD SWAP1 REVERT JUMPDEST PUSH1 0x0 PUSH2 0x596 CALLER DUP6 DUP6 PUSH2 0xCFE JUMP JUMPDEST PUSH1 0x0 DUP2 DUP2 MSTORE PUSH1 0x2 PUSH1 0x20 MSTORE PUSH1 0x40 SWAP1 KECCAK256 SLOAD SWAP1 SWAP2 POP PUSH1 0xFF AND ISZERO PUSH2 0x5FD JUMPI PUSH1 0x40 DUP1 MLOAD PUSH3 0x461BCD PUSH1 0xE5 SHL DUP2 MSTORE PUSH1 0x20 PUSH1 0x4 DUP3 ADD MSTORE PUSH1 0x17 PUSH1 0x24 DUP3 ADD MSTORE PUSH32 0x6461707020616C726561647920617574686F72697A6564000000000000000000 PUSH1 0x44 DUP3 ADD MSTORE SWAP1 MLOAD SWAP1 DUP2 SWAP1 SUB PUSH1 0x64 ADD SWAP1 REVERT JUMPDEST PUSH1 0x0 DUP2 DUP2 MSTORE PUSH1 0x2 PUSH1 0x20 MSTORE PUSH1 0x40 DUP1 DUP3 KECCAK256 DUP1 SLOAD PUSH1 0xFF NOT AND PUSH1 0x1 OR SWAP1 SSTORE MLOAD PUSH1 0x1 PUSH1 0x1 PUSH1 0xA0 SHL SUB DUP1 DUP7 AND SWAP3 SWAP1 DUP8 AND SWAP2 CALLER SWAP2 PUSH32 0xDE756A416A233CDB16C23A1FA5DCB3113164968DF8607E0A4EECA25974B96E03 SWAP2 LOG4 POP POP POP POP JUMP JUMPDEST PUSH1 0x0 PUSH1 0x2 PUSH1 0x0 PUSH2 0x66C PUSH2 0x665 DUP7 PUSH2 0xCA5 JUMP JUMPDEST DUP7 DUP7 PUSH2 0xCFE JUMP JUMPDEST DUP2 MSTORE PUSH1 0x20 DUP2 ADD SWAP2 SWAP1 SWAP2 MSTORE PUSH1 0x40 ADD PUSH1 0x0 KECCAK256 SLOAD PUSH1 0xFF AND SWAP4 SWAP3 POP POP POP JUMP JUMPDEST PUSH1 0x0 PUSH1 0x3 PUSH2 0x4F5 JUMP JUMPDEST DUP2 CALLER PUSH2 0x69B DUP3 PUSH2 0x7B7 JUMP JUMPDEST PUSH1 0x1 PUSH1 0x1 PUSH1 0xA0 SHL SUB AND EQ PUSH2 0x6F6 JUMPI PUSH1 0x40 DUP1 MLOAD PUSH3 0x461BCD PUSH1 0xE5 SHL DUP2 MSTORE PUSH1 0x20 PUSH1 0x4 DUP3 ADD MSTORE PUSH1 0x1A PUSH1 0x24 DUP3 ADD MSTORE PUSH32 0x776F726B6572206E6F742068697265642062792073656E646572000000000000 PUSH1 0x44 DUP3 ADD MSTORE SWAP1 MLOAD SWAP1 DUP2 SWAP1 SUB PUSH1 0x64 ADD SWAP1 REVERT JUMPDEST PUSH1 0x0 PUSH2 0x703 CALLER DUP6 DUP6 PUSH2 0xCFE JUMP JUMPDEST PUSH1 0x0 DUP2 DUP2 MSTORE PUSH1 0x2 PUSH1 0x20 MSTORE PUSH1 0x40 SWAP1 KECCAK256 SLOAD SWAP1 SWAP2 POP PUSH1 0xFF AND ISZERO ISZERO PUSH1 0x1 EQ PUSH2 0x764 JUMPI PUSH1 0x40 DUP1 MLOAD PUSH3 0x461BCD PUSH1 0xE5 SHL DUP2 MSTORE PUSH1 0x20 PUSH1 0x4 DUP3 ADD MSTORE PUSH1 0x13 PUSH1 0x24 DUP3 ADD MSTORE PUSH19 0x19185C1C081B9BDD08185D5D1A1BDC9A5E9959 PUSH1 0x6A SHL PUSH1 0x44 DUP3 ADD MSTORE SWAP1 MLOAD SWAP1 DUP2 SWAP1 SUB PUSH1 0x64 ADD SWAP1 REVERT JUMPDEST PUSH1 0x0 DUP2 DUP2 MSTORE PUSH1 0x2 PUSH1 0x20 MSTORE PUSH1 0x40 DUP1 DUP3 KECCAK256 DUP1 SLOAD PUSH1 0xFF NOT AND SWAP1 SSTORE MLOAD PUSH1 0x1 PUSH1 0x1 PUSH1 0xA0 SHL SUB DUP1 DUP7 AND SWAP3 SWAP1 DUP8 AND SWAP2 CALLER SWAP2 PUSH32 0x4D2275DDB8A6D9C36C95476C2EAF9746C1785B4AB76A99719FD647B36DA46CEE SWAP2 LOG4 POP POP POP POP JUMP JUMPDEST PUSH1 0x1 PUSH1 0x1 PUSH1 0xA0 SHL SUB SWAP1 DUP2 AND PUSH1 0x0 SWAP1 DUP2 MSTORE PUSH1 0x20 DUP2 SWAP1 MSTORE PUSH1 0x40 SWAP1 KECCAK256 SLOAD AND SWAP1 JUMP JUMPDEST PUSH1 0x1 CALLER PUSH1 0x0 SWAP1 DUP2 MSTORE PUSH1 0x1 PUSH1 0x20 MSTORE PUSH1 0x40 SWAP1 KECCAK256 SLOAD PUSH1 0xFF AND PUSH1 0x3 DUP2 GT ISZERO PUSH2 0x7F5 JUMPI INVALID JUMPDEST EQ PUSH2 0x831 JUMPI PUSH1 0x40 MLOAD PUSH3 0x461BCD PUSH1 0xE5 SHL DUP2 MSTORE PUSH1 0x4 ADD DUP1 DUP1 PUSH1 0x20 ADD DUP3 DUP2 SUB DUP3 MSTORE PUSH1 0x22 DUP2 MSTORE PUSH1 0x20 ADD DUP1 PUSH2 0xD50 PUSH1 0x22 SWAP2 CODECOPY PUSH1 0x40 ADD SWAP2 POP POP PUSH1 0x40 MLOAD DUP1 SWAP2 SUB SWAP1 REVERT JUMPDEST CALLER PUSH1 0x0 DUP2 DUP2 MSTORE PUSH1 0x1 PUSH1 0x20 SWAP1 DUP2 MSTORE PUSH1 0x40 DUP1 DUP4 KECCAK256 DUP1 SLOAD PUSH1 0xFF NOT AND PUSH1 0x2 OR SWAP1 SSTORE SWAP1 DUP3 SWAP1 MSTORE DUP1 DUP3 KECCAK256 SLOAD SWAP1 MLOAD PUSH1 0x1 PUSH1 0x1 PUSH1 0xA0 SHL SUB SWAP1 SWAP2 AND SWAP3 SWAP2 PUSH32 0xCFA12AB8EE8DC6F9B68938D5E764DAFED737D43DC5EC8443ABF81E645276EB6 SWAP2 LOG3 JUMP JUMPDEST PUSH1 0x2 PUSH1 0x1 PUSH1 0x1 PUSH1 0xA0 SHL SUB DUP3 AND PUSH1 0x0 SWAP1 DUP2 MSTORE PUSH1 0x1 PUSH1 0x20 MSTORE PUSH1 0x40 SWAP1 KECCAK256 SLOAD PUSH1 0xFF AND PUSH1 0x3 DUP2 GT ISZERO PUSH2 0x8B3 JUMPI INVALID JUMPDEST EQ PUSH2 0x8F8 JUMPI PUSH1 0x40 DUP1 MLOAD PUSH3 0x461BCD PUSH1 0xE5 SHL DUP2 MSTORE PUSH1 0x20 PUSH1 0x4 DUP3 ADD MSTORE PUSH1 0x10 PUSH1 0x24 DUP3 ADD MSTORE PUSH16 0x1DDBDC9AD95C881B9BDD081BDDDB9959 PUSH1 0x82 SHL PUSH1 0x44 DUP3 ADD MSTORE SWAP1 MLOAD SWAP1 DUP2 SWAP1 SUB PUSH1 0x64 ADD SWAP1 REVERT JUMPDEST PUSH1 0x1 PUSH1 0x1 PUSH1 0xA0 SHL SUB DUP2 DUP2 AND PUSH1 0x0 SWAP1 DUP2 MSTORE PUSH1 0x20 DUP2 SWAP1 MSTORE PUSH1 0x40 SWAP1 KECCAK256 SLOAD AND CALLER EQ PUSH2 0x966 JUMPI PUSH1 0x40 DUP1 MLOAD PUSH3 0x461BCD PUSH1 0xE5 SHL DUP2 MSTORE PUSH1 0x20 PUSH1 0x4 DUP3 ADD MSTORE PUSH1 0x1C PUSH1 0x24 DUP3 ADD MSTORE PUSH32 0x6F6E6C79206F776E65722063616E2072657469726520776F726B657200000000 PUSH1 0x44 DUP3 ADD MSTORE SWAP1 MLOAD SWAP1 DUP2 SWAP1 SUB PUSH1 0x64 ADD SWAP1 REVERT JUMPDEST PUSH1 0x1 PUSH1 0x1 PUSH1 0xA0 SHL SUB DUP2 AND PUSH1 0x0 DUP2 DUP2 MSTORE PUSH1 0x1 PUSH1 0x20 MSTORE PUSH1 0x40 DUP1 DUP3 KECCAK256 DUP1 SLOAD PUSH1 0xFF NOT AND PUSH1 0x3 OR SWAP1 SSTORE MLOAD CALLER SWAP3 SWAP2 PUSH32 0x657B373E1262C26D1F1A83E8949F0AF9067FE48026B308E47EEC5EF6B40FF25D SWAP2 LOG3 POP JUMP JUMPDEST PUSH1 0x0 PUSH1 0x1 PUSH2 0x4F5 JUMP JUMPDEST PUSH1 0x1 PUSH1 0x1 PUSH1 0xA0 SHL SUB DUP2 DUP2 AND PUSH1 0x0 SWAP1 DUP2 MSTORE PUSH1 0x20 DUP2 SWAP1 MSTORE PUSH1 0x40 SWAP1 KECCAK256 SLOAD AND CALLER EQ PUSH2 0xA2B JUMPI PUSH1 0x40 DUP1 MLOAD PUSH3 0x461BCD PUSH1 0xE5 SHL DUP2 MSTORE PUSH1 0x20 PUSH1 0x4 DUP3 ADD MSTORE PUSH1 0x1F PUSH1 0x24 DUP3 ADD MSTORE PUSH32 0x6F6E6C792068697265722063616E2063616E63656C20746865206F6666657200 PUSH1 0x44 DUP3 ADD MSTORE SWAP1 MLOAD SWAP1 DUP2 SWAP1 SUB PUSH1 0x64 ADD SWAP1 REVERT JUMPDEST PUSH1 0x1 PUSH1 0x1 PUSH1 0xA0 SHL SUB DUP2 AND PUSH1 0x0 DUP2 DUP2 MSTORE PUSH1 0x1 PUSH1 0x20 MSTORE PUSH1 0x40 DUP1 DUP3 KECCAK256 DUP1 SLOAD PUSH1 0xFF NOT AND PUSH1 0x3 OR SWAP1 SSTORE MLOAD CALLER SWAP3 SWAP2 PUSH32 0xAC8BFC64EFE7B663F325CA81C7468A291A868AACC74C8F91CDC5C8141C15E38A SWAP2 LOG3 POP JUMP JUMPDEST PUSH2 0xA82 DUP2 PUSH2 0x4F1 JUMP JUMPDEST PUSH2 0xAD3 JUMPI PUSH1 0x40 DUP1 MLOAD PUSH3 0x461BCD PUSH1 0xE5 SHL DUP2 MSTORE PUSH1 0x20 PUSH1 0x4 DUP3 ADD MSTORE PUSH1 0x17 PUSH1 0x24 DUP3 ADD MSTORE PUSH32 0x776F726B6572206973206E6F7420617661696C61626C65000000000000000000 PUSH1 0x44 DUP3 ADD MSTORE SWAP1 MLOAD SWAP1 DUP2 SWAP1 SUB PUSH1 0x64 ADD SWAP1 REVERT JUMPDEST PUSH1 0x1 PUSH1 0x1 PUSH1 0xA0 SHL SUB DUP2 AND PUSH2 0xB2E JUMPI PUSH1 0x40 DUP1 MLOAD PUSH3 0x461BCD PUSH1 0xE5 SHL DUP2 MSTORE PUSH1 0x20 PUSH1 0x4 DUP3 ADD MSTORE PUSH1 0x1D PUSH1 0x24 DUP3 ADD MSTORE PUSH32 0x776F726B657220616464726573732063616E206E6F7420626520307830000000 PUSH1 0x44 DUP3 ADD MSTORE SWAP1 MLOAD SWAP1 DUP2 SWAP1 SUB PUSH1 0x64 ADD SWAP1 REVERT JUMPDEST PUSH7 0x38D7EA4C68000 CALLVALUE LT ISZERO PUSH2 0xB82 JUMPI PUSH1 0x40 DUP1 MLOAD PUSH3 0x461BCD PUSH1 0xE5 SHL DUP2 MSTORE PUSH1 0x20 PUSH1 0x4 DUP3 ADD MSTORE PUSH1 0x15 PUSH1 0x24 DUP3 ADD MSTORE PUSH21 0x66756E64696E672062656C6F77206D696E696D756D PUSH1 0x58 SHL PUSH1 0x44 DUP3 ADD MSTORE SWAP1 MLOAD SWAP1 DUP2 SWAP1 SUB PUSH1 0x64 ADD SWAP1 REVERT JUMPDEST PUSH8 0x29A2241AF62C0000 CALLVALUE GT ISZERO PUSH2 0xBD7 JUMPI PUSH1 0x40 DUP1 MLOAD PUSH3 0x461BCD PUSH1 0xE5 SHL DUP2 MSTORE PUSH1 0x20 PUSH1 0x4 DUP3 ADD MSTORE PUSH1 0x15 PUSH1 0x24 DUP3 ADD MSTORE PUSH21 0x66756E64696E672061626F7665206D6178696D756D PUSH1 0x58 SHL PUSH1 0x44 DUP3 ADD MSTORE SWAP1 MLOAD SWAP1 DUP2 SWAP1 SUB PUSH1 0x64 ADD SWAP1 REVERT JUMPDEST PUSH1 0x1 PUSH1 0x1 PUSH1 0xA0 SHL SUB DUP2 AND PUSH1 0x0 SWAP1 DUP2 MSTORE PUSH1 0x20 DUP2 DUP2 MSTORE PUSH1 0x40 DUP1 DUP4 KECCAK256 DUP1 SLOAD PUSH1 0x1 PUSH1 0x1 PUSH1 0xA0 SHL SUB NOT AND CALLER OR SWAP1 SSTORE PUSH1 0x1 SWAP2 DUP3 SWAP1 MSTORE SWAP1 SWAP2 KECCAK256 DUP1 SLOAD PUSH1 0xFF NOT AND DUP3 DUP1 MUL OR SWAP1 SSTORE POP PUSH1 0x40 MLOAD PUSH1 0x1 PUSH1 0x1 PUSH1 0xA0 SHL SUB DUP3 AND SWAP1 CALLVALUE DUP1 ISZERO PUSH2 0x8FC MUL SWAP2 PUSH1 0x0 DUP2 DUP2 DUP2 DUP6 DUP9 DUP9 CALL SWAP4 POP POP POP POP ISZERO DUP1 ISZERO PUSH2 0xC4B JUMPI RETURNDATASIZE PUSH1 0x0 DUP1 RETURNDATACOPY RETURNDATASIZE PUSH1 0x0 REVERT JUMPDEST POP PUSH1 0x40 MLOAD CALLER SWAP1 PUSH1 0x1 PUSH1 0x1 PUSH1 0xA0 SHL SUB DUP4 AND SWAP1 PUSH32 0x2E0AA97EF0E6F4F76319861C90E91BEEC7A7A44A698CAB856DFC1985A0C588F0 SWAP1 PUSH1 0x0 SWAP1 LOG3 POP JUMP JUMPDEST PUSH2 0xC8E DUP3 PUSH2 0xA79 JUMP JUMPDEST PUSH2 0xC98 DUP3 DUP3 PUSH2 0x523 JUMP JUMPDEST POP POP JUMP JUMPDEST PUSH1 0x0 PUSH1 0x2 PUSH2 0x4F5 JUMP JUMPDEST PUSH1 0x0 PUSH1 0x2 PUSH1 0x1 PUSH1 0x1 PUSH1 0xA0 SHL SUB DUP4 AND PUSH1 0x0 SWAP1 DUP2 MSTORE PUSH1 0x1 PUSH1 0x20 MSTORE PUSH1 0x40 SWAP1 KECCAK256 SLOAD PUSH1 0xFF AND PUSH1 0x3 DUP2 GT ISZERO PUSH2 0xCD0 JUMPI INVALID JUMPDEST EQ PUSH2 0xCDC JUMPI PUSH1 0x0 PUSH2 0xCF8 JUMP JUMPDEST PUSH1 0x1 PUSH1 0x1 PUSH1 0xA0 SHL SUB DUP1 DUP4 AND PUSH1 0x0 SWAP1 DUP2 MSTORE PUSH1 0x20 DUP2 SWAP1 MSTORE PUSH1 0x40 SWAP1 KECCAK256 SLOAD AND JUMPDEST SWAP3 SWAP2 POP POP JUMP JUMPDEST PUSH1 0x40 DUP1 MLOAD PUSH12 0xFFFFFFFFFFFFFFFFFFFFFFFF NOT PUSH1 0x60 SWAP6 DUP7 SHL DUP2 AND PUSH1 0x20 DUP1 DUP5 ADD SWAP2 SWAP1 SWAP2 MSTORE SWAP5 DUP7 SHL DUP2 AND PUSH1 0x34 DUP4 ADD MSTORE SWAP3 SWAP1 SWAP5 SHL SWAP1 SWAP2 AND PUSH1 0x48 DUP5 ADD MSTORE DUP1 MLOAD PUSH1 0x3C DUP2 DUP6 SUB ADD DUP2 MSTORE PUSH1 0x5C SWAP1 SWAP4 ADD SWAP1 MSTORE DUP2 MLOAD SWAP2 ADD KECCAK256 SWAP1 JUMP INVALID PUSH24 0x6F726B6572206E6F74206973206E6F7420696E2070656E64 PUSH10 0x6E67207374617465A264 PUSH10 0x706673582212208C53BF 0x1E 0xED 0xC7 CALLDATALOAD LT ORIGIN DELEGATECALL RETURNDATACOPY SSTORE POP MULMOD CODESIZE 0x29 0x24 0xE5 0xBE ADDMOD NOT OR 0xCB 0xD3 SIGNEXTEND TIMESTAMP DUP5 0xE0 CREATE2 PUSH19 0xD9BC64736F6C63430007040033000000000000 "
    },
    "gasEstimates": {
      "creation": {
        "codeDepositCost": "699000",
        "executionCost": "734",
        "totalCost": "699734"
      },
      "external": {
        "acceptJob()": "infinite",
        "authorize(address,address)": "25260",
        "cancelHire(address)": "23644",
        "deauthorize(address,address)": "25262",
        "getOwner(address)": "2216",
        "getUser(address)": "1264",
        "hire(address)": "infinite",
        "hireAndAuthorize(address,address)": "infinite",
        "isAuthorized(address,address)": "3347",
        "isAvailable(address)": "1246",
        "isOwned(address)": "1277",
        "isPending(address)": "1278",
        "isRetired(address)": "1256",
        "rejectJob()": "infinite",
        "retire(address)": "24542"
      },
      "internal": {
        "getAuthorizationKey(address,address,address)": "infinite"
      }
    },
    "methodIdentifiers": {
      "acceptJob()": "9b789b7e",
      "authorize(address,address)": "2bef4595",
      "cancelHire(address)": "b64b3bed",
      "deauthorize(address,address)": "6d892f7e",
      "getOwner(address)": "fa544161",
      "getUser(address)": "6f77926b",
      "hire(address)": "d9d6bd86",
      "hireAndAuthorize(address,address)": "dbd96554",
      "isAuthorized(address,address)": "65e4ad9e",
      "isAvailable(address)": "2896f60b",
      "isOwned(address)": "f4dc754b",
      "isPending(address)": "a00745b6",
      "isRetired(address)": "6d3c6275",
      "rejectJob()": "03d6e81e",
      "retire(address)": "9e6371ba"
    }
  },
  "storageLayout": {
    "storage": [
      {
        "astId": 368,
        "contract": "contracts/WorkerManagerAuthManagerImpl.sol:WorkerManagerAuthManagerImpl",
        "label": "userOf",
        "offset": 0,
        "slot": "0",
        "type": "t_mapping(t_address,t_address_payable)"
      },
      {
        "astId": 373,
        "contract": "contracts/WorkerManagerAuthManagerImpl.sol:WorkerManagerAuthManagerImpl",
        "label": "stateOf",
        "offset": 0,
        "slot": "1",
        "type": "t_mapping(t_address,t_enum(WorkerState)363)"
      },
      {
        "astId": 378,
        "contract": "contracts/WorkerManagerAuthManagerImpl.sol:WorkerManagerAuthManagerImpl",
        "label": "permissions",
        "offset": 0,
        "slot": "2",
        "type": "t_mapping(t_bytes32,t_bool)"
      }
    ],
    "types": {
      "t_address": {
        "encoding": "inplace",
        "label": "address",
        "numberOfBytes": "20"
      },
      "t_address_payable": {
        "encoding": "inplace",
        "label": "address payable",
        "numberOfBytes": "20"
      },
      "t_bool": {
        "encoding": "inplace",
        "label": "bool",
        "numberOfBytes": "1"
      },
      "t_bytes32": {
        "encoding": "inplace",
        "label": "bytes32",
        "numberOfBytes": "32"
      },
      "t_enum(WorkerState)363": {
        "encoding": "inplace",
        "label": "enum WorkerManagerAuthManagerImpl.WorkerState",
        "numberOfBytes": "1"
      },
      "t_mapping(t_address,t_address_payable)": {
        "encoding": "mapping",
        "key": "t_address",
        "label": "mapping(address => address payable)",
        "numberOfBytes": "32",
        "value": "t_address_payable"
      },
      "t_mapping(t_address,t_enum(WorkerState)363)": {
        "encoding": "mapping",
        "key": "t_address",
        "label": "mapping(address => enum WorkerManagerAuthManagerImpl.WorkerState)",
        "numberOfBytes": "32",
        "value": "t_enum(WorkerState)363"
      },
      "t_mapping(t_bytes32,t_bool)": {
        "encoding": "mapping",
        "key": "t_bytes32",
        "label": "mapping(bytes32 => bool)",
        "numberOfBytes": "32",
        "value": "t_bool"
      }
    }
  },
  "userdoc": {
    "events": {
      "Authorization(address,address,address)": {
        "notice": "A DApp has been authorized by a user for a worker"
      },
      "Deauthorization(address,address,address)": {
        "notice": "A DApp has been deauthorized by a user for a worker"
      },
      "JobOffer(address,address)": {
        "notice": "Events signalling every state transition"
      }
    },
    "kind": "user",
    "methods": {
      "acceptJob()": {
        "notice": "Called by the worker to accept the job"
      },
      "authorize(address,address)": {
        "notice": "Gives worker permission to act on a DApp"
      },
      "isAuthorized(address,address)": {
        "notice": "Returns is the dapp is authorized to be called by that worker"
      },
      "isAvailable(address)": {
        "notice": "Returns true if worker node is available"
      },
      "isPending(address)": {
        "notice": "Returns true if worker node is pending"
      },
      "rejectJob()": {
        "notice": "Called by the worker to reject a job offer"
      }
    },
    "version": 1
  }
}