{
  "contractName": "WorkerManagerImpl",
  "sourceName": "contracts/WorkerManagerImpl.sol",
  "abi": [
    {
      "anonymous": false,
      "inputs": [
        {
          "indexed": true,
          "internalType": "address",
          "name": "worker",
          "type": "address"
        },
        {
          "indexed": true,
          "internalType": "address",
          "name": "user",
          "type": "address"
        }
      ],
      "name": "JobAccepted",
      "type": "event"
    },
    {
      "anonymous": false,
      "inputs": [
        {
          "indexed": true,
          "internalType": "address",
          "name": "worker",
          "type": "address"
        },
        {
          "indexed": true,
          "internalType": "address",
          "name": "user",
          "type": "address"
        }
      ],
      "name": "JobOffer",
      "type": "event"
    },
    {
      "anonymous": false,
      "inputs": [
        {
          "indexed": true,
          "internalType": "address",
          "name": "worker",
          "type": "address"
        },
        {
          "indexed": true,
          "internalType": "address",
          "name": "user",
          "type": "address"
        }
      ],
      "name": "JobRejected",
      "type": "event"
    },
    {
      "anonymous": false,
      "inputs": [
        {
          "indexed": true,
          "internalType": "address",
          "name": "worker",
          "type": "address"
        },
        {
          "indexed": true,
          "internalType": "address",
          "name": "user",
          "type": "address"
        }
      ],
      "name": "Retired",
      "type": "event"
    },
    {
      "inputs": [],
      "name": "acceptJob",
      "outputs": [],
      "stateMutability": "nonpayable",
      "type": "function"
    },
    {
      "inputs": [
        {
          "internalType": "address",
          "name": "_workerAddress",
          "type": "address"
        }
      ],
      "name": "cancelHire",
      "outputs": [],
      "stateMutability": "nonpayable",
      "type": "function"
    },
    {
      "inputs": [
        {
          "internalType": "address",
          "name": "_workerAddress",
          "type": "address"
        }
      ],
      "name": "getOwner",
      "outputs": [
        {
          "internalType": "address",
          "name": "",
          "type": "address"
        }
      ],
      "stateMutability": "view",
      "type": "function"
    },
    {
      "inputs": [
        {
          "internalType": "address",
          "name": "_workerAddress",
          "type": "address"
        }
      ],
      "name": "getUser",
      "outputs": [
        {
          "internalType": "address",
          "name": "",
          "type": "address"
        }
      ],
      "stateMutability": "view",
      "type": "function"
    },
    {
      "inputs": [
        {
          "internalType": "address payable",
          "name": "_workerAddress",
          "type": "address"
        }
      ],
      "name": "hire",
      "outputs": [],
      "stateMutability": "payable",
      "type": "function"
    },
    {
      "inputs": [
        {
          "internalType": "address",
          "name": "workerAddress",
          "type": "address"
        }
      ],
      "name": "isAvailable",
      "outputs": [
        {
          "internalType": "bool",
          "name": "",
          "type": "bool"
        }
      ],
      "stateMutability": "view",
      "type": "function"
    },
    {
      "inputs": [
        {
          "internalType": "address",
          "name": "_workerAddress",
          "type": "address"
        }
      ],
      "name": "isOwned",
      "outputs": [
        {
          "internalType": "bool",
          "name": "",
          "type": "bool"
        }
      ],
      "stateMutability": "view",
      "type": "function"
    },
    {
      "inputs": [
        {
          "internalType": "address",
          "name": "workerAddress",
          "type": "address"
        }
      ],
      "name": "isPending",
      "outputs": [
        {
          "internalType": "bool",
          "name": "",
          "type": "bool"
        }
      ],
      "stateMutability": "view",
      "type": "function"
    },
    {
      "inputs": [
        {
          "internalType": "address",
          "name": "_workerAddress",
          "type": "address"
        }
      ],
      "name": "isRetired",
      "outputs": [
        {
          "internalType": "bool",
          "name": "",
          "type": "bool"
        }
      ],
      "stateMutability": "view",
      "type": "function"
    },
    {
      "inputs": [],
      "name": "rejectJob",
      "outputs": [],
      "stateMutability": "payable",
      "type": "function"
    },
    {
      "inputs": [
        {
          "internalType": "address payable",
          "name": "_workerAddress",
          "type": "address"
        }
      ],
      "name": "retire",
      "outputs": [],
      "stateMutability": "nonpayable",
      "type": "function"
    }
  ],
  "bytecode": "0x608060405234801561001057600080fd5b50610a5f806100206000396000f3fe60806040526004361061009c5760003560e01c80639e6371ba116100645780639e6371ba14610189578063a00745b6146101bc578063b64b3bed146101ef578063d9d6bd8614610222578063f4dc754b14610248578063fa5441611461027b5761009c565b806303d6e81e146100a15780632896f60b146100ab5780636d3c6275146100f25780636f77926b146101255780639b789b7e14610174575b600080fd5b6100a96102ae565b005b3480156100b757600080fd5b506100de600480360360208110156100ce57600080fd5b50356001600160a01b03166103c6565b604080519115158252519081900360200190f35b3480156100fe57600080fd5b506100de6004803603602081101561011557600080fd5b50356001600160a01b03166103f8565b34801561013157600080fd5b506101586004803603602081101561014857600080fd5b50356001600160a01b0316610401565b604080516001600160a01b039092168252519081900360200190f35b34801561018057600080fd5b506100a961041f565b34801561019557600080fd5b506100a9600480360360208110156101ac57600080fd5b50356001600160a01b031661053e565b3480156101c857600080fd5b506100de600480360360208110156101df57600080fd5b50356001600160a01b0316610668565b3480156101fb57600080fd5b506100a96004803603602081101561021257600080fd5b50356001600160a01b0316610671565b6100a96004803603602081101561023857600080fd5b50356001600160a01b0316610799565b34801561025457600080fd5b506100de6004803603602081101561026b57600080fd5b50356001600160a01b03166109a5565b34801561028757600080fd5b506101586004803603602081101561029e57600080fd5b50356001600160a01b03166109ae565b336000908152602081905260409020546001600160a01b0316610318576040805162461bcd60e51b815260206004820181905260248201527f776f726b657220646f6573206e6f7420686176652061206a6f62206f66666572604482015290519081900360640190fd5b3360009081526020818152604080832080546001600160a01b031981169091556001909252808320805460ff19169055516001600160a01b039091169182913480156108fc0292909190818181858888f1935050505015801561037f573d6000803e3d6000fd5b50336000818152602081905260408082205490516001600160a01b0390911692917fac8bfc64efe7b663f325ca81c7468a291a868aacc74c8f91cdc5c8141c15e38a91a350565b6000805b6001600160a01b03831660009081526001602052604090205460ff1660038111156103f157fe5b1492915050565b600060036103ca565b6001600160a01b039081166000908152602081905260409020541690565b336000908152602081905260409020546001600160a01b0316610489576040805162461bcd60e51b815260206004820181905260248201527f776f726b657220646f6573206e6f7420686176652061206a6f62206f66666572604482015290519081900360640190fd5b60013360009081526001602052604090205460ff1660038111156104a957fe5b146104e55760405162461bcd60e51b8152600401808060200182810382526022815260200180610a086022913960400191505060405180910390fd5b336000818152600160209081526040808320805460ff19166002179055908290528082205490516001600160a01b0390911692917f0cfa12ab8ee8dc6f9b68938d5e764dafed737d43dc5ec8443abf81e645276eb691a3565b60026001600160a01b03821660009081526001602052604090205460ff16600381111561056757fe5b146105ac576040805162461bcd60e51b815260206004820152601060248201526f1ddbdc9ad95c881b9bdd081bdddb995960821b604482015290519081900360640190fd5b6001600160a01b0381811660009081526020819052604090205416331461061a576040805162461bcd60e51b815260206004820152601c60248201527f6f6e6c79206f776e65722063616e2072657469726520776f726b657200000000604482015290519081900360640190fd5b6001600160a01b038116600081815260016020526040808220805460ff19166003179055513392917f657b373e1262c26d1f1a83e8949f0af9067fe48026b308e47eec5ef6b40ff25d91a350565b600060016103ca565b6001600160a01b03818116600090815260208190526040902054166106dd576040805162461bcd60e51b815260206004820181905260248201527f776f726b657220646f6573206e6f7420686176652061206a6f62206f66666572604482015290519081900360640190fd5b6001600160a01b0381811660009081526020819052604090205416331461074b576040805162461bcd60e51b815260206004820152601f60248201527f6f6e6c792068697265722063616e2063616e63656c20746865206f6666657200604482015290519081900360640190fd5b6001600160a01b038116600081815260016020526040808220805460ff19166003179055513392917fac8bfc64efe7b663f325ca81c7468a291a868aacc74c8f91cdc5c8141c15e38a91a350565b6107a2816103c6565b6107f3576040805162461bcd60e51b815260206004820152601760248201527f776f726b6572206973206e6f7420617661696c61626c65000000000000000000604482015290519081900360640190fd5b6001600160a01b03811661084e576040805162461bcd60e51b815260206004820152601d60248201527f776f726b657220616464726573732063616e206e6f7420626520307830000000604482015290519081900360640190fd5b66038d7ea4c680003410156108a2576040805162461bcd60e51b815260206004820152601560248201527466756e64696e672062656c6f77206d696e696d756d60581b604482015290519081900360640190fd5b6729a2241af62c00003411156108f7576040805162461bcd60e51b815260206004820152601560248201527466756e64696e672061626f7665206d6178696d756d60581b604482015290519081900360640190fd5b6001600160a01b03811660009081526020818152604080832080546001600160a01b03191633179055600191829052909120805460ff1916828002179055506040516001600160a01b038216903480156108fc02916000818181858888f1935050505015801561096b573d6000803e3d6000fd5b5060405133906001600160a01b038316907f2e0aa97ef0e6f4f76319861c90e91beec7a7a44a698cab856dfc1985a0c588f090600090a350565b600060026103ca565b600060026001600160a01b03831660009081526001602052604090205460ff1660038111156109d957fe5b146109e5576000610a01565b6001600160a01b03808316600090815260208190526040902054165b9291505056fe776f726b6572206e6f74206973206e6f7420696e2070656e64696e67207374617465a2646970667358221220f97ae1ecee63bfe102f0fe240b3342a47c2b40b0b0408356358d3cde0591b1fe64736f6c63430007040033",
  "linkReferences": {},
  "deployedLinkReferences": {},
  "devdoc": {
    "kind": "dev",
    "methods": {
      "isAvailable(address)": {
        "params": {
          "workerAddress": "address of the worker node"
        }
      },
      "isPending(address)": {
        "params": {
          "workerAddress": "address of the worker node"
        }
      }
    },
    "stateVariables": {
      "MAXIMUM_FUNDING": {
        "details": "transfers bigger than maximum value should be done directly"
      },
      "MINIMUM_FUNDING": {
        "details": "user can only hire a worker if he sends more than minimum value"
      },
      "stateOf": {
        "details": "mapping from worker to its internal state"
      },
      "userOf": {
        "details": "mapping from worker to its user"
      }
    },
    "version": 1
  },
  "evm": {
    "bytecode": {
      "linkReferences": {},
      "opcodes": "PUSH1 0x80 PUSH1 0x40 MSTORE CALLVALUE DUP1 ISZERO PUSH2 0x10 JUMPI PUSH1 0x0 DUP1 REVERT JUMPDEST POP PUSH2 0xA5F DUP1 PUSH2 0x20 PUSH1 0x0 CODECOPY PUSH1 0x0 RETURN INVALID PUSH1 0x80 PUSH1 0x40 MSTORE PUSH1 0x4 CALLDATASIZE LT PUSH2 0x9C JUMPI PUSH1 0x0 CALLDATALOAD PUSH1 0xE0 SHR DUP1 PUSH4 0x9E6371BA GT PUSH2 0x64 JUMPI DUP1 PUSH4 0x9E6371BA EQ PUSH2 0x189 JUMPI DUP1 PUSH4 0xA00745B6 EQ PUSH2 0x1BC JUMPI DUP1 PUSH4 0xB64B3BED EQ PUSH2 0x1EF JUMPI DUP1 PUSH4 0xD9D6BD86 EQ PUSH2 0x222 JUMPI DUP1 PUSH4 0xF4DC754B EQ PUSH2 0x248 JUMPI DUP1 PUSH4 0xFA544161 EQ PUSH2 0x27B JUMPI PUSH2 0x9C JUMP JUMPDEST DUP1 PUSH4 0x3D6E81E EQ PUSH2 0xA1 JUMPI DUP1 PUSH4 0x2896F60B EQ PUSH2 0xAB JUMPI DUP1 PUSH4 0x6D3C6275 EQ PUSH2 0xF2 JUMPI DUP1 PUSH4 0x6F77926B EQ PUSH2 0x125 JUMPI DUP1 PUSH4 0x9B789B7E EQ PUSH2 0x174 JUMPI JUMPDEST PUSH1 0x0 DUP1 REVERT JUMPDEST PUSH2 0xA9 PUSH2 0x2AE JUMP JUMPDEST STOP JUMPDEST CALLVALUE DUP1 ISZERO PUSH2 0xB7 JUMPI PUSH1 0x0 DUP1 REVERT JUMPDEST POP PUSH2 0xDE PUSH1 0x4 DUP1 CALLDATASIZE SUB PUSH1 0x20 DUP2 LT ISZERO PUSH2 0xCE JUMPI PUSH1 0x0 DUP1 REVERT JUMPDEST POP CALLDATALOAD PUSH1 0x1 PUSH1 0x1 PUSH1 0xA0 SHL SUB AND PUSH2 0x3C6 JUMP JUMPDEST PUSH1 0x40 DUP1 MLOAD SWAP2 ISZERO ISZERO DUP3 MSTORE MLOAD SWAP1 DUP2 SWAP1 SUB PUSH1 0x20 ADD SWAP1 RETURN JUMPDEST CALLVALUE DUP1 ISZERO PUSH2 0xFE JUMPI PUSH1 0x0 DUP1 REVERT JUMPDEST POP PUSH2 0xDE PUSH1 0x4 DUP1 CALLDATASIZE SUB PUSH1 0x20 DUP2 LT ISZERO PUSH2 0x115 JUMPI PUSH1 0x0 DUP1 REVERT JUMPDEST POP CALLDATALOAD PUSH1 0x1 PUSH1 0x1 PUSH1 0xA0 SHL SUB AND PUSH2 0x3F8 JUMP JUMPDEST CALLVALUE DUP1 ISZERO PUSH2 0x131 JUMPI PUSH1 0x0 DUP1 REVERT JUMPDEST POP PUSH2 0x158 PUSH1 0x4 DUP1 CALLDATASIZE SUB PUSH1 0x20 DUP2 LT ISZERO PUSH2 0x148 JUMPI PUSH1 0x0 DUP1 REVERT JUMPDEST POP CALLDATALOAD PUSH1 0x1 PUSH1 0x1 PUSH1 0xA0 SHL SUB AND PUSH2 0x401 JUMP JUMPDEST PUSH1 0x40 DUP1 MLOAD PUSH1 0x1 PUSH1 0x1 PUSH1 0xA0 SHL SUB SWAP1 SWAP3 AND DUP3 MSTORE MLOAD SWAP1 DUP2 SWAP1 SUB PUSH1 0x20 ADD SWAP1 RETURN JUMPDEST CALLVALUE DUP1 ISZERO PUSH2 0x180 JUMPI PUSH1 0x0 DUP1 REVERT JUMPDEST POP PUSH2 0xA9 PUSH2 0x41F JUMP JUMPDEST CALLVALUE DUP1 ISZERO PUSH2 0x195 JUMPI PUSH1 0x0 DUP1 REVERT JUMPDEST POP PUSH2 0xA9 PUSH1 0x4 DUP1 CALLDATASIZE SUB PUSH1 0x20 DUP2 LT ISZERO PUSH2 0x1AC JUMPI PUSH1 0x0 DUP1 REVERT JUMPDEST POP CALLDATALOAD PUSH1 0x1 PUSH1 0x1 PUSH1 0xA0 SHL SUB AND PUSH2 0x53E JUMP JUMPDEST CALLVALUE DUP1 ISZERO PUSH2 0x1C8 JUMPI PUSH1 0x0 DUP1 REVERT JUMPDEST POP PUSH2 0xDE PUSH1 0x4 DUP1 CALLDATASIZE SUB PUSH1 0x20 DUP2 LT ISZERO PUSH2 0x1DF JUMPI PUSH1 0x0 DUP1 REVERT JUMPDEST POP CALLDATALOAD PUSH1 0x1 PUSH1 0x1 PUSH1 0xA0 SHL SUB AND PUSH2 0x668 JUMP JUMPDEST CALLVALUE DUP1 ISZERO PUSH2 0x1FB JUMPI PUSH1 0x0 DUP1 REVERT JUMPDEST POP PUSH2 0xA9 PUSH1 0x4 DUP1 CALLDATASIZE SUB PUSH1 0x20 DUP2 LT ISZERO PUSH2 0x212 JUMPI PUSH1 0x0 DUP1 REVERT JUMPDEST POP CALLDATALOAD PUSH1 0x1 PUSH1 0x1 PUSH1 0xA0 SHL SUB AND PUSH2 0x671 JUMP JUMPDEST PUSH2 0xA9 PUSH1 0x4 DUP1 CALLDATASIZE SUB PUSH1 0x20 DUP2 LT ISZERO PUSH2 0x238 JUMPI PUSH1 0x0 DUP1 REVERT JUMPDEST POP CALLDATALOAD PUSH1 0x1 PUSH1 0x1 PUSH1 0xA0 SHL SUB AND PUSH2 0x799 JUMP JUMPDEST CALLVALUE DUP1 ISZERO PUSH2 0x254 JUMPI PUSH1 0x0 DUP1 REVERT JUMPDEST POP PUSH2 0xDE PUSH1 0x4 DUP1 CALLDATASIZE SUB PUSH1 0x20 DUP2 LT ISZERO PUSH2 0x26B JUMPI PUSH1 0x0 DUP1 REVERT JUMPDEST POP CALLDATALOAD PUSH1 0x1 PUSH1 0x1 PUSH1 0xA0 SHL SUB AND PUSH2 0x9A5 JUMP JUMPDEST CALLVALUE DUP1 ISZERO PUSH2 0x287 JUMPI PUSH1 0x0 DUP1 REVERT JUMPDEST POP PUSH2 0x158 PUSH1 0x4 DUP1 CALLDATASIZE SUB PUSH1 0x20 DUP2 LT ISZERO PUSH2 0x29E JUMPI PUSH1 0x0 DUP1 REVERT JUMPDEST POP CALLDATALOAD PUSH1 0x1 PUSH1 0x1 PUSH1 0xA0 SHL SUB AND PUSH2 0x9AE JUMP JUMPDEST CALLER PUSH1 0x0 SWAP1 DUP2 MSTORE PUSH1 0x20 DUP2 SWAP1 MSTORE PUSH1 0x40 SWAP1 KECCAK256 SLOAD PUSH1 0x1 PUSH1 0x1 PUSH1 0xA0 SHL SUB AND PUSH2 0x318 JUMPI PUSH1 0x40 DUP1 MLOAD PUSH3 0x461BCD PUSH1 0xE5 SHL DUP2 MSTORE PUSH1 0x20 PUSH1 0x4 DUP3 ADD DUP2 SWAP1 MSTORE PUSH1 0x24 DUP3 ADD MSTORE PUSH32 0x776F726B657220646F6573206E6F7420686176652061206A6F62206F66666572 PUSH1 0x44 DUP3 ADD MSTORE SWAP1 MLOAD SWAP1 DUP2 SWAP1 SUB PUSH1 0x64 ADD SWAP1 REVERT JUMPDEST CALLER PUSH1 0x0 SWAP1 DUP2 MSTORE PUSH1 0x20 DUP2 DUP2 MSTORE PUSH1 0x40 DUP1 DUP4 KECCAK256 DUP1 SLOAD PUSH1 0x1 PUSH1 0x1 PUSH1 0xA0 SHL SUB NOT DUP2 AND SWAP1 SWAP2 SSTORE PUSH1 0x1 SWAP1 SWAP3 MSTORE DUP1 DUP4 KECCAK256 DUP1 SLOAD PUSH1 0xFF NOT AND SWAP1 SSTORE MLOAD PUSH1 0x1 PUSH1 0x1 PUSH1 0xA0 SHL SUB SWAP1 SWAP2 AND SWAP2 DUP3 SWAP2 CALLVALUE DUP1 ISZERO PUSH2 0x8FC MUL SWAP3 SWAP1 SWAP2 SWAP1 DUP2 DUP2 DUP2 DUP6 DUP9 DUP9 CALL SWAP4 POP POP POP POP ISZERO DUP1 ISZERO PUSH2 0x37F JUMPI RETURNDATASIZE PUSH1 0x0 DUP1 RETURNDATACOPY RETURNDATASIZE PUSH1 0x0 REVERT JUMPDEST POP CALLER PUSH1 0x0 DUP2 DUP2 MSTORE PUSH1 0x20 DUP2 SWAP1 MSTORE PUSH1 0x40 DUP1 DUP3 KECCAK256 SLOAD SWAP1 MLOAD PUSH1 0x1 PUSH1 0x1 PUSH1 0xA0 SHL SUB SWAP1 SWAP2 AND SWAP3 SWAP2 PUSH32 0xAC8BFC64EFE7B663F325CA81C7468A291A868AACC74C8F91CDC5C8141C15E38A SWAP2 LOG3 POP JUMP JUMPDEST PUSH1 0x0 DUP1 JUMPDEST PUSH1 0x1 PUSH1 0x1 PUSH1 0xA0 SHL SUB DUP4 AND PUSH1 0x0 SWAP1 DUP2 MSTORE PUSH1 0x1 PUSH1 0x20 MSTORE PUSH1 0x40 SWAP1 KECCAK256 SLOAD PUSH1 0xFF AND PUSH1 0x3 DUP2 GT ISZERO PUSH2 0x3F1 JUMPI INVALID JUMPDEST EQ SWAP3 SWAP2 POP POP JUMP JUMPDEST PUSH1 0x0 PUSH1 0x3 PUSH2 0x3CA JUMP JUMPDEST PUSH1 0x1 PUSH1 0x1 PUSH1 0xA0 SHL SUB SWAP1 DUP2 AND PUSH1 0x0 SWAP1 DUP2 MSTORE PUSH1 0x20 DUP2 SWAP1 MSTORE PUSH1 0x40 SWAP1 KECCAK256 SLOAD AND SWAP1 JUMP JUMPDEST CALLER PUSH1 0x0 SWAP1 DUP2 MSTORE PUSH1 0x20 DUP2 SWAP1 MSTORE PUSH1 0x40 SWAP1 KECCAK256 SLOAD PUSH1 0x1 PUSH1 0x1 PUSH1 0xA0 SHL SUB AND PUSH2 0x489 JUMPI PUSH1 0x40 DUP1 MLOAD PUSH3 0x461BCD PUSH1 0xE5 SHL DUP2 MSTORE PUSH1 0x20 PUSH1 0x4 DUP3 ADD DUP2 SWAP1 MSTORE PUSH1 0x24 DUP3 ADD MSTORE PUSH32 0x776F726B657220646F6573206E6F7420686176652061206A6F62206F66666572 PUSH1 0x44 DUP3 ADD MSTORE SWAP1 MLOAD SWAP1 DUP2 SWAP1 SUB PUSH1 0x64 ADD SWAP1 REVERT JUMPDEST PUSH1 0x1 CALLER PUSH1 0x0 SWAP1 DUP2 MSTORE PUSH1 0x1 PUSH1 0x20 MSTORE PUSH1 0x40 SWAP1 KECCAK256 SLOAD PUSH1 0xFF AND PUSH1 0x3 DUP2 GT ISZERO PUSH2 0x4A9 JUMPI INVALID JUMPDEST EQ PUSH2 0x4E5 JUMPI PUSH1 0x40 MLOAD PUSH3 0x461BCD PUSH1 0xE5 SHL DUP2 MSTORE PUSH1 0x4 ADD DUP1 DUP1 PUSH1 0x20 ADD DUP3 DUP2 SUB DUP3 MSTORE PUSH1 0x22 DUP2 MSTORE PUSH1 0x20 ADD DUP1 PUSH2 0xA08 PUSH1 0x22 SWAP2 CODECOPY PUSH1 0x40 ADD SWAP2 POP POP PUSH1 0x40 MLOAD DUP1 SWAP2 SUB SWAP1 REVERT JUMPDEST CALLER PUSH1 0x0 DUP2 DUP2 MSTORE PUSH1 0x1 PUSH1 0x20 SWAP1 DUP2 MSTORE PUSH1 0x40 DUP1 DUP4 KECCAK256 DUP1 SLOAD PUSH1 0xFF NOT AND PUSH1 0x2 OR SWAP1 SSTORE SWAP1 DUP3 SWAP1 MSTORE DUP1 DUP3 KECCAK256 SLOAD SWAP1 MLOAD PUSH1 0x1 PUSH1 0x1 PUSH1 0xA0 SHL SUB SWAP1 SWAP2 AND SWAP3 SWAP2 PUSH32 0xCFA12AB8EE8DC6F9B68938D5E764DAFED737D43DC5EC8443ABF81E645276EB6 SWAP2 LOG3 JUMP JUMPDEST PUSH1 0x2 PUSH1 0x1 PUSH1 0x1 PUSH1 0xA0 SHL SUB DUP3 AND PUSH1 0x0 SWAP1 DUP2 MSTORE PUSH1 0x1 PUSH1 0x20 MSTORE PUSH1 0x40 SWAP1 KECCAK256 SLOAD PUSH1 0xFF AND PUSH1 0x3 DUP2 GT ISZERO PUSH2 0x567 JUMPI INVALID JUMPDEST EQ PUSH2 0x5AC JUMPI PUSH1 0x40 DUP1 MLOAD PUSH3 0x461BCD PUSH1 0xE5 SHL DUP2 MSTORE PUSH1 0x20 PUSH1 0x4 DUP3 ADD MSTORE PUSH1 0x10 PUSH1 0x24 DUP3 ADD MSTORE PUSH16 0x1DDBDC9AD95C881B9BDD081BDDDB9959 PUSH1 0x82 SHL PUSH1 0x44 DUP3 ADD MSTORE SWAP1 MLOAD SWAP1 DUP2 SWAP1 SUB PUSH1 0x64 ADD SWAP1 REVERT JUMPDEST PUSH1 0x1 PUSH1 0x1 PUSH1 0xA0 SHL SUB DUP2 DUP2 AND PUSH1 0x0 SWAP1 DUP2 MSTORE PUSH1 0x20 DUP2 SWAP1 MSTORE PUSH1 0x40 SWAP1 KECCAK256 SLOAD AND CALLER EQ PUSH2 0x61A JUMPI PUSH1 0x40 DUP1 MLOAD PUSH3 0x461BCD PUSH1 0xE5 SHL DUP2 MSTORE PUSH1 0x20 PUSH1 0x4 DUP3 ADD MSTORE PUSH1 0x1C PUSH1 0x24 DUP3 ADD MSTORE PUSH32 0x6F6E6C79206F776E65722063616E2072657469726520776F726B657200000000 PUSH1 0x44 DUP3 ADD MSTORE SWAP1 MLOAD SWAP1 DUP2 SWAP1 SUB PUSH1 0x64 ADD SWAP1 REVERT JUMPDEST PUSH1 0x1 PUSH1 0x1 PUSH1 0xA0 SHL SUB DUP2 AND PUSH1 0x0 DUP2 DUP2 MSTORE PUSH1 0x1 PUSH1 0x20 MSTORE PUSH1 0x40 DUP1 DUP3 KECCAK256 DUP1 SLOAD PUSH1 0xFF NOT AND PUSH1 0x3 OR SWAP1 SSTORE MLOAD CALLER SWAP3 SWAP2 PUSH32 0x657B373E1262C26D1F1A83E8949F0AF9067FE48026B308E47EEC5EF6B40FF25D SWAP2 LOG3 POP JUMP JUMPDEST PUSH1 0x0 PUSH1 0x1 PUSH2 0x3CA JUMP JUMPDEST PUSH1 0x1 PUSH1 0x1 PUSH1 0xA0 SHL SUB DUP2 DUP2 AND PUSH1 0x0 SWAP1 DUP2 MSTORE PUSH1 0x20 DUP2 SWAP1 MSTORE PUSH1 0x40 SWAP1 KECCAK256 SLOAD AND PUSH2 0x6DD JUMPI PUSH1 0x40 DUP1 MLOAD PUSH3 0x461BCD PUSH1 0xE5 SHL DUP2 MSTORE PUSH1 0x20 PUSH1 0x4 DUP3 ADD DUP2 SWAP1 MSTORE PUSH1 0x24 DUP3 ADD MSTORE PUSH32 0x776F726B657220646F6573206E6F7420686176652061206A6F62206F66666572 PUSH1 0x44 DUP3 ADD MSTORE SWAP1 MLOAD SWAP1 DUP2 SWAP1 SUB PUSH1 0x64 ADD SWAP1 REVERT JUMPDEST PUSH1 0x1 PUSH1 0x1 PUSH1 0xA0 SHL SUB DUP2 DUP2 AND PUSH1 0x0 SWAP1 DUP2 MSTORE PUSH1 0x20 DUP2 SWAP1 MSTORE PUSH1 0x40 SWAP1 KECCAK256 SLOAD AND CALLER EQ PUSH2 0x74B JUMPI PUSH1 0x40 DUP1 MLOAD PUSH3 0x461BCD PUSH1 0xE5 SHL DUP2 MSTORE PUSH1 0x20 PUSH1 0x4 DUP3 ADD MSTORE PUSH1 0x1F PUSH1 0x24 DUP3 ADD MSTORE PUSH32 0x6F6E6C792068697265722063616E2063616E63656C20746865206F6666657200 PUSH1 0x44 DUP3 ADD MSTORE SWAP1 MLOAD SWAP1 DUP2 SWAP1 SUB PUSH1 0x64 ADD SWAP1 REVERT JUMPDEST PUSH1 0x1 PUSH1 0x1 PUSH1 0xA0 SHL SUB DUP2 AND PUSH1 0x0 DUP2 DUP2 MSTORE PUSH1 0x1 PUSH1 0x20 MSTORE PUSH1 0x40 DUP1 DUP3 KECCAK256 DUP1 SLOAD PUSH1 0xFF NOT AND PUSH1 0x3 OR SWAP1 SSTORE MLOAD CALLER SWAP3 SWAP2 PUSH32 0xAC8BFC64EFE7B663F325CA81C7468A291A868AACC74C8F91CDC5C8141C15E38A SWAP2 LOG3 POP JUMP JUMPDEST PUSH2 0x7A2 DUP2 PUSH2 0x3C6 JUMP JUMPDEST PUSH2 0x7F3 JUMPI PUSH1 0x40 DUP1 MLOAD PUSH3 0x461BCD PUSH1 0xE5 SHL DUP2 MSTORE PUSH1 0x20 PUSH1 0x4 DUP3 ADD MSTORE PUSH1 0x17 PUSH1 0x24 DUP3 ADD MSTORE PUSH32 0x776F726B6572206973206E6F7420617661696C61626C65000000000000000000 PUSH1 0x44 DUP3 ADD MSTORE SWAP1 MLOAD SWAP1 DUP2 SWAP1 SUB PUSH1 0x64 ADD SWAP1 REVERT JUMPDEST PUSH1 0x1 PUSH1 0x1 PUSH1 0xA0 SHL SUB DUP2 AND PUSH2 0x84E JUMPI PUSH1 0x40 DUP1 MLOAD PUSH3 0x461BCD PUSH1 0xE5 SHL DUP2 MSTORE PUSH1 0x20 PUSH1 0x4 DUP3 ADD MSTORE PUSH1 0x1D PUSH1 0x24 DUP3 ADD MSTORE PUSH32 0x776F726B657220616464726573732063616E206E6F7420626520307830000000 PUSH1 0x44 DUP3 ADD MSTORE SWAP1 MLOAD SWAP1 DUP2 SWAP1 SUB PUSH1 0x64 ADD SWAP1 REVERT JUMPDEST PUSH7 0x38D7EA4C68000 CALLVALUE LT ISZERO PUSH2 0x8A2 JUMPI PUSH1 0x40 DUP1 MLOAD PUSH3 0x461BCD PUSH1 0xE5 SHL DUP2 MSTORE PUSH1 0x20 PUSH1 0x4 DUP3 ADD MSTORE PUSH1 0x15 PUSH1 0x24 DUP3 ADD MSTORE PUSH21 0x66756E64696E672062656C6F77206D696E696D756D PUSH1 0x58 SHL PUSH1 0x44 DUP3 ADD MSTORE SWAP1 MLOAD SWAP1 DUP2 SWAP1 SUB PUSH1 0x64 ADD SWAP1 REVERT JUMPDEST PUSH8 0x29A2241AF62C0000 CALLVALUE GT ISZERO PUSH2 0x8F7 JUMPI PUSH1 0x40 DUP1 MLOAD PUSH3 0x461BCD PUSH1 0xE5 SHL DUP2 MSTORE PUSH1 0x20 PUSH1 0x4 DUP3 ADD MSTORE PUSH1 0x15 PUSH1 0x24 DUP3 ADD MSTORE PUSH21 0x66756E64696E672061626F7665206D6178696D756D PUSH1 0x58 SHL PUSH1 0x44 DUP3 ADD MSTORE SWAP1 MLOAD SWAP1 DUP2 SWAP1 SUB PUSH1 0x64 ADD SWAP1 REVERT JUMPDEST PUSH1 0x1 PUSH1 0x1 PUSH1 0xA0 SHL SUB DUP2 AND PUSH1 0x0 SWAP1 DUP2 MSTORE PUSH1 0x20 DUP2 DUP2 MSTORE PUSH1 0x40 DUP1 DUP4 KECCAK256 DUP1 SLOAD PUSH1 0x1 PUSH1 0x1 PUSH1 0xA0 SHL SUB NOT AND CALLER OR SWAP1 SSTORE PUSH1 0x1 SWAP2 DUP3 SWAP1 MSTORE SWAP1 SWAP2 KECCAK256 DUP1 SLOAD PUSH1 0xFF NOT AND DUP3 DUP1 MUL OR SWAP1 SSTORE POP PUSH1 0x40 MLOAD PUSH1 0x1 PUSH1 0x1 PUSH1 0xA0 SHL SUB DUP3 AND SWAP1 CALLVALUE DUP1 ISZERO PUSH2 0x8FC MUL SWAP2 PUSH1 0x0 DUP2 DUP2 DUP2 DUP6 DUP9 DUP9 CALL SWAP4 POP POP POP POP ISZERO DUP1 ISZERO PUSH2 0x96B JUMPI RETURNDATASIZE PUSH1 0x0 DUP1 RETURNDATACOPY RETURNDATASIZE PUSH1 0x0 REVERT JUMPDEST POP PUSH1 0x40 MLOAD CALLER SWAP1 PUSH1 0x1 PUSH1 0x1 PUSH1 0xA0 SHL SUB DUP4 AND SWAP1 PUSH32 0x2E0AA97EF0E6F4F76319861C90E91BEEC7A7A44A698CAB856DFC1985A0C588F0 SWAP1 PUSH1 0x0 SWAP1 LOG3 POP JUMP JUMPDEST PUSH1 0x0 PUSH1 0x2 PUSH2 0x3CA JUMP JUMPDEST PUSH1 0x0 PUSH1 0x2 PUSH1 0x1 PUSH1 0x1 PUSH1 0xA0 SHL SUB DUP4 AND PUSH1 0x0 SWAP1 DUP2 MSTORE PUSH1 0x1 PUSH1 0x20 MSTORE PUSH1 0x40 SWAP1 KECCAK256 SLOAD PUSH1 0xFF AND PUSH1 0x3 DUP2 GT ISZERO PUSH2 0x9D9 JUMPI INVALID JUMPDEST EQ PUSH2 0x9E5 JUMPI PUSH1 0x0 PUSH2 0xA01 JUMP JUMPDEST PUSH1 0x1 PUSH1 0x1 PUSH1 0xA0 SHL SUB DUP1 DUP4 AND PUSH1 0x0 SWAP1 DUP2 MSTORE PUSH1 0x20 DUP2 SWAP1 MSTORE PUSH1 0x40 SWAP1 KECCAK256 SLOAD AND JUMPDEST SWAP3 SWAP2 POP POP JUMP INVALID PUSH24 0x6F726B6572206E6F74206973206E6F7420696E2070656E64 PUSH10 0x6E67207374617465A264 PUSH10 0x70667358221220F97AE1 0xEC 0xEE PUSH4 0xBFE102F0 INVALID 0x24 SIGNEXTEND CALLER TIMESTAMP LOG4 PUSH29 0x2B40B0B0408356358D3CDE0591B1FE64736F6C63430007040033000000 "
    },
    "gasEstimates": {
      "creation": {
        "codeDepositCost": "531000",
        "executionCost": "562",
        "totalCost": "531562"
      },
      "external": {
        "acceptJob()": "infinite",
        "cancelHire(address)": "24512",
        "getOwner(address)": "2238",
        "getUser(address)": "1242",
        "hire(address)": "infinite",
        "isAvailable(address)": "1223",
        "isOwned(address)": "1299",
        "isPending(address)": "1233",
        "isRetired(address)": "1256",
        "rejectJob()": "infinite",
        "retire(address)": "24497"
      }
    },
    "methodIdentifiers": {
      "acceptJob()": "9b789b7e",
      "cancelHire(address)": "b64b3bed",
      "getOwner(address)": "fa544161",
      "getUser(address)": "6f77926b",
      "hire(address)": "d9d6bd86",
      "isAvailable(address)": "2896f60b",
      "isOwned(address)": "f4dc754b",
      "isPending(address)": "a00745b6",
      "isRetired(address)": "6d3c6275",
      "rejectJob()": "03d6e81e",
      "retire(address)": "9e6371ba"
    }
  },
  "storageLayout": {
    "storage": [
      {
        "astId": 895,
        "contract": "contracts/WorkerManagerImpl.sol:WorkerManagerImpl",
        "label": "userOf",
        "offset": 0,
        "slot": "0",
        "type": "t_mapping(t_address,t_address_payable)"
      },
      {
        "astId": 900,
        "contract": "contracts/WorkerManagerImpl.sol:WorkerManagerImpl",
        "label": "stateOf",
        "offset": 0,
        "slot": "1",
        "type": "t_mapping(t_address,t_enum(WorkerState)890)"
      }
    ],
    "types": {
      "t_address": {
        "encoding": "inplace",
        "label": "address",
        "numberOfBytes": "20"
      },
      "t_address_payable": {
        "encoding": "inplace",
        "label": "address payable",
        "numberOfBytes": "20"
      },
      "t_enum(WorkerState)890": {
        "encoding": "inplace",
        "label": "enum WorkerManagerImpl.WorkerState",
        "numberOfBytes": "1"
      },
      "t_mapping(t_address,t_address_payable)": {
        "encoding": "mapping",
        "key": "t_address",
        "label": "mapping(address => address payable)",
        "numberOfBytes": "32",
        "value": "t_address_payable"
      },
      "t_mapping(t_address,t_enum(WorkerState)890)": {
        "encoding": "mapping",
        "key": "t_address",
        "label": "mapping(address => enum WorkerManagerImpl.WorkerState)",
        "numberOfBytes": "32",
        "value": "t_enum(WorkerState)890"
      }
    }
  },
  "userdoc": {
    "events": {
      "JobOffer(address,address)": {
        "notice": "Events signalling every state transition"
      }
    },
    "kind": "user",
    "methods": {
      "acceptJob()": {
        "notice": "Called by the worker to accept the job"
      },
      "isAvailable(address)": {
        "notice": "Returns true if worker node is available"
      },
      "isPending(address)": {
        "notice": "Returns true if worker node is pending"
      },
      "rejectJob()": {
        "notice": "Called by the worker to reject a job offer"
      }
    },
    "version": 1
  }
}