{
  "contractName": "WorkerAuthManagerImpl",
  "sourceName": "contracts/WorkerAuthManagerImpl.sol",
  "abi": [
    {
      "inputs": [
        {
          "internalType": "address",
          "name": "_workerManager",
          "type": "address"
        }
      ],
      "stateMutability": "nonpayable",
      "type": "constructor"
    },
    {
      "anonymous": false,
      "inputs": [
        {
          "indexed": true,
          "internalType": "address",
          "name": "user",
          "type": "address"
        },
        {
          "indexed": true,
          "internalType": "address",
          "name": "worker",
          "type": "address"
        },
        {
          "indexed": true,
          "internalType": "address",
          "name": "dapp",
          "type": "address"
        }
      ],
      "name": "Authorization",
      "type": "event"
    },
    {
      "anonymous": false,
      "inputs": [
        {
          "indexed": true,
          "internalType": "address",
          "name": "user",
          "type": "address"
        },
        {
          "indexed": true,
          "internalType": "address",
          "name": "worker",
          "type": "address"
        },
        {
          "indexed": true,
          "internalType": "address",
          "name": "dapp",
          "type": "address"
        }
      ],
      "name": "Deauthorization",
      "type": "event"
    },
    {
      "inputs": [
        {
          "internalType": "address",
          "name": "_workerAddress",
          "type": "address"
        },
        {
          "internalType": "address",
          "name": "_dappAddress",
          "type": "address"
        }
      ],
      "name": "authorize",
      "outputs": [],
      "stateMutability": "nonpayable",
      "type": "function"
    },
    {
      "inputs": [
        {
          "internalType": "address",
          "name": "_workerAddress",
          "type": "address"
        },
        {
          "internalType": "address",
          "name": "_dappAddress",
          "type": "address"
        }
      ],
      "name": "deauthorize",
      "outputs": [],
      "stateMutability": "nonpayable",
      "type": "function"
    },
    {
      "inputs": [
        {
          "internalType": "address",
          "name": "_workerAddress",
          "type": "address"
        }
      ],
      "name": "getOwner",
      "outputs": [
        {
          "internalType": "address",
          "name": "",
          "type": "address"
        }
      ],
      "stateMutability": "view",
      "type": "function"
    },
    {
      "inputs": [
        {
          "internalType": "address",
          "name": "_workerAddress",
          "type": "address"
        },
        {
          "internalType": "address",
          "name": "_dappAddress",
          "type": "address"
        }
      ],
      "name": "isAuthorized",
      "outputs": [
        {
          "internalType": "bool",
          "name": "",
          "type": "bool"
        }
      ],
      "stateMutability": "view",
      "type": "function"
    }
  ],
  "bytecode": "0x608060405234801561001057600080fd5b5060405161067e38038061067e8339818101604052602081101561003357600080fd5b5051600080546001600160a01b039092166001600160a01b0319909216919091179055610619806100656000396000f3fe608060405234801561001057600080fd5b506004361061004c5760003560e01c80632bef45951461005157806365e4ad9e146100815780636d892f7e146100c3578063fa544161146100f1575b600080fd5b61007f6004803603604081101561006757600080fd5b506001600160a01b0381358116916020013516610133565b005b6100af6004803603604081101561009757600080fd5b506001600160a01b03813581169160200135166102d5565b604080519115158252519081900360200190f35b61007f600480360360408110156100d957600080fd5b506001600160a01b0381358116916020013516610379565b6101176004803603602081101561010757600080fd5b50356001600160a01b0316610512565b604080516001600160a01b039092168252519081900360200190f35b6000546040805163fa54416160e01b81526001600160a01b038086166004830152915185933393169163fa544161916024808301926020929190829003018186803b15801561018157600080fd5b505afa158015610195573d6000803e3d6000fd5b505050506040513d60208110156101ab57600080fd5b50516001600160a01b031614610208576040805162461bcd60e51b815260206004820152601a60248201527f776f726b6572206e6f742068697265642062792073656e646572000000000000604482015290519081900360640190fd5b6000610215338585610592565b60008181526001602052604090205490915060ff161561027c576040805162461bcd60e51b815260206004820152601760248201527f6461707020616c726561647920617574686f72697a6564000000000000000000604482015290519081900360640190fd5b6000818152600160208190526040808320805460ff1916909217909155516001600160a01b03808616929087169133917fde756a416a233cdb16c23a1fa5dcb3113164968df8607e0a4eeca25974b96e0391a450505050565b600080546040805163fa54416160e01b81526001600160a01b0386811660048301529151600193859361035e9391169163fa54416191602480820192602092909190829003018186803b15801561032b57600080fd5b505afa15801561033f573d6000803e3d6000fd5b505050506040513d602081101561035557600080fd5b50518686610592565b815260208101919091526040016000205460ff169392505050565b6000546040805163fa54416160e01b81526001600160a01b038086166004830152915185933393169163fa544161916024808301926020929190829003018186803b1580156103c757600080fd5b505afa1580156103db573d6000803e3d6000fd5b505050506040513d60208110156103f157600080fd5b50516001600160a01b03161461044e576040805162461bcd60e51b815260206004820152601a60248201527f776f726b6572206e6f742068697265642062792073656e646572000000000000604482015290519081900360640190fd5b600061045b338585610592565b60008181526001602081905260409091205491925060ff9091161515146104bf576040805162461bcd60e51b815260206004820152601360248201527219185c1c081b9bdd08185d5d1a1bdc9a5e9959606a1b604482015290519081900360640190fd5b600081815260016020526040808220805460ff19169055516001600160a01b03808616929087169133917f4d2275ddb8a6d9c36c95476c2eaf9746c1785b4ab76a99719fd647b36da46cee91a450505050565b600080546040805163fa54416160e01b81526001600160a01b0385811660048301529151919092169163fa544161916024808301926020929190829003018186803b15801561056057600080fd5b505afa158015610574573d6000803e3d6000fd5b505050506040513d602081101561058a57600080fd5b505192915050565b604080516bffffffffffffffffffffffff19606095861b811660208084019190915294861b811660348301529290941b90911660488401528051603c818503018152605c909301905281519101209056fea2646970667358221220a7e3d1b25df315fcc0bbc1574ae1ca7f1e01ed983152dc88c68b6b57975f476d64736f6c63430007040033",
  "linkReferences": {},
  "deployedLinkReferences": {},
  "devdoc": {
    "kind": "dev",
    "methods": {
      "authorize(address,address)": {
        "params": {
          "_dappAddress": "address of the dapp that permission will be given to",
          "_workerAddress": "address of the worker node to given permission"
        }
      },
      "isAuthorized(address,address)": {
        "params": {
          "_dappAddress": "address of the DApp",
          "_workerAddress": "address of the worker"
        }
      }
    },
    "stateVariables": {
      "permissions": {
        "details": "permissions keyed by hash(user, worker, dapp)"
      }
    },
    "version": 1
  },
  "evm": {
    "bytecode": {
      "linkReferences": {},
      "opcodes": "PUSH1 0x80 PUSH1 0x40 MSTORE CALLVALUE DUP1 ISZERO PUSH2 0x10 JUMPI PUSH1 0x0 DUP1 REVERT JUMPDEST POP PUSH1 0x40 MLOAD PUSH2 0x67E CODESIZE SUB DUP1 PUSH2 0x67E DUP4 CODECOPY DUP2 DUP2 ADD PUSH1 0x40 MSTORE PUSH1 0x20 DUP2 LT ISZERO PUSH2 0x33 JUMPI PUSH1 0x0 DUP1 REVERT JUMPDEST POP MLOAD PUSH1 0x0 DUP1 SLOAD PUSH1 0x1 PUSH1 0x1 PUSH1 0xA0 SHL SUB SWAP1 SWAP3 AND PUSH1 0x1 PUSH1 0x1 PUSH1 0xA0 SHL SUB NOT SWAP1 SWAP3 AND SWAP2 SWAP1 SWAP2 OR SWAP1 SSTORE PUSH2 0x619 DUP1 PUSH2 0x65 PUSH1 0x0 CODECOPY PUSH1 0x0 RETURN INVALID PUSH1 0x80 PUSH1 0x40 MSTORE CALLVALUE DUP1 ISZERO PUSH2 0x10 JUMPI PUSH1 0x0 DUP1 REVERT JUMPDEST POP PUSH1 0x4 CALLDATASIZE LT PUSH2 0x4C JUMPI PUSH1 0x0 CALLDATALOAD PUSH1 0xE0 SHR DUP1 PUSH4 0x2BEF4595 EQ PUSH2 0x51 JUMPI DUP1 PUSH4 0x65E4AD9E EQ PUSH2 0x81 JUMPI DUP1 PUSH4 0x6D892F7E EQ PUSH2 0xC3 JUMPI DUP1 PUSH4 0xFA544161 EQ PUSH2 0xF1 JUMPI JUMPDEST PUSH1 0x0 DUP1 REVERT JUMPDEST PUSH2 0x7F PUSH1 0x4 DUP1 CALLDATASIZE SUB PUSH1 0x40 DUP2 LT ISZERO PUSH2 0x67 JUMPI PUSH1 0x0 DUP1 REVERT JUMPDEST POP PUSH1 0x1 PUSH1 0x1 PUSH1 0xA0 SHL SUB DUP2 CALLDATALOAD DUP2 AND SWAP2 PUSH1 0x20 ADD CALLDATALOAD AND PUSH2 0x133 JUMP JUMPDEST STOP JUMPDEST PUSH2 0xAF PUSH1 0x4 DUP1 CALLDATASIZE SUB PUSH1 0x40 DUP2 LT ISZERO PUSH2 0x97 JUMPI PUSH1 0x0 DUP1 REVERT JUMPDEST POP PUSH1 0x1 PUSH1 0x1 PUSH1 0xA0 SHL SUB DUP2 CALLDATALOAD DUP2 AND SWAP2 PUSH1 0x20 ADD CALLDATALOAD AND PUSH2 0x2D5 JUMP JUMPDEST PUSH1 0x40 DUP1 MLOAD SWAP2 ISZERO ISZERO DUP3 MSTORE MLOAD SWAP1 DUP2 SWAP1 SUB PUSH1 0x20 ADD SWAP1 RETURN JUMPDEST PUSH2 0x7F PUSH1 0x4 DUP1 CALLDATASIZE SUB PUSH1 0x40 DUP2 LT ISZERO PUSH2 0xD9 JUMPI PUSH1 0x0 DUP1 REVERT JUMPDEST POP PUSH1 0x1 PUSH1 0x1 PUSH1 0xA0 SHL SUB DUP2 CALLDATALOAD DUP2 AND SWAP2 PUSH1 0x20 ADD CALLDATALOAD AND PUSH2 0x379 JUMP JUMPDEST PUSH2 0x117 PUSH1 0x4 DUP1 CALLDATASIZE SUB PUSH1 0x20 DUP2 LT ISZERO PUSH2 0x107 JUMPI PUSH1 0x0 DUP1 REVERT JUMPDEST POP CALLDATALOAD PUSH1 0x1 PUSH1 0x1 PUSH1 0xA0 SHL SUB AND PUSH2 0x512 JUMP JUMPDEST PUSH1 0x40 DUP1 MLOAD PUSH1 0x1 PUSH1 0x1 PUSH1 0xA0 SHL SUB SWAP1 SWAP3 AND DUP3 MSTORE MLOAD SWAP1 DUP2 SWAP1 SUB PUSH1 0x20 ADD SWAP1 RETURN JUMPDEST PUSH1 0x0 SLOAD PUSH1 0x40 DUP1 MLOAD PUSH4 0xFA544161 PUSH1 0xE0 SHL DUP2 MSTORE PUSH1 0x1 PUSH1 0x1 PUSH1 0xA0 SHL SUB DUP1 DUP7 AND PUSH1 0x4 DUP4 ADD MSTORE SWAP2 MLOAD DUP6 SWAP4 CALLER SWAP4 AND SWAP2 PUSH4 0xFA544161 SWAP2 PUSH1 0x24 DUP1 DUP4 ADD SWAP3 PUSH1 0x20 SWAP3 SWAP2 SWAP1 DUP3 SWAP1 SUB ADD DUP2 DUP7 DUP1 EXTCODESIZE ISZERO DUP1 ISZERO PUSH2 0x181 JUMPI PUSH1 0x0 DUP1 REVERT JUMPDEST POP GAS STATICCALL ISZERO DUP1 ISZERO PUSH2 0x195 JUMPI RETURNDATASIZE PUSH1 0x0 DUP1 RETURNDATACOPY RETURNDATASIZE PUSH1 0x0 REVERT JUMPDEST POP POP POP POP PUSH1 0x40 MLOAD RETURNDATASIZE PUSH1 0x20 DUP2 LT ISZERO PUSH2 0x1AB JUMPI PUSH1 0x0 DUP1 REVERT JUMPDEST POP MLOAD PUSH1 0x1 PUSH1 0x1 PUSH1 0xA0 SHL SUB AND EQ PUSH2 0x208 JUMPI PUSH1 0x40 DUP1 MLOAD PUSH3 0x461BCD PUSH1 0xE5 SHL DUP2 MSTORE PUSH1 0x20 PUSH1 0x4 DUP3 ADD MSTORE PUSH1 0x1A PUSH1 0x24 DUP3 ADD MSTORE PUSH32 0x776F726B6572206E6F742068697265642062792073656E646572000000000000 PUSH1 0x44 DUP3 ADD MSTORE SWAP1 MLOAD SWAP1 DUP2 SWAP1 SUB PUSH1 0x64 ADD SWAP1 REVERT JUMPDEST PUSH1 0x0 PUSH2 0x215 CALLER DUP6 DUP6 PUSH2 0x592 JUMP JUMPDEST PUSH1 0x0 DUP2 DUP2 MSTORE PUSH1 0x1 PUSH1 0x20 MSTORE PUSH1 0x40 SWAP1 KECCAK256 SLOAD SWAP1 SWAP2 POP PUSH1 0xFF AND ISZERO PUSH2 0x27C JUMPI PUSH1 0x40 DUP1 MLOAD PUSH3 0x461BCD PUSH1 0xE5 SHL DUP2 MSTORE PUSH1 0x20 PUSH1 0x4 DUP3 ADD MSTORE PUSH1 0x17 PUSH1 0x24 DUP3 ADD MSTORE PUSH32 0x6461707020616C726561647920617574686F72697A6564000000000000000000 PUSH1 0x44 DUP3 ADD MSTORE SWAP1 MLOAD SWAP1 DUP2 SWAP1 SUB PUSH1 0x64 ADD SWAP1 REVERT JUMPDEST PUSH1 0x0 DUP2 DUP2 MSTORE PUSH1 0x1 PUSH1 0x20 DUP2 SWAP1 MSTORE PUSH1 0x40 DUP1 DUP4 KECCAK256 DUP1 SLOAD PUSH1 0xFF NOT AND SWAP1 SWAP3 OR SWAP1 SWAP2 SSTORE MLOAD PUSH1 0x1 PUSH1 0x1 PUSH1 0xA0 SHL SUB DUP1 DUP7 AND SWAP3 SWAP1 DUP8 AND SWAP2 CALLER SWAP2 PUSH32 0xDE756A416A233CDB16C23A1FA5DCB3113164968DF8607E0A4EECA25974B96E03 SWAP2 LOG4 POP POP POP POP JUMP JUMPDEST PUSH1 0x0 DUP1 SLOAD PUSH1 0x40 DUP1 MLOAD PUSH4 0xFA544161 PUSH1 0xE0 SHL DUP2 MSTORE PUSH1 0x1 PUSH1 0x1 PUSH1 0xA0 SHL SUB DUP7 DUP2 AND PUSH1 0x4 DUP4 ADD MSTORE SWAP2 MLOAD PUSH1 0x1 SWAP4 DUP6 SWAP4 PUSH2 0x35E SWAP4 SWAP2 AND SWAP2 PUSH4 0xFA544161 SWAP2 PUSH1 0x24 DUP1 DUP3 ADD SWAP3 PUSH1 0x20 SWAP3 SWAP1 SWAP2 SWAP1 DUP3 SWAP1 SUB ADD DUP2 DUP7 DUP1 EXTCODESIZE ISZERO DUP1 ISZERO PUSH2 0x32B JUMPI PUSH1 0x0 DUP1 REVERT JUMPDEST POP GAS STATICCALL ISZERO DUP1 ISZERO PUSH2 0x33F JUMPI RETURNDATASIZE PUSH1 0x0 DUP1 RETURNDATACOPY RETURNDATASIZE PUSH1 0x0 REVERT JUMPDEST POP POP POP POP PUSH1 0x40 MLOAD RETURNDATASIZE PUSH1 0x20 DUP2 LT ISZERO PUSH2 0x355 JUMPI PUSH1 0x0 DUP1 REVERT JUMPDEST POP MLOAD DUP7 DUP7 PUSH2 0x592 JUMP JUMPDEST DUP2 MSTORE PUSH1 0x20 DUP2 ADD SWAP2 SWAP1 SWAP2 MSTORE PUSH1 0x40 ADD PUSH1 0x0 KECCAK256 SLOAD PUSH1 0xFF AND SWAP4 SWAP3 POP POP POP JUMP JUMPDEST PUSH1 0x0 SLOAD PUSH1 0x40 DUP1 MLOAD PUSH4 0xFA544161 PUSH1 0xE0 SHL DUP2 MSTORE PUSH1 0x1 PUSH1 0x1 PUSH1 0xA0 SHL SUB DUP1 DUP7 AND PUSH1 0x4 DUP4 ADD MSTORE SWAP2 MLOAD DUP6 SWAP4 CALLER SWAP4 AND SWAP2 PUSH4 0xFA544161 SWAP2 PUSH1 0x24 DUP1 DUP4 ADD SWAP3 PUSH1 0x20 SWAP3 SWAP2 SWAP1 DUP3 SWAP1 SUB ADD DUP2 DUP7 DUP1 EXTCODESIZE ISZERO DUP1 ISZERO PUSH2 0x3C7 JUMPI PUSH1 0x0 DUP1 REVERT JUMPDEST POP GAS STATICCALL ISZERO DUP1 ISZERO PUSH2 0x3DB JUMPI RETURNDATASIZE PUSH1 0x0 DUP1 RETURNDATACOPY RETURNDATASIZE PUSH1 0x0 REVERT JUMPDEST POP POP POP POP PUSH1 0x40 MLOAD RETURNDATASIZE PUSH1 0x20 DUP2 LT ISZERO PUSH2 0x3F1 JUMPI PUSH1 0x0 DUP1 REVERT JUMPDEST POP MLOAD PUSH1 0x1 PUSH1 0x1 PUSH1 0xA0 SHL SUB AND EQ PUSH2 0x44E JUMPI PUSH1 0x40 DUP1 MLOAD PUSH3 0x461BCD PUSH1 0xE5 SHL DUP2 MSTORE PUSH1 0x20 PUSH1 0x4 DUP3 ADD MSTORE PUSH1 0x1A PUSH1 0x24 DUP3 ADD MSTORE PUSH32 0x776F726B6572206E6F742068697265642062792073656E646572000000000000 PUSH1 0x44 DUP3 ADD MSTORE SWAP1 MLOAD SWAP1 DUP2 SWAP1 SUB PUSH1 0x64 ADD SWAP1 REVERT JUMPDEST PUSH1 0x0 PUSH2 0x45B CALLER DUP6 DUP6 PUSH2 0x592 JUMP JUMPDEST PUSH1 0x0 DUP2 DUP2 MSTORE PUSH1 0x1 PUSH1 0x20 DUP2 SWAP1 MSTORE PUSH1 0x40 SWAP1 SWAP2 KECCAK256 SLOAD SWAP2 SWAP3 POP PUSH1 0xFF SWAP1 SWAP2 AND ISZERO ISZERO EQ PUSH2 0x4BF JUMPI PUSH1 0x40 DUP1 MLOAD PUSH3 0x461BCD PUSH1 0xE5 SHL DUP2 MSTORE PUSH1 0x20 PUSH1 0x4 DUP3 ADD MSTORE PUSH1 0x13 PUSH1 0x24 DUP3 ADD MSTORE PUSH19 0x19185C1C081B9BDD08185D5D1A1BDC9A5E9959 PUSH1 0x6A SHL PUSH1 0x44 DUP3 ADD MSTORE SWAP1 MLOAD SWAP1 DUP2 SWAP1 SUB PUSH1 0x64 ADD SWAP1 REVERT JUMPDEST PUSH1 0x0 DUP2 DUP2 MSTORE PUSH1 0x1 PUSH1 0x20 MSTORE PUSH1 0x40 DUP1 DUP3 KECCAK256 DUP1 SLOAD PUSH1 0xFF NOT AND SWAP1 SSTORE MLOAD PUSH1 0x1 PUSH1 0x1 PUSH1 0xA0 SHL SUB DUP1 DUP7 AND SWAP3 SWAP1 DUP8 AND SWAP2 CALLER SWAP2 PUSH32 0x4D2275DDB8A6D9C36C95476C2EAF9746C1785B4AB76A99719FD647B36DA46CEE SWAP2 LOG4 POP POP POP POP JUMP JUMPDEST PUSH1 0x0 DUP1 SLOAD PUSH1 0x40 DUP1 MLOAD PUSH4 0xFA544161 PUSH1 0xE0 SHL DUP2 MSTORE PUSH1 0x1 PUSH1 0x1 PUSH1 0xA0 SHL SUB DUP6 DUP2 AND PUSH1 0x4 DUP4 ADD MSTORE SWAP2 MLOAD SWAP2 SWAP1 SWAP3 AND SWAP2 PUSH4 0xFA544161 SWAP2 PUSH1 0x24 DUP1 DUP4 ADD SWAP3 PUSH1 0x20 SWAP3 SWAP2 SWAP1 DUP3 SWAP1 SUB ADD DUP2 DUP7 DUP1 EXTCODESIZE ISZERO DUP1 ISZERO PUSH2 0x560 JUMPI PUSH1 0x0 DUP1 REVERT JUMPDEST POP GAS STATICCALL ISZERO DUP1 ISZERO PUSH2 0x574 JUMPI RETURNDATASIZE PUSH1 0x0 DUP1 RETURNDATACOPY RETURNDATASIZE PUSH1 0x0 REVERT JUMPDEST POP POP POP POP PUSH1 0x40 MLOAD RETURNDATASIZE PUSH1 0x20 DUP2 LT ISZERO PUSH2 0x58A JUMPI PUSH1 0x0 DUP1 REVERT JUMPDEST POP MLOAD SWAP3 SWAP2 POP POP JUMP JUMPDEST PUSH1 0x40 DUP1 MLOAD PUSH12 0xFFFFFFFFFFFFFFFFFFFFFFFF NOT PUSH1 0x60 SWAP6 DUP7 SHL DUP2 AND PUSH1 0x20 DUP1 DUP5 ADD SWAP2 SWAP1 SWAP2 MSTORE SWAP5 DUP7 SHL DUP2 AND PUSH1 0x34 DUP4 ADD MSTORE SWAP3 SWAP1 SWAP5 SHL SWAP1 SWAP2 AND PUSH1 0x48 DUP5 ADD MSTORE DUP1 MLOAD PUSH1 0x3C DUP2 DUP6 SUB ADD DUP2 MSTORE PUSH1 0x5C SWAP1 SWAP4 ADD SWAP1 MSTORE DUP2 MLOAD SWAP2 ADD KECCAK256 SWAP1 JUMP INVALID LOG2 PUSH5 0x6970667358 0x22 SLT KECCAK256 0xA7 0xE3 0xD1 0xB2 0x5D RETURN ISZERO 0xFC 0xC0 0xBB 0xC1 JUMPI 0x4A 0xE1 0xCA PUSH32 0x1E01ED983152DC88C68B6B57975F476D64736F6C634300070400330000000000 "
    },
    "gasEstimates": {
      "creation": {
        "codeDepositCost": "312200",
        "executionCost": "infinite",
        "totalCost": "infinite"
      },
      "external": {
        "authorize(address,address)": "infinite",
        "deauthorize(address,address)": "infinite",
        "getOwner(address)": "infinite",
        "isAuthorized(address,address)": "infinite"
      },
      "internal": {
        "getAuthorizationKey(address,address,address)": "infinite"
      }
    },
    "methodIdentifiers": {
      "authorize(address,address)": "2bef4595",
      "deauthorize(address,address)": "6d892f7e",
      "getOwner(address)": "fa544161",
      "isAuthorized(address,address)": "65e4ad9e"
    }
  },
  "storageLayout": {
    "storage": [
      {
        "astId": 62,
        "contract": "contracts/WorkerAuthManagerImpl.sol:WorkerAuthManagerImpl",
        "label": "workerManager",
        "offset": 0,
        "slot": "0",
        "type": "t_contract(WorkerManager)342"
      },
      {
        "astId": 67,
        "contract": "contracts/WorkerAuthManagerImpl.sol:WorkerAuthManagerImpl",
        "label": "permissions",
        "offset": 0,
        "slot": "1",
        "type": "t_mapping(t_bytes32,t_bool)"
      }
    ],
    "types": {
      "t_bool": {
        "encoding": "inplace",
        "label": "bool",
        "numberOfBytes": "1"
      },
      "t_bytes32": {
        "encoding": "inplace",
        "label": "bytes32",
        "numberOfBytes": "32"
      },
      "t_contract(WorkerManager)342": {
        "encoding": "inplace",
        "label": "contract WorkerManager",
        "numberOfBytes": "20"
      },
      "t_mapping(t_bytes32,t_bool)": {
        "encoding": "mapping",
        "key": "t_bytes32",
        "label": "mapping(bytes32 => bool)",
        "numberOfBytes": "32",
        "value": "t_bool"
      }
    }
  },
  "userdoc": {
    "events": {
      "Authorization(address,address,address)": {
        "notice": "A DApp has been authorized by a user for a worker"
      },
      "Deauthorization(address,address,address)": {
        "notice": "A DApp has been deauthorized by a user for a worker"
      }
    },
    "kind": "user",
    "methods": {
      "authorize(address,address)": {
        "notice": "Gives worker permission to act on a DApp"
      },
      "isAuthorized(address,address)": {
        "notice": "Returns is the dapp is authorized to be called by that worker"
      }
    },
    "version": 1
  }
}