{
  "address": "0xB655fafF2C7d47C4c37C11aC607059b120d54147",
  "abi": [
    {
      "inputs": [
        {
          "internalType": "int32",
          "name": "number",
          "type": "int32"
        },
        {
          "internalType": "uint32",
          "name": "wordSize",
          "type": "uint32"
        }
      ],
      "name": "int32SignExtension",
      "outputs": [
        {
          "internalType": "int32",
          "name": "",
          "type": "int32"
        }
      ],
      "stateMutability": "pure",
      "type": "function"
    },
    {
      "inputs": [
        {
          "internalType": "uint32",
          "name": "num",
          "type": "uint32"
        }
      ],
      "name": "uint32SwapEndian",
      "outputs": [
        {
          "internalType": "uint32",
          "name": "",
          "type": "uint32"
        }
      ],
      "stateMutability": "pure",
      "type": "function"
    },
    {
      "inputs": [
        {
          "internalType": "uint64",
          "name": "number",
          "type": "uint64"
        },
        {
          "internalType": "uint64",
          "name": "wordSize",
          "type": "uint64"
        }
      ],
      "name": "uint64SignExtension",
      "outputs": [
        {
          "internalType": "uint64",
          "name": "",
          "type": "uint64"
        }
      ],
      "stateMutability": "pure",
      "type": "function"
    },
    {
      "inputs": [
        {
          "internalType": "uint64",
          "name": "num",
          "type": "uint64"
        }
      ],
      "name": "uint64SwapEndian",
      "outputs": [
        {
          "internalType": "uint64",
          "name": "",
          "type": "uint64"
        }
      ],
      "stateMutability": "pure",
      "type": "function"
    }
  ],
  "transactionHash": "0x986c609749d56e96541ec9a23ffcd5674f7647d2252a9625dd9b19b8a8025c1a",
  "args": [],
  "solcInputHash": "a90be13359a9fbe9671aea54a4ec33bb",
  "bytecode": "0x6104e861003a600b82828239805160001a60731461002d57634e487b7160e01b600052600060045260246000fd5b30600052607381538281f3fe73000000000000000000000000000000000000000030146080604052600436106100565760003560e01c8063240034ec1461005b578063bf1924c514610088578063ef7c794914610128578063f69c389b1461013b575b600080fd5b61006e6100693660046102b8565b610161565b60405163ffffffff90911681526020015b60405180910390f35b61010f6100963660046102d9565b603881811b67ff0000000000000016602883811b66ff0000000000001691909117601884811b65ff00000000001691909117600885811b64ff00000000169190911763ff0000009186901c919091161762ff00009185901c919091161761ff009184901c919091161760ff9183901c9190911617919050565b60405167ffffffffffffffff909116815260200161007f565b61010f6101363660046102f3565b610194565b61014e61014936600461027f565b6101ff565b60405160039190910b815260200161007f565b601881811b63ff00000016600883811c61ff00169084901b62ff0000169284901c60ff169290921791909117175b919050565b6000828180826101a560018761047f565b67ffffffffffffffff16600167ffffffffffffffff16901b1667ffffffffffffffff16119050600060018560026101dc9190610380565b6101e6919061047f565b905081156101f5578019831792505b5090949350505050565b600082818063ffffffff831661021660018761045a565b63ffffffff16600167ffffffffffffffff16901b1667ffffffffffffffff16119050600060018560026102499190610362565b6101e6919061045a565b803563ffffffff8116811461018f57600080fd5b803567ffffffffffffffff8116811461018f57600080fd5b60008060408385031215610291578182fd5b82358060030b81146102a1578283fd5b91506102af60208401610253565b90509250929050565b6000602082840312156102c9578081fd5b6102d282610253565b9392505050565b6000602082840312156102ea578081fd5b6102d282610267565b60008060408385031215610305578182fd5b61030e83610267565b91506102af60208401610267565b80825b600180861161032e5750610359565b8187048211156103405761034061049c565b8086161561034d57918102915b9490941c93800261031f565b94509492505050565b600063ffffffff61037881828616838616610396565b949350505050565b600067ffffffffffffffff610378818286168386165b6000826103a5575060016102d2565b816103b2575060006102d2565b81600181146103c857600281146103d2576103ff565b60019150506102d2565b60ff8411156103e3576103e361049c565b6001841b9150848211156103f9576103f961049c565b506102d2565b5060208310610133831016604e8410600b8410161715610432575081810a8381111561042d5761042d61049c565b6102d2565b61043f848484600161031c565b8086048211156104515761045161049c565b02949350505050565b600063ffffffff838116908316818110156104775761047761049c565b039392505050565b600067ffffffffffffffff83811690831681811015610477576104775b634e487b7160e01b600052601160045260246000fdfea26469706673582212204f095aefa9b14fd76ecbd06f672278306c8c8357ab7ce1e6394adfda13b55d6364736f6c63430008030033",
  "devdoc": {
    "author": "Felipe Argento / Stephen Chen",
    "kind": "dev",
    "methods": {
      "int32SignExtension(int32,uint32)": {
        "params": {
          "number": "signed number to be extended",
          "wordSize": "number of bits of the signed number, ie, 8 for int8"
        }
      },
      "uint32SwapEndian(uint32)": {
        "params": {
          "num": "number to have bytes swapped"
        }
      },
      "uint64SignExtension(uint64,uint64)": {
        "params": {
          "number": "signed number to be extended",
          "wordSize": "number of bits of the signed number, ie, 8 for int8"
        }
      },
      "uint64SwapEndian(uint64)": {
        "params": {
          "num": "number to have bytes swapped"
        }
      }
    },
    "title": "Bits Manipulation Library",
    "version": 1
  },
  "userdoc": {
    "kind": "user",
    "methods": {
      "int32SignExtension(int32,uint32)": {
        "notice": "Sign extend a shorter signed value to the full int32"
      },
      "uint32SwapEndian(uint32)": {
        "notice": "Swap byte order of unsigned ints with 32 bytes"
      },
      "uint64SignExtension(uint64,uint64)": {
        "notice": "Sign extend a shorter signed value to the full uint64"
      },
      "uint64SwapEndian(uint64)": {
        "notice": "Swap byte order of unsigned ints with 64 bytes"
      }
    },
    "notice": "Implements bit manipulation helper functions",
    "version": 1
  },
  "storageLayout": {
    "storage": [],
    "types": null
  }
}