{
  "address": "0x3F8FdcD1B0F421D817BF58C96b7C91B98100B450",
  "abi": [
    {
      "inputs": [
        {
          "internalType": "uint256",
          "name": "val",
          "type": "uint256"
        }
      ],
      "name": "log2Times1e18",
      "outputs": [
        {
          "internalType": "uint256",
          "name": "",
          "type": "uint256"
        }
      ],
      "stateMutability": "pure",
      "type": "function"
    }
  ],
  "transactionHash": "0xebfd74b354d796c8aeacc3957fe47271b4ffd53fcdba3a53ae611a5f804a1e62",
  "args": [],
  "numDeployments": 2,
  "solcInputHash": "18c7b3fb984a9ee861b83d1058d152f0",
  "bytecode": "0x61062c61003a600b82828239805160001a60731461002d57634e487b7160e01b600052600060045260246000fd5b30600052607381538281f3fe73000000000000000000000000000000000000000030146080604052600436106100355760003560e01c8063c370ed091461003a575b600080fd5b61004d6100483660046105dd565b61005f565b60405190815260200160405180910390f35b60008061006b836100ca565b9050600060ff826001011361009b5761008c8260010160ff0385901b610131565b6001830160401b0390506100b6565b6100ab60fd19830185901c610131565b6001830160401b0390505b670de0b6b3a76400000260401c9392505050565b600080821161011f5760405162461bcd60e51b815260206004820152601960248201527f6d7573742062652067726561746572207468616e207a65726f00000000000000604482015260640160405180910390fd5b610128826104f9565b60ff0392915050565b600080600183901c8301600160ff1b8110156101585792506704ae00d1cfdeb43d60c41b01825b50600283901c8301600160ff1b81101561017d579250672934f0979a3715fd60c01b01825b50600383901c8301600160ff1b8110156101a157925066ae00d1cfdeb43d60c51b01825b50600483901c8301600160ff1b8110156101c6579250670598fdbeb244c59f60c11b01825b50600583901c8301600160ff1b8110156101eb57925067016bad3758efd87360c21b01825b50600683901c8301600160ff1b8110156102105792506702dcf2d0b85a453160c01b01825b50600783901c8301600160ff1b811015610234579250662dfca16dde10a360c31b01825b50600883901c8301600160ff1b811015610258579250665c2711b5eab1dd60c11b01825b50600983901c8301600160ff1b81101561027c579250665c3e0ffc29d59360c01b01825b50600a83901c8301600160ff1b8110156102a05792506605c4994dd0fd1560c31b01825b50600b83901c8301600160ff1b8110156102c4579250661713d62f7957c360c01b01825b50600c83901c8301600160ff1b8110156102e85792506602e291d85437f960c21b01825b50600d83901c8301600160ff1b81101561030c5792506605c53ac47e94d960c01b01825b50600e83901c8301600160ff1b81101561032f57925065b8a8c9d8be9b60c21b01825b50600f83901c8301600160ff1b8110156103535792506601715305002e4b60c01b01825b50601083901c8301600160ff1b81101561037657925065b8a9ded47c1160c01b01825b50601183901c8301600160ff1b811015610399579250655c55067f6e5960c01b01825b50601283901c8301600160ff1b8110156103bc579250652e2a8905062360c01b01825b50601383901c8301600160ff1b8110156103df57925065171545f3d72b60c01b01825b50601483901c8301600160ff1b811015610402579250650171546ac81560c31b01825b50601583901c8301600160ff1b8110156104255792506502e2a8e11acd60c11b01825b50601683901c8301600160ff1b8110156104485792506502e2a8e6e01f60c01b01825b50601783901c8301600160ff1b81101561046a579250645c551d385960c21b01825b50601883901c8301600160ff1b81101561048c57925064b8aa3acd0760c01b01825b600084600160ff1b03905060016104e87fb8aa3b295c17f0bbbe87fed0691d3e88eb577aa8dd695a588b25166cd1a1324860016104da85600187901c600160ff1b01608090811c91901c0290565b901b608090811c91901c0290565b901b9290920160bf1c949350505050565b60008160000361050c5750610100919050565b6000826fffffffffffffffffffffffffffffffff191660000361053157608092831b92015b826001600160c01b03191660000361054b57604092831b92015b826001600160e01b03191660000361056557602092831b92015b826001600160f01b03191660000361057f57601092831b92015b826001600160f81b03191660000361059957600892831b92015b82600f60fc1b166000036105af57600492831b92015b82600360fe1b166000036105c557600292831b92015b82600160ff1b166000036105d7576001015b92915050565b6000602082840312156105ef57600080fd5b503591905056fea2646970667358221220bdca551f20b7016a01ee86891c71e6ad830c04ffad3399a2087b9faacd91288064736f6c63430008140033",
  "devdoc": {
    "kind": "dev",
    "methods": {},
    "version": 1
  },
  "userdoc": {
    "kind": "user",
    "methods": {},
    "version": 1
  },
  "storageLayout": {
    "storage": [],
    "types": null
  }
}