{
  "address": "0xE664Ac61a0cE14F04f7C5b8d201907D80bBBb7B4",
  "abi": [
    {
      "inputs": [
        {
          "internalType": "uint256",
          "name": "_num",
          "type": "uint256"
        }
      ],
      "name": "clz",
      "outputs": [
        {
          "internalType": "uint256",
          "name": "",
          "type": "uint256"
        }
      ],
      "stateMutability": "pure",
      "type": "function"
    },
    {
      "inputs": [
        {
          "internalType": "uint256",
          "name": "_num",
          "type": "uint256"
        }
      ],
      "name": "ctz",
      "outputs": [
        {
          "internalType": "uint256",
          "name": "",
          "type": "uint256"
        }
      ],
      "stateMutability": "pure",
      "type": "function"
    },
    {
      "inputs": [
        {
          "internalType": "uint256",
          "name": "_num",
          "type": "uint256"
        }
      ],
      "name": "getLog2Floor",
      "outputs": [
        {
          "internalType": "uint8",
          "name": "",
          "type": "uint8"
        }
      ],
      "stateMutability": "pure",
      "type": "function"
    },
    {
      "inputs": [
        {
          "internalType": "uint256",
          "name": "_num",
          "type": "uint256"
        }
      ],
      "name": "getLog2TableTimes1M",
      "outputs": [
        {
          "internalType": "uint256",
          "name": "",
          "type": "uint256"
        }
      ],
      "stateMutability": "pure",
      "type": "function"
    },
    {
      "inputs": [
        {
          "internalType": "uint256",
          "name": "_num",
          "type": "uint256"
        }
      ],
      "name": "isPowerOf2",
      "outputs": [
        {
          "internalType": "bool",
          "name": "",
          "type": "bool"
        }
      ],
      "stateMutability": "pure",
      "type": "function"
    },
    {
      "inputs": [
        {
          "internalType": "uint256",
          "name": "_num",
          "type": "uint256"
        }
      ],
      "name": "log2ApproxTimes1M",
      "outputs": [
        {
          "internalType": "uint256",
          "name": "",
          "type": "uint256"
        }
      ],
      "stateMutability": "pure",
      "type": "function"
    }
  ],
  "transactionHash": "0xf846fea0e1313ad0d28c0b9a412c689e867c187df9600849558b5f939d4b57ab",
  "args": [],
  "solcInputHash": "56083d6a911340537af81b340b5f270d",
  "bytecode": "0x6107d061003a600b82828239805160001a60731461002d57634e487b7160e01b600052600060045260246000fd5b30600052607381538281f3fe730000000000000000000000000000000000000000301460806040526004361061006c5760003560e01c806306c8e54b14610071578063296e7af81461009b57806330244f7a146100bc57806332ef283b146100cf578063d82ae4b1146100e2578063e3581b6814610105575b600080fd5b61008461007f366004610555565b610118565b60405160ff90911681526020015b60405180910390f35b6100ae6100a9366004610555565b610188565b604051908152602001610092565b6100ae6100ca366004610555565b610299565b6100ae6100dd366004610555565b6103be565b6100f56100f0366004610555565b61047d565b6040519015158152602001610092565b6100ae610113366004610555565b6104a0565b60008161016c5760405162461bcd60e51b815260206004820152601860248201527f6c6f67206f66207a65726f20697320756e646566696e6564000000000000000060448201526064015b60405180910390fd5b61017582610299565b6101809060ff6105cd565b90505b919050565b6000816101985750610100610183565b60006fffffffffffffffffffffffffffffffff83166101c6576101bc81608061056d565b9050608083901c92505b67ffffffffffffffff83166101ea576101e081604061056d565b9050604083901c92505b63ffffffff831661020a5761020081602061056d565b9050602083901c92505b61ffff83166102285761021e81601061056d565b9050601083901c92505b60ff83166102455761023b81600861056d565b9050600883901c92505b600f83166102625761025881600461056d565b9050600483901c92505b6003831661027f5761027581600261056d565b9050600283901c92505b600183166101805761029281600161056d565b9392505050565b6000816102a95750610100610183565b60006fffffffffffffffffffffffffffffffff1983166102d8576102ce81608061056d565b9050608083901b92505b6001600160c01b031983166102fc576102f281604061056d565b9050604083901b92505b6001600160e01b031983166103205761031681602061056d565b9050602083901b92505b6001600160f01b031983166103445761033a81601061056d565b9050601083901b92505b6001600160f81b031983166103685761035e81600861056d565b9050600883901b92505b600f60fc1b83166103885761037e81600461056d565b9050600483901b92505b600360fe1b83166103a85761039e81600261056d565b9050600283901b92505b600160ff1b83166101805761029281600161056d565b600080805b60038160ff161015610473576000604051806101a00160405280610180815260200161061b610180913960ff83166103fc6001886105cd565b610407906003610585565b610411919061056d565b8151811061042f57634e487b7160e01b600052603260045260246000fd5b01602001516001600160f81b031916905061044b8260086105a4565b60ff16816001600160e81b031916901c8317925050808061046b906105e4565b9150506103c3565b5060e81c92915050565b60008161048c57506000610183565b6104976001836105cd565b90911615919050565b60008082116104e95760405162461bcd60e51b81526020600482015260156024820152744e756d6265722063616e6e6f74206265207a65726f60581b6044820152606401610163565b600082600114156104fe576000915050610183565b608083111561051e57600192831c92610517908261056d565b90506104fe565b61029261052a846103be565b61053783620f424061053d565b90610549565b60006102928284610585565b6000610292828461056d565b600060208284031215610566578081fd5b5035919050565b6000821982111561058057610580610604565b500190565b600081600019048311821515161561059f5761059f610604565b500290565b600060ff821660ff84168160ff04811182151516156105c5576105c5610604565b029392505050565b6000828210156105df576105df610604565b500390565b600060ff821660ff8114156105fb576105fb610604565b60010192915050565b634e487b7160e01b600052601160045260246000fdfe0000000f4240182f421e8480236e082771822ad63a2dc6c0305e8532b04834c96736b3c23876d73a187a3b9d4a3d09003e5ea63fa0c540d17741f28843057d440ba745062945f60246dc1047b917488dc7495aba4a207c4adf8a4b98544c4b404cf8aa4da0e64e44434ee3054f7d6d5013b750a61a5134c851bff05247bd52cc58534de753cc8d54486954c19c55384255ac75561e50568de956fb575766b057d00758376f589cfa5900ba5962bc59c3135a21ca5a7ef15ada945b34bf5b8d805be4df5c3aea5c8fa95ce3265d356c5d86835dd6735e25455e73005ebfad5f0b525f55f75f9fa25fe85a60302460770860bd0a61023061467f6189fd61ccae620e98624fbf62902762cfd5630ecd634d12638aa963c7966403dc643f7f647a8264b4e864eeb56527ec6560906598a365d029660724663d9766738566a8f066ddda6712476746386779af67acaf67df3a6811526842fa68743268a4fc68d55c6905536934e169640a6992cf69c13169ef326a1cd46a4a186a76ff6aa38c6acfc0a2646970667358221220c2051546900b2098550cd3b4293f9ffda28b55dd9fd9188f3e3766b8ac12eb1564736f6c63430008030033",
  "devdoc": {
    "kind": "dev",
    "methods": {
      "clz(uint256)": {
        "details": "this a binary search implementation",
        "params": {
          "_num": "number you want the clz of"
        }
      },
      "ctz(uint256)": {
        "details": "this a binary search implementation",
        "params": {
          "_num": "number you want the ctz of"
        }
      },
      "getLog2Floor(uint256)": {
        "params": {
          "_num": "number to take floor(log2) of"
        },
        "returns": {
          "_0": "floor(log2) of _num"
        }
      },
      "getLog2TableTimes1M(uint256)": {
        "params": {
          "_num": "number to take log2 of"
        },
        "returns": {
          "_0": "result after table look-up"
        }
      },
      "isPowerOf2(uint256)": {
        "params": {
          "_num": "number to check"
        },
        "returns": {
          "_0": "true if number is power of 2, false if not"
        }
      },
      "log2ApproxTimes1M(uint256)": {
        "params": {
          "_num": "number to take log2 * 1M of"
        },
        "returns": {
          "_0": "approximate log2 times 1M"
        }
      }
    },
    "version": 1
  },
  "userdoc": {
    "kind": "user",
    "methods": {
      "clz(uint256)": {
        "notice": "count leading zeros"
      },
      "ctz(uint256)": {
        "notice": "count trailing zeros"
      },
      "getLog2Floor(uint256)": {
        "notice": "get floor of log2 of number"
      },
      "getLog2TableTimes1M(uint256)": {
        "notice": "navigates log2tableTimes1M"
      },
      "isPowerOf2(uint256)": {
        "notice": "checks if a number is Power of 2"
      },
      "log2ApproxTimes1M(uint256)": {
        "notice": "Approximates log2 * 1M"
      }
    },
    "version": 1
  },
  "storageLayout": {
    "storage": [],
    "types": null
  }
}