{
  "address": "0xE63257c74E4c64936A047278425768b304b975bB",
  "abi": [
    {
      "inputs": [],
      "stateMutability": "nonpayable",
      "type": "constructor"
    },
    {
      "inputs": [
        {
          "internalType": "uint256",
          "name": "_num",
          "type": "uint256"
        }
      ],
      "name": "log2ApproxTimes1M",
      "outputs": [
        {
          "internalType": "uint256",
          "name": "",
          "type": "uint256"
        }
      ],
      "stateMutability": "view",
      "type": "function"
    }
  ],
  "transactionHash": "0x9e60e8e7639d4a933d4bfc9d89832021abae597c39085764ed510277be51ffd3",
  "args": [],
  "solcInputHash": "6ddc668174709073b8c184708152eb70",
  "bytecode": "0x608060405234801561001057600080fd5b50600060208190527fada5013122d395ba3c54772283fb069b10426056ef8ca54750cb9bb552a59e7d819055620f42407fabbb5caa7dda850e60932de0934eb1f9d0f59695050f761dc64e443e5030a5695562182f427f101e368776582e57ab3d116ffe2517c0a585cd5b23174b01e275c2d8329c3d8355621e84807f52d75039926638d3c558b2bdefb945d5be8dae29dedd1c313212a4d472d9fde55562236e087f2b232c97452f0950c94e2539fdc7e69d21166113cf7a9bcb99b220a3fe5d720a55622771827f62103cf3131c85df57aad364d21cba02556d3092d6cb54c298c2e7726a7870bd55622ad63a7f870253054e3d98b71abec8fff9ebf8a15d167f15909091a800d4acaab9266d2b55622dc6c07f5b8b9143058ba3a137192c563ca6541845e62f0a2f9a667aac4db2fa3c334e3c5562305e857f324fdf7bfe7bd2828491073f0b7868a9a19ee3eff384c2805040be3e426447f5556232b0487f3e9abaca0aad9ede81f4474766c846d8539f70688e1c8f521bbe1597874e3dc4556234c9677f9115655cbcdb654012cf1b2f7e5dbf11c9ef14e152a19d5f8ea75a329092d5a6556236b3c27fd0a75bf7ea87fba36ff8a17b4519c45fb727609e6c9161b106680b25b3e2705f55623876d77f7ca5987043ac53676c6e30f77ff1a34e98a5fae86b27e5d0cf74ac1711b8a8db55623a187a7fe9bc119772df33ac6a685b572c53e6a4988bbdde79a460a23bed029791109f3955623b9d4a7f7536f03fc5db63ca945db399fd3b92bff9b5879a5c0d7d84d2973ef5c841ea0655623d09007f020abee21eef15c21bc31a406c2b8ac3afc5df94a4b02b38abb286f4334e6c5b55623e5ea67fa29f2962b8badecbf4d3036e28fcd7dcf22db126f130193790f7698ee4d3dd8455623fa0c57f1cb7ce0668e72b96f704af9e1445a9dc6f6ac599eec355bfcfe4d3befbb001be556240d1777f50a82f9cbcdfaca82fe46b4a494d325ee6dc33d1fa55b218ab142e6cc2c8a58b556241f2887f9998fe8c12a1a1395171fc2449145bb1f0c273bfc80ab4ea62eb7a9cb439450c556243057d7f52774d722ab93275a0199da6072cca5400bf7f03bf064dd4a2b1af238c418d495562440ba77fb44b86596a635358e7aa60b17d32860c3f1efe2d3e53fb82c0bb23213b9c4be355624506297fdc275f13e83bcad5305f77e8f2f06c8d9840ee8b7d606ee958f86f59784b2de3556245f6027f1da244b7f8b81d82e17fde46fbf307da20557945243b38ef4c87c9487b59901b556246dc107fb0bad370a213ac7dcb3dfe3423b8d60077054da2a57d974f5e9768ef98fd60b6556247b9177fed3d8ee28c5f40179e0b53bf87b486c0b1a6ccfb36f03b3c762c723793e066315562488dc77f15129b35860f89ea2ac5b4ba3d68417e9ec4bae78e7eab8959d5f8f3ad42ee795562495aba7ff548adfdedfd2f8b2416994318306c690dadb026395430e32e9a141187933c8655624a207c7fb84e4298f3a6292774b798b43a202ce92291460f19fe80ed2d2d7e8e4674dcba55624adf8a7f24d30d6da666a4009a2a398534c9f4ad83932433c3c6d78b8e8d1c3efb30a9bc55624b98547fcdbf706faff1444e72b0106ae4486b0256043747c99858ded580d001655540f555624c4b407f569e75fc77c1a856f6daaf9e69d8a9566ca34aa47f9133711ce065a571af0cfd55624cf8aa7f20b8703968a1421b7417fbc8615cbe909dc21c5d6ab0d6fd4579bae332adc93755624da0e67f660960054c44c4d83c420af65c54e6f3437517cffaa9996495231fee01bdba4155624e44437f2a400e8b310fbd326e4c5c4aed5c8212a6b2bd98d80dbef0077b1b2ee20907d455624ee3057ffaaf1897615a4d5824a81780f33dd422a304cae5e7b14f0f9215d1a3deeea9e255624f7d6d7fd554518f31b5833712aff068198f0745641f5708162a7286bfaa31c5f461f1ba55625013b77fd54e89dee95b843939c00dce8c49063df67efe61a3c8ec818ccaee72d7b7f5a3556250a61a7fd6866844f1a8c30f9968e80fa46697288da4b41c675b67a51469639e5afc243555625134c87f5bbfe49fc46bd3c0efd63509af9eb2a12636d52d97f4d1cf52bf53227ef389c2556251bff07f49bfe3c65dd9f3794050d39474bec15417a1630abed1727c133877e89823c14f55625247bd7f64d962e4eec2a0d2e4053fc69d3b480f61c5923c09e4bad52cdeec343ff95073556252cc587fe7cae067b01565dd4b0755dfbf1d7c22c5312c3cf1fbed6e1243374844e8ea875562534de77f2bfb33747d039531bb279f93c386332ae05e0c10b395017fd2d93fe9fc4c6e23556253cc8d7f1c0457050ca41a86014d854f2d228a8ef35463cc39136c54a5e4f4078eeef5c155625448697f775c7d9143a499372f77b03579dcbb57f9394ad88b4be4180d4b72ba058cd69d556254c19c7f706825d676d3ce2a83ed578770284ddbf9eabdba0c4e14bba165c41389b73c5655625538427f28c3dd0e618e8bddf8cf30cd1a2e788f719d9c1f097596a24acbe0c7cb1e05c6556255ac757fa20a1f31e7e0c47a407717c0b73e822e9ce414e0fc1925c4df69c43f77ac765e5562561e507f9e91c95f108ead30341468db9696e39ed81de6a68bc8c6702bcb66393fce6e755562568de97f3884095ca26754c19839d1d65ed3564b4558896672ae6763c55fd1245d56ef7b556256fb577f34c816dab9c312a23fa45b66dbf9c10a2294a4455b7a50973d5e33fd47c39f4a55625766b07f0de8d66b2bd125dbab6c2314a8cd08ca7e2ac381b265aefa7ce27c5d9d75d933556257d0077fe6bccefd92fc2fa71227cbd31f39b085fabc5c0f7b7d07eb4a639c53ad5822f4556258376f7f4e349fca397a2203dbb3e457a82dc8ae1a5129362fdfcdae82619128ca92c0335562589cfa7f463154dffd5ddce82baa6ddaa825ffda4b4cc1dd8abd5af72f421c487b1335db55625900ba7fa68e398350be805d9560b1ec3307f811e9f6dda9bf8906288e5b598ec4ea192855625962bc7ffb34942ebc6f77e2a4779d58cebad9f418cb83cee5ae5135ce8e901b843c3496556259c3137f13878d49584e1449cb7c4d09e4633874e2c2915817f025fd56e9ac92bf634fe955625a21ca7fefaa5c7cc1adb414582a0dc440bee1ceb90207c7493c33cc335d47995e04410455625a7ef17fa81c3a5a553fab8c561679d85bb19e6a7eb0218b4839501a326c84cd4158b2d555625ada947f5ee7521a899a1bbd499ad817e1d673d594eb84ef5130440e43abd9ab1110486755625b34bf7f5c51f339e19e5238fd1fe3ad8516ae4df2bc1dce47a36fc5eb7f2877185d9eda55625b8d807f55a5bd2f1561a275dba97a3e23bf64b586a74cc4c4a2dc9f1c147ffdbbce112255625be4df7f3511b8eb393fd3b4ce4300791eee67b9f8a8531a570ff8912fc2b075959b0a2b55625c3aea7f2852b577eb917e124a16ffd8dc1efc55441aabd0717d5d636c873192a2f5824255625c8fa97f12f11d7a24fd4754d73b8fe1da0aca1fd3f1aa67e379acf825ea7817ded4a9be55625ce3267ff02924c33170f8ea85c75f37820cb709ac1ad023d409a00f0c3417335c3c2e5555625d356c7f8279194eb4b29c3028809787a815b5fcda9c911d6a8c1dab7e4ef293adf594b955625d86837f5fdb3bae7605635c99696d6886565eb14e12e4f81036089e8c08d464cdbe162755625dd6737f8908f5b1fa9c621f1c60f18c20e096502b8355321351f8d252a3551a3ba770df55625e25457fb4c4e2b6245313ebc2e84fd30cd4004aef84bd2a40151a93462f49c26e7506fb55625e73007f901ca3aca1b292c5c6a1550922e912fc3d21ed9dbcca3b2c46ab298fe770ee3b55625ebfad7faf2119b7c214ae78969ba62732e44d4a27b5c140e313a2cf0e18ed8e715c930955625f0b527f1f7174d3d8fdbe34b9aeded13c683edd11ea2390304ae93f2846b80eb92f3a3d55625f55f77ffec8fc345c07e1cb780845776a87475444a9ad5d006d1c0ba391a7299932fc3d55625f9fa27f9aeb295f3776ed2ed0cfac59c56dc7082ddda9b6fb55b3bce5672dd474eab0b055625fe85a7fbc1b1bcc71127fe45b676f9e483b926bd80482bed59dc990c5f13506110621ee55626030247f3f5212df9218f2b491a27f248ede579de03abbd94c4b33b8082cf0a227f4d8aa55626077087fce88c2024293c40081d827eb1442391a6e97fee8350fa59e1b7b8acfc8713900556260bd0a7fecf130467c3ca6d7c047f2161ca24c032bbc3d4b2a77446d9e0dac48aff2d09a55626102307fdbda1a136d50200849f8280b0c8c10720f88f3c1e0a6bdc54afc86d4ba2fcea3556261467f7f66f4851715b29678b0cca267bfde816a0838d4b72ddc17590aadfd30fc1f1d1355626189fd7f252b89bf90b319923f6559e774e32f611a27a81d0f532f5b807532a98a9da5df556261ccae7f26fa9be578b8b817d2c38c2bf2937eb5c8c883596c0de630888dc7b5a78fc7415562620e987f2fb528e6d471a01e3882e5387da3916bb9170371273d83f39d41ca7d6cf645dd5562624fbf7f38a644c74784d8c3ea245c3a1a2e10a4b1f65348c8ba4914eba002c10f9841cd55626290277f0630a341adb3ad67be2247788989a78092dfe1bdc3c736fed4044992d522638e556262cfd57faa9c48affdb922d59f20f1d42ac3e33fda279577a858e81575cb3e6bb2721cd35562630ecd7f72c829b6ff1176aa52fa1b14a601e30df23c347f3efcd72b6af910346dd8917d5562634d127f850851725d682f1253eaf508bb01a9accd1b7e85e9304c89ea15b305a8e841ad5562638aa97fd535fbefa7125c4a47f58bb6d6723c954e19556f2eca67da8b68ae7ef937dd77556263c7967f81562e4f3949fbdc22d278b4fedbaa5dce7e2385b03e958e7f52fd6ed7b68fff55626403dc7fff91e8593b941cc006a9af6dd29cf00c1d93d745cd30e13d28db6ad34229c7275562643f7f7fd97cbaa9a69d46aa3f57910da3a2981ddacb51cc9a918902a0ba29b879ca92135562647a827f493f012b4fee264d1b91d564c0d88212eeb0a4de487e2b0da91b21ef0a242cef556264b4e87fd376c0dc9e6a0a44867c5e1fefd6ecef82bbd522b0a13a792fef5100445ee323556264eeb57f82dba07ff31d1c675816f9969faac321de6f27d903da0f4c49327d1f3945e7fc55626527ec7f01c4951e729acbc05299798279cd10e5be143681a3d883a027edec470c12b1a955626560907f9db7038e59677010ca8f72fa448bad1b4f3c53346b666689163ccac31db4677255626598a37f4a7203f705e51df4a56139a9b86b4a0970bed7ab7a3446eaffe2289989c1645c556265d0297f422cccb7cea5c0e46f340bb7b21b81debac329f72e31669c20ff0f3a05cc2b5b55626607247f682158d08466d11c566d5712d4396197fdd67e65be71d83c97ef719ec468867b5562663d977faa071f48f62aaaa1f6320aaa7bd2ad2d552d05160892c14d699d38c9920d5f9955626673857f366a7b92acda364086cc991f618bf9f10b629ec0f7ae94543f96b691b69ec992556266a8f07ff3261457f4fd0b7c00a1511877ab27b74183ac470be8db3a7ecdc64335f6f979556266ddda7f2dc7a963308417ad45132da282495eb244f38a7db03940a4d808be607669c62255626712477f3c1fcba39712202dbd455253568bf32dd0a3bedb5c3ff0de4b22d4e45e50dc9255626746387faa31d2a33b224bee3888830916f2f56f41bb5a40ed8a3273c6e72e6992d6223a55626779af7f6ce4024642c4779dc119f2ece9b9cc34663ef4cfd6a7942d809a7de1813aca7d556267acaf7fd4a194d790fcc0f5af64ad0623a90db8616ce232c92824f4b3df27138fd65b44556267df3a7faa8101e6bcc25d8e6c1c04375f2c0e9336e0b38a69ca3c5c1594014f9e6556ff55626811527fa58e64716096e1e13583668e642bb90b4cbafc88ab1bb05b08a75fc65d12c99055626842fa7fa4216fadf8963db747830f6f7dffe386c78451377c8e7bc59e38f7340fc2e7bb55626874327f915da9abdae48b56e38f1c8581eb1f6060cdb1aac1fd60a1040a8eab69db2431556268a4fc7f23aec33011cec136936404546e8d71610b1ea813717b1b6bf3b77b689326a34b556268d55c7f7786f24ec8e68c1f537753be90a834aeb9797aa2ade11dc9f54973d24a879c0e55626905537f93c4565fc7413e23aa19da3dcfb22c55a18536d0bf6400e7e5a27ac61b7d8b4c55626934e17f0268ef3855c7ede1fa90865cb7be57f1e39b20db2aafdd81fc63c1af98b87bcb556269640a7f9fdc47a4dc677ac109a2707b2ba7a0ffa79dac07a74cd31f7e4a5082892891be55626992cf7fc7713b32d1b096c489857db2ad0b9de70d32806514c7ccfa228c3b89481aa0d7556269c1317f68ff5aa0d3d395b63c7d13437473fd851e32c1d1471eea4ef3a8cfd334da6c8c556269ef327fde31a920dbdd1f015b2a842f0275dc8dec6a82ff94d9b796a36f23c64a3c833255626a1cd47fd4f97b7188f5e51283de9c7987c054bc565b916a9584807585b410167243cee655626a4a187f6515432d9c8ed80ddc22d864380ff3c9b81ae737e57d049dd92abee2d8e1a7da55626a76ff7fa8988ce170d37bbb1b7200883263a98c2ac48ac55fe73abbd3479758330ceab855626aa38c7fd999b6a905cb253021254361eb51ac2428d229184f9dd8342bc05b348b9500fb5560809052626acfc07ff9cab2ea5fc2898ca670240c87501f552f715e74f50142c35920c55eb3c0ea1a55610224806113296000396000f3fe608060405234801561001057600080fd5b506004361061002b5760003560e01c8063e3581b6814610030575b600080fd5b61004d6004803603602081101561004657600080fd5b503561005f565b60408051918252519081900360200190f35b60008082116100ad576040805162461bcd60e51b81526020600482015260156024820152744e756d6265722063616e6e6f74206265207a65726f60581b604482015290519081900360640190fd5b600082600114156100c257600091505061010c565b5b6000838152602081905260409020546100e257600192831c92016100c3565b6000838152602081905260409020546101089061010283620f4240610111565b90610173565b9150505b919050565b6000826101205750600061016d565b8282028284828161012d57fe5b041461016a5760405162461bcd60e51b81526004018080602001828103825260218152602001806101ce6021913960400191505060405180910390fd5b90505b92915050565b60008282018381101561016a576040805162461bcd60e51b815260206004820152601b60248201527f536166654d6174683a206164646974696f6e206f766572666c6f770000000000604482015290519081900360640190fdfe536166654d6174683a206d756c7469706c69636174696f6e206f766572666c6f77a264697066735822122026442be3fe887ec86f7fc5102f303342155cd300266db13a85f5389bb30e24dc64736f6c63430007040033",
  "devdoc": {
    "kind": "dev",
    "methods": {
      "log2ApproxTimes1M(uint256)": {
        "params": {
          "_num": "number to take log2 * 1M of"
        }
      }
    },
    "version": 1
  },
  "userdoc": {
    "kind": "user",
    "methods": {
      "log2ApproxTimes1M(uint256)": {
        "notice": "Approximates log2 * 1M"
      }
    },
    "version": 1
  },
  "storageLayout": {
    "storage": [
      {
        "astId": 205,
        "contract": "contracts/CartesiMath.sol:CartesiMath",
        "label": "log2tableTimes1M",
        "offset": 0,
        "slot": "0",
        "type": "t_mapping(t_uint256,t_uint256)"
      }
    ],
    "types": {
      "t_mapping(t_uint256,t_uint256)": {
        "encoding": "mapping",
        "key": "t_uint256",
        "label": "mapping(uint256 => uint256)",
        "numberOfBytes": "32",
        "value": "t_uint256"
      },
      "t_uint256": {
        "encoding": "inplace",
        "label": "uint256",
        "numberOfBytes": "32"
      }
    }
  }
}